:1000000015C2000044C2000042C2000040C200000D
:100010003EC200003CC200003AC2000038C20000EC
:1000200036C2000034C2000032C2000030C20000FC
:100030002EC200002CC200002AC2000028C200000C
:1000400026C2000024C2000022C2000020C200001C
:100050001EC200001CC200001AC200000C942641FF
:1000600016C2000014C2000012C2000010C200003C
:100070000EC200000CC200000AC2000008C200004C
:1000800006C2000004C2000002C2000000C200005C
:10009000FEC10000FCC10000FAC100000C94A045A4
:1000A000F6C10000F4C10000F2C10000F0C1000080
:1000B000EEC10000ECC10000EAC10000E8C1000090
:1000C000E6C10000E4C10000E2C10000E0C10000A0
:1000D000DEC10000DCC10000DAC10000D8C10000B0
:1000E000D6C10000AD04D304F9042D0556059A05C8
:1000F000C3050606350661068D06BF06E8062A0713
:1001000055079807C707F3071F0854087D08C1085B
:10011000EC082F095E098A09B609EF09180A5A0A7C
:10012000850AC80AF80A240B8940500B790BBE0BCC
:10013000E90B2C0C5B0C870C8940B30CDC0C220DFA
:100140004D0D910DC00DEC0D8940180E410E870E1E
:10015000B20EF60E894089408940250F4E0F920F4E
:10016000BD0F28105910D61015119511D711461230
:100170008812FB123D13BA13FC137C14BE142D1508
:100180006F15E2152416A116E3166317A5171418A8
:100190005618C9180B198A19CC194E1A901AFF1A39
:1001A000411BB41BF61B731CB51C351D771DE61DCA
:1001B000281E9B1EDD1E5A1F9C1F1C205E20CD206A
:1001C0000F218221C4214122832203234523B4230A
:1001D000F6236924AB242A256C25EE2530269F269C
:1001E000E12654279627C527F4272328522881285B
:1001F000B028DF28382965299229BF29EC29192A36
:10020000462A732ACA2AF92A282B572B862BB52B64
:10021000E42B132C6C2C992CC62CF32C202D4D2D5B
:100220007A2DA72DFE2D292E592E892EB92EE92E95
:10023000192F492FA22FCD2FFD2F2D305D308D305E
:10024000BD30ED3046317131A131D1310132313221
:1002500061329132EA321733443371339E33CB33F8
:10026000F83325347C34A134CA34F3341C35453595
:100270006E359735EA351336383661368A36B336F9
:10028000DC36053758378137AA37CF37F83721386A
:100290004A387338C438EB38123939395C39833904
:1002A000AA39D139223A493A703A973ABE3AE13AF4
:1002B000083B2F3B803BA73BCE3BF53B1C3C433CE4
:1002C000663C8D3CDE3C053D2C3D533D7A3DA13DD9
:1002D000C83DEB3D3C3E8B3EDA3E293F783FC73F71
:1002E000164065403D4240422F42334239427742F8
:1002F000444248424E42524256425C42604264424C
:1003000077426A426E42724200000A0B02090C0DEB
:100310000E080703040100000000000000000000B8
:1003200000000000000000000000000000000000CD
:10033000000000001211100000000000000000008A
:1003400000000000000000000000000000000102AA
:1003500010202008081020401020408002010201D7
:10036000080402010102040810204080804020108F
:1003700008040201800402018040201008040201E8
:100380000804020101020408102040800102040850
:100390001020408005050505070508080808020229
:1003A00002020A0A0808040404040101010101010F
:1003B00001010303030303030303040707070C0CF2
:1003C0000C0C0C0C0C0C02020202060606060606B9
:1003D00006060B0B0B0B0B0B0B0B00002000230076
:1003E000260029002C002F0032000001000003012C
:1003F0000601090100002200250028002B002E0024
:100400003100340002010000050108010B01000069
:100410002100240027002A002D00300033000101B4
:100420000000040107010A01D303054511241FBE82
:10043000CFEFD1E2DEBFCDBF00E00CBF12E0A0E005
:10044000B2E0E4EBFDE800E00BBF02C007900D92C4
:10045000A833B107D9F72BE1A8E3B2E001C01D92A0
:10046000AC33B207E1F714E0CCE2D4E000E006C020
:1004700022970109FE010BBF0E94D446C832D10762
:1004800080E00807A9F70E9419410C94D846B8CD1E
:10049000CF93C42F843140F4643030F4462F682F5A
:1004A00088E392E00E9488436C2F88E392E0CF912A
:1004B0000C941141FF920F931F93CF93DF93D62F8C
:1004C000142F9FEF920FC1E001C0CC0F9A95EAF76D
:1004D000022F080F801771F09C2F912311F041E03B
:1004E00001C042E0FF24F394F80E6D2FD1DFC695D2
:1004F0008F2DF0CFDF91CF911F910F91FF90089535
:10050000823541F0833521F0893451F48CE003C009
:100510008BE001C08AE00E94E64221E0892B09F0CD
:1005200020E0822F0895EF92FF920F931F93CF93B5
:10053000DF931092440208E112E0C0E0D0E080E8CE
:10054000E82EF12CF80181918F010E94E642892B5F
:1005500061F420914402C7010C2E02C09595879545
:100560000A94E2F7282B209344022196C830D10543
:1005700049F780914402DF91CF911F910F91FF9035
:10058000EF900895DF92EF92FF920F931F93CF9316
:10059000DF93EC01162FF42ED22E4D2F4695469563
:1005A000469523E061E082E085DF23E04D2F61E0A6
:1005B00086E080DFAE0196E0569547959A95E1F783
:1005C00022E061E08AE076DFAE0123E056954795B0
:1005D0002A95E1F723E061E08DE06CDF23E04C2F0A
:1005E00061E081E167DFC12FD0E0AE0136E05595D3
:1005F00047953A95E1F722E062E08AE05BDFAE01E1
:1006000063E0559547956A95E1F723E062E08DE058
:1006100051DF23E0412F62E081E14CDF21E04E2DEC
:1006200062E080E047DF21E04D2D62E082E042DFC2
:1006300022E04F2D62E083E03DDF21E0402F62E0C9
:1006400086E038DF409144024295469546954370D6
:10065000406360E080E01CDF4091440250E073E0C2
:10066000559547957A95E1F74770406360E081E0E2
:100670000FDF409144024770406360E082E0DF9109
:10068000CF911F910F91FF90EF90DF9001CFCF930B
:10069000DF93C8E1D2E062E089910E94784282E073
:1006A000C032D807C1F762E08BE00E94784262E076
:1006B0008CE00E94784262E08AE00E94784288E3FF
:1006C00092E00E94484488E392E00E94364348E06A
:1006D00052E061E088E392E00E94BB4340E052E0D8
:1006E00062E088E392E00E94BB4340E260E080E089
:1006F000CFDECFE460E288E392E00E941141C15076
:10070000C9F740E560E084E0C3DE61E688E392E09B
:100710000E94114167E688E392E00E94114165E67C
:1007200088E392E00E94114142E563E080E0B0DEA0
:1007300049E463E082E0ACDE63E588E392E00E9496
:10074000114164E788E392E00E94114148E463E0CC
:1007500086E09EDE41E460E08DE09ADE64E688E3B8
:1007600092E00E94114164E688E392E00E94114108
:1007700062E788E392E00E94114144E463E08DE087
:1007800087DE61E688E392E00E94114164E788E336
:1007900092E00E94114161E688E392E0DF91CF91FF
:1007A0000C941141089524E044E16FE388E392E062
:1007B0000C940F4357C083C090E021E0882321F0C0
:1007C00080FD92278695FACF81E0892708952091B0
:1007D000721A90E0820F911D20916A1A820F911D6A
:1007E00080934B1A90934C1A90936A1A0895209113
:1007F000721A30E0281B310980916A1A281B3109CE
:1008000020934B1A30934C1A30936A1A822F089512
:100810008091641A81111EC0E091661AF0E0EE0F1B
:10082000FF1FEF5AF54E808191819093501A80936B
:100830004F1A9C012F5F3F4F3F73318320838115F7
:1008400028E1920728F4FC01E85BFD4F808107C096
:100850008FEF05C01092501A10924F1A64DE8093E9
:10086000681A089510926C1A10926D1A10926E1AEE
:1008700010926F1A1092701A1092711A1092721AC6
:100880001092621A1092651A10926B1A1092661AE0
:1008900010924E1A10924D1A10926A1A1092691AFA
:1008A0001092671A1092641A1092631AE1E5FAE145
:1008B000119211928AE1E136F807D1F7E8CEEF9272
:1008C0000F931F93CF93DF938091671A882369F06A
:1008D0008091651A811109C01092671A1092691AE5
:1008E00081E08093641A8093631AC091691A8091A1
:1008F000631A811104C0CC2381F00C94924083E5EB
:10090000FFDD90914602891711F40C949240809378
:1009100046028111F0CF0C9492408091651A8111AA
:1009200014C076DF2091681A2093611A81E08093C9
:10093000651A1092621A80914F1A9091501A9093F2
:100940004A1A8093491A2093481A8091611A90E0BC
:10095000FC01EE58FF4F0C94CE468091651A813011
:1009600011F00C948B408093691A1092621AE091F6
:10097000661AF0E0EE0FFF1FEF5AF54E808191816D
:1009800090934A1A8093491A1092481A80914D1AEE
:1009900090914E1A049690934E1A80934D1A10928D
:1009A000651A0C948B402091651A213011F00C943B
:1009B0008B402093691A1092621AE091661AF0E057
:1009C000EE0FFF1FEF5AF54E8081918190934A1AE6
:1009D0008093491A2093481A80914D1A90914E1A8B
:1009E000049690934E1A80934D1A1092651A0C94A7
:1009F0008B408091651A813011F00C948B402091CE
:100A0000721A30E0C901880F892F881F990B8093D3
:100A10006A1A220F331F282B2093721A1092621A1F
:100A2000E091661AF0E0EE0FFF1FEF5AF54E80815D
:100A3000918190934A1A8093491A82E08093481AD0
:100A400080914D1A90914E1A059690934E1A80936C
:100A50004D1A1092651A0C948B408091651A813062
:100A600011F00C948B40E091661AE150E770E0932E
:100A7000661A1092621AF0E0EE0FFF1FEF5AF54E61
:100A80008081918190934A1A8093491A83E08093E0
:100A9000481A80914D1A90914E1A059690934E1ACD
:100AA00080934D1A1092651A0C948B408091651AB0
:100AB000823039F5ADDE10926A1AC091681A8C2F17
:100AC00086DE8093721A80936B1A1092621AE091FC
:100AD000661AF0E0EE0FFF1FEF5AF54E20813181CC
:100AE00030934A1A2093491AC093481A80914D1A9C
:100AF00090914E1A089690934E1A80934D1A109228
:100B0000651A8091651A813011F00C948B4022E0B7
:100B10002093621A80914F1A9091501A90934A1A1A
:100B20008093491A8091611A8093481A2093651A1C
:100B30000C948B408091651A813011F00C948B409D
:100B4000E091661AEF5FE770E093661AF0E0EE0F4F
:100B5000FF1FEF5AF54E118210821092621A109206
:100B60004A1A1092491A85E08093481A80914D1ACA
:100B700090914E1A059690934E1A80934D1A1092AA
:100B8000651A0C948B408091651A823009F540DE1D
:100B90002091681A2093721A1092621AE091661AD4
:100BA000F0E0EE0FFF1FEF5AF54E80819181909398
:100BB0004A1A8093491A2093481A80914D1A9091AD
:100BC0004E1A089690934E1A80934D1A1092651AF9
:100BD0008091651A813011F00C948B4022E02093B3
:100BE000621AE091661AF0E0EE0FFF1FEF5AF54E21
:100BF0008081918190934A1A8093491A8091611A59
:100C00008093481A2093651A0C948B408091651A42
:100C1000813011F00C948B4080916A1A811106C0CA
:100C20008091661A815087708093661A1092621ABA
:100C3000E091661AF0E0EE0FFF1FEF5AF54E80814B
:100C4000918190934A1A8093491A87E08093481AB9
:100C500080914D1A90914E1A049690934E1A80935B
:100C60004D1A1092651A0C948B408091651A813050
:100C700011F00C948B408091711A8F5F8093711AE0
:100C800080936B1A1092621AE091661AF0E0EE0FF0
:100C9000FF1FEF5AF54E8081918190934A1A8093FD
:100CA000491A88E08093481A80914D1A90914E1A03
:100CB000059690934E1A80934D1A1092651A0C94D3
:100CC0008B408091651A813011F00C948B4080919B
:100CD000711A81508093711A80936B1A1092621A64
:100CE000E091661AF0E0EE0FFF1FEF5AF54E80819B
:100CF000918190934A1A8093491A89E08093481A07
:100D000080914D1A90914E1A059690934E1A8093A9
:100D10004D1A1092651A0C948B408091651A81309F
:100D200011F00C948B408091721A982F91709093CF
:100D30006A1A9795992797958695892B8093721AA9
:100D40001092621AE091661AF0E0EE0FFF1FEF5A60
:100D5000F54E8081918190934A1A8093491A8AE0D6
:100D60008093481A80914D1A90914E1A059690934F
:100D70004E1A80934D1A1092651A0C948B408091F4
:100D8000651A813011F00C948B40E091661AE150A5
:100D9000E770E093661A1092621AF0E0EE0FFF1F00
:100DA000EF5AF54E8081918190934A1A8093491AA7
:100DB0008BE08093481A80914D1A90914E1A0596B7
:100DC00090934E1A80934D1A1092651A0C948B4092
:100DD0008091651A823029F51BDDC091681A8C2F2D
:100DE000F6DC8093721A80936B1A1092621AE0916B
:100DF000661AF0E0EE0FFF1FEF5AF54E20813181A9
:100E000030934A1A2093491AC093481A80914D1A78
:100E100090914E1A089690934E1A80934D1A109204
:100E2000651A8091651A813011F00C948B4022E094
:100E30002093621A80914F1A9091501A90934A1AF7
:100E40008093491A8091611A8093481A2093651AF9
:100E50000C948B408091651A813011F00C948B407A
:100E6000E091661AEF5FE770E093661AF0E0EE0F2C
:100E7000FF1FEF5AF54E88E090E091838083109237
:100E8000621A90934A1A8093491A8DE08093481A07
:100E900080914D1A90914E1A059690934E1A809318
:100EA0004D1A1092651A0C948B408091651A82300D
:100EB00009F5AEDC2091681A2093711A1092621A1B
:100EC000E091661AF0E0EE0FFF1FEF5AF54E8081B9
:100ED000918190934A1A8093491A2093481A8091DD
:100EE0004D1A90914E1A089690934E1A80934D1A6F
:100EF0001092651A8091651A813011F00C948B4024
:100F000022E02093621AE091661AF0E0EE0FFF1FD4
:100F1000EF5AF54E8081918190934A1A8093491A35
:100F20008091611A8093481A2093651A0C948B4023
:100F30008091651A813011F00C948B4080916B1A6E
:100F4000882331F08091661A815087708093661AE9
:100F50001092621AE091661AF0E0EE0FFF1FEF5A4E
:100F6000F54E8081918190934A1A8093491A8FE0BF
:100F70008093481A80914D1A90914E1A049690933E
:100F80004E1A80934D1A1092651A0C948B408091E2
:100F9000651A813011F00C948B408091701A8F5F2C
:100FA0008093701A80936B1A1092621AE091661AFD
:100FB000F0E0EE0FFF1FEF5AF54E80819181909384
:100FC0004A1A8093491A80E18093481A80914D1AF9
:100FD00090914E1A059690934E1A80934D1A109246
:100FE000651A0C948B408091651A813011F00C9435
:100FF0008B408091701A81508093701A80936B1A85
:101000001092621AE091661AF0E0EE0FFF1FEF5A9D
:10101000F54E8081918190934A1A8093491A81E11B
:101020008093481A80914D1A90914E1A059690938C
:101030004E1A80934D1A1092651A0C948B40809131
:10104000651A813011F00C948B408091721A90E0F7
:10105000880F991F20916A1A822B80934B1A9093C4
:101060004C1A8093721A90936A1A1092621AE09145
:10107000661AF0E0EE0FFF1FEF5AF54E8081918166
:1010800090934A1A8093491A82E18093481A80917A
:101090004D1A90914E1A059690934E1A80934D1AC0
:1010A0001092651A0C948B408091651A813011F072
:1010B0000C948B40E091661AE150E770E093661A59
:1010C0001092621AF0E0EE0FFF1FEF5AF54E80818A
:1010D000918190934A1A8093491A83E18093481A28
:1010E00080914D1A90914E1A059690934E1A8093C6
:1010F0004D1A1092651A0C948B408091651A8230BB
:1011000039F586DB10926A1AC091681A8C2F6FDB52
:101110008093721A80936B1A1092621AE091661A89
:10112000F0E0EE0FFF1FEF5AF54E20813181309332
:101130004A1A2093491AC093481A80914D1A9091E7
:101140004E1A089690934E1A80934D1A1092651A73
:101150008091651A813011F00C948B4022E020932D
:10116000621A80914F1A9091501A90934A1A809364
:10117000491A8091611A8093481A2093651A0C9439
:101180008B408091651A813011F00C948B40E09176
:10119000661AEF5FE770E093661AF0E0EE0FFF1F4C
:1011A000EF5AF54E80E190E0918380831092621AAD
:1011B00090934A1A8093491A85E18093481A809146
:1011C0004D1A90914E1A059690934E1A80934D1A8F
:1011D0001092651A0C948B408091651A823009F543
:1011E00017DB2091681A2093701A1092621AE0910E
:1011F000661AF0E0EE0FFF1FEF5AF54E80819181E5
:1012000090934A1A8093491A2093481A80914D1A54
:1012100090914E1A089690934E1A80934D1A109200
:10122000651A8091651A813011F00C948B4022E090
:101230002093621AE091661AF0E0EE0FFF1FEF5A5A
:10124000F54E8081918190934A1A8093491A80913A
:10125000611A8093481A2093651A0C948B408091F0
:10126000651A813011F00C948B4080916B1A87FDC8
:1012700006C08091661A815087708093661A10921A
:10128000621AE091661AF0E0EE0FFF1FEF5AF54E7A
:101290008081918190934A1A8093491A87E18093C3
:1012A000481A80914D1A90914E1A049690934E1AB6
:1012B00080934D1A1092651A0C948B408091651A98
:1012C000813011F00C948B4080916F1A8F5F809366
:1012D0006F1A80936B1A1092621AE091661AF0E00E
:1012E000EE0FFF1FEF5AF54E8081918190934A1ABD
:1012F0008093491A88E18093481A80914D1A909101
:101300004E1A059690934E1A80934D1A1092651AB4
:101310000C948B408091651A813011F00C948B40B5
:1013200080916F1A815080936F1A80936B1A10927C
:10133000621AE091661AF0E0EE0FFF1FEF5AF54EC9
:101340008081918190934A1A8093491A89E1809310
:10135000481A80914D1A90914E1A059690934E1A04
:1013600080934D1A1092651A0C948B408091651AE7
:10137000813011F00C948B4080916A1A90E0982F84
:1013800088272091721A822B90934C1A80934B1AC3
:101390009C01369527952093721A817080936A1A62
:1013A0001092621AE091661AF0E0EE0FFF1FEF5AFA
:1013B000F54E8081918190934A1A8093491A8AE16F
:1013C0008093481A80914D1A90914E1A05969093E9
:1013D0004E1A80934D1A1092651A0C948B4080918E
:1013E000651A813011F00C948B40E091661AE1503F
:1013F000E770E093661A1092621AF0E0EE0FFF1F9A
:10140000EF5AF54E8081918190934A1A8093491A40
:101410008BE18093481A80914D1A90914E1A05964F
:1014200090934E1A80934D1A1092651A0C948B402B
:101430008091651A823029F5EBD9C091681A8C2FFA
:10144000D6D98093721A80936B1A1092621AE09127
:10145000661AF0E0EE0FFF1FEF5AF54E2081318142
:1014600030934A1A2093491AC093481A80914D1A12
:1014700090914E1A089690934E1A80934D1A10929E
:10148000651A8091651A813011F00C948B4022E02E
:101490002093621A80914F1A9091501A90934A1A91
:1014A0008093491A8091611A8093481A2093651A93
:1014B0000C948B408091651A813011F00C948B4014
:1014C000E091661AEF5FE770E093661AF0E0EE0FC6
:1014D000FF1FEF5AF54E88E190E0918380831092D0
:1014E000621A90934A1A8093491A8DE18093481AA0
:1014F00080914D1A90914E1A059690934E1A8093B2
:101500004D1A1092651A0C948B408091651A8230A6
:1015100009F57ED92091681A20936F1A1092621AE9
:10152000E091661AF0E0EE0FFF1FEF5AF54E808152
:10153000918190934A1A8093491A2093481A809176
:101540004D1A90914E1A089690934E1A80934D1A08
:101550001092651A8091651A813011F00C948B40BD
:1015600022E02093621AE091661AF0E0EE0FFF1F6E
:10157000EF5AF54E8081918190934A1A8093491ACF
:101580008091611A8093481A2093651A0C948B40BD
:101590008091651A813011F00C948B4080916B1A08
:1015A0000BD9811106C08091661A81508770809393
:1015B000661A1092621AE091661AF0E0EE0FFF1FB1
:1015C000EF5AF54E8081918190934A1A8093491A7F
:1015D0008FE18093481A80914D1A90914E1A04968B
:1015E00090934E1A80934D1A1092651A0C948B406A
:1015F0008091651A813011F00C948B4080916E1AA5
:101600008F5F80936E1A80936B1A1092621AE0912A
:10161000661AF0E0EE0FFF1FEF5AF54E80819181C0
:1016200090934A1A8093491A80E28093481A8091D5
:101630004D1A90914E1A059690934E1A80934D1A1A
:101640001092651A0C948B408091651A813011F0CC
:101650000C948B4080916E1A815080936E1A809307
:101660006B1A1092621AE091661AF0E0EE0FFF1FFB
:10167000EF5AF54E8081918190934A1A8093491ACE
:1016800081E28093481A80914D1A90914E1A0596E6
:1016900090934E1A80934D1A1092651A0C948B40B9
:1016A0008091651A813011F00C948B40E091661A9C
:1016B000E150E770E093661A1092621AF0E0EE0FC4
:1016C000FF1FEF5AF54E8081918190934A1A8093C3
:1016D000491A83E28093481A80914D1A90914E1ACC
:1016E000059690934E1A80934D1A1092651A0C9499
:1016F0008B408091651A823041F58AD810926A1A1F
:101700002091681A8091721A82238093721A8093B2
:101710006B1A1092621AE091661AF0E0EE0FFF1F4A
:10172000EF5AF54E8081918190934A1A8093491A1D
:101730002093481A80914D1A90914E1A08969093D2
:101740004E1A80934D1A1092651A8091651A813055
:1017500011F00C948B4022E02093621A80914F1A72
:101760009091501A90934A1A8093491A8091611A65
:101770008093481A2093651A0C948B408091651AC7
:10178000813011F00C948B40E091661AEF5FE770A6
:10179000E093661AF0E0EE0FFF1FEF5AF54E80E27D
:1017A00090E0918380831092621A90934A1A8093FA
:1017B000491A85E28093481A80914D1A90914E1AE9
:1017C000059690934E1A80934D1A1092651A0C94B8
:1017D0008B408091651A823009F51AD82091681AD9
:1017E00020936E1A1092621AE091661AF0E0EE0FE2
:1017F000FF1FEF5AF54E8081918190934A1A809392
:10180000491A2093481A80914D1A90914E1A0896C1
:1018100090934E1A80934D1A1092651A8091651A12
:10182000813011F00C948B4022E02093621AE091F9
:10183000661AF0E0EE0FFF1FEF5AF54E808191819E
:1018400090934A1A8093491A8091611A8093481A9A
:101850002093651A0C948B408091651A813011F0A9
:101860000C948B4080916A1A882331F08091661A1B
:10187000815087708093661A1092621AE091661AFE
:10188000F0E0EE0FFF1FEF5AF54E808191819093AB
:101890004A1A8093491A87E28093481A80914D1A18
:1018A00090914E1A049690934E1A80934D1A10926E
:1018B000651A0C948B408091651A813011F00C945C
:1018C0008B4080916D1A8F5F80936D1A80936B1A95
:1018D0001092621AE091661AF0E0EE0FFF1FEF5AC5
:1018E000F54E8081918190934A1A8093491A88E23B
:1018F0008093481A80914D1A90914E1A05969093B4
:101900004E1A80934D1A1092651A0C948B40809158
:10191000651A813011F00C948B4080916D1A8150C2
:1019200080936D1A80936B1A1092621AE091661A76
:10193000F0E0EE0FFF1FEF5AF54E808191819093FA
:101940004A1A8093491A89E28093481A80914D1A65
:1019500090914E1A059690934E1A80934D1A1092BC
:10196000651A0C948B408091651A813011F00C94AB
:101970008B40E091661AE150E770E093661A10928E
:10198000621AF0E0EE0FFF1FEF5AF54E8081918151
:1019900090934A1A8093491A8BE28093481A809157
:1019A0004D1A90914E1A059690934E1A80934D1AA7
:1019B0001092651A0C948B408091651A823049F51B
:1019C0000E94080410926A1A2091681A8091721A73
:1019D00082278093721A80936B1A1092621AE09198
:1019E000661AF0E0EE0FFF1FEF5AF54E80819181ED
:1019F00090934A1A8093491A2093481A80914D1A5D
:101A000090914E1A089690934E1A80934D1A109208
:101A1000651A8091651A813011F00C948B4022E098
:101A20002093621A80914F1A9091501A90934A1AFB
:101A30008093491A8091611A8093481A2093651AFD
:101A40000C948B408091651A813011F00C948B407E
:101A5000E091661AEF5FE770E093661AF0E0EE0F30
:101A6000FF1FEF5AF54E88E290E091838083109239
:101A7000621A90934A1A8093491A8DE28093481A09
:101A800080914D1A90914E1A059690934E1A80931C
:101A90004D1A1092651A0C948B408091651A823011
:101AA00011F50E9408042091681A20936D1A109273
:101AB000621AE091661AF0E0EE0FFF1FEF5AF54E42
:101AC0008081918190934A1A8093491A2093481AF1
:101AD00080914D1A90914E1A089690934E1A8093C9
:101AE0004D1A1092651A8091651A813011F00C948C
:101AF0008B4022E02093621AE091661AF0E0EE0F2C
:101B0000FF1FEF5AF54E8081918190934A1A80937E
:101B1000491A8091611A8093481A2093651A0C948F
:101B20008B408091651A813011F00C948B4080912C
:101B30006B1A811106C08091661A8150877080935C
:101B4000661A1092621AE091661AF0E0EE0FFF1F1B
:101B5000EF5AF54E8081918190934A1A8093491AE9
:101B60008FE28093481A80914D1A90914E1A0496F4
:101B700090934E1A80934D1A1092651A0C948B40D4
:101B80008091651A813011F00C948B4080916C1A11
:101B90008F5F80936C1A80936B1A1092621AE09197
:101BA000661AF0E0EE0FFF1FEF5AF54E808191812B
:101BB00090934A1A8093491A80E38093481A80913F
:101BC0004D1A90914E1A059690934E1A80934D1A85
:101BD0001092651A0C948B408091651A813011F037
:101BE0000C948B4080916C1A815080936C1A809376
:101BF0006B1A1092621AE091661AF0E0EE0FFF1F66
:101C0000EF5AF54E8081918190934A1A8093491A38
:101C100081E38093481A80914D1A90914E1A05964F
:101C200090934E1A80934D1A1092651A0C948B4023
:101C30008091651A813011F00C948B40E091661A06
:101C4000E150E770E093661A1092621AF0E0EE0F2E
:101C5000FF1FEF5AF54E8081918190934A1A80932D
:101C6000491A83E38093481A80914D1A90914E1A35
:101C7000059690934E1A80934D1A1092651A0C9403
:101C80008B408091651A823049F50E9408041092B9
:101C90006A1A2091681A8091721A822B8093721AA4
:101CA00080936B1A1092621AE091661AF0E0EE0FC0
:101CB000FF1FEF5AF54E8081918190934A1A8093CD
:101CC000491A2093481A80914D1A90914E1A0896FD
:101CD00090934E1A80934D1A1092651A8091651A4E
:101CE000813011F00C948B4022E02093621A809195
:101CF0004F1A9091501A90934A1A8093491A8091E2
:101D0000611A8093481A2093651A0C948B40809135
:101D1000651A813011F00C948B40E091661AEF5FE8
:101D2000E770E093661AF0E0EE0FFF1FEF5AF54EF2
:101D300080E390E0918380831092621A90934A1A14
:101D40008093491A85E38093481A80914D1A9091A7
:101D50004E1A059690934E1A80934D1A1092651A5A
:101D60000C948B408091651A823011F50E94080412
:101D70002091681A20936C1A1092621AE091661AE8
:101D8000F0E0EE0FFF1FEF5AF54E808191819093A6
:101D90004A1A8093491A2093481A80914D1A9091BB
:101DA0004E1A089690934E1A80934D1A1092651A07
:101DB0008091651A813011F00C948B4022E02093C1
:101DC000621AE091661AF0E0EE0FFF1FEF5AF54E2F
:101DD0008081918190934A1A8093491A8091611A67
:101DE0008093481A2093651A0C948B408091651A51
:101DF000813011F00C948B4080916B1A87FF06C0E4
:101E00008091661A815087708093661A1092621AC8
:101E1000E091661AF0E0EE0FFF1FEF5AF54E808159
:101E2000918190934A1A8093491A87E38093481AC4
:101E300080914D1A90914E1A049690934E1A809369
:101E40004D1A1092651A0C948B408091651A81305E
:101E500011F00C948B40E091661AE150E770E0932A
:101E6000661A1092621AF0E0EE0FFF1FEF5AF54E5D
:101E70008081918190934A1A8093491A8BE38093D1
:101E8000481A80914D1A90914E1A059690934E1AC9
:101E900080934D1A1092651A0C948B408091651AAC
:101EA000823039F50E94080410926A1AC091681AAB
:101EB0008C2F0E94F70380936B1A1092621AE091A4
:101EC000661AF0E0EE0FFF1FEF5AF54E20813181C8
:101ED00030934A1A2093491AC093481A80914D1A98
:101EE00090914E1A089690934E1A80934D1A109224
:101EF000651A8091651A813011F00C948B4022E0B4
:101F00002093621A80914F1A9091501A90934A1A16
:101F10008093491A8091611A8093481A2093651A18
:101F20000C948B408091651A813011F00C948B4099
:101F3000E091661AEF5FE770E093661AF0E0EE0F4B
:101F4000FF1FEF5AF54E88E390E091838083109253
:101F5000621A90934A1A8093491A8DE38093481A23
:101F600080914D1A90914E1A059690934E1A809337
:101F70004D1A1092651A0C948B408091651A83302B
:101F800051F580914F1A9091501A2091681A81153D
:101F900038E1930720F4FC01E85BFD4F20831092A9
:101FA000621AE091661AF0E0EE0FFF1FEF5AF54E4D
:101FB0008081918190934A1A8093491A2093481AFC
:101FC00080914D1A90914E1A099690934E1A8093D3
:101FD0004D1A1092651A8091651A8230D9F40E94C8
:101FE000080480916D1A90E0982F882720916C1A30
:101FF000822B9093501A80934F1A23E02093621AF9
:1020000090934A1A8093491A8091681A8093481ACB
:102010002093651A8091651A813011F00C948B40E1
:1020200022E02093621AE091661AF0E0EE0FFF1FA3
:10203000EF5AF54E8081918190934A1A8093491A04
:102040008091611A8093481A2093651A0C948B40F2
:102050008091651A813011F00C948B4080916B1A3D
:102060000E94DC03882331F08091661A81508770CA
:102070008093661A1092621AE091661AF0E0EE0FF1
:10208000FF1FEF5AF54E8081918190934A1A8093F9
:10209000491A8FE38093481A80914D1A90914E1AF5
:1020A000049690934E1A80934D1A1092651A0C94D0
:1020B0008B408091651A8330B9F50E9408044091E5
:1020C000681A242F30E0922F8827822B932B9F733E
:1020D00090934C1A80934B1A20916A1AE091661AD9
:1020E000211108C0AE2FB0E0AA0FBB1FAF5AB54EEA
:1020F0008D939C931092621AF0E0EE0FFF1FEF5A3F
:10210000F54E8081918190934A1A8093491A4093A9
:10211000481A80914D1A90914E1A0A9690934E1A31
:1021200080934D1A1092651AC091651AC23001F55C
:102130000E94080480914B1A90914C1A9093501A67
:1021400080934F1AC093621AE091661AF0E0EE0F86
:10215000FF1FEF5AF54E8081918190934A1A809328
:10216000491A8091681A8093481A83E08093651A0F
:102170008091651A813011F00C948B4022E02093FD
:10218000621AE091661AF0E0EE0FFF1FEF5AF54E6B
:102190008081918190934A1A8093491A8091611AA3
:1021A0008093481A2093651A0C948B408091651A8D
:1021B000823001F52091681A2093721A1092621AE7
:1021C000E091661AF0E0EE0FFF1FEF5AF54E8081A6
:1021D000918190934A1A8093491A2093481A8091CA
:1021E0004D1A90914E1A089690934E1A80934D1A5C
:1021F0001092651A8091651A813011F00C948B4011
:102200001092501A10924F1A8093621A8091721A8B
:1022100090E090934A1A8093491A81E48093481A77
:1022200082E08093651A0C948B408091651A83300C
:10223000E1F50E9408044091681A242F30E0922FA3
:102240008827822B932B9F7390934C1A80934B1A61
:1022500020916A1A21110DC0E091661AEF5FE770B4
:10226000E093661AF0E0EE0FFF1FEF5AF54E9183F0
:1022700080831092621AE091661AF0E0EE0FFF1F61
:10228000EF5AF54E8081918190934A1A8093491AB2
:102290004093481A80914D1A90914E1A0A96909345
:1022A0004E1A80934D1A1092651AC091651AC23069
:1022B000F1F40E9408042091681A822F90E0909314
:1022C0004C1A80934B1AC093621AE091661AF0E0A0
:1022D000EE0FFF1FEF5AF54E8081918190934A1ABD
:1022E0008093491A2093481A83E08093651A80915D
:1022F000651A813011F00C948B4022E02093621A11
:10230000E091661AF0E0EE0FFF1FEF5AF54E808164
:10231000918190934A1A8093491A8091611A80930F
:10232000481A2093651A0C948B408091651A82306C
:1023300001F52091681A2093721A1092621AE091A6
:10234000661AF0E0EE0FFF1FEF5AF54E8081918183
:1023500090934A1A8093491A2093481A80914D1AF3
:1023600090914E1A089690934E1A80934D1A10929F
:10237000651A2091651A213011F00C948B4081E090
:1023800090E09093501A80934F1A2093621A809194
:10239000721A90E0916090934A1A8093491A83E4EC
:1023A0008093481A82E08093651A0C948B40809148
:1023B000651A833059F50E9408044091681A242F49
:1023C00030E0922F8827822B932B9F7390934C1A87
:1023D00080934B1AE091661AF0E0EE0FFF1FEF5A60
:1023E000F54E918380831092621A90934A1A8093DB
:1023F000491A4093481A80914D1A90914E1A0B96A3
:1024000090934E1A80934D1A1092651AC091651AD6
:10241000C230F1F40E9408042091681A822F90E0E3
:1024200090934C1A80934B1AC093621AE091661AEB
:10243000F0E0EE0FFF1FEF5AF54E808191819093EF
:102440004A1A8093491A2093481A83E08093651AA8
:102450008091651A813011F00C948B4022E020931A
:10246000621AE091661AF0E0EE0FFF1FEF5AF54E88
:102470008081918190934A1A8093491A8091611AC0
:102480008093481A2093651A0C948B408091651AAA
:10249000823001F52091681A2093721A1092621A04
:1024A000E091661AF0E0EE0FFF1FEF5AF54E8081C3
:1024B000918190934A1A8093491A2093481A8091E7
:1024C0004D1A90914E1A089690934E1A80934D1A79
:1024D0001092651A2091651A213011F00C948B40EE
:1024E00082E090E09093501A80934F1A2093621AE2
:1024F0008091721A90E0926090934A1A8093491AE0
:1025000085E48093481A82E08093651A0C948B408E
:102510008091651A833079F50E9408044091681A09
:10252000242F30E0922F8827822B932B9F73909338
:102530004C1A80934B1AE091661AEF5FE770E093B4
:10254000661AF0E0EE0FFF1FEF5AF54E918380837D
:102550001092621A90934A1A8093491A4093481A2B
:1025600080914D1A90914E1A0B9690934E1A80932B
:102570004D1A1092651AC091651AC230F1F40E948A
:1025800008042091681A822F90E090934C1A80934F
:102590004B1AC093621AE091661AF0E0EE0FFF1F2B
:1025A000EF5AF54E8081918190934A1A8093491A8F
:1025B0002093481A83E08093651A8091651A8130D0
:1025C00011F00C948B4022E02093621AE091661A7D
:1025D000F0E0EE0FFF1FEF5AF54E8081918190934E
:1025E0004A1A8093491A8091611A8093481A20935D
:1025F000651A0C948B408091651A823001F5209108
:10260000681A2093721A1092621AE091661AF0E02A
:10261000EE0FFF1FEF5AF54E8081918190934A1A79
:102620008093491A2093481A80914D1A90914E1A1E
:10263000089690934E1A80934D1A1092651A209125
:10264000651A213011F00C948B4083E090E0909358
:10265000501A80934F1A2093621A8091721A90E058
:10266000936090934A1A8093491A87E48093481A9A
:1026700082E08093651A0C948B408091651A8330B8
:10268000B9F50E9408044091681A242F30E0922F77
:102690008827822B932B9F7390934C1A80934B1A0D
:1026A00020916B1AE091661A222341F0AE2FB0E020
:1026B000AA0FBB1FAF5AB54E8D939C931092621A0E
:1026C000F0E0EE0FFF1FEF5AF54E8081918190935D
:1026D0004A1A8093491A4093481A80914D1A909152
:1026E0004E1A0A9690934E1A80934D1A1092651ABC
:1026F000C091651AC23001F50E94080480914B1AFE
:1027000090914C1A9093501A80934F1AC093621A6A
:10271000E091661AF0E0EE0FFF1FEF5AF54E808150
:10272000918190934A1A8093491A8091681A8093F4
:10273000481A83E08093651A8091651A813011F000
:102740000C948B4022E02093621AE091661AF0E02C
:10275000EE0FFF1FEF5AF54E8081918190934A1A38
:102760008093491A8091611A8093481A2093651AC0
:102770000C948B408091651A823001F52091681A83
:102780002093721A1092621AE091661AF0E0EE0F2E
:10279000FF1FEF5AF54E8081918190934A1A8093E2
:1027A000491A2093481A80914D1A90914E1A089612
:1027B00090934E1A80934D1A1092651A2091651AC3
:1027C000213011F00C948B4084E090E09093501AEB
:1027D00080934F1A2093621A8091721A90E094604D
:1027E00090934A1A8093491A89E48093481A82E0A8
:1027F0008093651A0C948B408091651A8330E1F5C3
:102800000E9408044091681A242F30E0922F8827F4
:10281000822B932B9F7390934C1A80934B1A209189
:102820006B1A222369F0E091661AEF5FE770E0937C
:10283000661AF0E0EE0FFF1FEF5AF54E918380838A
:102840001092621AE091661AF0E0EE0FFF1FEF5A45
:10285000F54E8081918190934A1A8093491A409352
:10286000481A80914D1A90914E1A0A9690934E1ADA
:1028700080934D1A1092651AC091651AC230F1F416
:102880000E9408042091681A822F90E090934C1ABD
:1028900080934B1AC093621AE091661AF0E0EE0F33
:1028A000FF1FEF5AF54E8081918190934A1A8093D1
:1028B000491A2093481A83E08093651A8091651A1B
:1028C000813011F00C948B4022E02093621AE09149
:1028D000661AF0E0EE0FFF1FEF5AF54E80819181EE
:1028E00090934A1A8093491A8091611A8093481AEA
:1028F0002093651A0C948B408091651A823001F503
:102900002091681A2093721A1092621AE091661A46
:10291000F0E0EE0FFF1FEF5AF54E8081918190930A
:102920004A1A8093491A2093481A80914D1A90911F
:102930004E1A089690934E1A80934D1A1092651A6B
:102940002091651A213011F00C948B4085E090E0C5
:102950009093501A80934F1A2093621A8091721AA2
:1029600090E0956090934A1A8093491A8BE4809383
:10297000481A82E08093651A0C948B408091651A06
:10298000833059F50E9408044091681A242F30E0E2
:10299000922F8827822B932B9F7390934C1A8093AE
:1029A0004B1AE091661AF0E0EE0FFF1FEF5AF54E5A
:1029B000918380831092621A90934A1A8093491AE5
:1029C0004093481A80914D1A90914E1A0B9690930D
:1029D0004E1A80934D1A1092651AC091651AC23032
:1029E000F1F40E9408042091681A822F90E09093DD
:1029F0004C1A80934B1AC093621AE091661AF0E069
:102A0000EE0FFF1FEF5AF54E8081918190934A1A85
:102A10008093491A2093481A83E08093651A809125
:102A2000651A813011F00C948B4022E02093621AD9
:102A3000E091661AF0E0EE0FFF1FEF5AF54E80812D
:102A4000918190934A1A8093491A8091611A8093D8
:102A5000481A2093651A0C948B408091651A823035
:102A600001F52091681A2093721A1092621AE0916F
:102A7000661AF0E0EE0FFF1FEF5AF54E808191814C
:102A800090934A1A8093491A2093481A80914D1ABC
:102A900090914E1A089690934E1A80934D1A109268
:102AA000651A2091651A213011F00C948B4086E054
:102AB00090E09093501A80934F1A2093621A80915D
:102AC000721A90E0966090934A1A8093491A8DE4A6
:102AD0008093481A82E08093651A0C948B40809111
:102AE000651A833079F50E9408044091681A242FF2
:102AF00030E0922F8827822B932B9F7390934C1A50
:102B000080934B1AE091661AEF5FE770E093661AC4
:102B1000F0E0EE0FFF1FEF5AF54E91838083109285
:102B2000621A90934A1A8093491A4093481A8091E6
:102B30004D1A90914E1A0B9690934E1A80934D1AFF
:102B40001092651AC091651AC230F1F40E9408040F
:102B50002091681A822F90E090934C1A80934B1A20
:102B6000C093621AE091661AF0E0EE0FFF1FEF5A71
:102B7000F54E8081918190934A1A8093491A20934F
:102B8000481A83E08093651A8091651A813011F0AC
:102B90000C948B4022E02093621AE091661AF0E0D8
:102BA000EE0FFF1FEF5AF54E8081918190934A1AE4
:102BB0008093491A8091611A8093481A2093651A6C
:102BC0000C948B408091651A823001F52091681A2F
:102BD0002093721A1092621AE091661AF0E0EE0FDA
:102BE000FF1FEF5AF54E8081918190934A1A80938E
:102BF000491A2093481A80914D1A90914E1A0896BE
:102C000090934E1A80934D1A1092651A2091651A6E
:102C1000213011F00C948B4087E090E09093501A93
:102C200080934F1A2093621A8091721A90E09760F5
:102C300090934A1A8093491A8FE48093481A82E04D
:102C40008093651A0C948B408091651A8330B9F596
:102C50000E9408044091681A242F30E0922F8827A0
:102C6000822B932B9F7390934C1A80934B1A209135
:102C70006B1AE091661A27FD08C0AE2FB0E0AA0FCC
:102C8000BB1FAF5AB54E8D939C931092621AF0E021
:102C9000EE0FFF1FEF5AF54E8081918190934A1AF3
:102CA0008093491A4093481A80914D1A90914E1A78
:102CB0000A9690934E1A80934D1A1092651AC091FD
:102CC000651AC23001F50E94080480914B1A909158
:102CD0004C1A9093501A80934F1AC093621AE09145
:102CE000661AF0E0EE0FFF1FEF5AF54E80819181DA
:102CF00090934A1A8093491A8091681A8093481ACF
:102D000083E08093651A8091651A813011F00C94EC
:102D10008B4022E02093621AE091661AF0E0EE0FF9
:102D2000FF1FEF5AF54E8081918190934A1A80934C
:102D3000491A8091611A8093481A2093651A0C945D
:102D40008B408091651A823001F52091721A209390
:102D5000681A1092621AE091661AF0E0EE0FFF1FF7
:102D6000EF5AF54E8081918190934A1A8093491AC7
:102D70002093481A80914D1A90914E1A069690937E
:102D80004E1A80934D1A1092651A2091651A2130BF
:102D900011F00C948B4088E090E09093501A80934F
:102DA0004F1A2093621A8091721A90E09860909363
:102DB0004A1A8093491A81E58093481A82E08093E9
:102DC000651A0C948B408091651A8330E1F50E945E
:102DD00008044091681A242F30E0922F8827822B14
:102DE000932B9F7390934C1A80934B1A20916B1ADC
:102DF00027FD0DC0E091661AEF5FE770E093661A59
:102E0000F0E0EE0FFF1FEF5AF54E91838083109292
:102E1000621AE091661AF0E0EE0FFF1FEF5AF54ECE
:102E20008081918190934A1A8093491A4093481A5D
:102E300080914D1A90914E1A0A9690934E1A809353
:102E40004D1A1092651AC091651AC230F1F40E94B1
:102E500008042091681A822F90E090934C1A809376
:102E60004B1AC093621AE091661AF0E0EE0FFF1F52
:102E7000EF5AF54E8081918190934A1A8093491AB6
:102E80002093481A83E08093651A8091651A8130F7
:102E900011F00C948B4022E02093621AE091661AA4
:102EA000F0E0EE0FFF1FEF5AF54E80819181909375
:102EB0004A1A8093491A8091611A8093481A209384
:102EC000651A0C948B408091651A823001F520912F
:102ED000721A2093681A1092621AE091661AF0E052
:102EE000EE0FFF1FEF5AF54E8081918190934A1AA1
:102EF0008093491A2093481A80914D1A90914E1A46
:102F0000069690934E1A80934D1A1092651A20914E
:102F1000651A213011F00C948B4089E090E0909379
:102F2000501A80934F1A2093621A8091721A90E07F
:102F3000996090934A1A8093491A83E58093481ABE
:102F400082E08093651A0C948B408091651A8330DF
:102F500059F50E9408044091681A242F30E0922FFE
:102F60008827822B932B9F7390934C1A80934B1A34
:102F7000E091661AF0E0EE0FFF1FEF5AF54E9183D5
:102F800080831092621A90934A1A8093491A409350
:102F9000481A80914D1A90914E1A0B9690934E1AA2
:102FA00080934D1A1092651AC091651AC230F1F4DF
:102FB0000E9408042091681A822F90E090934C1A86
:102FC00080934B1AC093621AE091661AF0E0EE0FFC
:102FD000FF1FEF5AF54E8081918190934A1A80939A
:102FE000491A2093481A83E08093651A8091651AE4
:102FF000813011F00C948B4022E02093621AE09112
:10300000661AF0E0EE0FFF1FEF5AF54E80819181B6
:1030100090934A1A8093491A8091611A8093481AB2
:103020002093651A0C948B408091651A823001F5CB
:103030002091721A2093681A1092621AE091661A0F
:10304000F0E0EE0FFF1FEF5AF54E808191819093D3
:103050004A1A8093491A2093481A80914D1A9091E8
:103060004E1A069690934E1A80934D1A1092651A36
:103070002091651A213011F00C948B408AE090E089
:103080009093501A80934F1A2093621A8091721A6B
:1030900090E09A6090934A1A8093491A85E580934C
:1030A000481A82E08093651A0C948B408091651ACF
:1030B000833079F50E9408044091681A242F30E08B
:1030C000922F8827822B932B9F7390934C1A809377
:1030D0004B1AE091661AEF5FE770E093661AF0E032
:1030E000EE0FFF1FEF5AF54E918380831092621A04
:1030F00090934A1A8093491A4093481A80914D1A26
:1031000090914E1A0B9690934E1A80934D1A1092EE
:10311000651AC091651AC230F1F40E94080420912A
:10312000681A822F90E090934C1A80934B1AC093A8
:10313000621AE091661AF0E0EE0FFF1FEF5AF54EAB
:103140008081918190934A1A8093491A2093481A5A
:1031500083E08093651A8091651A813011F00C9498
:103160008B4022E02093621AE091661AF0E0EE0FA5
:10317000FF1FEF5AF54E8081918190934A1A8093F8
:10318000491A8091611A8093481A2093651A0C9409
:103190008B408091651A823001F52091721A20933C
:1031A000681A1092621AE091661AF0E0EE0FFF1FA3
:1031B000EF5AF54E8081918190934A1A8093491A73
:1031C0002093481A80914D1A90914E1A069690932A
:1031D0004E1A80934D1A1092651A2091651A21306B
:1031E00011F00C948B408BE090E09093501A8093F8
:1031F0004F1A2093621A8091721A90E09B6090930C
:103200004A1A8093491A87E58093481A82E080938E
:10321000651A0C948B408091651A8330C9F50E9421
:1032200008041091681A812F90E0D82FCC27C82B62
:10323000D92BDF73D0934C1AC0934B1A80916B1A21
:103240000E94DC03E091661A811108C0AE2FB0E045
:10325000AA0FBB1FAF5AB54ECD93DC931092621AE2
:10326000F0E0EE0FFF1FEF5AF54E808191819093B1
:103270004A1A8093491A1093481A80914D1A9091D6
:103280004E1A0A9690934E1A80934D1A1092651A10
:10329000C091651AC23001F50E94080480914B1A52
:1032A00090914C1A9093501A80934F1AC093621ABF
:1032B000E091661AF0E0EE0FFF1FEF5AF54E8081A5
:1032C000918190934A1A8093491A8091681A809349
:1032D000481A83E08093651A8091651A813011F055
:1032E0000C948B4022E02093621AE091661AF0E081
:1032F000EE0FFF1FEF5AF54E8081918190934A1A8D
:103300008093491A8091611A8093481A2093651A14
:103310000C948B408091651A823001F52091721ACD
:103320002093681A1092621AE091661AF0E0EE0F8C
:10333000FF1FEF5AF54E8081918190934A1A809336
:10334000491A2093481A80914D1A90914E1A069668
:1033500090934E1A80934D1A1092651A2091651A17
:10336000213011F00C948B408CE090E09093501A37
:1033700080934F1A2093621A8091721A90E09C6099
:1033800090934A1A8093491A89E58093481A82E0FB
:103390008093651A0C948B408091651A8330F1F507
:1033A0000E9408041091681A812F90E0D82FCC2732
:1033B000C82BD92BDF73D0934C1AC0934B1A809132
:1033C0006B1A0E94DC0381110DC0E091661AEF5F59
:1033D000E770E093661AF0E0EE0FFF1FEF5AF54E2C
:1033E000D183C0831092621AE091661AF0E0EE0F6A
:1033F000FF1FEF5AF54E8081918190934A1A809376
:10340000491A1093481A80914D1A90914E1A0A96B3
:1034100090934E1A80934D1A1092651AC091651AB6
:10342000C230F1F40E9408042091681A822F90E0C3
:1034300090934C1A80934B1AC093621AE091661ACB
:10344000F0E0EE0FFF1FEF5AF54E808191819093CF
:103450004A1A8093491A2093481A83E08093651A88
:103460008091651A813011F00C948B4022E02093FA
:10347000621AE091661AF0E0EE0FFF1FEF5AF54E68
:103480008081918190934A1A8093491A8091611AA0
:103490008093481A2093651A0C948B408091651A8A
:1034A000823001F52091721A2093681A1092621AE4
:1034B000E091661AF0E0EE0FFF1FEF5AF54E8081A3
:1034C000918190934A1A8093491A2093481A8091C7
:1034D0004D1A90914E1A069690934E1A80934D1A5B
:1034E0001092651A2091651A213011F00C948B40CE
:1034F0008DE090E09093501A80934F1A2093621AB7
:103500008091721A90E09D6090934A1A8093491AB4
:103510008BE58093481A82E08093651A0C948B4067
:103520008091651A833059F50E9408044091681A09
:10353000242F30E0922F8827822B932B9F73909318
:103540004C1A80934B1AE091661AF0E0EE0FFF1FC1
:10355000EF5AF54E918380831092621A90934A1A23
:103560008093491A4093481A80914D1A90914E1AAF
:103570000B9690934E1A80934D1A1092651AC09133
:10358000651AC230F1F40E9408042091681A822F53
:1035900090E090934C1A80934B1AC093621AE0917A
:1035A000661AF0E0EE0FFF1FEF5AF54E8081918111
:1035B00090934A1A8093491A2093481A83E0809383
:1035C000651A8091651A813011F00C948B4022E0CD
:1035D0002093621AE091661AF0E0EE0FFF1FEF5A97
:1035E000F54E8081918190934A1A8093491A809177
:1035F000611A8093481A2093651A0C948B4080912D
:10360000651A823001F52091721A2093681A10927F
:10361000621AE091661AF0E0EE0FFF1FEF5AF54EC6
:103620008081918190934A1A8093491A2093481A75
:1036300080914D1A90914E1A069690934E1A80934F
:103640004D1A1092651A2091651A213011F00C94D0
:103650008B408EE090E09093501A80934F1A209305
:10366000621A8091721A90E09E6090934A1A809339
:10367000491A8DE58093481A82E08093651A0C946C
:103680008B408091651A833079F50E94080440913F
:10369000681A242F30E0922F8827822B932B9F7358
:1036A00090934C1A80934B1AE091661AEF5FE77083
:1036B000E093661AF0E0EE0FFF1FEF5AF54E91838C
:1036C00080831092621A90934A1A8093491A409309
:1036D000481A80914D1A90914E1A0B9690934E1A5B
:1036E00080934D1A1092651AC091651AC230F1F498
:1036F0000E9408042091681A822F90E090934C1A3F
:1037000080934B1AC093621AE091661AF0E0EE0FB4
:10371000FF1FEF5AF54E8081918190934A1A809352
:10372000491A2093481A83E08093651A8091651A9C
:10373000813011F00C948B4022E02093621AE091CA
:10374000661AF0E0EE0FFF1FEF5AF54E808191816F
:1037500090934A1A8093491A8091611A8093481A6B
:103760002093651A0C948B408091651A823001F584
:103770002091721A2093681A1092621AE091661AC8
:10378000F0E0EE0FFF1FEF5AF54E8081918190938C
:103790004A1A8093491A2093481A80914D1A9091A1
:1037A0004E1A069690934E1A80934D1A1092651AEF
:1037B0002091651A213011F00C948B408FE090E03D
:1037C0009093501A80934F1A2093621A8091721A24
:1037D00090E09F6090934A1A8093491A8FE58093F6
:1037E000481A82E08093651A0C948B408091651A88
:1037F0008330B9F50E9408044091681A242F30E004
:10380000922F8827822B932B9F7390934C1A80932F
:103810004B1A20916A1AE091661A222341F0AE2FCA
:10382000B0E0AA0FBB1FAF5AB54E8D939C93109278
:10383000621AF0E0EE0FFF1FEF5AF54E8081918182
:1038400090934A1A8093491A4093481A80914D1ACE
:1038500090914E1A0A9690934E1A80934D1A109298
:10386000651AC091651AC23001F50E940804809162
:103870004B1A90914C1A9093501A80934F1AC09300
:10388000621AE091661AF0E0EE0FFF1FEF5AF54E54
:103890008081918190934A1A8093491A8091681A85
:1038A0008093481A83E08093651A8091651A81306D
:1038B00011F00C948B4022E02093621AE091661A7A
:1038C000F0E0EE0FFF1FEF5AF54E8081918190934B
:1038D0004A1A8093491A8091611A8093481A20935A
:1038E000651A0C948B408091651A823001F5209105
:1038F000721A2093681A1092621AE091661AF0E028
:10390000EE0FFF1FEF5AF54E8081918190934A1A76
:103910008093491A2093481A80914D1A90914E1A1B
:10392000069690934E1A80934D1A1092651A209124
:10393000651A213011F00C948B4080E190E0909357
:10394000501A80934F1A2093621A8091721A90E055
:10395000906190934A1A8093491A81E68093481A9D
:1039600082E08093651A0C948B408091651A8330B5
:10397000E1F50E9408044091681A242F30E0922F4C
:103980008827822B932B9F7390934C1A80934B1A0A
:1039900020916A1A222369F0E091661AEF5FE770BE
:1039A000E093661AF0E0EE0FFF1FEF5AF54E918399
:1039B00080831092621AE091661AF0E0EE0FFF1F0A
:1039C000EF5AF54E8081918190934A1A8093491A5B
:1039D0004093481A80914D1A90914E1A0A969093EE
:1039E0004E1A80934D1A1092651AC091651AC23012
:1039F000F1F40E9408042091681A822F90E09093BD
:103A00004C1A80934B1AC093621AE091661AF0E048
:103A1000EE0FFF1FEF5AF54E8081918190934A1A65
:103A20008093491A2093481A83E08093651A809105
:103A3000651A813011F00C948B4022E02093621AB9
:103A4000E091661AF0E0EE0FFF1FEF5AF54E80810D
:103A5000918190934A1A8093491A8091611A8093B8
:103A6000481A2093651A0C948B408091651A823015
:103A700001F52091721A2093681A1092621AE0914F
:103A8000661AF0E0EE0FFF1FEF5AF54E808191812C
:103A900090934A1A8093491A2093481A80914D1A9C
:103AA00090914E1A069690934E1A80934D1A10924A
:103AB000651A2091651A213011F00C948B4081E138
:103AC00090E09093501A80934F1A2093621A80913D
:103AD000721A90E0916190934A1A8093491A83E692
:103AE0008093481A82E08093651A0C948B408091F1
:103AF000651A833059F50E9408044091681A242FF2
:103B000030E0922F8827822B932B9F7390934C1A2F
:103B100080934B1AE091661AF0E0EE0FFF1FEF5A08
:103B2000F54E918380831092621A90934A1A809383
:103B3000491A4093481A80914D1A90914E1A0B964B
:103B400090934E1A80934D1A1092651AC091651A7F
:103B5000C230F1F40E9408042091681A822F90E08C
:103B600090934C1A80934B1AC093621AE091661A94
:103B7000F0E0EE0FFF1FEF5AF54E80819181909398
:103B80004A1A8093491A2093481A83E08093651A51
:103B90008091651A813011F00C948B4022E02093C3
:103BA000621AE091661AF0E0EE0FFF1FEF5AF54E31
:103BB0008081918190934A1A8093491A8091611A69
:103BC0008093481A2093651A0C948B408091651A53
:103BD000823001F52091721A2093681A1092621AAD
:103BE000E091661AF0E0EE0FFF1FEF5AF54E80816C
:103BF000918190934A1A8093491A2093481A809190
:103C00004D1A90914E1A069690934E1A80934D1A23
:103C10001092651A2091651A213011F00C948B4096
:103C200082E190E09093501A80934F1A2093621A89
:103C30008091721A90E0926190934A1A8093491A87
:103C400085E68093481A82E08093651A0C948B4035
:103C50008091651A833079F50E9408044091681AB2
:103C6000242F30E0922F8827822B932B9F739093E1
:103C70004C1A80934B1AE091661AEF5FE770E0935D
:103C8000661AF0E0EE0FFF1FEF5AF54E9183808326
:103C90001092621A90934A1A8093491A4093481AD4
:103CA00080914D1A90914E1A0B9690934E1A8093D4
:103CB0004D1A1092651AC091651AC230F1F40E9433
:103CC00008042091681A822F90E090934C1A8093F8
:103CD0004B1AC093621AE091661AF0E0EE0FFF1FD4
:103CE000EF5AF54E8081918190934A1A8093491A38
:103CF0002093481A83E08093651A8091651A813079
:103D000011F00C948B4022E02093621AE091661A25
:103D1000F0E0EE0FFF1FEF5AF54E808191819093F6
:103D20004A1A8093491A8091611A8093481A209305
:103D3000651A0C948B408091651A823001F52091B0
:103D4000721A2093681A1092621AE091661AF0E0D3
:103D5000EE0FFF1FEF5AF54E8081918190934A1A22
:103D60008093491A2093481A80914D1A90914E1AC7
:103D7000069690934E1A80934D1A1092651A2091D0
:103D8000651A213011F00C948B4083E190E0909300
:103D9000501A80934F1A2093621A8091721A90E001
:103DA000936190934A1A8093491A87E68093481A40
:103DB00082E08093651A0C948B408091651A833061
:103DC000B9F50E9408044091681A242F30E0922F20
:103DD0008827822B932B9F7390934C1A80934B1AB6
:103DE00020916B1AE091661A211108C0AE2FB0E045
:103DF000AA0FBB1FAF5AB54E8D939C931092621AB7
:103E0000F0E0EE0FFF1FEF5AF54E80819181909305
:103E10004A1A8093491A4093481A80914D1A9091FA
:103E20004E1A0A9690934E1A80934D1A1092651A64
:103E3000C091651AC23001F50E94080480914B1AA6
:103E400090914C1A9093501A80934F1AC093621A13
:103E5000E091661AF0E0EE0FFF1FEF5AF54E8081F9
:103E6000918190934A1A8093491A8091681A80939D
:103E7000481A83E08093651A8091651A813011F0A9
:103E80000C948B4022E02093621AE091661AF0E0D5
:103E9000EE0FFF1FEF5AF54E8081918190934A1AE1
:103EA0008093491A8091611A8093481A2093651A69
:103EB0000C948B408091651A823001F52091721A22
:103EC0002093681A1092621AE091661AF0E0EE0FE1
:103ED000FF1FEF5AF54E8081918190934A1A80938B
:103EE000491A2093481A80914D1A90914E1A0696BD
:103EF00090934E1A80934D1A1092651A2091651A6C
:103F0000213011F00C948B4084E190E09093501A92
:103F100080934F1A2093621A8091721A90E09461F4
:103F200090934A1A8093491A89E68093481A82E04E
:103F30008093651A0C948B408091651A8330E1F56B
:103F40000E9408044091681A242F30E0922F88279D
:103F5000822B932B9F7390934C1A80934B1A209132
:103F60006B1A21110DC0E091661AEF5FE770E093C4
:103F7000661AF0E0EE0FFF1FEF5AF54E9183808333
:103F80001092621AE091661AF0E0EE0FFF1FEF5AEE
:103F9000F54E8081918190934A1A8093491A4093FB
:103FA000481A80914D1A90914E1A0A9690934E1A83
:103FB00080934D1A1092651AC091651AC230F1F4BF
:103FC0000E9408042091681A822F90E090934C1A66
:103FD00080934B1AC093621AE091661AF0E0EE0FDC
:103FE000FF1FEF5AF54E8081918190934A1A80937A
:103FF000491A2093481A83E08093651A8091651AC4
:10400000813011F00C948B4022E02093621AE091F1
:10401000661AF0E0EE0FFF1FEF5AF54E8081918196
:1040200090934A1A8093491A8091611A8093481A92
:104030002093651A0C948B408091651A823001F5AB
:104040002091721A2093681A1092621AE091661AEF
:10405000F0E0EE0FFF1FEF5AF54E808191819093B3
:104060004A1A8093491A2093481A80914D1A9091C8
:104070004E1A069690934E1A80934D1A1092651A16
:104080002091651A213011F00C948B4085E190E06D
:104090009093501A80934F1A2093621A8091721A4B
:1040A00090E0956190934A1A8093491A8BE6809329
:1040B000481A82E08093651A0C948B408091651AAF
:1040C000833059F50E9408044091681A242F30E08B
:1040D000922F8827822B932B9F7390934C1A809357
:1040E0004B1AE091661AF0E0EE0FFF1FEF5AF54E03
:1040F000918380831092621A90934A1A8093491A8E
:104100004093481A80914D1A90914E1A0B969093B5
:104110004E1A80934D1A1092651AC091651AC230DA
:10412000F1F40E9408042091681A822F90E0909385
:104130004C1A80934B1AC093621AE091661AF0E011
:10414000EE0FFF1FEF5AF54E8081918190934A1A2E
:104150008093491A2093481A83E08093651A8091CE
:10416000651A813011F00C948B4022E02093621A82
:10417000E091661AF0E0EE0FFF1FEF5AF54E8081D6
:10418000918190934A1A8093491A8091611A809381
:10419000481A2093651A0C948B408091651A8230DE
:1041A00001F52091721A2093681A1092621AE09118
:1041B000661AF0E0EE0FFF1FEF5AF54E80819181F5
:1041C00090934A1A8093491A2093481A80914D1A65
:1041D00090914E1A069690934E1A80934D1A109213
:1041E000651A2091651A213011F00C948B4086E1FC
:1041F00090E09093501A80934F1A2093621A809106
:10420000721A90E0966190934A1A8093491A8DE64B
:104210008093481A82E08093651A0C948B408091B9
:10422000651A833079F50E9408044091681A242F9A
:1042300030E0922F8827822B932B9F7390934C1AF8
:1042400080934B1AE091661AEF5FE770E093661A6D
:10425000F0E0EE0FFF1FEF5AF54E9183808310922E
:10426000621A90934A1A8093491A4093481A80918F
:104270004D1A90914E1A0B9690934E1A80934D1AA8
:104280001092651AC091651AC230F1F40E940804B8
:104290002091681A822F90E090934C1A80934B1AC9
:1042A000C093621AE091661AF0E0EE0FFF1FEF5A1A
:1042B000F54E8081918190934A1A8093491A2093F8
:1042C000481A83E08093651A8091651A813011F055
:1042D0000C948B4022E02093621AE091661AF0E081
:1042E000EE0FFF1FEF5AF54E8081918190934A1A8D
:1042F0008093491A8091611A8093481A2093651A15
:104300000C948B408091651A823001F52091721ACD
:104310002093681A1092621AE091661AF0E0EE0F8C
:10432000FF1FEF5AF54E8081918190934A1A809336
:10433000491A2093481A80914D1A90914E1A069668
:1043400090934E1A80934D1A1092651A2091651A17
:10435000213011F00C948B4087E190E09093501A3B
:1043600080934F1A2093621A8091721A90E097619D
:1043700090934A1A8093491A8FE68093481A82E0F4
:104380008093651A0C948B408091651A8330B9F53F
:104390000E9408044091681A242F30E0922F882749
:1043A000822B932B9F7390934C1A80934B1A2091DE
:1043B0006B1AE091661A27FF08C0AE2FB0E0AA0F73
:1043C000BB1FAF5AB54E8D939C931092621AF0E0CA
:1043D000EE0FFF1FEF5AF54E8081918190934A1A9C
:1043E0008093491A4093481A80914D1A90914E1A21
:1043F0000A9690934E1A80934D1A1092651AC091A6
:10440000651AC23001F50E94080480914B1A909100
:104410004C1A9093501A80934F1AC093621AE091ED
:10442000661AF0E0EE0FFF1FEF5AF54E8081918182
:1044300090934A1A8093491A8091681A8093481A77
:1044400083E08093651A8091651A813011F00C9495
:104450008B4022E02093621AE091661AF0E0EE0FA2
:10446000FF1FEF5AF54E8081918190934A1A8093F5
:10447000491A8091611A8093481A2093651A0C9406
:104480008B408091651A823001F52091721A209339
:10449000681A1092621AE091661AF0E0EE0FFF1FA0
:1044A000EF5AF54E8081918190934A1A8093491A70
:1044B0002093481A80914D1A90914E1A0696909327
:1044C0004E1A80934D1A1092651A2091651A213068
:1044D00011F00C948B4088E190E09093501A8093F7
:1044E0004F1A2093621A8091721A90E0986190930B
:1044F0004A1A8093491A81E78093481A82E0809390
:10450000651A0C948B408091651A8330E1F50E9406
:1045100008044091681A242F30E0922F8827822BBC
:10452000932B9F7390934C1A80934B1A20916B1A84
:1045300027FF0DC0E091661AEF5FE770E093661AFF
:10454000F0E0EE0FFF1FEF5AF54E9183808310923B
:10455000621AE091661AF0E0EE0FFF1FEF5AF54E77
:104560008081918190934A1A8093491A4093481A06
:1045700080914D1A90914E1A0A9690934E1A8093FC
:104580004D1A1092651AC091651AC230F1F40E945A
:1045900008042091681A822F90E090934C1A80931F
:1045A0004B1AC093621AE091661AF0E0EE0FFF1FFB
:1045B000EF5AF54E8081918190934A1A8093491A5F
:1045C0002093481A83E08093651A8091651A8130A0
:1045D00011F00C948B4022E02093621AE091661A4D
:1045E000F0E0EE0FFF1FEF5AF54E8081918190931E
:1045F0004A1A8093491A8091611A8093481A20932D
:10460000651A0C948B408091651A823001F52091D7
:10461000721A2093681A1092621AE091661AF0E0FA
:10462000EE0FFF1FEF5AF54E8081918190934A1A49
:104630008093491A2093481A80914D1A90914E1AEE
:10464000069690934E1A80934D1A1092651A2091F7
:10465000651A213011F00C948B4089E190E0909321
:10466000501A80934F1A2093621A8091721A90E028
:10467000996190934A1A8093491A83E78093481A64
:1046800082E08093651A0C948B408091651A833088
:1046900059F50E9408044091681A242F30E0922FA7
:1046A0008827822B932B9F7390934C1A80934B1ADD
:1046B000E091661AF0E0EE0FFF1FEF5AF54E91837E
:1046C00080831092621A90934A1A8093491A4093F9
:1046D000481A80914D1A90914E1A0B9690934E1A4B
:1046E00080934D1A1092651AC091651AC230F1F488
:1046F0000E9408042091681A822F90E090934C1A2F
:1047000080934B1AC093621AE091661AF0E0EE0FA4
:10471000FF1FEF5AF54E8081918190934A1A809342
:10472000491A2093481A83E08093651A8091651A8C
:10473000813011F00C948B4022E02093621AE091BA
:10474000661AF0E0EE0FFF1FEF5AF54E808191815F
:1047500090934A1A8093491A8091611A8093481A5B
:104760002093651A0C948B408091651A823001F574
:104770002091721A2093681A1092621AE091661AB8
:10478000F0E0EE0FFF1FEF5AF54E8081918190937C
:104790004A1A8093491A2093481A80914D1A909191
:1047A0004E1A069690934E1A80934D1A1092651ADF
:1047B0002091651A213011F00C948B408AE190E031
:1047C0009093501A80934F1A2093621A8091721A14
:1047D00090E09A6190934A1A8093491A85E78093F2
:1047E000481A82E08093651A0C948B408091651A78
:1047F000833079F50E9408044091681A242F30E034
:10480000922F8827822B932B9F7390934C1A80931F
:104810004B1AE091661AEF5FE770E093661AF0E0DA
:10482000EE0FFF1FEF5AF54E918380831092621AAC
:1048300090934A1A8093491A4093481A80914D1ACE
:1048400090914E1A0B9690934E1A80934D1A109297
:10485000651AC091651AC230F1F40E9408042091D3
:10486000681A822F90E090934C1A80934B1AC09351
:10487000621AE091661AF0E0EE0FFF1FEF5AF54E54
:104880008081918190934A1A8093491A2093481A03
:1048900083E08093651A8091651A813011F00C9441
:1048A0008B4022E02093621AE091661AF0E0EE0F4E
:1048B000FF1FEF5AF54E8081918190934A1A8093A1
:1048C000491A8091611A8093481A2093651A0C94B2
:1048D0008B408091651A823001F52091721A2093E5
:1048E000681A1092621AE091661AF0E0EE0FFF1F4C
:1048F000EF5AF54E8081918190934A1A8093491A1C
:104900002093481A80914D1A90914E1A06969093D2
:104910004E1A80934D1A1092651A2091651A213013
:1049200011F00C948B408BE190E09093501A80939F
:104930004F1A2093621A8091721A90E09B619093B3
:104940004A1A8093491A87E78093481A82E0809335
:10495000651A0C948B408091651A8330C9F50E94CA
:1049600008041091681A812F90E0D82FCC27C82B0B
:10497000D92BDF73D0934C1AC0934B1A80916B1ACA
:104980000E94DC03E091661A882341F0AE2FB0E06C
:10499000AA0FBB1FAF5AB54ECD93DC931092621A8B
:1049A000F0E0EE0FFF1FEF5AF54E8081918190935A
:1049B0004A1A8093491A1093481A80914D1A90917F
:1049C0004E1A0A9690934E1A80934D1A1092651AB9
:1049D000C091651AC23001F50E94080480914B1AFB
:1049E00090914C1A9093501A80934F1AC093621A68
:1049F000E091661AF0E0EE0FFF1FEF5AF54E80814E
:104A0000918190934A1A8093491A8091681A8093F1
:104A1000481A83E08093651A8091651A813011F0FD
:104A20000C948B4022E02093621AE091661AF0E029
:104A3000EE0FFF1FEF5AF54E8081918190934A1A35
:104A40008093491A8091611A8093481A2093651ABD
:104A50000C948B408091651A823001F52091721A76
:104A60002093681A1092621AE091661AF0E0EE0F35
:104A7000FF1FEF5AF54E8081918190934A1A8093DF
:104A8000491A2093481A80914D1A90914E1A069611
:104A900090934E1A80934D1A1092651A2091651AC0
:104AA000213011F00C948B408CE190E09093501ADF
:104AB00080934F1A2093621A8091721A90E09C6141
:104AC00090934A1A8093491A89E78093481A82E0A2
:104AD0008093651A0C948B408091651A8330F1F5B0
:104AE0000E9408041091681A812F90E0D82FCC27DB
:104AF000C82BD92BDF73D0934C1AC0934B1A8091DB
:104B00006B1A0E94DC03882369F0E091661AEF5F5C
:104B1000E770E093661AF0E0EE0FFF1FEF5AF54ED4
:104B2000D183C0831092621AE091661AF0E0EE0F12
:104B3000FF1FEF5AF54E8081918190934A1A80931E
:104B4000491A1093481A80914D1A90914E1A0A965C
:104B500090934E1A80934D1A1092651AC091651A5F
:104B6000C230F1F40E9408042091681A822F90E06C
:104B700090934C1A80934B1AC093621AE091661A74
:104B8000F0E0EE0FFF1FEF5AF54E80819181909378
:104B90004A1A8093491A2093481A83E08093651A31
:104BA0008091651A813011F00C948B4022E02093A3
:104BB000621AE091661AF0E0EE0FFF1FEF5AF54E11
:104BC0008081918190934A1A8093491A8091611A49
:104BD0008093481A2093651A0C948B408091651A33
:104BE000823001F52091721A2093681A1092621A8D
:104BF000E091661AF0E0EE0FFF1FEF5AF54E80814C
:104C0000918190934A1A8093491A2093481A80916F
:104C10004D1A90914E1A069690934E1A80934D1A03
:104C20001092651A2091651A213011F00C948B4076
:104C30008DE190E09093501A80934F1A2093621A5E
:104C40008091721A90E09D6190934A1A8093491A5C
:104C50008BE78093481A82E08093651A0C948B400E
:104C60008091651A833059F50E9408044091681AB2
:104C7000242F30E0922F8827822B932B9F739093C1
:104C80004C1A80934B1AE091661AF0E0EE0FFF1F6A
:104C9000EF5AF54E918380831092621A90934A1ACC
:104CA0008093491A4093481A80914D1A90914E1A58
:104CB0000B9690934E1A80934D1A1092651AC091DC
:104CC000651AC230F1F40E9408042091681A822FFC
:104CD00090E090934C1A80934B1AC093621AE09123
:104CE000661AF0E0EE0FFF1FEF5AF54E80819181BA
:104CF00090934A1A8093491A2093481A83E080932C
:104D0000651A8091651A813011F00C948B4022E075
:104D10002093621AE091661AF0E0EE0FFF1FEF5A3F
:104D2000F54E8081918190934A1A8093491A80911F
:104D3000611A8093481A2093651A0C948B408091D5
:104D4000651A823001F52091721A2093681A109228
:104D5000621AE091661AF0E0EE0FFF1FEF5AF54E6F
:104D60008081918190934A1A8093491A2093481A1E
:104D700080914D1A90914E1A069690934E1A8093F8
:104D80004D1A1092651A2091651A213011F00C9479
:104D90008B408EE190E09093501A80934F1A2093AD
:104DA000621A8091721A90E09E6190934A1A8093E1
:104DB000491A8DE78093481A82E08093651A0C9413
:104DC0008B408091651A833079F50E9408044091E8
:104DD000681A242F30E0922F8827822B932B9F7301
:104DE00090934C1A80934B1AE091661AEF5FE7702C
:104DF000E093661AF0E0EE0FFF1FEF5AF54E918335
:104E000080831092621A90934A1A8093491A4093B1
:104E1000481A80914D1A90914E1A0B9690934E1A03
:104E200080934D1A1092651AC091651AC230F1F440
:104E30000E9408042091681A822F90E090934C1AE7
:104E400080934B1AC093621AE091661AF0E0EE0F5D
:104E5000FF1FEF5AF54E8081918190934A1A8093FB
:104E6000491A2093481A83E08093651A8091651A45
:104E7000813011F00C948B4022E02093621AE09173
:104E8000661AF0E0EE0FFF1FEF5AF54E8081918118
:104E900090934A1A8093491A8091611A8093481A14
:104EA0002093651A0C948B408091651A823001F52D
:104EB0002091721A2093681A1092621AE091661A71
:104EC000F0E0EE0FFF1FEF5AF54E80819181909335
:104ED0004A1A8093491A2093481A80914D1A90914A
:104EE0004E1A069690934E1A80934D1A1092651A98
:104EF0002091651A213011F00C948B408FE190E0E5
:104F00009093501A80934F1A2093621A8091721ACC
:104F100090E09F6190934A1A8093491A8FE780939B
:104F2000481A82E08093651A0C948B408091651A30
:104F3000813011F00C948B4010926A1A8091721A91
:104F40000E94E7038093721A80936B1A1092621A80
:104F5000E091661AF0E0EE0FFF1FEF5AF54E8081E8
:104F6000918190934A1A8093491A80E88093481A55
:104F700080914D1A90914E1A059690934E1A8093F7
:104F80004D1A1092651A0C948B408091651A8130ED
:104F900011F00C948B4010926A1A8091711A0E9441
:104FA000E7038093721A80936B1A1092621AE09151
:104FB000661AF0E0EE0FFF1FEF5AF54E80819181E7
:104FC00090934A1A8093491A81E88093481A8091F5
:104FD0004D1A90914E1A059690934E1A80934D1A41
:104FE0001092651A0C948B408091651A813011F0F3
:104FF0000C948B4010926A1A8091701A0E94E703F9
:105000008093721A80936B1A1092621AE091661A5A
:10501000F0E0EE0FFF1FEF5AF54E808191819093E3
:105020004A1A8093491A82E88093481A80914D1A4F
:1050300090914E1A059690934E1A80934D1A1092A5
:10504000651A0C948B408091651A813011F00C9494
:105050008B4010926A1A80916F1A0E94E703809326
:10506000721A80936B1A1092621AE091661AF0E03D
:10507000EE0FFF1FEF5AF54E8081918190934A1AEF
:105080008093491A83E88093481A80914D1A909131
:105090004E1A059690934E1A80934D1A1092651AE7
:1050A0000C948B408091651A813011F00C948B40E8
:1050B00010926A1A80916E1A0E94E7038093721A06
:1050C00080936B1A1092621AE091661AF0E0EE0F6C
:1050D000FF1FEF5AF54E8081918190934A1A809379
:1050E000491A84E88093481A80914D1A90914E1A7B
:1050F000059690934E1A80934D1A1092651A0C944F
:105100008B408091651A813011F00C948B40109285
:105110006A1A80916D1A0E94E7038093721A809335
:105120006B1A1092621AE091661AF0E0EE0FFF1F00
:10513000EF5AF54E8081918190934A1A8093491AD3
:1051400085E88093481A80914D1A90914E1A0596E1
:1051500090934E1A80934D1A1092651A0C948B40BE
:105160008091651A813011F00C948B4010926A1A6C
:1051700080916C1A0E94E7038093721A80936B1AD5
:105180001092621AE091661AF0E0EE0FFF1FEF5ADC
:10519000F54E8081918190934A1A8093491A86E84E
:1051A0008093481A80914D1A90914E1A05969093CB
:1051B0004E1A80934D1A1092651A0C948B40809170
:1051C000651A8230A9F580914F1A9091501A811575
:1051D00028E1920728F4FC01E85BFD4FC08101C083
:1051E000CFEFC093681A10926A1A8C2F0E94E703BF
:1051F0008093721A80936B1A1092621AE091661A69
:10520000F0E0EE0FFF1FEF5AF54E20813181309311
:105210004A1A2093491AC093481A80914D1A9091C6
:105220004E1A089690934E1A80934D1A1092651A52
:105230008091651A813011F00C948B4080916D1A29
:1052400090E0982F882720916C1A822B9093501A07
:1052500080934F1A22E02093621A90934A1A809307
:10526000491A87E88093481A2093651A0C948B405A
:105270008091651A813011F00C948B408091721AE4
:105280000E94E7038093721A80936B1A1092621A3D
:10529000E091661AF0E0EE0FFF1FEF5AF54E8081A5
:1052A000918190934A1A8093491A88E88093481A0A
:1052B00080914D1A90914E1A059690934E1A8093B4
:1052C0004D1A1092651A0C948B408091651A8130AA
:1052D00011F00C948B408091711A0E94E703809327
:1052E000721A80936B1A1092621AE091661AF0E0BB
:1052F000EE0FFF1FEF5AF54E8081918190934A1A6D
:105300008093491A89E88093481A80914D1A9091A8
:105310004E1A059690934E1A80934D1A1092651A64
:105320000C948B408091651A813011F00C948B4065
:105330008091701A0E94E7038093721A80936B1A0F
:105340001092621AE091661AF0E0EE0FFF1FEF5A1A
:10535000F54E8081918190934A1A8093491A8AE888
:105360008093481A80914D1A90914E1A0596909309
:105370004E1A80934D1A1092651A0C948B408091AE
:10538000651A813011F00C948B4080916F1A0E9445
:10539000E7038093721A80936B1A1092621AE0915D
:1053A000661AF0E0EE0FFF1FEF5AF54E80819181F3
:1053B00090934A1A8093491A8BE88093481A8091F7
:1053C0004D1A90914E1A059690934E1A80934D1A4D
:1053D0001092651A0C948B408091651A813011F0FF
:1053E0000C948B4080916E1A0E94E7038093721A8E
:1053F00080936B1A1092621AE091661AF0E0EE0F39
:10540000FF1FEF5AF54E8081918190934A1A809345
:10541000491A8CE88093481A80914D1A90914E1A3F
:10542000059690934E1A80934D1A1092651A0C941B
:105430008B408091651A813011F00C948B408091E3
:105440006D1A0E94E7038093721A80936B1A109270
:10545000621AE091661AF0E0EE0FFF1FEF5AF54E68
:105460008081918190934A1A8093491A8DE88093A4
:10547000481A80914D1A90914E1A059690934E1AA3
:1054800080934D1A1092651A0C948B408091651A86
:10549000813011F00C948B4080916C1A0E94E703CC
:1054A0008093721A80936B1A1092621AE091661AB6
:1054B000F0E0EE0FFF1FEF5AF54E8081918190933F
:1054C0004A1A8093491A8EE88093481A80914D1A9F
:1054D00090914E1A059690934E1A80934D1A109201
:1054E000651A0C948B408091651A823099F58091F1
:1054F0004F1A9091501A811538E1930728F4FC0156
:10550000E85BFD4FC08101C0CFEFC093681A8C2FBC
:105510000E94E7038093721A80936B1A1092621AAA
:10552000E091661AF0E0EE0FFF1FEF5AF54E208172
:10553000318130934A1A2093491AC093481A8091B6
:105540004D1A90914E1A089690934E1A80934D1AC8
:105550001092651A8091651A813011F00C948B407D
:1055600080916D1A90E0982F882720916C1A822BD9
:105570009093501A80934F1A22E02093621A9093CE
:105580004A1A8093491A8FE88093481A2093651A23
:105590000C948B408091651A813011F00C948B40F3
:1055A00010926A1A8091721A0E94F7038093721AFD
:1055B00080936B1A1092621AE091661AF0E0EE0F77
:1055C000FF1FEF5AF54E8081918190934A1A809384
:1055D000491A80E98093481A80914D1A90914E1A89
:1055E000059690934E1A80934D1A1092651A0C945A
:1055F0008B408091651A813011F00C948B40109291
:105600006A1A8091711A0E94F7038093721A80932C
:105610006B1A1092621AE091661AF0E0EE0FFF1F0B
:10562000EF5AF54E8081918190934A1A8093491ADE
:1056300081E98093481A80914D1A90914E1A0596EF
:1056400090934E1A80934D1A1092651A0C948B40C9
:105650008091651A813011F00C948B4010926A1A77
:105660008091701A0E94F7038093721A80936B1ACC
:105670001092621AE091661AF0E0EE0FFF1FEF5AE7
:10568000F54E8081918190934A1A8093491A82E95C
:105690008093481A80914D1A90914E1A05969093D6
:1056A0004E1A80934D1A1092651A0C948B4080917B
:1056B000651A813011F00C948B4010926A1A809117
:1056C0006F1A0E94F7038093721A80936B1A1092DC
:1056D000621AE091661AF0E0EE0FFF1FEF5AF54EE6
:1056E0008081918190934A1A8093491A83E980932B
:1056F000481A80914D1A90914E1A059690934E1A21
:1057000080934D1A1092651A0C948B408091651A03
:10571000813011F00C948B4010926A1A80916E1AAD
:105720000E94F7038093721A80936B1A1092621A88
:10573000E091661AF0E0EE0FFF1FEF5AF54E808100
:10574000918190934A1A8093491A84E98093481A68
:1057500080914D1A90914E1A059690934E1A80930F
:105760004D1A1092651A0C948B408091651A813005
:1057700011F00C948B4010926A1A80916D1A0E945D
:10578000F7038093721A80936B1A1092621AE09159
:10579000661AF0E0EE0FFF1FEF5AF54E80819181FF
:1057A00090934A1A8093491A85E98093481A809108
:1057B0004D1A90914E1A059690934E1A80934D1A59
:1057C0001092651A0C948B408091651A813011F00B
:1057D0000C948B4010926A1A80916C1A0E94F70305
:1057E0008093721A80936B1A1092621AE091661A73
:1057F000F0E0EE0FFF1FEF5AF54E808191819093FC
:105800004A1A8093491A86E98093481A80914D1A62
:1058100090914E1A059690934E1A80934D1A1092BD
:10582000651A0C948B408091651A8230A9F580919D
:105830004F1A9091501A811528E1920728F4FC0123
:10584000E85BFD4FC08101C0CFEFC093681A109292
:105850006A1A8C2F0E94F7038093721A80936B1A36
:105860001092621AE091661AF0E0EE0FFF1FEF5AF5
:10587000F54E2081318130934A1A2093491AC09302
:10588000481A80914D1A90914E1A089690934E1A8C
:1058900080934D1A1092651A8091651A813011F02B
:1058A0000C948B4080916D1A90E0982F882720915E
:1058B0006C1A822B9093501A80934F1A22E02093F7
:1058C000621A90934A1A8093491A87E98093481A7A
:1058D0002093651A0C948B408091651A813011F0E9
:1058E0000C948B408091721A0E94F7038093721A75
:1058F00080936B1A1092621AE091661AF0E0EE0F34
:10590000FF1FEF5AF54E8081918190934A1A809340
:10591000491A88E98093481A80914D1A90914E1A3D
:10592000059690934E1A80934D1A1092651A0C9416
:105930008B408091651A813011F00C948B408091DE
:10594000711A0E94F7038093721A80936B1A109257
:10595000621AE091661AF0E0EE0FFF1FEF5AF54E63
:105960008081918190934A1A8093491A89E98093A2
:10597000481A80914D1A90914E1A059690934E1A9E
:1059800080934D1A1092651A0C948B408091651A81
:10599000813011F00C948B408091701A0E94F703B3
:1059A0008093721A80936B1A1092621AE091661AB1
:1059B000F0E0EE0FFF1FEF5AF54E8081918190933A
:1059C0004A1A8093491A8AE98093481A80914D1A9D
:1059D00090914E1A059690934E1A80934D1A1092FC
:1059E000651A0C948B408091651A813011F00C94EB
:1059F0008B4080916F1A0E94F7038093721A8093F4
:105A00006B1A1092621AE091661AF0E0EE0FFF1F17
:105A1000EF5AF54E8081918190934A1A8093491AEA
:105A20008BE98093481A80914D1A90914E1A0596F1
:105A300090934E1A80934D1A1092651A0C948B40D5
:105A40008091651A813011F00C948B4080916E1A10
:105A50000E94F7038093721A80936B1A1092621A55
:105A6000E091661AF0E0EE0FFF1FEF5AF54E8081CD
:105A7000918190934A1A8093491A8CE98093481A2D
:105A800080914D1A90914E1A059690934E1A8093DC
:105A90004D1A1092651A0C948B408091651A8130D2
:105AA00011F00C948B4080916D1A0E94F703809343
:105AB000721A80936B1A1092621AE091661AF0E0E3
:105AC000EE0FFF1FEF5AF54E8081918190934A1A95
:105AD0008093491A8DE98093481A80914D1A9091CC
