:1000000015C2000044C2000042C2000040C200000D
:100010003EC200003CC200003AC2000038C20000EC
:1000200036C2000034C2000032C2000030C20000FC
:100030002EC200002CC200002AC2000028C200000C
:1000400026C2000024C2000022C2000020C200001C
:100050001EC200001CC200001AC200000C94F9412C
:1000600016C2000014C2000012C2000010C200003C
:100070000EC200000CC200000AC2000008C200004C
:1000800006C2000004C2000002C2000000C200005C
:10009000FEC10000FCC10000FAC100000C947F46C4
:1000A000F6C10000F4C10000F2C10000F0C1000080
:1000B000EEC10000ECC10000EAC10000E8C1000090
:1000C000E6C10000E4C10000E2C10000E0C10000A0
:1000D000DEC10000DCC10000DAC10000D8C10000B0
:1000E000D6C100007C05A205C805FC0525066906E9
:1000F0009206D506040730075C078E07B707F90795
:10010000240867089608C208EE0823094C099009DC
:10011000BB09FE092D0A590A850ABE0AE70A290BFE
:10012000540B970BC70BF30B58411F0C480C8D0C4D
:10013000B80CFB0C2A0D560D5841820DAB0DF10D7C
:100140001C0E600E8F0EBB0E5841E70E100F560F9F
:10015000810FC50F584158415841F40F1D106110CF
:100160008C10F7102811A311E2116212A4121313BC
:100170005513C8130A148514C71447158915F815A3
:100180003A16AD16EF166A17AC172C186E18DD1854
:100190001F199219D419511A931A151B571BC61BF4
:1001A0000A1C7D1CCD1C481D8A1D0A1E4C1EBB1E30
:1001B000FD1E701FB21F2D206F20EF203121A021C6
:1001C000E2215522972212235423D4231624852476
:1001D000C7243A257C25F9253B26BD26FF266E2718
:1001E000B027232865289428C328F22821295029DC
:1001F0007F29AE29072A342A612A8E2ABB2AE82AB7
:10020000152B422B992BC82BF72B262C552C842CE5
:10021000B32CE22C3B2D682D952DC22DEF2D1C2EDD
:10022000492E762ECD2EF82E282F582F882FB82F16
:10023000E82F183071309C30CC30FC302C315C31E0
:100240008C31BC31153240327032A032D0320033A2
:1002500030336033B933E633133440346D349A3479
:10026000C734F4344B3570359935C235EB35143617
:100270003D366636B936E23607373037593782377A
:10028000AB37D4372738503879389E38C738F038EC
:10029000193942399339BA39E139083A2B3A523A85
:1002A000793AA03AF13A183B3F3B663B8D3BB03B75
:1002B000D73BFE3B4F3C763C9D3CC43CEB3C123D67
:1002C000353D5C3DAD3DD43DFB3D223E493E703E5B
:1002D000973EBA3E0B3F5A3FA93FF83F47409640F2
:1002E000E54034411C431F430E4312431843564319
:1002F000234327432D43314335433B433F4343434C
:10030000564349434D43514300000A0B02090C0D6B
:100310000E080703040100000000000000000000B8
:1003200000000000000000000000000000000000CD
:10033000000000001211100000000000000000008A
:1003400000000000000000000000000000000102AA
:1003500010202008081020401020408002010201D7
:10036000080402010102040810204080804020108F
:1003700008040201800402018040201008040201E8
:100380000804020101020408102040800102040850
:100390001020408005050505070508080808020229
:1003A00002020A0A0808040404040101010101010F
:1003B00001010303030303030303040707070C0CF2
:1003C0000C0C0C0C0C0C02020202060606060606B9
:1003D00006060B0B0B0B0B0B0B0B00002000230076
:1003E000260029002C002F0032000001000003012C
:1003F0000601090100002200250028002B002E0024
:100400003100340002010000050108010B01000069
:100410002100240027002A002D00300033000101B4
:100420000000040107010A014E04E44511241FBE27
:10043000CFEFD1E2DEBFCDBF00E00CBF16E0A0E001
:10044000B2E0E6EBFFE800E00BBF02C007900D92C0
:10045000A03CB107D9F720E2A0ECB6E001C01D92A4
:10046000AD36B207E1F714E0CCE2D4E000E006C01C
:1004700022970109FE010BBF0E94D547C832D10760
:1004800080E00807A9F70E94EC410C94D947B8CD49
:10049000CF93C42F843140F4643030F4462F682F5A
:1004A00081EC96E00E9467446C2F81EC96E0CF913E
:1004B0000C94E441FF920F931F93CF93DF93D62FB9
:1004C000142F9FEF920FC1E001C0CC0F9A95EAF76D
:1004D000022F080F801771F09C2F912311F041E03B
:1004E00001C042E0FF24F394F80E6D2FD1DFC695D2
:1004F0008F2DF0CFDF91CF911F910F91FF90089535
:10050000823541F0833521F0893451F48CE003C009
:100510008BE001C08AE00E94C54321E0892B09F0ED
:1005200020E0822F0895EF92FF920F931F93CF93B5
:10053000DF9310926F0700EA12E0C0E0D0E080E89D
:10054000E82EF12CF80181918F010E94C543892B7F
:1005500061F420916F07C7010C2E02C09595879515
:100560000A94E2F7282B20936F072196C830D10513
:1005700049F780916F07DF91CF911F910F91FF9005
:10058000EF900895DF92EF92FF920F931F93CF9316
:10059000DF93EC01162FF42ED22EC5DF4D2F46959A
:1005A0004695469523E061E082E084DF23E04D2F0D
:1005B00061E086E07FDFAE0196E0569547959A951B
:1005C000E1F722E061E08AE075DFAE0123E05695B5
:1005D00047952A95E1F723E061E08DE06BDF23E0AA
:1005E0004C2F61E081E166DFC12FD0E0AE0136E043
:1005F000559547953A95E1F722E062E08AE05ADFA7
:10060000AE0163E0559547956A95E1F723E062E016
:100610008DE050DF23E0412F62E081E14BDF21E0FC
:100620004E2D62E080E046DF21E04D2D62E082E069
:1006300041DF22E04F2D62E083E03CDF21E0402FEC
:1006400062E086E037DF40916F0742954695469518
:100650004370406360E080E01BDF40916F0750E033
:1006600073E0559547957A95E1F74770406360E0F0
:1006700081E00EDF40916F074770406360E082E0E9
:10068000DF91CF911F910F91FF90EF90DF9000CFFE
:10069000CF93DF93C0EAD2E062E089910E94574392
:1006A00082E0C83AD807C1F762E08BE00E94574366
:1006B00062E08CE00E94574362E08AE00E94574368
:1006C00081EC96E00E94274581EC96E00E9415445B
:1006D00040E152E061E081EC96E00E949A4448E0FB
:1006E00052E062E081EC96E00E949A4440E052E0E1
:1006F00063E081EC96E00E949A4440E260E080E092
:10070000C7DECFE460E281EC96E00E94E441C15094
:10071000C9F740E560E084E0BBDE61E681EC96E08D
:100720000E94E44167E681EC96E00E94E44165E6C0
:1007300081EC96E00E94E44142E563E080E0A8DEBF
:1007400049E463E082E0A4DE63E581EC96E00E9488
:10075000E44164E781EC96E00E94E44148E463E010
:1007600086E096DE41E460E08DE092DE64E681ECB6
:1007700096E00E94E44164E681EC96E00E94E44148
:1007800062E781EC96E00E94E44144E463E08DE09E
:100790007FDE61E681EC96E00E94E44164E781EC53
:1007A00096E00E94E44161E681EC96E00E94E4411B
:1007B0001092C006DF91CF910895089540E2E42F92
:1007C000EF73F0E0EE0FFF1FE05EFD4F20813181FF
:1007D0002817390729F04F5F403689F780E00895E0
:1007E000842F0895EF92FF921F93CF93DF931F9270
:1007F000CDB7DEB7182F7A018091C006811109C0EC
:1008000081E08093C00681EC96E069830E945D449C
:100810006981C7016983D2DF482F6981811101C0D5
:1008200043E082E0810F0F90DF91CF911F91FF9005
:10083000EF902ECEAC0197FD05C010926D0710927F
:100840006E070895453585ED580741F410926E07FF
:1008500080916D078F5F80936D07089580916E077B
:100860008031B0F460916D07643090F490E1699F3D
:10087000F0011124E80FF11DEE0FFF1FE353F94FB4
:10088000208131812417350719F051834083AADF75
:1008900080916E078F5F80936E07089524E044E196
:1008A0006FE381EC96E00C94EE439EC0CF92DF9212
:1008B000EF92FF92CF93DF9300D01F92CDB7DEB7B8
:1008C000CDD0282F30E040E050E021153105410522
:1008D000510549F129833A834B835C830E9443424B
:1008E000C0907007D0907107E0907207F090730786
:1008F00029813A814B815C816C157D058E059F05B0
:1009000048F368EE73E080E090E00E94AD472C0D64
:100910003D1D4E1D5F1D209370073093710740935E
:100920007207509373070F900F900F900F90DF9105
:10093000CF91FF90EF90DF90CF90089590E021E06D
:10094000882321F080FD92278695FACF81E08927C0
:1009500008952091A31F90E0820F911D20919B1F6D
:10096000820F911D80937C1F90937D1F90939B1FFE
:1009700008952091A31F30E0281B310980919B1F0F
:10098000281B310920937C1F30937D1F30939B1FC0
:10099000822F08958091951F81111EC0E091971FAD
:1009A000F0E0EE0FFF1FEE57F04E808191819093A3
:1009B000811F8093801F9C012F5F3F4F3F733183C6
:1009C0002083811528E1920728F4FC01E858F84FAC
:1009D000808107C08FEF05C01092811F1092801F89
:1009E000A2DD8093991F089510929D1F10929E1F63
:1009F00010929F1F1092A01F1092A11F1092A21F71
:100A00001092A31F1092931F1092961F10929C1F7A
:100A10001092971F10927F1F10927E1F10929B1FA3
:100A200010929A1F1092981F1092951F1092941F67
:100A3000E2E8FFE1119211928FE1E239F807D1F774
:100A40001092781F25DEE8EAF2E0A8E7B7E081918E
:100A50008D9386E0E83AF807D1F70895EF920F9367
:100A60001F93CF93DF938091981F882369F0809123
:100A7000961F811109C01092981F10929A1F81E051
:100A80008093951F8093941FC0919A1F8091941F0B
:100A9000811104C0CC2381F00C94614183E530DDE9
:100AA00090917607891711F40C9461418093760731
:100AB0008111F0CF0C9461418091961F811114C077
:100AC00069DF2091991F2093921F81E08093961FE8
:100AD0001092931F8091801F9091811F90937B1F94
:100AE00080937A1F2093791F8091921F90E0FC01E0
:100AF000EE58FF4F0C94CF478091961F813011F034
:100B00000C945A4180939A1F1092931FE091971F63
:100B1000F0E0EE0FFF1FEE57F04E80819181909331
:100B20007B1F80937A1F1092791F80917E1F909176
:100B30007F1F049690937F1F80937E1F1092961FB5
:100B40000C945A412091961F213011F00C945A4177
:100B500020939A1F1092931FE091971FF0E0EE0FE1
:100B6000FF1FEE57F04E8081918190937B1F809301
:100B70007A1F2093791F80917E1F90917F1F04968A
:100B800090937F1F80937E1F1092961F0C945A4162
:100B90008091961F813011F00C945A412091A31F2F
:100BA00030E0C901880F892F881F990B80939B1F04
:100BB000220F331F282B2093A31F1092931FE09125
:100BC000971FF0E0EE0FFF1FEE57F04E80819181EE
:100BD00090937B1F80937A1F82E08093791F80918E
:100BE0007E1F90917F1F059690937F1F80937E1F9D
:100BF0001092961F0C945A418091961F813011F0EB
:100C00000C945A41E091971FE150E770E093971FD1
:100C10001092931FF0E0EE0FFF1FEE57F04E808111
:100C2000918190937B1F80937A1F83E08093791F3B
:100C300080917E1F90917F1F059690937F1F8093D8
:100C40007E1F1092961F0C945A418091961F8230FD
:100C500039F5A0DE10929B1FC091991F8C2F79DE71
:100C60008093A31F80939C1F1092931FE091971F66
:100C7000F0E0EE0FFF1FEE57F04E208131813093F0
:100C80007B1F20937A1FC093791F80917E1F9091C4
:100C90007F1F089690937F1F80937E1F1092961F50
:100CA0008091961F813011F00C945A4122E02093DC
:100CB000931F8091801F9091811F90937B1F809341
:100CC0007A1F8091921F8093791F2093961F0C9416
:100CD0005A418091961F813011F00C945A41E09155
:100CE000971FEF5FE770E093971FF0E0EE0FFF1F95
:100CF000EE57F04E118210821092931F10927B1FBC
:100D000010927A1F85E08093791F80917E1F9091C9
:100D10007F1F059690937F1F80937E1F1092961FD2
:100D20000C945A418091961F823009F533DE209150
:100D3000991F2093A31F1092931FE091971FF0E03B
:100D4000EE0FFF1FEE57F04E8081918190937B1F35
:100D500080937A1F2093791F80917E1F90917F1F2F
:100D6000089690937F1F80937E1F1092961F80910C
:100D7000961F813011F00C945A4122E02093931F6A
:100D8000E091971FF0E0EE0FFF1FEE57F04E8081CD
:100D9000918190937B1F80937A1F8091921F809303
:100DA000791F2093961F0C945A418091961F813091
:100DB00011F00C945A4180919B1F811106C08091C3
:100DC000971F815087708093971F1092931FE09117
:100DD000971FF0E0EE0FFF1FEE57F04E80819181DC
:100DE00090937B1F80937A1F87E08093791F809177
:100DF0007E1F90917F1F049690937F1F80937E1F8C
:100E00001092961F0C945A418091961F813011F0D8
:100E10000C945A418091A21F8F5F8093A21F8093F0
:100E20009C1F1092931FE091971FF0E0EE0FFF1FA1
:100E3000EE57F04E8081918190937B1F80937A1FB3
:100E400088E08093791F80917E1F90917F1F059687
:100E500090937F1F80937E1F1092961F0C945A418F
:100E60008091961F813011F00C945A418091A21FFD
:100E700081508093A21F80939C1F1092931FE0913A
:100E8000971FF0E0EE0FFF1FEE57F04E808191812B
:100E900090937B1F80937A1F89E08093791F8091C4
:100EA0007E1F90917F1F059690937F1F80937E1FDA
:100EB0001092961F0C945A418091961F813011F028
:100EC0000C945A418091A31F982F917090939B1F6F
:100ED0009795992797958695892B8093A31F1092B4
:100EE000931FE091971FF0E0EE0FFF1FEE57F04EBB
:100EF0008081918190937B1F80937A1F8AE08093F9
:100F0000791F80917E1F90917F1F059690937F1F80
:100F100080937E1F1092961F0C945A418091961FC9
:100F2000813011F00C945A41E091971FE150E77025
:100F3000E093971F1092931FF0E0EE0FFF1FEE5704
:100F4000F04E8081918190937B1F80937A1F8BE07C
:100F50008093791F80917E1F90917F1F05969093BB
:100F60007F1F80937E1F1092961F0C945A41809190
:100F7000961F823029F50EDDC091991F8C2FE9DC78
:100F80008093A31F80939C1F1092931FE091971F43
:100F9000F0E0EE0FFF1FEE57F04E208131813093CD
:100FA0007B1F20937A1FC093791F80917E1F9091A1
:100FB0007F1F089690937F1F80937E1F1092961F2D
:100FC0008091961F813011F00C945A4122E02093B9
:100FD000931F8091801F9091811F90937B1F80931E
:100FE0007A1F8091921F8093791F2093961F0C94F3
:100FF0005A418091961F813011F00C945A41E09132
:10100000971FEF5FE770E093971FF0E0EE0FFF1F71
:10101000EE57F04E88E090E0918380831092931F0A
:1010200090937B1F80937A1F8DE08093791F80912E
:101030007E1F90917F1F059690937F1F80937E1F48
:101040001092961F0C945A418091961F823009F598
:10105000A1DC2091991F2093A21F1092931FE09171
:10106000971FF0E0EE0FFF1FEE57F04E8081918149
:1010700090937B1F80937A1F2093791F80917E1F0E
:1010800090917F1F089690937F1F80937E1F1092F0
:10109000961F8091961F813011F00C945A4122E0E6
:1010A0002093931FE091971FF0E0EE0FFF1FEE5784
:1010B000F04E8081918190937B1F80937A1F809165
:1010C000921F8093791F2093961F0C945A41809110
:1010D000961F813011F00C945A4180919C1F8823F7
:1010E00031F08091971F815087708093971F1092E5
:1010F000931FE091971FF0E0EE0FFF1FEE57F04EA9
:101100008081918190937B1F80937A1F8FE08093E1
:10111000791F80917E1F90917F1F049690937F1F6F
:1011200080937E1F1092961F0C945A418091961FB7
:10113000813011F00C945A418091A11F8F5F8093F0
:10114000A11F80939C1F1092931FE091971FF0E0C6
:10115000EE0FFF1FEE57F04E8081918190937B1F21
:1011600080937A1F80E18093791F80917E1F9091F8
:101170007F1F059690937F1F80937E1F1092961F6E
:101180000C945A418091961F813011F00C945A4171
:101190008091A11F81508093A11F80939C1F10926A
:1011A000931FE091971FF0E0EE0FFF1FEE57F04EF8
:1011B0008081918190937B1F80937A1F81E180933E
:1011C000791F80917E1F90917F1F059690937F1FBE
:1011D00080937E1F1092961F0C945A418091961F07
:1011E000813011F00C945A418091A31F90E0880F38
:1011F000991F20919B1F822B80937C1F90937D1FB2
:101200008093A31F90939B1F1092931FE091971FB1
:10121000F0E0EE0FFF1FEE57F04E8081918190932A
:101220007B1F80937A1F82E18093791F80917E1FBC
:1012300090917F1F059690937F1F80937E1F109241
:10124000961F0C945A418091961F813011F00C9496
:101250005A41E091971FE150E770E093971F109279
:10126000931FF0E0EE0FFF1FEE57F04E808191814B
:1012700090937B1F80937A1F83E18093791F8091E5
:101280007E1F90917F1F059690937F1F80937E1FF6
:101290001092961F0C945A418091961F823039F516
:1012A00079DB10929B1FC091991F8C2F62DB80937A
:1012B000A31F80939C1F1092931FE091971FF0E053
:1012C000EE0FFF1FEE57F04E2081318130937B1FD0
:1012D00020937A1FC093791F80917E1F90917F1F6A
:1012E000089690937F1F80937E1F1092961F809187
:1012F000961F813011F00C945A4122E02093931FE5
:101300008091801F9091811F90937B1F80937A1F03
:101310008091921F8093791F2093961F0C945A41BD
:101320008091961F813011F00C945A41E091971FE3
:10133000EF5FE770E093971FF0E0EE0FFF1FEE57AF
:10134000F04E80E190E0918380831092931F909300
:101350007B1F80937A1F85E18093791F80917E1F88
:1013600090917F1F059690937F1F80937E1F109210
:10137000961F0C945A418091961F823009F50ADB22
:101380002091991F2093A11F1092931FE091971F06
:10139000F0E0EE0FFF1FEE57F04E808191819093A9
:1013A0007B1F80937A1F2093791F80917E1F9091DD
:1013B0007F1F089690937F1F80937E1F1092961F29
:1013C0008091961F813011F00C945A4122E02093B5
:1013D000931FE091971FF0E0EE0FFF1FEE57F04EC6
:1013E0008081918190937B1F80937A1F8091921FBF
:1013F0008093791F2093961F0C945A418091961FD9
:10140000813011F00C945A4180919C1F87FD06C0D9
:101410008091971F815087708093971F1092931F20
:10142000E091971FF0E0EE0FFF1FEE57F04E808126
:10143000918190937B1F80937A1F87E18093791F1E
:1014400080917E1F90917F1F049690937F1F8093C1
:101450007E1F1092961F0C945A418091961F8130E6
:1014600011F00C945A418091A01F8F5F8093A01FB0
:1014700080939C1F1092931FE091971FF0E0EE0F56
:10148000FF1FEE57F04E8081918190937B1F8093D8
:101490007A1F88E18093791F80917E1F90917F1F32
:1014A000059690937F1F80937E1F1092961F0C9439
:1014B0005A418091961F813011F00C945A418091CD
:1014C000A01F81508093A01F80939C1F1092931F98
:1014D000E091971FF0E0EE0FFF1FEE57F04E808176
:1014E000918190937B1F80937A1F89E18093791F6C
:1014F00080917E1F90917F1F059690937F1F809310
:101500007E1F1092961F0C945A418091961F813035
:1015100011F00C945A4180919B1F90E0982F8827DE
:101520002091A31F822B90937D1F80937C1F9C0191
:10153000369527952093A31F817080939B1F10924F
:10154000931FE091971FF0E0EE0FFF1FEE57F04E54
:101550008081918190937B1F80937A1F8AE1809391
:10156000791F80917E1F90917F1F059690937F1F1A
:1015700080937E1F1092961F0C945A418091961F63
:10158000813011F00C945A41E091971FE150E770BF
:10159000E093971F1092931FF0E0EE0FFF1FEE579E
:1015A000F04E8081918190937B1F80937A1F8BE115
:1015B0008093791F80917E1F90917F1F0596909355
:1015C0007F1F80937E1F1092961F0C945A4180912A
:1015D000961F823029F5DED9C091991F8C2FC9D969
:1015E0008093A31F80939C1F1092931FE091971FDD
:1015F000F0E0EE0FFF1FEE57F04E20813181309367
:101600007B1F20937A1FC093791F80917E1F90913A
:101610007F1F089690937F1F80937E1F1092961FC6
:101620008091961F813011F00C945A4122E0209352
:10163000931F8091801F9091811F90937B1F8093B7
:101640007A1F8091921F8093791F2093961F0C948C
:101650005A418091961F813011F00C945A41E091CB
:10166000971FEF5FE770E093971FF0E0EE0FFF1F0B
:10167000EE57F04E88E190E0918380831092931FA3
:1016800090937B1F80937A1F8DE18093791F8091C7
:101690007E1F90917F1F059690937F1F80937E1FE2
:1016A0001092961F0C945A418091961F823009F532
:1016B00071D92091991F2093A01F1092931FE09140
:1016C000971FF0E0EE0FFF1FEE57F04E80819181E3
:1016D00090937B1F80937A1F2093791F80917E1FA8
:1016E00090917F1F089690937F1F80937E1F10928A
:1016F000961F8091961F813011F00C945A4122E080
:101700002093931FE091971FF0E0EE0FFF1FEE571D
:10171000F04E8081918190937B1F80937A1F8091FE
:10172000921F8093791F2093961F0C945A418091A9
:10173000961F813011F00C945A4180919C1FFED865
:10174000811106C08091971F815087708093971FE9
:101750001092931FE091971FF0E0EE0FFF1FEE57DE
:10176000F04E8081918190937B1F80937A1F8FE14F
:101770008093791F80917E1F90917F1F0496909394
:101780007F1F80937E1F1092961F0C945A41809168
:10179000961F813011F00C945A4180919F1F8F5FEA
:1017A00080939F1F80939C1F1092931FE091971F1F
:1017B000F0E0EE0FFF1FEE57F04E80819181909385
:1017C0007B1F80937A1F80E28093791F80917E1F18
:1017D00090917F1F059690937F1F80937E1F10929C
:1017E000961F0C945A418091961F813011F00C94F1
:1017F0005A4180919F1F815080939F1F80939C1F0F
:101800001092931FE091971FF0E0EE0FFF1FEE572D
:10181000F04E8081918190937B1F80937A1F81E2AB
:101820008093791F80917E1F90917F1F05969093E2
:101830007F1F80937E1F1092961F0C945A418091B7
:10184000961F813011F00C945A41E091971FE1509E
:10185000E770E093971F1092931FF0E0EE0FFF1FC9
:10186000EE57F04E8081918190937B1F80937A1F79
:1018700083E28093791F80917E1F90917F1F059650
:1018800090937F1F80937E1F1092961F0C945A4155
:101890008091961F823041F57DD810929B1F209138
:1018A000991F8091A31F82238093A31F80939C1F65
:1018B0001092931FE091971FF0E0EE0FFF1FEE577D
:1018C000F04E8081918190937B1F80937A1F2093AB
:1018D000791F80917E1F90917F1F089690937F1FA4
:1018E00080937E1F1092961F8091961F813011F079
:1018F0000C945A4122E02093931F8091801F909175
:10190000811F90937B1F80937A1F8091921F8093F9
:10191000791F2093961F0C945A418091961F813015
:1019200011F00C945A41E091971FEF5FE770E0933C
:10193000971FF0E0EE0FFF1FEE57F04E80E290E0B1
:10194000918380831092931F90937B1F80937A1FC3
:1019500085E28093791F80917E1F90917F1F05966D
:1019600090937F1F80937E1F1092961F0C945A4174
:101970008091961F823009F50DD82091991F2093F0
:101980009F1F1092931FE091971FF0E0EE0FFF1F33
:10199000EE57F04E8081918190937B1F80937A1F48
:1019A0002093791F80917E1F90917F1F08969093BE
:1019B0007F1F80937E1F1092961F8091961F81300B
:1019C00011F00C945A4122E02093931FE091971F4D
:1019D000F0E0EE0FFF1FEE57F04E80819181909363
:1019E0007B1F80937A1F8091921F8093791F209391
:1019F000961F0C945A418091961F813011F00C94DF
:101A00005A4180919B1F882331F08091971F81500C
:101A100087708093971F1092931FE091971FF0E0BB
:101A2000EE0FFF1FEE57F04E8081918190937B1F48
:101A300080937A1F87E28093791F80917E1F909117
:101A40007F1F049690937F1F80937E1F1092961F96
:101A50000C945A418091961F813011F00C945A4198
:101A600080919E1F8F5F80939E1F80939C1F10927A
:101A7000931FE091971FF0E0EE0FFF1FEE57F04E1F
:101A80008081918190937B1F80937A1F88E280935D
:101A9000791F80917E1F90917F1F059690937F1FE5
:101AA00080937E1F1092961F0C945A418091961F2E
:101AB000813011F00C945A4180919E1F8150809387
:101AC0009E1F80939C1F1092931FE091971FF0E040
:101AD000EE0FFF1FEE57F04E8081918190937B1F98
:101AE00080937A1F89E28093791F80917E1F909165
:101AF0007F1F059690937F1F80937E1F1092961FE5
:101B00000C945A418091961F813011F00C945A41E7
:101B1000E091971FE150E770E093971F1092931F99
:101B2000F0E0EE0FFF1FEE57F04E80819181909311
:101B30007B1F80937A1F8BE28093791F80917E1F99
:101B400090917F1F059690937F1F80937E1F109228
:101B5000961F0C945A418091961F823049F50E943D
:101B6000CA0410929B1F2091991F8091A31F822766
:101B70008093A31F80939C1F1092931FE091971F47
:101B8000F0E0EE0FFF1FEE57F04E808191819093B1
:101B90007B1F80937A1F2093791F80917E1F9091E5
:101BA0007F1F089690937F1F80937E1F1092961F31
:101BB0008091961F813011F00C945A4122E02093BD
:101BC000931F8091801F9091811F90937B1F809322
:101BD0007A1F8091921F8093791F2093961F0C94F7
:101BE0005A418091961F813011F00C945A41E09136
:101BF000971FEF5FE770E093971FF0E0EE0FFF1F76
:101C0000EE57F04E88E290E0918380831092931F0C
:101C100090937B1F80937A1F8DE28093791F809130
:101C20007E1F90917F1F059690937F1F80937E1F4C
:101C30001092961F0C945A418091961F823011F594
:101C40000E94CA042091991F20939E1F1092931FF7
:101C5000E091971FF0E0EE0FFF1FEE57F04E8081EE
:101C6000918190937B1F80937A1F2093791F80919D
:101C70007E1F90917F1F089690937F1F80937E1FF9
:101C80001092961F8091961F813011F00C945A414A
:101C900022E02093931FE091971FF0E0EE0FFF1FCB
:101CA000EE57F04E8081918190937B1F80937A1F35
:101CB0008091921F8093791F2093961F0C945A4114
:101CC0008091961F813011F00C945A4180919C1F95
:101CD000811106C08091971F815087708093971F54
:101CE0001092931FE091971FF0E0EE0FFF1FEE5749
:101CF000F04E8081918190937B1F80937A1F8FE2B9
:101D00008093791F80917E1F90917F1F04969093FE
:101D10007F1F80937E1F1092961F0C945A418091D2
:101D2000961F813011F00C945A4180919D1F8F5F56
:101D300080939D1F80939C1F1092931FE091971F8B
:101D4000F0E0EE0FFF1FEE57F04E808191819093EF
:101D50007B1F80937A1F80E38093791F80917E1F81
:101D600090917F1F059690937F1F80937E1F109206
:101D7000961F0C945A418091961F813011F00C945B
:101D80005A4180919D1F815080939D1F80939C1F7D
:101D90001092931FE091971FF0E0EE0FFF1FEE5798
:101DA000F04E8081918190937B1F80937A1F81E315
:101DB0008093791F80917E1F90917F1F059690934D
:101DC0007F1F80937E1F1092961F0C945A41809122
:101DD000961F813011F00C945A41E091971FE15009
:101DE000E770E093971F1092931FF0E0EE0FFF1F34
:101DF000EE57F04E8081918190937B1F80937A1FE4
:101E000083E38093791F80917E1F90917F1F0596B9
:101E100090937F1F80937E1F1092961F0C945A41BF
:101E20008091961F823049F50E94CA0410929B1F30
:101E30002091991F8091A31F822B8093A31F8093D1
:101E40009C1F1092931FE091971FF0E0EE0FFF1F71
:101E5000EE57F04E8081918190937B1F80937A1F83
:101E60002093791F80917E1F90917F1F08969093F9
:101E70007F1F80937E1F1092961F8091961F813046
:101E800011F00C945A4122E02093931F8091801FFF
:101E90009091811F90937B1F80937A1F8091921F56
:101EA0008093791F2093961F0C945A418091961F1E
:101EB000813011F00C945A41E091971FEF5FE77069
:101EC000E093971FF0E0EE0FFF1FEE57F04E80E318
:101ED00090E0918380831092931F90937B1F809357
:101EE0007A1F85E38093791F80917E1F90917F1FD9
:101EF000059690937F1F80937E1F1092961F0C94DF
:101F00005A418091961F823011F50E94CA04209197
:101F1000991F20939D1F1092931FE091971FF0E04F
:101F2000EE0FFF1FEE57F04E8081918190937B1F43
:101F300080937A1F2093791F80917E1F90917F1F3D
:101F4000089690937F1F80937E1F1092961F80911A
:101F5000961F813011F00C945A4122E02093931F78
:101F6000E091971FF0E0EE0FFF1FEE57F04E8081DB
:101F7000918190937B1F80937A1F8091921F809311
:101F8000791F2093961F0C945A418091961F81309F
:101F900011F00C945A4180919C1F87FF06C08091DC
:101FA000971F815087708093971F1092931FE09125
:101FB000971FF0E0EE0FFF1FEE57F04E80819181EA
:101FC00090937B1F80937A1F87E38093791F809182
:101FD0007E1F90917F1F049690937F1F80937E1F9A
:101FE0001092961F0C945A418091961F813011F0E7
:101FF0000C945A41E091971FE150E770E093971FCE
:102000001092931FF0E0EE0FFF1FEE57F04E80810D
:10201000918190937B1F80937A1F8BE38093791F2C
:1020200080917E1F90917F1F059690937F1F8093D4
:102030007E1F1092961F0C945A418091961F8230F9
:1020400039F50E94CA0410929B1FC091991F8C2FD2
:102050000E94B90480939C1F1092931FE091971FD8
:10206000F0E0EE0FFF1FEE57F04E208131813093EC
:102070007B1F20937A1FC093791F80917E1F9091C0
:102080007F1F089690937F1F80937E1F1092961F4C
:102090008091961F813011F00C945A4122E02093D8
:1020A000931F8091801F9091811F90937B1F80933D
:1020B0007A1F8091921F8093791F2093961F0C9412
:1020C0005A418091961F813011F00C945A41E09151
:1020D000971FEF5FE770E093971FF0E0EE0FFF1F91
:1020E000EE57F04E88E390E0918380831092931F27
:1020F00090937B1F80937A1F8DE38093791F80914B
:102100007E1F90917F1F059690937F1F80937E1F67
:102110001092961F0C945A418091961F833051F56E
:102120008091801F9091811F2091991F811538E126
:10213000930720F4FC01E858F84F20831092931F76
:10214000E091971FF0E0EE0FFF1FEE57F04E8081F9
:10215000918190937B1F80937A1F2093791F8091A8
:102160007E1F90917F1F099690937F1F80937E1F03
:102170001092961F8091961F8230D9F40E94CA0453
:1021800080919E1F90E0982F882720919D1F822B81
:102190009093811F8093801F23E02093931F90933F
:1021A0007B1F80937A1F8091991F8093791F2093C2
:1021B000961F8091961F813011F00C945A4122E0B5
:1021C0002093931FE091971FF0E0EE0FFF1FEE5753
:1021D000F04E8081918190937B1F80937A1F809134
:1021E000921F8093791F2093961F0C945A418091DF
:1021F000961F813011F00C945A4180919C1F0E94CF
:102200009E04882331F08091971F815087708093BE
:10221000971F1092931FE091971FF0E0EE0FFF1FA2
:10222000EE57F04E8081918190937B1F80937A1FAF
:102230008FE38093791F80917E1F90917F1F04967A
:1022400090937F1F80937E1F1092961F0C945A418B
:102250008091961F8330B9F50E94CA042091991F7E
:10226000322F3F7380917C1F90917D1F932B909311
:102270007D1F80937C1F30919B1FE091971F311130
:1022800008C0AE2FB0E0AA0FBB1FAE57B04E8D9363
:102290009C931092931FF0E0EE0FFF1FEE57F04E4D
:1022A0008081918190937B1F80937A1F2093791F67
:1022B00080917E1F90917F1F0A9690937F1F80933D
:1022C0007E1F1092961FC091961FC230F1F40E949B
:1022D000CA042091991F822F90E090937D1F8093D4
:1022E0007C1FC093931FE091971FF0E0EE0FFF1F3C
:1022F000EE57F04E8081918190937B1F80937A1FDF
:102300002093791F83E08093961F8091961F8130E0
:1023100011F00C945A4122E02093931FE091971FF3
:10232000F0E0EE0FFF1FEE57F04E80819181909309
:102330007B1F80937A1F8091921F8093791F209337
:10234000961F0C945A418091961F823001F520917E
:10235000991F2093A31F1092931FE091971FF0E005
:10236000EE0FFF1FEE57F04E8081918190937B1FFF
:1023700080937A1F2093791F80917E1F90917F1FF9
:10238000089690937F1F80937E1F1092961F8091D6
:10239000961F813011F00C945A411092811F1092B7
:1023A000801F8093931F8091A31F90E090937B1FC9
:1023B00080937A1F81E48093791F82E08093961F37
:1023C0000C945A418091961F8330E1F50E94CA0413
:1023D0002091991F322F3F7380917C1F90917D1F18
:1023E000932B90937D1F80937C1F30919B1F311105
:1023F0000DC0E091971FEF5FE770E093971FF0E04B
:10240000EE0FFF1FEE57F04E918380831092931FC3
:10241000E091971FF0E0EE0FFF1FEE57F04E808126
:10242000918190937B1F80937A1F2093791F8091D5
:102430007E1F90917F1F0A9690937F1F80937E1F2F
:102440001092961FC091961FC230F1F40E94CA04E8
:102450002091991F822F90E090937D1F80937C1F85
:10246000C093931FE091971FF0E0EE0FFF1FEE5710
:10247000F04E8081918190937B1F80937A1F2093EF
:10248000791F83E08093961F8091961F813011F011
:102490000C945A4122E02093931FE091971FF0E0A3
:1024A000EE0FFF1FEE57F04E8081918190937B1FBE
:1024B00080937A1F8091921F8093791F2093961F9B
:1024C0000C945A418091961F823001F52091991FFA
:1024D0002093A31F1092931FE091971FF0E0EE0F3F
:1024E000FF1FEE57F04E8081918190937B1F809368
:1024F0007A1F2093791F80917E1F90917F1F0896ED
:1025000090937F1F80937E1F1092961F2091961F9D
:10251000213011F00C945A4181E090E09093811F9A
:102520008093801F2093931F8091A31F90E0916060
:1025300090937B1F80937A1F83E48093791F82E0BE
:102540008093961F0C945A418091961F833059F5C1
:102550000E94CA042091991F322F3F7380917C1FE3
:1025600090917D1F932B90937D1F80937C1FE09112
:10257000971FF0E0EE0FFF1FEE57F04E9183808320
:102580001092931F90937B1F80937A1F2093791F43
:1025900080917E1F90917F1F0B9690937F1F809359
:1025A0007E1F1092961FC091961FC230F1F40E94B8
:1025B000CA042091991F822F90E090937D1F8093F1
:1025C0007C1FC093931FE091971FF0E0EE0FFF1F59
:1025D000EE57F04E8081918190937B1F80937A1FFC
:1025E0002093791F83E08093961F8091961F8130FE
:1025F00011F00C945A4122E02093931FE091971F11
:10260000F0E0EE0FFF1FEE57F04E80819181909326
:102610007B1F80937A1F8091921F8093791F209354
:10262000961F0C945A418091961F823001F520919B
:10263000991F2093A31F1092931FE091971FF0E022
:10264000EE0FFF1FEE57F04E8081918190937B1F1C
:1026500080937A1F2093791F80917E1F90917F1F16
:10266000089690937F1F80937E1F1092961F209153
:10267000961F213011F00C945A4182E090E0909323
:10268000811F8093801F2093931F8091A31F90E050
:10269000926090937B1F80937A1F85E48093791FCB
:1026A00082E08093961F0C945A418091961F83304C
:1026B00079F50E94CA042091991F322F3F738091AF
:1026C0007C1F90917D1F932B90937D1F80937C1F87
:1026D000E091971FEF5FE770E093971FF0E0EE0F38
:1026E000FF1FEE57F04E918380831092931F9093BB
:1026F0007B1F80937A1F2093791F80917E1F90917A
:102700007F1F0B9690937F1F80937E1F1092961FC2
:10271000C091961FC230F1F40E94CA042091991F03
:10272000822F90E090937D1F80937C1FC093931F16
:10273000E091971FF0E0EE0FFF1FEE57F04E808103
:10274000918190937B1F80937A1F2093791F83E060
:102750008093961F8091961F813011F00C945A41FE
:1027600022E02093931FE091971FF0E0EE0FFF1FF0
:10277000EE57F04E8081918190937B1F80937A1F5A
:102780008091921F8093791F2093961F0C945A4139
:102790008091961F823001F52091991F2093A31FED
:1027A0001092931FE091971FF0E0EE0FFF1FEE577E
:1027B000F04E8081918190937B1F80937A1F2093AC
:1027C000791F80917E1F90917F1F089690937F1FA5
:1027D00080937E1F1092961F2091961F213011F03A
:1027E0000C945A4183E090E09093811F8093801F66
:1027F0002093931F8091A31F90E0936090937B1F81
:1028000080937A1F87E48093791F82E08093961FDC
:102810000C945A418091961F8330B9F50E94CA04E6
:102820002091991F322F3F7380917C1F90917D1FC3
:10283000932B90937D1F80937C1F30919C1FE09180
:10284000971F332341F0AE2FB0E0AA0FBB1FAE5746
:10285000B04E8D939C931092931FF0E0EE0FFF1FEC
:10286000EE57F04E8081918190937B1F80937A1F69
:102870002093791F80917E1F90917F1F0A969093DD
:102880007F1F80937E1F1092961FC091961FC230AB
:10289000F1F40E94CA042091991F822F90E0909336
:1028A0007D1F80937C1FC093931FE091971FF0E0E2
:1028B000EE0FFF1FEE57F04E8081918190937B1FAA
:1028C00080937A1F2093791F83E08093961F8091D5
:1028D000961F813011F00C945A4122E02093931FEF
:1028E000E091971FF0E0EE0FFF1FEE57F04E808152
:1028F000918190937B1F80937A1F8091921F809388
:10290000791F2093961F0C945A418091961F823014
:1029100001F52091991F2093A31F1092931FE0911E
:10292000971FF0E0EE0FFF1FEE57F04E8081918170
:1029300090937B1F80937A1F2093791F80917E1F35
:1029400090917F1F089690937F1F80937E1F109217
:10295000961F2091961F213011F00C945A4184E06B
:1029600090E09093811F8093801F2093931F80910C
:10297000A31F90E0946090937B1F80937A1F89E45B
:102980008093791F82E08093961F0C945A41809126
:10299000961F8330E1F50E94CA042091991F322FBF
:1029A0003F7380917C1F90917D1F932B90937D1F8F
:1029B00080937C1F30919C1F332369F0E091971F17
:1029C000EF5FE770E093971FF0E0EE0FFF1FEE5709
:1029D000F04E918380831092931FE091971FF0E057
:1029E000EE0FFF1FEE57F04E8081918190937B1F79
:1029F00080937A1F2093791F80917E1F90917F1F73
:102A00000A9690937F1F80937E1F1092961FC0910D
:102A1000961FC230F1F40E94CA042091991F822FA0
:102A200090E090937D1F80937C1FC093931FE09153
:102A3000971FF0E0EE0FFF1FEE57F04E808191815F
:102A400090937B1F80937A1F2093791F83E080935C
:102A5000961F8091961F813011F00C945A4122E00C
:102A60002093931FE091971FF0E0EE0FFF1FEE57AA
:102A7000F04E8081918190937B1F80937A1F80918B
:102A8000921F8093791F2093961F0C945A41809136
:102A9000961F823001F52091991F2093A31F109259
:102AA000931FE091971FF0E0EE0FFF1FEE57F04EDF
:102AB0008081918190937B1F80937A1F2093791F4F
:102AC00080917E1F90917F1F089690937F1F809327
:102AD0007E1F1092961F2091961F213011F00C94AA
:102AE0005A4185E090E09093811F8093801F20934E
:102AF000931F8091A31F90E0956090937B1F80931C
:102B00007A1F8BE48093791F82E08093961F0C9448
:102B10005A418091961F833059F50E94CA04209132
:102B2000991F322F3F7380917C1F90917D1F932BB3
:102B300090937D1F80937C1FE091971FF0E0EE0F34
:102B4000FF1FEE57F04E918380831092931F909356
:102B50007B1F80937A1F2093791F80917E1F909115
:102B60007F1F0B9690937F1F80937E1F1092961F5E
:102B7000C091961FC230F1F40E94CA042091991F9F
:102B8000822F90E090937D1F80937C1FC093931FB2
:102B9000E091971FF0E0EE0FFF1FEE57F04E80819F
:102BA000918190937B1F80937A1F2093791F83E0FC
:102BB0008093961F8091961F813011F00C945A419A
:102BC00022E02093931FE091971FF0E0EE0FFF1F8C
:102BD000EE57F04E8081918190937B1F80937A1FF6
:102BE0008091921F8093791F2093961F0C945A41D5
:102BF0008091961F823001F52091991F2093A31F89
:102C00001092931FE091971FF0E0EE0FFF1FEE5719
:102C1000F04E8081918190937B1F80937A1F209347
:102C2000791F80917E1F90917F1F089690937F1F40
:102C300080937E1F1092961F2091961F213011F0D5
:102C40000C945A4186E090E09093811F8093801FFE
:102C50002093931F8091A31F90E0966090937B1F19
:102C600080937A1F8DE48093791F82E08093961F72
:102C70000C945A418091961F833079F50E94CA04C2
:102C80002091991F322F3F7380917C1F90917D1F5F
:102C9000932B90937D1F80937C1FE091971FEF5F94
:102CA000E770E093971FF0E0EE0FFF1FEE57F04E36
:102CB000918380831092931F90937B1F80937A1F40
:102CC0002093791F80917E1F90917F1F0B96909388
:102CD0007F1F80937E1F1092961FC091961FC23057
:102CE000F1F40E94CA042091991F822F90E09093E2
:102CF0007D1F80937C1FC093931FE091971FF0E08E
:102D0000EE0FFF1FEE57F04E8081918190937B1F55
:102D100080937A1F2093791F83E08093961F809180
:102D2000961F813011F00C945A4122E02093931F9A
:102D3000E091971FF0E0EE0FFF1FEE57F04E8081FD
:102D4000918190937B1F80937A1F8091921F809333
:102D5000791F2093961F0C945A418091961F8230C0
:102D600001F52091991F2093A31F1092931FE091CA
:102D7000971FF0E0EE0FFF1FEE57F04E808191811C
:102D800090937B1F80937A1F2093791F80917E1FE1
:102D900090917F1F089690937F1F80937E1F1092C3
:102DA000961F2091961F213011F00C945A4187E014
:102DB00090E09093811F8093801F2093931F8091B8
:102DC000A31F90E0976090937B1F80937A1F8FE4FE
:102DD0008093791F82E08093961F0C945A418091D2
:102DE000961F8330B9F50E94CA042091991F322F93
:102DF0003F7380917C1F90917D1F932B90937D1F3B
:102E000080937C1F30919C1FE091971F37FD08C075
:102E1000AE2FB0E0AA0FBB1FAE57B04E8D939C9360
:102E20001092931FF0E0EE0FFF1FEE57F04E8081DF
:102E3000918190937B1F80937A1F2093791F8091BB
:102E40007E1F90917F1F0A9690937F1F80937E1F15
:102E50001092961FC091961FC230F1F40E94CA04CE
:102E60002091991F822F90E090937D1F80937C1F6B
:102E7000C093931FE091971FF0E0EE0FFF1FEE57F6
:102E8000F04E8081918190937B1F80937A1F2093D5
:102E9000791F83E08093961F8091961F813011F0F7
:102EA0000C945A4122E02093931FE091971FF0E089
:102EB000EE0FFF1FEE57F04E8081918190937B1FA4
:102EC00080937A1F8091921F8093791F2093961F81
:102ED0000C945A418091961F823001F52091A31FD6
:102EE0002093991F1092931FE091971FF0E0EE0F2F
:102EF000FF1FEE57F04E8081918190937B1F80934E
:102F00007A1F2093791F80917E1F90917F1F0696D4
:102F100090937F1F80937E1F1092961F2091961F83
:102F2000213011F00C945A4188E090E09093811F79
:102F30008093801F2093931F8091A31F90E098603F
:102F400090937B1F80937A1F81E58093791F82E0A5
:102F50008093961F0C945A418091961F8330E1F51F
:102F60000E94CA042091991F322F3F7380917C1FC9
:102F700090917D1F932B90937D1F80937C1F3091A8
:102F80009C1F37FD0DC0E091971FEF5FE770E09346
:102F9000971FF0E0EE0FFF1FEE57F04E91838083F6
:102FA0001092931FE091971FF0E0EE0FFF1FEE5776
:102FB000F04E8081918190937B1F80937A1F2093A4
:102FC000791F80917E1F90917F1F0A9690937F1F9B
:102FD00080937E1F1092961FC091961FC230F1F40D
:102FE0000E94CA042091991F822F90E090937D1F28
:102FF00080937C1FC093931FE091971FF0E0EE0F2A
:10300000FF1FEE57F04E8081918190937B1F80933C
:103010007A1F2093791F83E08093961F8091961FDB
:10302000813011F00C945A4122E02093931FE091DB
:10303000971FF0E0EE0FFF1FEE57F04E8081918159
:1030400090937B1F80937A1F8091921F8093791FAA
:103050002093961F0C945A418091961F823001F55F
:103060002091A31F2093991F1092931FE091971F07
:10307000F0E0EE0FFF1FEE57F04E808191819093AC
:103080007B1F80937A1F2093791F80917E1F9091E0
:103090007F1F069690937F1F80937E1F1092961F2E
:1030A0002091961F213011F00C945A4189E090E054
:1030B0009093811F8093801F2093931F8091A31F63
:1030C00090E0996090937B1F80937A1F83E58093B3
:1030D000791F82E08093961F0C945A418091961F2D
:1030E000833059F50E94CA042091991F322F3F73F3
:1030F00080917C1F90917D1F932B90937D1F8093D7
:103100007C1FE091971FF0E0EE0FFF1FEE57F04E8F
:10311000918380831092931F90937B1F80937A1FDB
:103120002093791F80917E1F90917F1F0B96909323
:103130007F1F80937E1F1092961FC091961FC230F2
:10314000F1F40E94CA042091991F822F90E090937D
:103150007D1F80937C1FC093931FE091971FF0E029
:10316000EE0FFF1FEE57F04E8081918190937B1FF1
:1031700080937A1F2093791F83E08093961F80911C
:10318000961F813011F00C945A4122E02093931F36
:10319000E091971FF0E0EE0FFF1FEE57F04E808199
:1031A000918190937B1F80937A1F8091921F8093CF
:1031B000791F2093961F0C945A418091961F82305C
:1031C00001F52091A31F2093991F1092931FE09166
:1031D000971FF0E0EE0FFF1FEE57F04E80819181B8
:1031E00090937B1F80937A1F2093791F80917E1F7D
:1031F00090917F1F069690937F1F80937E1F109261
:10320000961F2091961F213011F00C945A418AE0AC
:1032100090E09093811F8093801F2093931F809153
:10322000A31F90E09A6090937B1F80937A1F85E59F
:103230008093791F82E08093961F0C945A4180916D
:10324000961F833079F50E94CA042091991F322F6E
:103250003F7380917C1F90917D1F932B90937D1FD6
:1032600080937C1FE091971FEF5FE770E093971FBB
:10327000F0E0EE0FFF1FEE57F04E91838083109227
:10328000931F90937B1F80937A1F2093791F8091C7
:103290007E1F90917F1F0B9690937F1F80937E1FC0
:1032A0001092961FC091961FC230F1F40E94CA047A
:1032B0002091991F822F90E090937D1F80937C1F17
:1032C000C093931FE091971FF0E0EE0FFF1FEE57A2
:1032D000F04E8081918190937B1F80937A1F209381
:1032E000791F83E08093961F8091961F813011F0A3
:1032F0000C945A4122E02093931FE091971FF0E035
:10330000EE0FFF1FEE57F04E8081918190937B1F4F
:1033100080937A1F8091921F8093791F2093961F2C
:103320000C945A418091961F823001F52091A31F81
:103330002093991F1092931FE091971FF0E0EE0FDA
:10334000FF1FEE57F04E8081918190937B1F8093F9
:103350007A1F2093791F80917E1F90917F1F069680
:1033600090937F1F80937E1F1092961F2091961F2F
:10337000213011F00C945A418BE090E09093811F22
:103380008093801F2093931F8091A31F90E09B60E8
:1033900090937B1F80937A1F87E58093791F82E04B
:1033A0008093961F0C945A418091961F8330C9F5E3
:1033B0000E94CA041091991F812F8F73C0917C1FA6
:1033C000D0917D1FD82BD0937D1FC0937C1F8091FF
:1033D0009C1F0E949E04E091971F811108C0AE2F90
:1033E000B0E0AA0FBB1FAE57B04ECD93DC93109246
:1033F000931FF0E0EE0FFF1FEE57F04E808191819A
:1034000090937B1F80937A1F1093791F80917E1F6A
:1034100090917F1F0A9690937F1F80937E1F10923A
:10342000961FC091961FC230F1F40E94CA042091E9
:10343000991F822F90E090937D1F80937C1FC093F3
:10344000931FE091971FF0E0EE0FFF1FEE57F04E35
:103450008081918190937B1F80937A1F2093791FA5
:1034600083E08093961F8091961F813011F00C9419
:103470005A4122E02093931FE091971FF0E0EE0F56
:10348000FF1FEE57F04E8081918190937B1F8093B8
:103490007A1F8091921F8093791F2093961F0C941E
:1034A0005A418091961F823001F52091A31F2093ED
:1034B000991F1092931FE091971FF0E0EE0FFF1FEE
:1034C000EE57F04E8081918190937B1F80937A1FFD
:1034D0002093791F80917E1F90917F1F0696909375
:1034E0007F1F80937E1F1092961F2091961F213080
:1034F00011F00C945A418CE090E09093811F8093DE
:10350000801F2093931F8091A31F90E09C60909355
:103510007B1F80937A1F89E58093791F82E08093D7
:10352000961F0C945A418091961F8330F1F50E94AA
:10353000CA041091991F812F8F73C0917C1FD09165
:103540007D1FD82BD0937D1FC0937C1F80919C1F23
:103550000E949E0481110DC0E091971FEF5FE770FC
:10356000E093971FF0E0EE0FFF1FEE57F04ED18370
:10357000C0831092931FE091971FF0E0EE0FFF1FA2
:10358000EE57F04E8081918190937B1F80937A1F3C
:103590001093791F80917E1F90917F1F0A969093C0
:1035A0007F1F80937E1F1092961FC091961FC2307E
:1035B000F1F40E94CA042091991F822F90E0909309
:1035C0007D1F80937C1FC093931FE091971FF0E0B5
:1035D000EE0FFF1FEE57F04E8081918190937B1F7D
:1035E00080937A1F2093791F83E08093961F8091A8
:1035F000961F813011F00C945A4122E02093931FC2
:10360000E091971FF0E0EE0FFF1FEE57F04E808124
:10361000918190937B1F80937A1F8091921F80935A
:10362000791F2093961F0C945A418091961F8230E7
:1036300001F52091A31F2093991F1092931FE091F1
:10364000971FF0E0EE0FFF1FEE57F04E8081918143
:1036500090937B1F80937A1F2093791F80917E1F08
:1036600090917F1F069690937F1F80937E1F1092EC
:10367000961F2091961F213011F00C945A418DE035
:1036800090E09093811F8093801F2093931F8091DF
:10369000A31F90E09D6090937B1F80937A1F8BE522
:1036A0008093791F82E08093961F0C945A418091F9
:1036B000961F833059F50E94CA042091991F322F1A
:1036C0003F7380917C1F90917D1F932B90937D1F62
:1036D00080937C1FE091971FF0E0EE0FFF1FEE57E5
:1036E000F04E918380831092931F90937B1F809361
:1036F0007A1F2093791F80917E1F90917F1F0B96D8
:1037000090937F1F80937E1F1092961FC091961FEB
:10371000C230F1F40E94CA042091991F822F90E0D8
:1037200090937D1F80937C1FC093931FE091971F00
:10373000F0E0EE0FFF1FEE57F04E808191819093E5
:103740007B1F80937A1F2093791F83E08093961FBD
:103750008091961F813011F00C945A4122E0209301
:10376000931FE091971FF0E0EE0FFF1FEE57F04E12
:103770008081918190937B1F80937A1F8091921F0B
:103780008093791F2093961F0C945A418091961F25
:10379000823011F52091A31F2093991F2093740765
:1037A0001092931FE091971FF0E0EE0FFF1FEE576E
:1037B000F04E8081918190937B1F80937A1F20939C
:1037C000791F80917E1F90917F1F069690937F1F97
:1037D00080937E1F1092961F2091961F213011F02A
:1037E0000C945A418EE090E09093811F8093801F4B
:1037F0002093931F8091A31F90E09E6090937B1F66
:1038000080937A1F8DE58093791F82E08093961FC5
:103810000C945A418091961F833079F50E94CA0416
:103820002091991F322F3F7380917C1F90917D1FB3
:10383000932B90937D1F80937C1FE091971FEF5FE8
:10384000E770E093971FF0E0EE0FFF1FEE57F04E8A
:10385000918380831092931F90937B1F80937A1F94
:103860002093791F80917E1F90917F1F0B969093DC
:103870007F1F80937E1F1092961FC091961FC230AB
:10388000F1F40E94CA042091991F822F90E0909336
:103890007D1F80937C1FC093931FE091971FF0E0E2
:1038A000EE0FFF1FEE57F04E8081918190937B1FAA
:1038B00080937A1F2093791F83E08093961F8091D5
:1038C000961F813011F00C945A4122E02093931FEF
:1038D000E091971FF0E0EE0FFF1FEE57F04E808152
:1038E000918190937B1F80937A1F8091921F809388
:1038F000791F2093961F0C945A418091961F823015
:1039000069F58091A31F8093991F90E0982F8827D5
:1039100020917407822B0E941A0481E08093781F03
:103920001092931FE091971FF0E0EE0FFF1FEE57EC
:10393000F04E8081918190937B1F80937A1F8091BC
:10394000A31F8093791F80917E1F90917F1F069601
:1039500090937F1F80937E1F1092961F2091961F39
:10396000213011F00C945A418FE090E09093811F28
:103970008093801F2093931F8091A31F90E09F60EE
:1039800090937B1F80937A1F8091921F8093791F61
:1039900082E08093961F0C945A418091961F833049
:1039A000B9F50E94CA042091991F322F3F7380916C
:1039B0007C1F90917D1F932B90937D1F80937C1F84
:1039C00030919B1FE091971F332341F0AE2FB0E061
:1039D000AA0FBB1FAE57B04E8D939C931092931FAE
:1039E000F0E0EE0FFF1FEE57F04E80819181909333
:1039F0007B1F80937A1F2093791F80917E1F909167
:103A00007F1F0A9690937F1F80937E1F1092961FB0
:103A1000C091961FC230F1F40E94CA042091991FF0
:103A2000822F90E090937D1F80937C1FC093931F03
:103A3000E091971FF0E0EE0FFF1FEE57F04E8081F0
:103A4000918190937B1F80937A1F2093791F83E04D
:103A50008093961F8091961F813011F00C945A41EB
:103A600022E02093931FE091971FF0E0EE0FFF1FDD
:103A7000EE57F04E8081918190937B1F80937A1F47
:103A80008091921F8093791F2093961F0C945A4126
:103A90008091961F823001F52091A31F2093991FDA
:103AA0001092931FE091971FF0E0EE0FFF1FEE576B
:103AB000F04E8081918190937B1F80937A1F209399
:103AC000791F80917E1F90917F1F069690937F1F94
:103AD00080937E1F1092961F2091961F213011F027
:103AE0000C945A4180E190E09093811F8093801F55
:103AF0002093931F8091A31F90E0906190937B1F70
:103B000080937A1F81E68093791F82E08093961FCD
:103B10000C945A418091961F8330E1F50E94CA04AB
:103B20002091991F322F3F7380917C1F90917D1FB0
:103B3000932B90937D1F80937C1F30919B1F332389
:103B400069F0E091971FEF5FE770E093971FF0E057
:103B5000EE0FFF1FEE57F04E918380831092931F5C
:103B6000E091971FF0E0EE0FFF1FEE57F04E8081BF
:103B7000918190937B1F80937A1F2093791F80916E
:103B80007E1F90917F1F0A9690937F1F80937E1FC8
:103B90001092961FC091961FC230F1F40E94CA0481
:103BA0002091991F822F90E090937D1F80937C1F1E
:103BB000C093931FE091971FF0E0EE0FFF1FEE57A9
:103BC000F04E8081918190937B1F80937A1F209388
:103BD000791F83E08093961F8091961F813011F0AA
:103BE0000C945A4122E02093931FE091971FF0E03C
:103BF000EE0FFF1FEE57F04E8081918190937B1F57
:103C000080937A1F8091921F8093791F2093961F33
:103C10000C945A418091961F823001F52091A31F88
:103C20002093991F1092931FE091971FF0E0EE0FE1
:103C3000FF1FEE57F04E8081918190937B1F809300
:103C40007A1F2093791F80917E1F90917F1F069687
:103C500090937F1F80937E1F1092961F2091961F36
:103C6000213011F00C945A4181E190E09093811F32
:103C70008093801F2093931F8091A31F90E09161F8
:103C800090937B1F80937A1F83E68093791F82E055
:103C90008093961F0C945A418091961F833059F55A
:103CA0000E94CA042091991F322F3F7380917C1F7C
:103CB00090917D1F932B90937D1F80937C1FE091AB
:103CC000971FF0E0EE0FFF1FEE57F04E91838083B9
:103CD0001092931F90937B1F80937A1F2093791FDC
:103CE00080917E1F90917F1F0B9690937F1F8093F2
:103CF0007E1F1092961FC091961FC230F1F40E9451
:103D0000CA042091991F822F90E090937D1F809389
:103D10007C1FC093931FE091971FF0E0EE0FFF1FF1
:103D2000EE57F04E8081918190937B1F80937A1F94
:103D30002093791F83E08093961F8091961F813096
:103D400011F00C945A4122E02093931FE091971FA9
:103D5000F0E0EE0FFF1FEE57F04E808191819093BF
:103D60007B1F80937A1F8091921F8093791F2093ED
:103D7000961F0C945A418091961F823001F5209134
:103D8000A31F2093991F1092931FE091971FF0E0BB
:103D9000EE0FFF1FEE57F04E8081918190937B1FB5
:103DA00080937A1F2093791F80917E1F90917F1FAF
:103DB000069690937F1F80937E1F1092961F2091EE
:103DC000961F213011F00C945A4182E190E09093BB
:103DD000811F8093801F2093931F8091A31F90E0E9
:103DE000926190937B1F80937A1F85E68093791F61
:103DF00082E08093961F0C945A418091961F8330E5
:103E000079F50E94CA042091991F322F3F73809147
:103E10007C1F90917D1F932B90937D1F80937C1F1F
:103E2000E091971FEF5FE770E093971FF0E0EE0FD0
:103E3000FF1FEE57F04E918380831092931F909353
:103E40007B1F80937A1F2093791F80917E1F909112
:103E50007F1F0B9690937F1F80937E1F1092961F5B
:103E6000C091961FC230F1F40E94CA042091991F9C
:103E7000822F90E090937D1F80937C1FC093931FAF
:103E8000E091971FF0E0EE0FFF1FEE57F04E80819C
:103E9000918190937B1F80937A1F2093791F83E0F9
:103EA0008093961F8091961F813011F00C945A4197
:103EB00022E02093931FE091971FF0E0EE0FFF1F89
:103EC000EE57F04E8081918190937B1F80937A1FF3
:103ED0008091921F8093791F2093961F0C945A41D2
:103EE0008091961F823001F52091A31F2093991F86
:103EF0001092931FE091971FF0E0EE0FFF1FEE5717
:103F0000F04E8081918190937B1F80937A1F209344
:103F1000791F80917E1F90917F1F069690937F1F3F
:103F200080937E1F1092961F2091961F213011F0D2
:103F30000C945A4183E190E09093811F8093801FFD
:103F40002093931F8091A31F90E0936190937B1F18
:103F500080937A1F87E68093791F82E08093961F73
:103F60000C945A418091961F8330B9F50E94CA047F
:103F70002091991F322F3F7380917C1F90917D1F5C
:103F8000932B90937D1F80937C1F30919C1FE09119
:103F9000971F311108C0AE2FB0E0AA0FBB1FAE575C
:103FA000B04E8D939C931092931FF0E0EE0FFF1F85
:103FB000EE57F04E8081918190937B1F80937A1F02
:103FC0002093791F80917E1F90917F1F0A96909376
:103FD0007F1F80937E1F1092961FC091961FC23044
:103FE000F1F40E94CA042091991F822F90E09093CF
:103FF0007D1F80937C1FC093931FE091971FF0E07B
:10400000EE0FFF1FEE57F04E8081918190937B1F42
:1040100080937A1F2093791F83E08093961F80916D
:10402000961F813011F00C945A4122E02093931F87
:10403000E091971FF0E0EE0FFF1FEE57F04E8081EA
:10404000918190937B1F80937A1F8091921F809320
:10405000791F2093961F0C945A418091961F8230AD
:1040600001F52091A31F2093991F1092931FE091B7
:10407000971FF0E0EE0FFF1FEE57F04E8081918109
:1040800090937B1F80937A1F2093791F80917E1FCE
:1040900090917F1F069690937F1F80937E1F1092B2
:1040A000961F2091961F213011F00C945A4184E103
:1040B00090E09093811F8093801F2093931F8091A5
:1040C000A31F90E0946190937B1F80937A1F89E6F1
:1040D0008093791F82E08093961F0C945A418091BF
:1040E000961F8330E1F50E94CA042091991F322F58
:1040F0003F7380917C1F90917D1F932B90937D1F28
:1041000080937C1F30919C1F31110DC0E091971F4F
:10411000EF5FE770E093971FF0E0EE0FFF1FEE57A1
:10412000F04E918380831092931FE091971FF0E0EF
:10413000EE0FFF1FEE57F04E8081918190937B1F11
:1041400080937A1F2093791F80917E1F90917F1F0B
:104150000A9690937F1F80937E1F1092961FC091A6
:10416000961FC230F1F40E94CA042091991F822F39
:1041700090E090937D1F80937C1FC093931FE091EC
:10418000971FF0E0EE0FFF1FEE57F04E80819181F8
:1041900090937B1F80937A1F2093791F83E08093F5
:1041A000961F8091961F813011F00C945A4122E0A5
:1041B0002093931FE091971FF0E0EE0FFF1FEE5743
:1041C000F04E8081918190937B1F80937A1F809124
:1041D000921F8093791F2093961F0C945A418091CF
:1041E000961F823001F52091A31F2093991F1092F2
:1041F000931FE091971FF0E0EE0FFF1FEE57F04E78
:104200008081918190937B1F80937A1F2093791FE7
:1042100080917E1F90917F1F069690937F1F8093C1
:104220007E1F1092961F2091961F213011F00C9442
:104230005A4185E190E09093811F8093801F2093E5
:10424000931F8091A31F90E0956190937B1F8093B3
:104250007A1F8BE68093791F82E08093961F0C94DF
:104260005A418091961F833059F50E94CA042091CB
:10427000991F322F3F7380917C1F90917D1F932B4C
:1042800090937D1F80937C1FE091971FF0E0EE0FCD
:10429000FF1FEE57F04E918380831092931F9093EF
:1042A0007B1F80937A1F2093791F80917E1F9091AE
:1042B0007F1F0B9690937F1F80937E1F1092961FF7
:1042C000C091961FC230F1F40E94CA042091991F38
:1042D000822F90E090937D1F80937C1FC093931F4B
:1042E000E091971FF0E0EE0FFF1FEE57F04E808138
:1042F000918190937B1F80937A1F2093791F83E095
:104300008093961F8091961F813011F00C945A4132
:1043100022E02093931FE091971FF0E0EE0FFF1F24
:10432000EE57F04E8081918190937B1F80937A1F8E
:104330008091921F8093791F2093961F0C945A416D
:104340008091961F823001F52091A31F2093991F21
:104350001092931FE091971FF0E0EE0FFF1FEE57B2
:10436000F04E8081918190937B1F80937A1F2093E0
:10437000791F80917E1F90917F1F069690937F1FDB
:1043800080937E1F1092961F2091961F213011F06E
:104390000C945A4186E190E09093811F8093801F96
:1043A0002093931F8091A31F90E0966190937B1FB1
:1043B00080937A1F8DE68093791F82E08093961F09
:1043C0000C945A418091961F833079F50E94CA045B
:1043D0002091991F322F3F7380917C1F90917D1FF8
:1043E000932B90937D1F80937C1FE091971FEF5F2D
:1043F000E770E093971FF0E0EE0FFF1FEE57F04ECF
:10440000918380831092931F90937B1F80937A1FD8
:104410002093791F80917E1F90917F1F0B96909320
:104420007F1F80937E1F1092961FC091961FC230EF
:10443000F1F40E94CA042091991F822F90E090937A
:104440007D1F80937C1FC093931FE091971FF0E026
:10445000EE0FFF1FEE57F04E8081918190937B1FEE
:1044600080937A1F2093791F83E08093961F809119
:10447000961F813011F00C945A4122E02093931F33
:10448000E091971FF0E0EE0FFF1FEE57F04E808196
:10449000918190937B1F80937A1F8091921F8093CC
:1044A000791F2093961F0C945A418091961F823059
:1044B00001F52091A31F2093991F1092931FE09163
:1044C000971FF0E0EE0FFF1FEE57F04E80819181B5
:1044D00090937B1F80937A1F2093791F80917E1F7A
:1044E00090917F1F069690937F1F80937E1F10925E
:1044F000961F2091961F213011F00C945A4187E1AC
:1045000090E09093811F8093801F2093931F809150
:10451000A31F90E0976190937B1F80937A1F8FE693
:104520008093791F82E08093961F0C945A4180916A
:10453000961F8330B9F50E94CA042091991F322F2B
:104540003F7380917C1F90917D1F932B90937D1FD3
:1045500080937C1F30919C1FE091971F37FF08C00C
:10456000AE2FB0E0AA0FBB1FAE57B04E8D939C93F9
:104570001092931FF0E0EE0FFF1FEE57F04E808178
:10458000918190937B1F80937A1F2093791F809154
:104590007E1F90917F1F0A9690937F1F80937E1FAE
:1045A0001092961FC091961FC230F1F40E94CA0467
:1045B0002091991F822F90E090937D1F80937C1F04
:1045C000C093931FE091971FF0E0EE0FFF1FEE578F
:1045D000F04E8081918190937B1F80937A1F20936E
:1045E000791F83E08093961F8091961F813011F090
:1045F0000C945A4122E02093931FE091971FF0E022
:10460000EE0FFF1FEE57F04E8081918190937B1F3C
:1046100080937A1F8091921F8093791F2093961F19
:104620000C945A418091961F823001F52091A31F6E
:104630002093991F1092931FE091971FF0E0EE0FC7
:10464000FF1FEE57F04E8081918190937B1F8093E6
:104650007A1F2093791F80917E1F90917F1F06966D
:1046600090937F1F80937E1F1092961F2091961F1C
:10467000213011F00C945A4188E190E09093811F11
:104680008093801F2093931F8091A31F90E09861D7
:1046900090937B1F80937A1F81E78093791F82E03C
:1046A0008093961F0C945A418091961F8330E1F5B8
:1046B0000E94CA042091991F322F3F7380917C1F62
:1046C00090917D1F932B90937D1F80937C1F309141
:1046D0009C1F37FF0DC0E091971FEF5FE770E093DD
:1046E000971FF0E0EE0FFF1FEE57F04E918380838F
:1046F0001092931FE091971FF0E0EE0FFF1FEE570F
:10470000F04E8081918190937B1F80937A1F20933C
:10471000791F80917E1F90917F1F0A9690937F1F33
:1047200080937E1F1092961FC091961FC230F1F4A5
:104730000E94CA042091991F822F90E090937D1FC0
:1047400080937C1FC093931FE091971FF0E0EE0FC2
:10475000FF1FEE57F04E8081918190937B1F8093D5
:104760007A1F2093791F83E08093961F8091961F74
:10477000813011F00C945A4122E02093931FE09174
:10478000971FF0E0EE0FFF1FEE57F04E80819181F2
:1047900090937B1F80937A1F8091921F8093791F43
:1047A0002093961F0C945A418091961F823001F5F8
:1047B0002091A31F2093991F1092931FE091971FA0
:1047C000F0E0EE0FFF1FEE57F04E80819181909345
:1047D0007B1F80937A1F2093791F80917E1F909179
:1047E0007F1F069690937F1F80937E1F1092961FC7
:1047F0002091961F213011F00C945A4189E190E0EC
:104800009093811F8093801F2093931F8091A31FFB
:1048100090E0996190937B1F80937A1F83E7809348
:10482000791F82E08093961F0C945A418091961FC5
:10483000833059F50E94CA042091991F322F3F738B
:1048400080917C1F90917D1F932B90937D1F80936F
:104850007C1FE091971FF0E0EE0FFF1FEE57F04E28
:10486000918380831092931F90937B1F80937A1F74
:104870002093791F80917E1F90917F1F0B969093BC
:104880007F1F80937E1F1092961FC091961FC2308B
:10489000F1F40E94CA042091991F822F90E0909316
:1048A0007D1F80937C1FC093931FE091971FF0E0C2
:1048B000EE0FFF1FEE57F04E8081918190937B1F8A
:1048C00080937A1F2093791F83E08093961F8091B5
:1048D000961F813011F00C945A4122E02093931FCF
:1048E000E091971FF0E0EE0FFF1FEE57F04E808132
:1048F000918190937B1F80937A1F8091921F809368
:10490000791F2093961F0C945A418091961F8230F4
:1049100001F52091A31F2093991F1092931FE091FE
:10492000971FF0E0EE0FFF1FEE57F04E8081918150
:1049300090937B1F80937A1F2093791F80917E1F15
:1049400090917F1F069690937F1F80937E1F1092F9
:10495000961F2091961F213011F00C945A418AE144
:1049600090E09093811F8093801F2093931F8091EC
:10497000A31F90E09A6190937B1F80937A1F85E735
:104980008093791F82E08093961F0C945A41809106
:10499000961F833079F50E94CA042091991F322F07
:1049A0003F7380917C1F90917D1F932B90937D1F6F
:1049B00080937C1FE091971FEF5FE770E093971F54
:1049C000F0E0EE0FFF1FEE57F04E918380831092C0
:1049D000931F90937B1F80937A1F2093791F809160
:1049E0007E1F90917F1F0B9690937F1F80937E1F59
:1049F0001092961FC091961FC230F1F40E94CA0413
:104A00002091991F822F90E090937D1F80937C1FAF
:104A1000C093931FE091971FF0E0EE0FFF1FEE573A
:104A2000F04E8081918190937B1F80937A1F209319
:104A3000791F83E08093961F8091961F813011F03B
:104A40000C945A4122E02093931FE091971FF0E0CD
:104A5000EE0FFF1FEE57F04E8081918190937B1FE8
:104A600080937A1F8091921F8093791F2093961FC5
:104A70000C945A418091961F823001F52091A31F1A
:104A80002093991F1092931FE091971FF0E0EE0F73
:104A9000FF1FEE57F04E8081918190937B1F809392
:104AA0007A1F2093791F80917E1F90917F1F069619
:104AB00090937F1F80937E1F1092961F2091961FC8
:104AC000213011F00C945A418BE190E09093811FBA
:104AD0008093801F2093931F8091A31F90E09B6180
:104AE00090937B1F80937A1F87E78093791F82E0E2
:104AF0008093961F0C945A418091961F8330C9F57C
:104B00000E94CA041091991F812F8F73C0917C1F3E
:104B1000D0917D1FD82BD0937D1FC0937C1F809197
:104B20009C1F0E949E04E091971F882341F0AE2FA6
:104B3000B0E0AA0FBB1FAE57B04ECD93DC931092DE
:104B4000931FF0E0EE0FFF1FEE57F04E8081918132
:104B500090937B1F80937A1F1093791F80917E1F03
:104B600090917F1F0A9690937F1F80937E1F1092D3
:104B7000961FC091961FC230F1F40E94CA04209182
:104B8000991F822F90E090937D1F80937C1FC0938C
:104B9000931FE091971FF0E0EE0FFF1FEE57F04ECE
:104BA0008081918190937B1F80937A1F2093791F3E
:104BB00083E08093961F8091961F813011F00C94B2
:104BC0005A4122E02093931FE091971FF0E0EE0FEF
:104BD000FF1FEE57F04E8081918190937B1F809351
:104BE0007A1F8091921F8093791F2093961F0C94B7
:104BF0005A418091961F823001F52091A31F209386
:104C0000991F1092931FE091971FF0E0EE0FFF1F86
:104C1000EE57F04E8081918190937B1F80937A1F95
:104C20002093791F80917E1F90917F1F069690930D
:104C30007F1F80937E1F1092961F2091961F213018
:104C400011F00C945A418CE190E09093811F809375
:104C5000801F2093931F8091A31F90E09C619093ED
:104C60007B1F80937A1F89E78093791F82E080936E
:104C7000961F0C945A418091961F8330F1F50E9443
:104C8000CA041091991F812F8F73C0917C1FD091FE
:104C90007D1FD82BD0937D1FC0937C1F80919C1FBC
:104CA0000E949E04882369F0E091971FEF5FE770F0
:104CB000E093971FF0E0EE0FFF1FEE57F04ED18309
:104CC000C0831092931FE091971FF0E0EE0FFF1F3B
:104CD000EE57F04E8081918190937B1F80937A1FD5
:104CE0001093791F80917E1F90917F1F0A96909359
:104CF0007F1F80937E1F1092961FC091961FC23017
:104D0000F1F40E94CA042091991F822F90E09093A1
:104D10007D1F80937C1FC093931FE091971FF0E04D
:104D2000EE0FFF1FEE57F04E8081918190937B1F15
:104D300080937A1F2093791F83E08093961F809140
:104D4000961F813011F00C945A4122E02093931F5A
:104D5000E091971FF0E0EE0FFF1FEE57F04E8081BD
:104D6000918190937B1F80937A1F8091921F8093F3
:104D7000791F2093961F0C945A418091961F823080
:104D800001F52091A31F2093991F1092931FE0918A
:104D9000971FF0E0EE0FFF1FEE57F04E80819181DC
:104DA00090937B1F80937A1F2093791F80917E1FA1
:104DB00090917F1F069690937F1F80937E1F109285
:104DC000961F2091961F213011F00C945A418DE1CD
:104DD00090E09093811F8093801F2093931F809178
:104DE000A31F90E09D6190937B1F80937A1F8BE7B8
:104DF0008093791F82E08093961F0C945A41809192
:104E0000961F833059F50E94CA042091991F322FB2
:104E10003F7380917C1F90917D1F932B90937D1FFA
:104E200080937C1FE091971FF0E0EE0FFF1FEE577D
:104E3000F04E918380831092931F90937B1F8093F9
:104E40007A1F2093791F80917E1F90917F1F0B9670
:104E500090937F1F80937E1F1092961FC091961F84
:104E6000C230F1F40E94CA042091991F822F90E071
:104E700090937D1F80937C1FC093931FE091971F99
:104E8000F0E0EE0FFF1FEE57F04E8081918190937E
:104E90007B1F80937A1F2093791F83E08093961F56
:104EA0008091961F813011F00C945A4122E020939A
:104EB000931FE091971FF0E0EE0FFF1FEE57F04EAB
:104EC0008081918190937B1F80937A1F8091921FA4
:104ED0008093791F2093961F0C945A418091961FBE
:104EE000823001F52091A31F2093991F1092931FE8
:104EF000E091971FF0E0EE0FFF1FEE57F04E80811C
:104F0000918190937B1F80937A1F2093791F8091CA
:104F10007E1F90917F1F069690937F1F80937E1F28
:104F20001092961F2091961F213011F00C945A4137
:104F30008EE190E09093811F8093801F2093931FB8
:104F40008091A31F90E09E6190937B1F80937A1FB6
:104F50008DE78093791F82E08093961F0C945A41CD
:104F60008091961F833079F50E94CA042091991F81
:104F7000322F3F7380917C1F90917D1F932B9093D4
:104F80007D1F80937C1FE091971FEF5FE770E09398
:104F9000971FF0E0EE0FFF1FEE57F04E91838083D6
:104FA0001092931F90937B1F80937A1F2093791FF9
:104FB00080917E1F90917F1F0B9690937F1F80930F
:104FC0007E1F1092961FC091961FC230F1F40E946E
:104FD000CA042091991F822F90E090937D1F8093A7
:104FE0007C1FC093931FE091971FF0E0EE0FFF1F0F
:104FF000EE57F04E8081918190937B1F80937A1FB2
:105000002093791F83E08093961F8091961F8130B3
:1050100011F00C945A4122E02093931FE091971FC6
:10502000F0E0EE0FFF1FEE57F04E808191819093DC
:105030007B1F80937A1F8091921F8093791F20930A
:10504000961F0C945A418091961F823001F5209151
:10505000A31F2093991F1092931FE091971FF0E0D8
:10506000EE0FFF1FEE57F04E8081918190937B1FD2
:1050700080937A1F2093791F80917E1F90917F1FCC
:10508000069690937F1F80937E1F1092961F20910B
:10509000961F213011F00C945A418FE190E09093CB
:1050A000811F8093801F2093931F8091A31F90E006
:1050B0009F6190937B1F80937A1F8FE78093791F66
:1050C00082E08093961F0C945A418091961F813004
:1050D00011F00C945A4110929B1F8091A31F0E94C3
:1050E000A9048093A31F80939C1F1092931FE091AB
:1050F000971FF0E0EE0FFF1FEE57F04E8081918179
:1051000090937B1F80937A1F80E88093791F809112
:105110007E1F90917F1F059690937F1F80937E1F27
:105120001092961F0C945A418091961F813011F075
:105130000C945A4110929B1F8091A21F0E94A904B7
:105140008093A31F80939C1F1092931FE091971F41
:10515000F0E0EE0FFF1FEE57F04E808191819093AB
:105160007B1F80937A1F81E88093791F80917E1F37
:1051700090917F1F059690937F1F80937E1F1092C2
:10518000961F0C945A418091961F813011F00C9417
:105190005A4110929B1F8091A11F0E94A9048093E5
:1051A000A31F80939C1F1092931FE091971FF0E024
:1051B000EE0FFF1FEE57F04E8081918190937B1F81
:1051C00080937A1F82E88093791F80917E1F90914F
:1051D0007F1F059690937F1F80937E1F1092961FCE
:1051E0000C945A418091961F813011F00C945A41D1
:1051F00010929B1F8091A01F0E94A9048093A31F5F
:1052000080939C1F1092931FE091971FF0E0EE0F88
:10521000FF1FEE57F04E8081918190937B1F80930A
:105220007A1F83E88093791F80917E1F90917F1F62
:10523000059690937F1F80937E1F1092961F0C946B
:105240005A418091961F813011F00C945A4110926E
:105250009B1F80919F1F0E94A9048093A31F80938E
:105260009C1F1092931FE091971FF0E0EE0FFF1F1D
:10527000EE57F04E8081918190937B1F80937A1F2F
:1052800084E88093791F80917E1F90917F1F0596FF
:1052900090937F1F80937E1F1092961F0C945A410B
:1052A0008091961F813011F00C945A4110929B1FEF
:1052B00080919E1F0E94A9048093A31F80939C1F2E
:1052C0001092931FE091971FF0E0EE0FFF1FEE5733
:1052D000F04E8081918190937B1F80937A1F85E8A7
:1052E0008093791F80917E1F90917F1F05969093E8
:1052F0007F1F80937E1F1092961F0C945A418091BD
:10530000961F813011F00C945A4110929B1F80918E
:105310009D1F0E94A9048093A31F80939C1F10923D
:10532000931FE091971FF0E0EE0FFF1FEE57F04E36
:105330008081918190937B1F80937A1F86E8809370
:10534000791F80917E1F90917F1F059690937F1FFC
:1053500080937E1F1092961F0C945A418091961F45
:105360008230A9F58091801F9091811F811528E1DD
:10537000920728F4FC01E858F84FC08101C0CFEF34
:10538000C093991F10929B1F8C2F0E94A904809399
:10539000A31F80939C1F1092931FE091971FF0E032
:1053A000EE0FFF1FEE57F04E2081318130937B1FAF
:1053B00020937A1FC093791F80917E1F90917F1F49
:1053C000089690937F1F80937E1F1092961F809166
:1053D000961F813011F00C945A4180919E1F90E0ED
:1053E000982F882720919D1F822B9093811F809357
:1053F000801F22E02093931F90937B1F80937A1F3E
:1054000087E88093791F2093961F0C945A418091CE
:10541000961F813011F00C945A418091A31F0E9475
:10542000A9048093A31F80939C1F1092931FE09167
:10543000971FF0E0EE0FFF1FEE57F04E8081918135
:1054400090937B1F80937A1F88E88093791F8091C7
:105450007E1F90917F1F059690937F1F80937E1FE4
:105460001092961F0C945A418091961F813011F032
:105470000C945A418091A21F0E94A9048093A31FFB
:1054800080939C1F1092931FE091971FF0E0EE0F06
:10549000FF1FEE57F04E8081918190937B1F809388
:1054A0007A1F89E88093791F80917E1F90917F1FDA
:1054B000059690937F1F80937E1F1092961F0C94E9
:1054C0005A418091961F813011F00C945A4180917D
:1054D000A11F0E94A9048093A31F80939C1F109278
:1054E000931FE091971FF0E0EE0FFF1FEE57F04E75
:1054F0008081918190937B1F80937A1F8AE88093AB
:10550000791F80917E1F90917F1F059690937F1F3A
:1055100080937E1F1092961F0C945A418091961F83
:10552000813011F00C945A418091A01F0E94A9046F
:105530008093A31F80939C1F1092931FE091971F4D
:10554000F0E0EE0FFF1FEE57F04E808191819093B7
:105550007B1F80937A1F8BE88093791F80917E1F39
:1055600090917F1F059690937F1F80937E1F1092CE
:10557000961F0C945A418091961F813011F00C9423
:105580005A4180919F1F0E94A9048093A31F80937A
:105590009C1F1092931FE091971FF0E0EE0FFF1FEA
:1055A000EE57F04E8081918190937B1F80937A1FFC
:1055B0008CE88093791F80917E1F90917F1F0596C4
:1055C00090937F1F80937E1F1092961F0C945A41D8
:1055D0008091961F813011F00C945A4180919E1F4A
:1055E0000E94A9048093A31F80939C1F1092931F75
:1055F000E091971FF0E0EE0FFF1FEE57F04E808115
:10560000918190937B1F80937A1F8DE88093791FFF
:1056100080917E1F90917F1F059690937F1F8093AE
:105620007E1F1092961F0C945A418091961F8130D4
:1056300011F00C945A4180919D1F0E94A9048093FF
:10564000A31F80939C1F1092931FE091971FF0E07F
:10565000EE0FFF1FEE57F04E8081918190937B1FDC
:1056600080937A1F8EE88093791F80917E1F90919E
:105670007F1F059690937F1F80937E1F1092961F29
:105680000C945A418091961F823099F58091801F29
:105690009091811F811538E1930728F4FC01E858A7
:1056A000F84FC08101C0CFEFC093991F8C2F0E948B
:1056B000A9048093A31F80939C1F1092931FE091D5
:1056C000971FF0E0EE0FFF1FEE57F04E2081318163
:1056D00030937B1F20937A1FC093791F80917E1F88
:1056E00090917F1F089690937F1F80937E1F10924A
:1056F000961F8091961F813011F00C945A41809131
:105700009E1F90E0982F882720919D1F822B9093B9
:10571000811F8093801F22E02093931F90937B1F13
:1057200080937A1F8FE88093791F2093961F0C94A3
:105730005A418091961F813011F00C945A41109279
:105740009B1F8091A31F0E94B9048093A31F809385
:105750009C1F1092931FE091971FF0E0EE0FFF1F28
:10576000EE57F04E8081918190937B1F80937A1F3A
:1057700080E98093791F80917E1F90917F1F05960D
:1057800090937F1F80937E1F1092961F0C945A4116
:105790008091961F813011F00C945A4110929B1FFA
:1057A0008091A21F0E94B9048093A31F80939C1F25
:1057B0001092931FE091971FF0E0EE0FFF1FEE573E
:1057C000F04E8081918190937B1F80937A1F81E9B5
:1057D0008093791F80917E1F90917F1F05969093F3
:1057E0007F1F80937E1F1092961F0C945A418091C8
:1057F000961F813011F00C945A4110929B1F80919A
:10580000A11F0E94B9048093A31F80939C1F109234
:10581000931FE091971FF0E0EE0FFF1FEE57F04E41
:105820008081918190937B1F80937A1F82E980937E
:10583000791F80917E1F90917F1F059690937F1F07
:1058400080937E1F1092961F0C945A418091961F50
:10585000813011F00C945A4110929B1F8091A01F2F
:105860000E94B9048093A31F80939C1F1092931FE2
:10587000E091971FF0E0EE0FFF1FEE57F04E808192
:10588000918190937B1F80937A1F83E98093791F86
:1058900080917E1F90917F1F059690937F1F80932C
:1058A0007E1F1092961F0C945A418091961F813052
:1058B00011F00C945A4110929B1F80919F1F0E94DF
:1058C000B9048093A31F80939C1F1092931FE091B3
:1058D000971FF0E0EE0FFF1FEE57F04E8081918191
:1058E00090937B1F80937A1F84E98093791F809126
:1058F0007E1F90917F1F059690937F1F80937E1F40
:105900001092961F0C945A418091961F813011F08D
:105910000C945A4110929B1F80919E1F0E94B904C3
:105920008093A31F80939C1F1092931FE091971F59
:10593000F0E0EE0FFF1FEE57F04E808191819093C3
:105940007B1F80937A1F85E98093791F80917E1F4A
:1059500090917F1F059690937F1F80937E1F1092DA
:10596000961F0C945A418091961F813011F00C942F
:105970005A4110929B1F80919D1F0E94B9048093F1
:10598000A31F80939C1F1092931FE091971FF0E03C
:10599000EE0FFF1FEE57F04E8081918190937B1F99
:1059A00080937A1F86E98093791F80917E1F909162
:1059B0007F1F059690937F1F80937E1F1092961FE6
:1059C0000C945A418091961F8230A9F58091801FD6
:1059D0009091811F811528E1920728F4FC01E85875
:1059E000F84FC08101C0CFEFC093991F10929B1F49
:1059F0008C2F0E94B9048093A31F80939C1F109248
:105A0000931FE091971FF0E0EE0FFF1FEE57F04E4F
:105A10002081318130937B1F20937A1FC093791F9F
:105A200080917E1F90917F1F089690937F1F809397
:105A30007E1F1092961F8091961F813011F00C945A
:105A40005A4180919E1F90E0982F882720919D1F9A
:105A5000822B9093811F8093801F22E02093931FBD
:105A600090937B1F80937A1F87E98093791F2093FF
:105A7000961F0C945A418091961F813011F00C941E
:105A80005A418091A31F0E94B9048093A31F809361
:105A90009C1F1092931FE091971FF0E0EE0FFF1FE5
:105AA000EE57F04E8081918190937B1F80937A1FF7
:105AB00088E98093791F80917E1F90917F1F0596C2
:105AC00090937F1F80937E1F1092961F0C945A41D3
:105AD0008091961F813011F00C945A418091A21F41
