:1000000015C2000044C2000042C2000040C200000D
:100010003EC200003CC200003AC2000038C20000EC
:1000200036C2000034C2000032C2000030C20000FC
:100030002EC200002CC200002AC2000028C200000C
:1000400026C2000024C2000022C2000020C200001C
:100050001EC200001CC200001AC200000C94B24173
:1000600016C2000014C2000012C2000010C200003C
:100070000EC200000CC200000AC2000008C200004C
:1000800006C2000004C2000002C2000000C200005C
:10009000FEC10000FCC10000FAC100000C942C4617
:1000A000F6C10000F4C10000F2C10000F0C1000080
:1000B000EEC10000ECC10000EAC10000E8C1000090
:1000C000E6C10000E4C10000E2C10000E0C10000A0
:1000D000DEC10000DCC10000DAC10000D8C10000B0
:1000E000D6C1000035055B058105B505DE05220694
:1000F0004B068E06BD06E906150747077007B207CF
:10010000DD0720084F087B08A708DC080509490916
:100110007409B709E609120A3E0A770AA00AE20A38
:100120000D0B500B800BAC0B1141D80B010C460C86
:10013000710CB40CE30C0F0D11413B0D640DAA0DB5
:10014000D50D190E480E740E1141A00EC90E0F0FD9
:100150003A0F7E0F114111411141AD0FD60F1A1008
:100160004510B010E1105C119B111B125D12CC12F6
:100170000E138113C3133E14801400154215B115DC
:10018000F3156616A81623176517E517271896188E
:10019000D8184B198D190A1A4C1ACE1A101B7F1B2E
:1001A000C31B361C861C011D431DC31D051E741E6A
:1001B000B61E291F6B1FE61F2820A820EA20592100
:1001C0009B210E225022CB220D238D23CF233E24B0
:1001D0008024F3243525B225F4257626B826272752
:1001E0006927DC271E284D287C28AB28DA28092916
:1001F00038296729C029ED291A2A472A742AA12AF1
:10020000CE2AFB2A522B812BB02BDF2B0E2C3D2C20
:100210006C2C9B2CF42C212D4E2D7B2DA82DD52D17
:10022000022E2F2E862EB12EE12E112F412F712F4F
:10023000A12FD12F2A3055308530B530E53015311A
:1002400045317531CE31F931293259328932B932DD
:10025000E932193372339F33CC33F93326345334B4
:100260008034AD340435293552357B35A435CD3550
:10027000F6351F3672369B36C036E93612373B37B5
:1002800064378D37E0370938323857388038A93825
:10029000D238FB384C3973399A39C139E4390B3AC1
:1002A000323A593AAA3AD13AF83A1F3B463B693BAF
:1002B000903BB73B083C2F3C563C7D3CA43CCB3CA0
:1002C000EE3C153D663D8D3DB43DDB3D023E293E95
:1002D000503E733EC43E133F623FB13F00404F402B
:1002E0009E40ED40C942CC42BB42BF42C54203439F
:1002F000D042D442DA42DE42E242E842EC42F042EC
:100300000343F642FA42FE4200000A0B02090C0DBA
:100310000E080703040100000000000000000000B8
:1003200000000000000000000000000000000000CD
:10033000000000001211100000000000000000008A
:1003400000000000000000000000000000000102AA
:1003500010202008081020401020408002010201D7
:10036000080402010102040810204080804020108F
:1003700008040201800402018040201008040201E8
:100380000804020101020408102040800102040850
:100390001020408005050505070508080808020229
:1003A00002020A0A0808040404040101010101010F
:1003B00001010303030303030303040707070C0CF2
:1003C0000C0C0C0C0C0C02020202060606060606B9
:1003D00006060B0B0B0B0B0B0B0B00002000230076
:1003E000260029002C002F0032000001000003012C
:1003F0000601090100002200250028002B002E0024
:100400003100340002010000050108010B01000069
:100410002100240027002A002D00300033000101B4
:100420000000040107010A014E04914511241FBE7A
:10043000CFEFD1E2DEBFCDBF00E00CBF16E0A0E001
:10044000B2E0ECECFEE800E00BBF02C007900D92BA
:10045000A03CB107D9F720E2A0ECB6E001C01D92A4
:10046000A936B207E1F714E0CCE2D4E000E006C020
:1004700022970109FE010BBF0E946047C832D107D5
:1004800080E00807A9F70E94A5410C946447B8CD05
:10049000CF93C42F843140F4643030F4462F682F5A
:1004A00081EC96E00E9414446C2F81EC96E0CF9191
:1004B0000C949D41FF920F931F93CF93DF93D62F00
:1004C000142F9FEF920FC1E001C0CC0F9A95EAF76D
:1004D000022F080F801771F09C2F912311F041E03B
:1004E00001C042E0FF24F394F80E6D2FD1DFC695D2
:1004F0008F2DF0CFDF91CF911F910F91FF90089535
:10050000823541F0833521F0893451F48CE003C009
:100510008BE001C08AE00E94724321E0892B09F040
:1005200020E0822F0895EF92FF920F931F93CF93B5
:10053000DF9310926F0700EA12E0C0E0D0E080E89D
:10054000E82EF12CF80181918F010E947243892BD2
:1005500061F420916F07C7010C2E02C09595879515
:100560000A94E2F7282B20936F072196C830D10513
:1005700049F780916F07DF91CF911F910F91FF9005
:10058000EF900895DF92EF92FF920F931F93CF9316
:10059000DF93EC01162FF42ED22EC5DF4D2F46959A
:1005A0004695469523E061E082E084DF23E04D2F0D
:1005B00061E086E07FDFAE0196E0569547959A951B
:1005C000E1F722E061E08AE075DFAE0123E05695B5
:1005D00047952A95E1F723E061E08DE06BDF23E0AA
:1005E0004C2F61E081E166DFC12FD0E0AE0136E043
:1005F000559547953A95E1F722E062E08AE05ADFA7
:10060000AE0163E0559547956A95E1F723E062E016
:100610008DE050DF23E0412F62E081E14BDF21E0FC
:100620004E2D62E080E046DF21E04D2D62E082E069
:1006300041DF22E04F2D62E083E03CDF21E0402FEC
:1006400062E086E037DF40916F0742954695469518
:100650004370406360E080E01BDF40916F0750E033
:1006600073E0559547957A95E1F74770406360E0F0
:1006700081E00EDF40916F074770406360E082E0E9
:10068000DF91CF911F910F91FF90EF90DF9000CFFE
:10069000CF93DF93C0EAD2E062E089910E940443E5
:1006A00082E0C83AD807C1F762E08BE00E940443B9
:1006B00062E08CE00E94044362E08AE00E9404430E
:1006C00081EC96E00E94D44481EC96E00E94C24303
:1006D00040E152E061E081EC96E00E94474448E04E
:1006E00052E062E081EC96E00E94474440E052E034
:1006F00063E081EC96E00E94474440E260E080E0E5
:10070000C7DECFE460E281EC96E00E949D41C150DB
:10071000C9F740E560E084E0BBDE61E681EC96E08D
:100720000E949D4167E681EC96E00E949D4165E64E
:1007300081EC96E00E949D4142E563E080E0A8DE06
:1007400049E463E082E0A4DE63E581EC96E00E9488
:100750009D4164E781EC96E00E949D4148E463E09E
:1007600086E096DE41E460E08DE092DE64E681ECB6
:1007700096E00E949D4164E681EC96E00E949D41D6
:1007800062E781EC96E00E949D4144E463E08DE0E5
:100790007FDE61E681EC96E00E949D4164E781EC9A
:1007A00096E00E949D4161E681EC96E00E949D41A9
:1007B0001092C006DF91CF910895089540E2E42F92
:1007C000EF73F0E0EE0FFF1FE05EFD4F20813181FF
:1007D0002817390729F04F5F403689F780E00895E0
:1007E000842F0895EF92FF921F93CF93DF931F9270
:1007F000CDB7DEB7182F7A018091C006811109C0EC
:1008000081E08093C00681EC96E069830E940A44EF
:100810006981C7016983D2DF482F6981811101C0D5
:1008200043E082E0810F0F90DF91CF911F91FF9005
:10083000EF902ECEAC0197FD05C010926D0710927F
:100840006E070895453585ED580741F410926E07FF
:1008500080916D078F5F80936D07089580916E077B
:100860008031B0F460916D07643090F490E1699F3D
:10087000F0011124E80FF11DEE0FFF1FE353F94FB4
:10088000208131812417350719F051834083AADF75
:1008900080916E078F5F80936E07089524E044E196
:1008A0006FE381EC96E00C949B4357C090C090E0BE
:1008B00021E0882321F080FD92278695FACF81E000
:1008C0008927089520919F1F90E0820F911D20910C
:1008D000971F820F911D8093781F9093791F90939B
:1008E000971F089520919F1F30E0281B31098091A8
:1008F000971F281B31092093781F3093791F30935D
:10090000971F822F08958091911F81111EC0E09141
:10091000931FF0E0EE0FFF1FE258F04E80819181AF
:1009200090937D1F80937C1F9C012F5F3F4F3F73EF
:1009300031832083811528E1920728F4FC01EC58CB
:10094000F84F808107C08FEF05C010927D1F109275
:100950007C1FE9DD8093951F08951092991F1092D6
:100960009A1F10929B1F10929C1F10929D1F109215
:100970009E1F10929F1F10928F1F1092921F109215
:10098000981F1092931F10927B1F10927A1F109243
:10099000971F1092961F1092941F1092911F109201
:1009A000901FEEE7FFE1119211928FE1EE38F80708
:1009B000D1F71092741F6CDEE8EAF2E0A4E7B7E02A
:1009C00081918D9386E0E83AF807D1F70895EF9288
:1009D0000F931F93CF93DF938091941F882369F027
:1009E0008091921F811109C01092941F1092961F3E
:1009F00081E08093911F8093901FC091961F8091FA
:100A0000901F811104C0CC2381F00C941A4183E51E
:100A100077DD90917207891711F40C941A41809335
:100A200072078111F0CF0C941A418091921F8111AD
:100A300014C069DF2091951F20938E1F81E0809361
:100A4000921F10928F1F80917C1F90917D1F909319
:100A5000771F8093761F2093751F80918E1F90E0E3
:100A6000FC01EE58FF4F0C945A478091921F813041
:100A700011F00C9413418093961F10928F1FE091F8
:100A8000931FF0E0EE0FFF1FE258F04E808191813E
:100A90009093771F8093761F1092751F80917A1F15
:100AA00090917B1F049690937B1F80937A1F1092E6
:100AB000921F0C9413412091921F213011F00C943D
:100AC00013412093961F10928F1FE091931FF0E027
:100AD000EE0FFF1FE258F04E808191819093771FB7
:100AE0008093761F2093751F80917A1F90917B1FB2
:100AF000049690937B1F80937A1F1092921F0C9400
:100B000013418091921F813011F00C941341209178
:100B10009F1F30E0C901880F892F881F990B809390
:100B2000971F220F331F282B20939F1F10928F1F78
:100B3000E091931FF0E0EE0FFF1FE258F04E80812E
:100B400091819093771F8093761F82E08093751F29
:100B500080917A1F90917B1F059690937B1F8093C5
:100B60007A1F1092921F0C9413418091921F813032
:100B700011F00C941341E091931FE150E770E09362
:100B8000931F10928F1FF0E0EE0FFF1FE258F04E00
:100B9000808191819093771F8093761F83E080936B
:100BA000751F80917A1F90917B1F059690937B1FF4
:100BB00080937A1F1092921F0C9413418091921F80
:100BC000823039F5A0DE1092971FC091951F8C2FAF
:100BD00079DE80939F1F8093981F10928F1FE09162
:100BE000931FF0E0EE0FFF1FE258F04E208131819D
:100BF0003093771F2093761FC093751F80917A1FC3
:100C000090917B1F089690937B1F80937A1F109280
:100C1000921F8091921F813011F00C94134122E0B9
:100C200020938F1F80917C1F90917D1F9093771F41
:100C30008093761F80918E1F8093751F2093921F43
:100C40000C9413418091921F813011F00C94134148
:100C5000E091931FEF5FE770E093931FF0E0EE0FDA
:100C6000FF1FE258F04E1182108210928F1F1092D7
:100C7000771F1092761F85E08093751F80917A1FF1
:100C800090917B1F059690937B1F80937A1F109203
:100C9000921F0C9413418091921F823009F533DE2C
:100CA0002091951F20939F1F10928F1FE091931FFB
:100CB000F0E0EE0FFF1FE258F04E8081918190939B
:100CC000771F8093761F2093751F80917A1F9091D4
:100CD0007B1F089690937B1F80937A1F1092921F20
:100CE0008091921F813011F00C94134122E02093E7
:100CF0008F1FE091931FF0E0EE0FFF1FE258F04EC0
:100D0000808191819093771F8093761F80918E1FB1
:100D10008093751F2093921F0C9413418091921F12
:100D2000813011F00C9413418091971F811106C0FE
:100D30008091931F815087708093931F10928F1F13
:100D4000E091931FF0E0EE0FFF1FE258F04E80811C
:100D500091819093771F8093761F87E08093751F12
:100D600080917A1F90917B1F049690937B1F8093B4
:100D70007A1F1092921F0C9413418091921F813020
:100D800011F00C94134180919E1F8F5F80939E1FE2
:100D90008093981F10928F1FE091931FF0E0EE0F49
:100DA000FF1FE258F04E808191819093771F8093CE
:100DB000761F88E08093751F80917A1F90917B1F2A
:100DC000059690937B1F80937A1F1092921F0C942C
:100DD00013418091921F813011F00C941341809146
:100DE0009E1F815080939E1F8093981F10928F1F8B
:100DF000E091931FF0E0EE0FFF1FE258F04E80816C
:100E000091819093771F8093761F89E08093751F5F
:100E100080917A1F90917B1F059690937B1F809302
:100E20007A1F1092921F0C9413418091921F81306F
:100E300011F00C94134180919F1F982F9170909303
:100E4000971F9795992797958695892B80939F1F34
:100E500010928F1FE091931FF0E0EE0FFF1FE258FA
:100E6000F04E808191819093771F8093761F8AE066
:100E70008093751F80917A1F90917B1F05969093A8
:100E80007B1F80937A1F1092921F0C9413418091C4
:100E9000921F813011F00C941341E091931FE150A7
:100EA000E770E093931F10928F1FF0E0EE0FFF1F8B
:100EB000E258F04E808191819093771F8093761F46
:100EC0008BE08093751F80917A1F90917B1F059610
:100ED00090937B1F80937A1F1092921F0C94134162
:100EE0008091921F823029F50EDDC091951F8C2FC5
:100EF000E9DC80939F1F8093981F10928F1FE091D1
:100F0000931FF0E0EE0FFF1FE258F04E2081318179
:100F10003093771F2093761FC093751F80917A1F9F
:100F200090917B1F089690937B1F80937A1F10925D
:100F3000921F8091921F813011F00C94134122E096
:100F400020938F1F80917C1F90917D1F9093771F1E
:100F50008093761F80918E1F8093751F2093921F20
:100F60000C9413418091921F813011F00C94134125
:100F7000E091931FEF5FE770E093931FF0E0EE0FB7
:100F8000FF1FE258F04E88E090E09183808310923A
:100F90008F1F9093771F8093761F8DE08093751F2E
:100FA00080917A1F90917B1F059690937B1F809371
:100FB0007A1F1092921F0C9413418091921F8230DD
:100FC00009F5A1DC2091951F20939E1F10928F1F81
:100FD000E091931FF0E0EE0FFF1FE258F04E80818A
:100FE00091819093771F8093761F2093751F809136
:100FF0007A1F90917B1F089690937B1F80937A1F96
:101000001092921F8091921F813011F00C94134125
:1010100022E020938F1FE091931FF0E0EE0FFF1F5F
:10102000E258F04E808191819093771F8093761FD4
:1010300080918E1F8093751F2093921F0C941341F3
:101040008091921F813011F00C9413418091981F70
:10105000882331F08091931F815087708093931F74
:1010600010928F1FE091931FF0E0EE0FFF1FE258E8
:10107000F04E808191819093771F8093761F8FE04F
:101080008093751F80917A1F90917B1F0496909397
:101090007B1F80937A1F1092921F0C9413418091B2
:1010A000921F813011F00C94134180919D1F8F5F2E
:1010B00080939D1F8093981F10928F1FE091931F24
:1010C000F0E0EE0FFF1FE258F04E80819181909387
:1010D000771F8093761F80E18093751F80917A1F20
:1010E00090917B1F059690937B1F80937A1F10929F
:1010F000921F0C9413418091921F813011F00C9437
:10110000134180919D1F815080939D1F8093981F54
:1011100010928F1FE091931FF0E0EE0FFF1FE25837
:10112000F04E808191819093771F8093761F81E1AB
:101130008093751F80917A1F90917B1F05969093E5
:101140007B1F80937A1F1092921F0C941341809101
:10115000921F813011F00C94134180919F1F90E0F9
:10116000880F991F2091971F822B8093781F90934F
:10117000791F80939F1F9093971F10928F1FE0916C
:10118000931FF0E0EE0FFF1FE258F04E8081918137
:101190009093771F8093761F82E18093751F8091D3
:1011A0007A1F90917B1F059690937B1F80937A1FE7
:1011B0001092921F0C9413418091921F813011F074
:1011C0000C941341E091931FE150E770E093931F5B
:1011D00010928F1FF0E0EE0FFF1FE258F04E80815B
:1011E00091819093771F8093761F83E18093751F81
:1011F00080917A1F90917B1F059690937B1F80931F
:101200007A1F1092921F0C9413418091921F82308A
:1012100039F579DB1092971FC091951F8C2F62DBF7
:1012200080939F1F8093981F10928F1FE091931FB0
:10123000F0E0EE0FFF1FE258F04E20813181309335
:10124000771F2093761FC093751F80917A1F90910E
:101250007B1F089690937B1F80937A1F1092921F9A
:101260008091921F813011F00C94134122E0209361
:101270008F1F80917C1F90917D1F9093771F80938B
:10128000761F80918E1F8093751F2093921F0C9460
:1012900013418091921F813011F00C941341E09121
:1012A000931FEF5FE770E093931FF0E0EE0FFF1FD7
:1012B000E258F04E80E190E09183808310928F1F7E
:1012C0009093771F8093761F85E18093751F80919F
:1012D0007A1F90917B1F059690937B1F80937A1FB6
:1012E0001092921F0C9413418091921F823009F545
:1012F0000ADB2091951F20939D1F10928F1FE09174
:10130000931FF0E0EE0FFF1FE258F04E80819181B5
:101310009093771F8093761F2093751F80917A1F7B
:1013200090917B1F089690937B1F80937A1F109259
:10133000921F8091921F813011F00C94134122E092
:1013400020938F1FE091931FF0E0EE0FFF1FE258F4
:10135000F04E808191819093771F8093761F8091CA
:101360008E1F8093751F2093921F0C9413418091C0
:10137000921F813011F00C9413418091981F87FDCA
:1013800006C08091931F815087708093931F1092A5
:101390008F1FE091931FF0E0EE0FFF1FE258F04E19
:1013A000808191819093771F8093761F87E180934E
:1013B000751F80917A1F90917B1F049690937B1FDD
:1013C00080937A1F1092921F0C9413418091921F68
:1013D000813011F00C94134180919C1F8F5F80939A
:1013E0009C1F8093981F10928F1FE091931FF0E035
:1013F000EE0FFF1FE258F04E808191819093771F8E
:101400008093761F88E18093751F80917A1F909159
:101410007B1F059690937B1F80937A1F1092921FDB
:101420000C9413418091921F813011F00C94134160
:1014300080919C1F815080939C1F8093981F1092D5
:101440008F1FE091931FF0E0EE0FFF1FE258F04E68
:10145000808191819093771F8093761F89E180939B
:10146000751F80917A1F90917B1F059690937B1F2B
:1014700080937A1F1092921F0C9413418091921FB7
:10148000813011F00C9413418091971F90E0982FB8
:10149000882720919F1F822B9093791F8093781F1C
:1014A0009C013695279520939F1F81708093971FED
:1014B00010928F1FE091931FF0E0EE0FFF1FE25894
:1014C000F04E808191819093771F8093761F8AE1FF
:1014D0008093751F80917A1F90917B1F0596909342
:1014E0007B1F80937A1F1092921F0C94134180915E
:1014F000921F813011F00C941341E091931FE15041
:10150000E770E093931F10928F1FF0E0EE0FFF1F24
:10151000E258F04E808191819093771F8093761FDF
:101520008BE18093751F80917A1F90917B1F0596A8
:1015300090937B1F80937A1F1092921F0C941341FB
:101540008091921F823029F5DED9C091951F8C2F92
:10155000C9D980939F1F8093981F10928F1FE0918D
:10156000931FF0E0EE0FFF1FE258F04E2081318113
:101570003093771F2093761FC093751F80917A1F39
:1015800090917B1F089690937B1F80937A1F1092F7
:10159000921F8091921F813011F00C94134122E030
:1015A00020938F1F80917C1F90917D1F9093771FB8
:1015B0008093761F80918E1F8093751F2093921FBA
:1015C0000C9413418091921F813011F00C941341BF
:1015D000E091931FEF5FE770E093931FF0E0EE0F51
:1015E000FF1FE258F04E88E190E0918380831092D3
:1015F0008F1F9093771F8093761F8DE18093751FC7
:1016000080917A1F90917B1F059690937B1F80930A
:101610007A1F1092921F0C9413418091921F823076
:1016200009F571D92091951F20939C1F10928F1F4F
:10163000E091931FF0E0EE0FFF1FE258F04E808123
:1016400091819093771F8093761F2093751F8091CF
:101650007A1F90917B1F089690937B1F80937A1F2F
:101660001092921F8091921F813011F00C941341BF
:1016700022E020938F1FE091931FF0E0EE0FFF1FF9
:10168000E258F04E808191819093771F8093761F6E
:1016900080918E1F8093751F2093921F0C9413418D
:1016A0008091921F813011F00C9413418091981F0A
:1016B000FED8811106C08091931F8150877080935E
:1016C000931F10928F1FE091931FF0E0EE0FFF1F0A
:1016D000E258F04E808191819093771F8093761F1E
:1016E0008FE18093751F80917A1F90917B1F0496E4
:1016F00090937B1F80937A1F1092921F0C9413413A
:101700008091921F813011F00C94134180919B1FA6
:101710008F5F80939B1F8093981F10928F1FE09183
:10172000931FF0E0EE0FFF1FE258F04E8081918191
:101730009093771F8093761F80E28093751F80912E
:101740007A1F90917B1F059690937B1F80937A1F41
:101750001092921F0C9413418091921F813011F0CE
:101760000C94134180919B1F815080939B1F809309
:10177000981F10928F1FE091931FF0E0EE0FFF1F54
:10178000E258F04E808191819093771F8093761F6D
:1017900081E28093751F80917A1F90917B1F05963F
:1017A00090937B1F80937A1F1092921F0C94134189
:1017B0008091921F813011F00C941341E091931F9E
:1017C000E150E770E093931F10928F1FF0E0EE0F4F
:1017D000FF1FE258F04E808191819093771F809394
:1017E000761F83E28093751F80917A1F90917B1FF3
:1017F000059690937B1F80937A1F1092921F0C94F2
:1018000013418091921F823041F57DD81092971F2D
:101810002091951F80919F1F822380939F1F80930B
:10182000981F10928F1FE091931FF0E0EE0FFF1FA3
:10183000E258F04E808191819093771F8093761FBC
:101840002093751F80917A1F90917B1F089690932B
:101850007B1F80937A1F1092921F8091921F81307C
:1018600011F00C94134122E020938F1F80917C1F74
:1018700090917D1F9093771F8093761F80918E1F8C
:101880008093751F2093921F0C9413418091921F97
:10189000813011F00C941341E091931FEF5FE770DA
:1018A000E093931FF0E0EE0FFF1FE258F04E80E24E
:1018B00090E09183808310928F1F9093771F809385
:1018C000761F85E28093751F80917A1F90917B1F10
:1018D000059690937B1F80937A1F1092921F0C9411
:1018E00013418091921F823009F50DD82091951FE8
:1018F00020939B1F10928F1FE091931FF0E0EE0F3B
:10190000FF1FE258F04E808191819093771F809362
:10191000761F2093751F80917A1F90917B1F0896E8
:1019200090937B1F80937A1F1092921F8091921F39
:10193000813011F00C94134122E020938F1FE0912D
:10194000931FF0E0EE0FFF1FE258F04E808191816F
:101950009093771F8093761F80918E1F8093751FC1
:101960002093921F0C9413418091921F813011F0AB
:101970000C9413418091971F882331F08091931F1D
:10198000815087708093931F10928F1FE091931F57
:10199000F0E0EE0FFF1FE258F04E808191819093AE
:1019A000771F8093761F87E28093751F80917A1F3F
:1019B00090917B1F049690937B1F80937A1F1092C7
:1019C000921F0C9413418091921F813011F00C945E
:1019D000134180919A1F8F5F80939A1F8093981F65
:1019E00010928F1FE091931FF0E0EE0FFF1FE2585F
:1019F000F04E808191819093771F8093761F88E2CB
:101A00008093751F80917A1F90917B1F059690930C
:101A10007B1F80937A1F1092921F0C941341809128
:101A2000921F813011F00C94134180919A1F8150C4
:101A300080939A1F8093981F10928F1FE091931F9D
:101A4000F0E0EE0FFF1FE258F04E808191819093FD
:101A5000771F8093761F89E28093751F80917A1F8C
:101A600090917B1F059690937B1F80937A1F109215
:101A7000921F0C9413418091921F813011F00C94AD
:101A80001341E091931FE150E770E093931F109290
:101A90008F1FF0E0EE0FFF1FE258F04E8081918122
:101AA0009093771F8093761F8BE28093751F8091B0
:101AB0007A1F90917B1F059690937B1F80937A1FCE
:101AC0001092921F0C9413418091921F823049F51D
:101AD0000E9483041092971F2091951F80919F1F51
:101AE000822780939F1F8093981F10928F1FE091F1
:101AF000931FF0E0EE0FFF1FE258F04E80819181BE
:101B00009093771F8093761F2093751F80917A1F83
:101B100090917B1F089690937B1F80937A1F109261
:101B2000921F8091921F813011F00C94134122E09A
:101B300020938F1F80917C1F90917D1F9093771F22
:101B40008093761F80918E1F8093751F2093921F24
:101B50000C9413418091921F813011F00C94134129
:101B6000E091931FEF5FE770E093931FF0E0EE0FBB
:101B7000FF1FE258F04E88E290E09183808310923C
:101B80008F1F9093771F8093761F8DE28093751F30
:101B900080917A1F90917B1F059690937B1F809375
:101BA0007A1F1092921F0C9413418091921F8230E1
:101BB00011F50E9483042091951F20939A1F109283
:101BC0008F1FE091931FF0E0EE0FFF1FE258F04EE1
:101BD000808191819093771F8093761F2093751F4A
:101BE00080917A1F90917B1F089690937B1F809322
:101BF0007A1F1092921F8091921F813011F00C94E5
:101C0000134122E020938F1FE091931FF0E0EE0F2D
:101C1000FF1FE258F04E808191819093771F80934F
:101C2000761F80918E1F8093751F2093921F0C94B6
:101C300013418091921F813011F00C9413418091D7
:101C4000981F811106C08091931F815087708093E7
:101C5000931F10928F1FE091931FF0E0EE0FFF1F74
:101C6000E258F04E808191819093771F8093761F88
:101C70008FE28093751F80917A1F90917B1F04964D
:101C800090937B1F80937A1F1092921F0C941341A4
:101C90008091921F813011F00C9413418091991F13
:101CA0008F5F8093991F8093981F10928F1FE091F0
:101CB000931FF0E0EE0FFF1FE258F04E80819181FC
:101CC0009093771F8093761F80E38093751F809198
:101CD0007A1F90917B1F059690937B1F80937A1FAC
:101CE0001092921F0C9413418091921F813011F039
:101CF0000C9413418091991F81508093991F809378
:101D0000981F10928F1FE091931FF0E0EE0FFF1FBE
:101D1000E258F04E808191819093771F8093761FD7
:101D200081E38093751F80917A1F90917B1F0596A8
:101D300090937B1F80937A1F1092921F0C941341F3
:101D40008091921F813011F00C941341E091931F08
:101D5000E150E770E093931F10928F1FF0E0EE0FB9
:101D6000FF1FE258F04E808191819093771F8093FE
:101D7000761F83E38093751F80917A1F90917B1F5C
:101D8000059690937B1F80937A1F1092921F0C945C
:101D900013418091921F823049F50E948304109272
:101DA000971F2091951F80919F1F822B80939F1FCB
:101DB0008093981F10928F1FE091931FF0E0EE0F19
:101DC000FF1FE258F04E808191819093771F80939E
:101DD000761F2093751F80917A1F90917B1F089624
:101DE00090937B1F80937A1F1092921F8091921F75
:101DF000813011F00C94134122E020938F1F8091C9
:101E00007C1F90917D1F9093771F8093761F809108
:101E10008E1F8093751F2093921F0C941341809105
:101E2000921F813011F00C941341E091931FEF5FEA
:101E3000E770E093931FF0E0EE0FFF1FE258F04EC3
:101E400080E390E09183808310928F1F9093771F9F
:101E50008093761F85E38093751F80917A1F909100
:101E60007B1F059690937B1F80937A1F1092921F81
:101E70000C9413418091921F823011F50E948304CB
:101E80002091951F2093991F10928F1FE091931F0F
:101E9000F0E0EE0FFF1FE258F04E808191819093A9
:101EA000771F8093761F2093751F80917A1F9091E2
:101EB0007B1F089690937B1F80937A1F1092921F2E
:101EC0008091921F813011F00C94134122E02093F5
:101ED0008F1FE091931FF0E0EE0FFF1FE258F04ECE
:101EE000808191819093771F8093761F80918E1FC0
:101EF0008093751F2093921F0C9413418091921F21
:101F0000813011F00C9413418091981F87FF06C017
:101F10008091931F815087708093931F10928F1F21
:101F2000E091931FF0E0EE0FFF1FE258F04E80812A
:101F300091819093771F8093761F87E38093751F1D
:101F400080917A1F90917B1F049690937B1F8093C2
:101F50007A1F1092921F0C9413418091921F81302E
:101F600011F00C941341E091931FE150E770E0935E
:101F7000931F10928F1FF0E0EE0FFF1FE258F04EFC
:101F8000808191819093771F8093761F8BE380935C
:101F9000751F80917A1F90917B1F059690937B1FF0
:101FA00080937A1F1092921F0C9413418091921F7C
:101FB000823039F50E9483041092971FC091951FBB
:101FC0008C2F0E9472048093981F10928F1FE091B3
:101FD000931FF0E0EE0FFF1FE258F04E2081318199
:101FE0003093771F2093761FC093751F80917A1FBF
:101FF00090917B1F089690937B1F80937A1F10927D
:10200000921F8091921F813011F00C94134122E0B5
:1020100020938F1F80917C1F90917D1F9093771F3D
:102020008093761F80918E1F8093751F2093921F3F
:102030000C9413418091921F813011F00C94134144
:10204000E091931FEF5FE770E093931FF0E0EE0FD6
:10205000FF1FE258F04E88E390E091838083109256
:102060008F1F9093771F8093761F8DE38093751F4A
:1020700080917A1F90917B1F059690937B1F809390
:102080007A1F1092921F0C9413418091921F8330FB
:1020900051F580917C1F90917D1F2091951F811596
:1020A00038E1930720F4FC01EC58F84F208310929C
:1020B0008F1FE091931FF0E0EE0FFF1FE258F04EEC
:1020C000808191819093771F8093761F2093751F55
:1020D00080917A1F90917B1F099690937B1F80932C
:1020E0007A1F1092921F8091921F8230D9F40E9421
:1020F000830480919A1F90E0982F88272091991F40
:10210000822B90937D1F80937C1F23E020938F1F51
:102110009093771F8093761F8091951F8093751FF2
:102120002093921F8091921F813011F00C941341E3
:1021300022E020938F1FE091931FF0E0EE0FFF1F2E
:10214000E258F04E808191819093771F8093761FA3
:1021500080918E1F8093751F2093921F0C941341C2
:102160008091921F813011F00C9413418091981F3F
:102170000E945704882331F08091931F815087700B
:102180008093931F10928F1FE091931FF0E0EE0F4A
:10219000FF1FE258F04E808191819093771F8093CA
:1021A000761F8FE38093751F80917A1F90917B1F1C
:1021B000049690937B1F80937A1F1092921F0C9429
:1021C00013418091921F8330B9F50E9483042091BE
:1021D000951F322F3F738091781F9091791F932B19
:1021E0009093791F8093781F3091971FE091931FF0
:1021F000311108C0AE2FB0E0AA0FBB1FA258B04EDD
:102200008D939C9310928F1FF0E0EE0FFF1FE2580A
:10221000F04E808191819093771F8093761F209359
:10222000751F80917A1F90917B1F0A9690937B1F58
:1022300080937A1F1092921FC091921FC230F1F4C6
:102240000E9483042091951F822F90E09093791F24
:102250008093781FC0938F1FE091931FF0E0EE0FE3
:10226000FF1FE258F04E808191819093771F8093F9
:10227000761F2093751F83E08093921F8091921F99
:10228000813011F00C94134122E020938F1FE091D4
:10229000931FF0E0EE0FFF1FE258F04E8081918116
:1022A0009093771F8093761F80918E1F8093751F68
:1022B0002093921F0C9413418091921F823001F55C
:1022C0002091951F20939F1F10928F1FE091931FC5
:1022D000F0E0EE0FFF1FE258F04E80819181909365
:1022E000771F8093761F2093751F80917A1F90919E
:1022F0007B1F089690937B1F80937A1F1092921FEA
:102300008091921F813011F00C94134110927D1F27
:1023100010927C1F80938F1F80919F1F90E090935D
:10232000771F8093761F81E48093751F82E08093EE
:10233000921F0C9413418091921F8330E1F50E940B
:1023400083042091951F322F3F738091781F9091C5
:10235000791F932B9093791F8093781F3091971F4B
:1023600031110DC0E091931FEF5FE770E093931F71
:10237000F0E0EE0FFF1FE258F04E91838083109241
:102380008F1FE091931FF0E0EE0FFF1FE258F04E19
:10239000808191819093771F8093761F2093751F82
:1023A00080917A1F90917B1F0A9690937B1F809358
:1023B0007A1F1092921FC091921FC230F1F40E94B6
:1023C00083042091951F822F90E09093791F809332
:1023D000781FC0938F1FE091931FF0E0EE0FFF1F57
:1023E000E258F04E808191819093771F8093761F01
:1023F0002093751F83E08093921F8091921F8130FC
:1024000011F00C94134122E020938F1FE091931F51
:10241000F0E0EE0FFF1FE258F04E80819181909323
:10242000771F8093761F80918E1F8093751F209356
:10243000921F0C9413418091921F823001F52091DC
:10244000951F20939F1F10928F1FE091931FF0E024
:10245000EE0FFF1FE258F04E808191819093771F1D
:102460008093761F2093751F80917A1F90917B1F18
:10247000089690937B1F80937A1F1092921F209151
:10248000921F213011F00C94134181E090E0909361
:102490007D1F80937C1F20938F1F80919F1F90E052
:1024A00091609093771F8093761F83E48093751FCC
:1024B00082E08093921F0C9413418091921F83308D
:1024C00059F50E9483042091951F322F3F7380910C
:1024D000781F9091791F932B9093791F8093781F89
:1024E000E091931FF0E0EE0FFF1FE258F04E918352
:1024F000808310928F1F9093771F8093761F209375
:10250000751F80917A1F90917B1F0B9690937B1F74
:1025100080937A1F1092921FC091921FC230F1F4E3
:102520000E9483042091951F822F90E09093791F41
:102530008093781FC0938F1FE091931FF0E0EE0F00
:10254000FF1FE258F04E808191819093771F809316
:10255000761F2093751F83E08093921F8091921FB6
:10256000813011F00C94134122E020938F1FE091F1
:10257000931FF0E0EE0FFF1FE258F04E8081918133
:102580009093771F8093761F80918E1F8093751F85
:102590002093921F0C9413418091921F823001F579
:1025A0002091951F20939F1F10928F1FE091931FE2
:1025B000F0E0EE0FFF1FE258F04E80819181909382
:1025C000771F8093761F2093751F80917A1F9091BB
:1025D0007B1F089690937B1F80937A1F1092921F07
:1025E0002091921F213011F00C94134182E090E071
:1025F00090937D1F80937C1F20938F1F80919F1F3E
:1026000090E092609093771F8093761F85E480938B
:10261000751F82E08093921F0C9413418091921F4A
:10262000833079F50E9483042091951F322F3F73E8
:102630008091781F9091791F932B9093791F8093AD
:10264000781FE091931FEF5FE770E093931FF0E036
:10265000EE0FFF1FE258F04E9183808310928F1F80
:102660009093771F8093761F2093751F80917A1F18
:1026700090917B1F0B9690937B1F80937A1F1092F3
:10268000921FC091921FC230F1F40E9483042091E6
:10269000951F822F90E09093791F8093781FC093AD
:1026A0008F1FE091931FF0E0EE0FFF1FE258F04EF6
:1026B000808191819093771F8093761F2093751F5F
:1026C00083E08093921F8091921F813011F00C94CF
:1026D000134122E020938F1FE091931FF0E0EE0F53
:1026E000FF1FE258F04E808191819093771F809375
:1026F000761F80918E1F8093751F2093921F0C94DC
:1027000013418091921F823001F52091951F2093F3
:102710009F1F10928F1FE091931FF0E0EE0FFF1F9D
:10272000E258F04E808191819093771F8093761FBD
:102730002093751F80917A1F90917B1F089690932C
:102740007B1F80937A1F1092921F2091921F21303D
:1027500011F00C94134183E090E090937D1F8093DF
:102760007C1F20938F1F80919F1F90E09360909318
:10277000771F8093761F87E48093751F82E0809394
:10278000921F0C9413418091921F8330B9F50E94DF
:1027900083042091951F322F3F738091781F909171
:1027A000791F932B9093791F8093781F3091981FF6
:1027B000E091931F332341F0AE2FB0E0AA0FBB1F6F
:1027C000A258B04E8D939C9310928F1FF0E0EE0FA5
:1027D000FF1FE258F04E808191819093771F809384
:1027E000761F2093751F80917A1F90917B1F0A9608
:1027F00090937B1F80937A1F1092921FC091921F1B
:10280000C230F1F40E9483042091951F822F90E042
:102810009093791F8093781FC0938F1FE091931F2F
:10282000F0E0EE0FFF1FE258F04E8081918190930F
:10283000771F8093761F2093751F83E08093921FEC
:102840008091921F813011F00C94134122E020936B
:102850008F1FE091931FF0E0EE0FFF1FE258F04E44
:10286000808191819093771F8093761F80918E1F36
:102870008093751F2093921F0C9413418091921F97
:10288000823001F52091951F20939F1F10928F1F7A
:10289000E091931FF0E0EE0FFF1FE258F04E8081B1
:1028A00091819093771F8093761F2093751F80915D
:1028B0007A1F90917B1F089690937B1F80937A1FBD
:1028C0001092921F2091921F213011F00C9413410D
:1028D00084E090E090937D1F80937C1F20938F1F56
:1028E00080919F1F90E094609093771F8093761F54
:1028F00089E48093751F82E08093921F0C941341AA
:102900008091921F8330E1F50E9483042091951FEE
:10291000322F3F738091781F9091791F932B909362
:10292000791F8093781F3091981F332369F0E091CD
:10293000931FEF5FE770E093931FF0E0EE0FFF1F30
:10294000E258F04E9183808310928F1FE091931F85
:10295000F0E0EE0FFF1FE258F04E808191819093DE
:10296000771F8093761F2093751F80917A1F909117
:102970007B1F0A9690937B1F80937A1F1092921F61
:10298000C091921FC230F1F40E9483042091951FE0
:10299000822F90E09093791F8093781FC0938F1FB0
:1029A000E091931FF0E0EE0FFF1FE258F04E8081A0
:1029B00091819093771F8093761F2093751F83E0FA
:1029C0008093921F8091921F813011F00C941341DB
:1029D00022E020938F1FE091931FF0E0EE0FFF1F86
:1029E000E258F04E808191819093771F8093761FFB
:1029F00080918E1F8093751F2093921F0C9413411A
:102A00008091921F823001F52091951F20939F1F86
:102A100010928F1FE091931FF0E0EE0FFF1FE2581E
:102A2000F04E808191819093771F8093761F209341
:102A3000751F80917A1F90917B1F089690937B1F42
:102A400080937A1F1092921F2091921F213011F0D3
:102A50000C94134185E090E090937D1F80937C1F40
:102A600020938F1F80919F1F90E095609093771F18
:102A70008093761F8BE48093751F82E08093921F72
:102A80000C9413418091921F833059F50E94830466
:102A90002091951F322F3F738091781F9091791F5D
:102AA000932B9093791F8093781FE091931FF0E010
:102AB000EE0FFF1FE258F04E9183808310928F1F1C
:102AC0009093771F8093761F2093751F80917A1FB4
:102AD00090917B1F0B9690937B1F80937A1F10928F
:102AE000921FC091921FC230F1F40E948304209182
:102AF000951F822F90E09093791F8093781FC09349
:102B00008F1FE091931FF0E0EE0FFF1FE258F04E91
:102B1000808191819093771F8093761F2093751FFA
:102B200083E08093921F8091921F813011F00C946A
:102B3000134122E020938F1FE091931FF0E0EE0FEE
:102B4000FF1FE258F04E808191819093771F809310
:102B5000761F80918E1F8093751F2093921F0C9477
:102B600013418091921F823001F52091951F20938F
:102B70009F1F10928F1FE091931FF0E0EE0FFF1F39
:102B8000E258F04E808191819093771F8093761F59
:102B90002093751F80917A1F90917B1F08969093C8
:102BA0007B1F80937A1F1092921F2091921F2130D9
:102BB00011F00C94134186E090E090937D1F809378
:102BC0007C1F20938F1F80919F1F90E096609093B1
:102BD000771F8093761F8DE48093751F82E080932A
:102BE000921F0C9413418091921F833079F50E94BB
:102BF00083042091951F322F3F738091781F90910D
:102C0000791F932B9093791F8093781FE091931FE6
:102C1000EF5FE770E093931FF0E0EE0FFF1FE258C5
:102C2000F04E9183808310928F1F9093771F809333
:102C3000761F2093751F80917A1F90917B1F0B96B2
:102C400090937B1F80937A1F1092921FC091921FC6
:102C5000C230F1F40E9483042091951F822F90E0EE
:102C60009093791F8093781FC0938F1FE091931FDB
:102C7000F0E0EE0FFF1FE258F04E808191819093BB
:102C8000771F8093761F2093751F83E08093921F98
:102C90008091921F813011F00C94134122E0209317
:102CA0008F1FE091931FF0E0EE0FFF1FE258F04EF0
:102CB000808191819093771F8093761F80918E1FE2
:102CC0008093751F2093921F0C9413418091921F43
:102CD000823001F52091951F20939F1F10928F1F26
:102CE000E091931FF0E0EE0FFF1FE258F04E80815D
:102CF00091819093771F8093761F2093751F809109
:102D00007A1F90917B1F089690937B1F80937A1F68
:102D10001092921F2091921F213011F00C941341B8
:102D200087E090E090937D1F80937C1F20938F1FFE
:102D300080919F1F90E097609093771F8093761FFC
:102D40008FE48093751F82E08093921F0C9413414F
:102D50008091921F8330B9F50E9483042091951FC2
:102D6000322F3F738091781F9091791F932B90930E
:102D7000791F8093781F3091981FE091931F37FD42
:102D800008C0AE2FB0E0AA0FBB1FA258B04E8D9363
:102D90009C9310928F1FF0E0EE0FFF1FE258F04E51
:102DA000808191819093771F8093761F2093751F68
:102DB00080917A1F90917B1F0A9690937B1F80933E
:102DC0007A1F1092921FC091921FC230F1F40E949C
:102DD00083042091951F822F90E09093791F809318
:102DE000781FC0938F1FE091931FF0E0EE0FFF1F3D
:102DF000E258F04E808191819093771F8093761FE7
:102E00002093751F83E08093921F8091921F8130E1
:102E100011F00C94134122E020938F1FE091931F37
:102E2000F0E0EE0FFF1FE258F04E80819181909309
:102E3000771F8093761F80918E1F8093751F20933C
:102E4000921F0C9413418091921F823001F52091C2
:102E50009F1F2093951F10928F1FE091931FF0E00A
:102E6000EE0FFF1FE258F04E808191819093771F03
:102E70008093761F2093751F80917A1F90917B1FFE
:102E8000069690937B1F80937A1F1092921F209139
:102E9000921F213011F00C94134188E090E0909340
:102EA0007D1F80937C1F20938F1F80919F1F90E038
:102EB00098609093771F8093761F81E58093751FAC
:102EC00082E08093921F0C9413418091921F833073
:102ED000E1F50E9483042091951F322F3F7380916A
:102EE000781F9091791F932B9093791F8093781F6F
:102EF0003091981F37FD0DC0E091931FEF5FE77091
:102F0000E093931FF0E0EE0FFF1FE258F04E918325
:102F1000808310928F1FE091931FF0E0EE0FFF1F50
:102F2000E258F04E808191819093771F8093761FB5
:102F30002093751F80917A1F90917B1F0A96909322
:102F40007B1F80937A1F1092921FC091921FC230F4
:102F5000F1F40E9483042091951F822F90E09093BA
:102F6000791F8093781FC0938F1FE091931FF0E02B
:102F7000EE0FFF1FE258F04E808191819093771FF2
:102F80008093761F2093751F83E08093921F80911A
:102F9000921F813011F00C94134122E020938F1F77
:102FA000E091931FF0E0EE0FFF1FE258F04E80819A
:102FB00091819093771F8093761F80918E1F8093CD
:102FC000751F2093921F0C9413418091921F8230A1
:102FD00001F520919F1F2093951F10928F1FE09164
:102FE000931FF0E0EE0FFF1FE258F04E80819181B9
:102FF0009093771F8093761F2093751F80917A1F7F
:1030000090917B1F069690937B1F80937A1F10925E
:10301000921F2091921F213011F00C94134189E0EE
:1030200090E090937D1F80937C1F20938F1F809151
:103030009F1F90E099609093771F8093761F83E5A0
:103040008093751F82E08093921F0C9413418091AE
:10305000921F833059F50E9483042091951F322FCF
:103060003F738091781F9091791F932B9093791FD4
:103070008093781FE091931FF0E0EE0FFF1FE2585E
:10308000F04E9183808310928F1F9093771F8093CF
:10309000761F2093751F80917A1F90917B1F0B964E
:1030A00090937B1F80937A1F1092921FC091921F62
:1030B000C230F1F40E9483042091951F822F90E08A
:1030C0009093791F8093781FC0938F1FE091931F77
:1030D000F0E0EE0FFF1FE258F04E80819181909357
:1030E000771F8093761F2093751F83E08093921F34
:1030F0008091921F813011F00C94134122E02093B3
:103100008F1FE091931FF0E0EE0FFF1FE258F04E8B
:10311000808191819093771F8093761F80918E1F7D
:103120008093751F2093921F0C9413418091921FDE
:10313000823001F520919F1F2093951F10928F1FC1
:10314000E091931FF0E0EE0FFF1FE258F04E8081F8
:1031500091819093771F8093761F2093751F8091A4
:103160007A1F90917B1F069690937B1F80937A1F06
:103170001092921F2091921F213011F00C94134154
:103180008AE090E090937D1F80937C1F20938F1F97
:1031900080919F1F90E09A609093771F8093761F95
:1031A00085E58093751F82E08093921F0C941341F4
:1031B0008091921F833079F50E9483042091951F9E
:1031C000322F3F738091781F9091791F932B9093AA
:1031D000791F8093781FE091931FEF5FE770E09372
:1031E000931FF0E0EE0FFF1FE258F04E91838083B3
:1031F00010928F1F9093771F8093761F2093751FD7
:1032000080917A1F90917B1F0B9690937B1F8093E8
:103210007A1F1092921FC091921FC230F1F40E9447
:1032200083042091951F822F90E09093791F8093C3
:10323000781FC0938F1FE091931FF0E0EE0FFF1FE8
:10324000E258F04E808191819093771F8093761F92
:103250002093751F83E08093921F8091921F81308D
:1032600011F00C94134122E020938F1FE091931FE3
:10327000F0E0EE0FFF1FE258F04E808191819093B5
:10328000771F8093761F80918E1F8093751F2093E8
:10329000921F0C9413418091921F823001F520916E
:1032A0009F1F2093951F10928F1FE091931FF0E0B6
:1032B000EE0FFF1FE258F04E808191819093771FAF
:1032C0008093761F2093751F80917A1F90917B1FAA
:1032D000069690937B1F80937A1F1092921F2091E5
:1032E000921F213011F00C9413418BE090E09093E9
:1032F0007D1F80937C1F20938F1F80919F1F90E0E4
:103300009B609093771F8093761F87E58093751F4E
:1033100082E08093921F0C9413418091921F83301E
:10332000C9F50E9483041091951F812F8F73C0915E
:10333000781FD091791FD82BD093791FC093781F15
:103340008091981F0E945704E091931F811108C03B
:10335000AE2FB0E0AA0FBB1FA258B04ECD93DC93A6
:1033600010928F1FF0E0EE0FFF1FE258F04E8081A9
:1033700091819093771F8093761F1093751F809192
:103380007A1F90917B1F0A9690937B1F80937A1FE0
:103390001092921FC091921FC230F1F40E948304D8
:1033A0002091951F822F90E09093791F8093781F32
:1033B000C0938F1FE091931FF0E0EE0FFF1FE258C4
:1033C000F04E808191819093771F8093761F209398
:1033D000751F83E08093921F8091921F813011F0BE
:1033E0000C94134122E020938F1FE091931FF0E093
:1033F000EE0FFF1FE258F04E808191819093771F6E
:103400008093761F80918E1F8093751F2093921F4B
:103410000C9413418091921F823001F520919F1FDF
:103420002093951F10928F1FE091931FF0E0EE0FF5
:10343000FF1FE258F04E808191819093771F809317
:10344000761F2093751F80917A1F90917B1F06969F
:1034500090937B1F80937A1F1092921F2091921F4E
:10346000213011F00C9413418CE090E090937D1F7B
:1034700080937C1F20938F1F80919F1F90E09C6002
:103480009093771F8093761F89E58093751F82E064
:103490008093921F0C9413418091921F8330F1F519
:1034A0000E9483041091951F812F8F73C091781F04
:1034B000D091791FD82BD093791FC093781F80911A
:1034C000981F0E94570481110DC0E091931FEF5F78
:1034D000E770E093931FF0E0EE0FFF1FE258F04E0D
:1034E000D183C08310928F1FE091931FF0E0EE0F05
:1034F000FF1FE258F04E808191819093771F809357
:10350000761F1093751F80917A1F90917B1F0A96EA
:1035100090937B1F80937A1F1092921FC091921FED
:10352000C230F1F40E9483042091951F822F90E015
:103530009093791F8093781FC0938F1FE091931F02
:10354000F0E0EE0FFF1FE258F04E808191819093E2
:10355000771F8093761F2093751F83E08093921FBF
:103560008091921F813011F00C94134122E020933E
:103570008F1FE091931FF0E0EE0FFF1FE258F04E17
:10358000808191819093771F8093761F80918E1F09
:103590008093751F2093921F0C9413418091921F6A
:1035A000823001F520919F1F2093951F10928F1F4D
:1035B000E091931FF0E0EE0FFF1FE258F04E808184
:1035C00091819093771F8093761F2093751F809130
:1035D0007A1F90917B1F069690937B1F80937A1F92
:1035E0001092921F2091921F213011F00C941341E0
:1035F0008DE090E090937D1F80937C1F20938F1F20
:1036000080919F1F90E09D609093771F8093761F1D
:103610008BE58093751F82E08093921F0C94134179
:103620008091921F833059F50E9483042091951F49
:10363000322F3F738091781F9091791F932B909335
:10364000791F8093781FE091931FF0E0EE0FFF1F2A
:10365000E258F04E9183808310928F1F9093771FD2
:103660008093761F2093751F80917A1F90917B1F06
:103670000B9690937B1F80937A1F1092921FC0919C
:10368000921FC230F1F40E9483042091951F822F73
:1036900090E09093791F8093781FC0938F1FE091E3
:1036A000931FF0E0EE0FFF1FE258F04E80819181F2
:1036B0009093771F8093761F2093751F83E08093EC
:1036C000921F8091921F813011F00C94134122E0DF
:1036D00020938F1FE091931FF0E0EE0FFF1FE25841
:1036E000F04E808191819093771F8093761F809117
:1036F0008E1F8093751F2093921F0C94134180910D
:10370000921F823011F520919F1F2093951F2093C7
:10371000700710928F1FE091931FF0E0EE0FFF1FD4
:10372000E258F04E808191819093771F8093761FAD
:103730002093751F80917A1F90917B1F069690931E
:103740007B1F80937A1F1092921F2091921F21302D
:1037500011F00C9413418EE090E090937D1F8093C4
:103760007C1F20938F1F80919F1F90E09E609093FD
:10377000771F8093761F8DE58093751F82E080937D
:10378000921F0C9413418091921F833079F50E940F
:1037900083042091951F322F3F738091781F909161
:1037A000791F932B9093791F8093781FE091931F3B
:1037B000EF5FE770E093931FF0E0EE0FFF1FE2581A
:1037C000F04E9183808310928F1F9093771F809388
:1037D000761F2093751F80917A1F90917B1F0B9607
:1037E00090937B1F80937A1F1092921FC091921F1B
:1037F000C230F1F40E9483042091951F822F90E043
:103800009093791F8093781FC0938F1FE091931F2F
:10381000F0E0EE0FFF1FE258F04E8081918190930F
:10382000771F8093761F2093751F83E08093921FEC
:103830008091921F813011F00C94134122E020936B
:103840008F1FE091931FF0E0EE0FFF1FE258F04E44
:10385000808191819093771F8093761F80918E1F36
:103860008093751F2093921F0C9413418091921F97
:10387000823069F580919F1F8093951F90E0982F6B
:10388000882720917007822B0E941A0481E0809380
:10389000741F10928F1FE091931FF0E0EE0FFF1F37
:1038A000E258F04E808191819093771F8093761F2C
:1038B00080919F1F8093751F80917A1F90917B1F2D
:1038C000069690937B1F80937A1F1092921F2091EF
:1038D000921F213011F00C9413418FE090E09093EF
:1038E0007D1F80937C1F20938F1F80919F1F90E0EE
:1038F0009F609093771F8093761F80918E1F809397
:10390000751F82E08093921F0C9413418091921F47
:103910008330B9F50E9483042091951F322F3F73A5
:103920008091781F9091791F932B9093791F8093AA
:10393000781F3091971FE091931F332341F0AE2FF2
:10394000B0E0AA0FBB1FA258B04E8D939C9310926B
:103950008F1FF0E0EE0FFF1FE258F04E8081918143
:103960009093771F8093761F2093751F80917A1F05
:1039700090917B1F0A9690937B1F80937A1F1092E1
:10398000921FC091921FC230F1F40E9483042091D3
:10399000951F822F90E09093791F8093781FC0939A
:1039A0008F1FE091931FF0E0EE0FFF1FE258F04EE3
:1039B000808191819093771F8093761F2093751F4C
:1039C00083E08093921F8091921F813011F00C94BC
:1039D000134122E020938F1FE091931FF0E0EE0F40
:1039E000FF1FE258F04E808191819093771F809362
:1039F000761F80918E1F8093751F2093921F0C94C9
:103A000013418091921F823001F520919F1F2093D6
:103A1000951F10928F1FE091931FF0E0EE0FFF1F94
:103A2000E258F04E808191819093771F8093761FAA
:103A30002093751F80917A1F90917B1F069690931B
:103A40007B1F80937A1F1092921F2091921F21302A
:103A500011F00C94134180E190E090937D1F8093CE
:103A60007C1F20938F1F80919F1F90E09061909307
:103A7000771F8093761F81E68093751F82E0809385
:103A8000921F0C9413418091921F8330E1F50E94A4
:103A900083042091951F322F3F738091781F90915E
:103AA000791F932B9093791F8093781F3091971FE4
:103AB000332369F0E091931FEF5FE770E093931F6A
:103AC000F0E0EE0FFF1FE258F04E918380831092DA
:103AD0008F1FE091931FF0E0EE0FFF1FE258F04EB2
:103AE000808191819093771F8093761F2093751F1B
:103AF00080917A1F90917B1F0A9690937B1F8093F1
:103B00007A1F1092921FC091921FC230F1F40E944E
:103B100083042091951F822F90E09093791F8093CA
:103B2000781FC0938F1FE091931FF0E0EE0FFF1FEF
:103B3000E258F04E808191819093771F8093761F99
:103B40002093751F83E08093921F8091921F813094
:103B500011F00C94134122E020938F1FE091931FEA
:103B6000F0E0EE0FFF1FE258F04E808191819093BC
:103B7000771F8093761F80918E1F8093751F2093EF
:103B8000921F0C9413418091921F823001F5209175
:103B90009F1F2093951F10928F1FE091931FF0E0BD
:103BA000EE0FFF1FE258F04E808191819093771FB6
:103BB0008093761F2093751F80917A1F90917B1FB1
:103BC000069690937B1F80937A1F1092921F2091EC
:103BD000921F213011F00C94134181E190E09093F9
:103BE0007D1F80937C1F20938F1F80919F1F90E0EB
:103BF00091619093771F8093761F83E68093751F62
:103C000082E08093921F0C9413418091921F833025
:103C100059F50E9483042091951F322F3F738091A4
:103C2000781F9091791F932B9093791F8093781F21
:103C3000E091931FF0E0EE0FFF1FE258F04E9183EA
:103C4000808310928F1F9093771F8093761F20930D
:103C5000751F80917A1F90917B1F0B9690937B1F0D
:103C600080937A1F1092921FC091921FC230F1F47C
:103C70000E9483042091951F822F90E09093791FDA
:103C80008093781FC0938F1FE091931FF0E0EE0F99
:103C9000FF1FE258F04E808191819093771F8093AF
:103CA000761F2093751F83E08093921F8091921F4F
:103CB000813011F00C94134122E020938F1FE0918A
:103CC000931FF0E0EE0FFF1FE258F04E80819181CC
:103CD0009093771F8093761F80918E1F8093751F1E
:103CE0002093921F0C9413418091921F823001F512
:103CF00020919F1F2093951F10928F1FE091931F7B
:103D0000F0E0EE0FFF1FE258F04E8081918190931A
:103D1000771F8093761F2093751F80917A1F909153
:103D20007B1F069690937B1F80937A1F1092921FA1
:103D30002091921F213011F00C94134182E190E008
:103D400090937D1F80937C1F20938F1F80919F1FD6
:103D500090E092619093771F8093761F85E6809321
:103D6000751F82E08093921F0C9413418091921FE3
:103D7000833079F50E9483042091951F322F3F7381
:103D80008091781F9091791F932B9093791F809346
:103D9000781FE091931FEF5FE770E093931FF0E0CF
:103DA000EE0FFF1FE258F04E9183808310928F1F19
:103DB0009093771F8093761F2093751F80917A1FB1
:103DC00090917B1F0B9690937B1F80937A1F10928C
:103DD000921FC091921FC230F1F40E94830420917F
:103DE000951F822F90E09093791F8093781FC09346
:103DF0008F1FE091931FF0E0EE0FFF1FE258F04E8F
:103E0000808191819093771F8093761F2093751FF7
:103E100083E08093921F8091921F813011F00C9467
:103E2000134122E020938F1FE091931FF0E0EE0FEB
:103E3000FF1FE258F04E808191819093771F80930D
:103E4000761F80918E1F8093751F2093921F0C9474
:103E500013418091921F823001F520919F1F209382
:103E6000951F10928F1FE091931FF0E0EE0FFF1F40
:103E7000E258F04E808191819093771F8093761F56
:103E80002093751F80917A1F90917B1F06969093C7
:103E90007B1F80937A1F1092921F2091921F2130D6
:103EA00011F00C94134183E190E090937D1F809377
:103EB0007C1F20938F1F80919F1F90E093619093B0
:103EC000771F8093761F87E68093751F82E080932B
:103ED000921F0C9413418091921F8330B9F50E9478
:103EE00083042091951F322F3F738091781F90910A
:103EF000791F932B9093791F8093781F3091981F8F
:103F0000E091931F311108C0AE2FB0E0AA0FBB1F84
:103F1000A258B04E8D939C9310928F1FF0E0EE0F3D
:103F2000FF1FE258F04E808191819093771F80931C
:103F3000761F2093751F80917A1F90917B1F0A96A0
:103F400090937B1F80937A1F1092921FC091921FB3
:103F5000C230F1F40E9483042091951F822F90E0DB
:103F60009093791F8093781FC0938F1FE091931FC8
:103F7000F0E0EE0FFF1FE258F04E808191819093A8
:103F8000771F8093761F2093751F83E08093921F85
:103F90008091921F813011F00C94134122E0209304
:103FA0008F1FE091931FF0E0EE0FFF1FE258F04EDD
:103FB000808191819093771F8093761F80918E1FCF
:103FC0008093751F2093921F0C9413418091921F30
:103FD000823001F520919F1F2093951F10928F1F13
:103FE000E091931FF0E0EE0FFF1FE258F04E80814A
:103FF00091819093771F8093761F2093751F8091F6
:104000007A1F90917B1F069690937B1F80937A1F57
:104010001092921F2091921F213011F00C941341A5
:1040200084E190E090937D1F80937C1F20938F1FED
:1040300080919F1F90E094619093771F8093761FEB
:1040400089E68093751F82E08093921F0C94134140
:104050008091921F8330E1F50E9483042091951F87
:10406000322F3F738091781F9091791F932B9093FB
:10407000791F8093781F3091981F31110DC0E09106
:10408000931FEF5FE770E093931FF0E0EE0FFF1FC9
:10409000E258F04E9183808310928F1FE091931F1E
:1040A000F0E0EE0FFF1FE258F04E80819181909377
:1040B000771F8093761F2093751F80917A1F9091B0
:1040C0007B1F0A9690937B1F80937A1F1092921FFA
:1040D000C091921FC230F1F40E9483042091951F79
:1040E000822F90E09093791F8093781FC0938F1F49
:1040F000E091931FF0E0EE0FFF1FE258F04E808139
:1041000091819093771F8093761F2093751F83E092
:104110008093921F8091921F813011F00C94134173
:1041200022E020938F1FE091931FF0E0EE0FFF1F1E
:10413000E258F04E808191819093771F8093761F93
:1041400080918E1F8093751F2093921F0C941341B2
:104150008091921F823001F520919F1F2093951F1F
:1041600010928F1FE091931FF0E0EE0FFF1FE258B7
:10417000F04E808191819093771F8093761F2093DA
:10418000751F80917A1F90917B1F069690937B1FDD
:1041900080937A1F1092921F2091921F213011F06C
:1041A0000C94134185E190E090937D1F80937C1FD8
:1041B00020938F1F80919F1F90E095619093771FB0
:1041C0008093761F8BE68093751F82E08093921F09
:1041D0000C9413418091921F833059F50E948304FF
:1041E0002091951F322F3F738091781F9091791FF6
:1041F000932B9093791F8093781FE091931FF0E0A9
:10420000EE0FFF1FE258F04E9183808310928F1FB4
:104210009093771F8093761F2093751F80917A1F4C
:1042200090917B1F0B9690937B1F80937A1F109227
:10423000921FC091921FC230F1F40E94830420911A
:10424000951F822F90E09093791F8093781FC093E1
:104250008F1FE091931FF0E0EE0FFF1FE258F04E2A
:10426000808191819093771F8093761F2093751F93
:1042700083E08093921F8091921F813011F00C9403
:10428000134122E020938F1FE091931FF0E0EE0F87
:10429000FF1FE258F04E808191819093771F8093A9
:1042A000761F80918E1F8093751F2093921F0C9410
:1042B00013418091921F823001F520919F1F20931E
:1042C000951F10928F1FE091931FF0E0EE0FFF1FDC
:1042D000E258F04E808191819093771F8093761FF2
:1042E0002093751F80917A1F90917B1F0696909363
:1042F0007B1F80937A1F1092921F2091921F213072
:1043000011F00C94134186E190E090937D1F80930F
:104310007C1F20938F1F80919F1F90E09661909348
:10432000771F8093761F8DE68093751F82E08093C0
:10433000921F0C9413418091921F833079F50E9453
:1043400083042091951F322F3F738091781F9091A5
:10435000791F932B9093791F8093781FE091931F7F
:10436000EF5FE770E093931FF0E0EE0FFF1FE2585E
:10437000F04E9183808310928F1F9093771F8093CC
:10438000761F2093751F80917A1F90917B1F0B964B
:1043900090937B1F80937A1F1092921FC091921F5F
:1043A000C230F1F40E9483042091951F822F90E087
:1043B0009093791F8093781FC0938F1FE091931F74
:1043C000F0E0EE0FFF1FE258F04E80819181909354
:1043D000771F8093761F2093751F83E08093921F31
:1043E0008091921F813011F00C94134122E02093B0
:1043F0008F1FE091931FF0E0EE0FFF1FE258F04E89
:10440000808191819093771F8093761F80918E1F7A
:104410008093751F2093921F0C9413418091921FDB
:10442000823001F520919F1F2093951F10928F1FBE
:10443000E091931FF0E0EE0FFF1FE258F04E8081F5
:1044400091819093771F8093761F2093751F8091A1
:104450007A1F90917B1F069690937B1F80937A1F03
:104460001092921F2091921F213011F00C94134151
:1044700087E190E090937D1F80937C1F20938F1F96
:1044800080919F1F90E097619093771F8093761F94
:104490008FE68093751F82E08093921F0C941341E6
:1044A0008091921F8330B9F50E9483042091951F5B
:1044B000322F3F738091781F9091791F932B9093A7
:1044C000791F8093781F3091981FE091931F37FFD9
:1044D00008C0AE2FB0E0AA0FBB1FA258B04E8D93FC
:1044E0009C9310928F1FF0E0EE0FFF1FE258F04EEA
:1044F000808191819093771F8093761F2093751F01
:1045000080917A1F90917B1F0A9690937B1F8093D6
:104510007A1F1092921FC091921FC230F1F40E9434
:1045200083042091951F822F90E09093791F8093B0
:10453000781FC0938F1FE091931FF0E0EE0FFF1FD5
:10454000E258F04E808191819093771F8093761F7F
:104550002093751F83E08093921F8091921F81307A
:1045600011F00C94134122E020938F1FE091931FD0
:10457000F0E0EE0FFF1FE258F04E808191819093A2
:10458000771F8093761F80918E1F8093751F2093D5
:10459000921F0C9413418091921F823001F520915B
:1045A0009F1F2093951F10928F1FE091931FF0E0A3
:1045B000EE0FFF1FE258F04E808191819093771F9C
:1045C0008093761F2093751F80917A1F90917B1F97
:1045D000069690937B1F80937A1F1092921F2091D2
:1045E000921F213011F00C94134188E190E09093D8
:1045F0007D1F80937C1F20938F1F80919F1F90E0D1
:1046000098619093771F8093761F81E78093751F41
:1046100082E08093921F0C9413418091921F83300B
:10462000E1F50E9483042091951F322F3F73809102
:10463000781F9091791F932B9093791F8093781F07
:104640003091981F37FF0DC0E091931FEF5FE77027
:10465000E093931FF0E0EE0FFF1FE258F04E9183BE
:10466000808310928F1FE091931FF0E0EE0FFF1FE9
:10467000E258F04E808191819093771F8093761F4E
:104680002093751F80917A1F90917B1F0A969093BB
:104690007B1F80937A1F1092921FC091921FC2308D
:1046A000F1F40E9483042091951F822F90E0909353
:1046B000791F8093781FC0938F1FE091931FF0E0C4
:1046C000EE0FFF1FE258F04E808191819093771F8B
:1046D0008093761F2093751F83E08093921F8091B3
:1046E000921F813011F00C94134122E020938F1F10
:1046F000E091931FF0E0EE0FFF1FE258F04E808133
:1047000091819093771F8093761F80918E1F809365
:10471000751F2093921F0C9413418091921F823039
:1047200001F520919F1F2093951F10928F1FE091FC
:10473000931FF0E0EE0FFF1FE258F04E8081918151
:104740009093771F8093761F2093751F80917A1F17
:1047500090917B1F069690937B1F80937A1F1092F7
:10476000921F2091921F213011F00C94134189E186
:1047700090E090937D1F80937C1F20938F1F8091EA
:104780009F1F90E099619093771F8093761F83E736
:104790008093751F82E08093921F0C941341809147
:1047A000921F833059F50E9483042091951F322F68
:1047B0003F738091781F9091791F932B9093791F6D
:1047C0008093781FE091931FF0E0EE0FFF1FE258F7
:1047D000F04E9183808310928F1F9093771F809368
:1047E000761F2093751F80917A1F90917B1F0B96E7
:1047F00090937B1F80937A1F1092921FC091921FFB
:10480000C230F1F40E9483042091951F822F90E022
:104810009093791F8093781FC0938F1FE091931F0F
:10482000F0E0EE0FFF1FE258F04E808191819093EF
:10483000771F8093761F2093751F83E08093921FCC
:104840008091921F813011F00C94134122E020934B
:104850008F1FE091931FF0E0EE0FFF1FE258F04E24
:10486000808191819093771F8093761F80918E1F16
:104870008093751F2093921F0C9413418091921F77
:10488000823001F520919F1F2093951F10928F1F5A
:10489000E091931FF0E0EE0FFF1FE258F04E808191
:1048A00091819093771F8093761F2093751F80913D
:1048B0007A1F90917B1F069690937B1F80937A1F9F
:1048C0001092921F2091921F213011F00C941341ED
:1048D0008AE190E090937D1F80937C1F20938F1F2F
:1048E00080919F1F90E09A619093771F8093761F2D
:1048F00085E78093751F82E08093921F0C9413418B
:104900008091921F833079F50E9483042091951F36
:10491000322F3F738091781F9091791F932B909342
:10492000791F8093781FE091931FEF5FE770E0930A
:10493000931FF0E0EE0FFF1FE258F04E918380834B
:1049400010928F1F9093771F8093761F2093751F6F
:1049500080917A1F90917B1F0B9690937B1F809381
:104960007A1F1092921FC091921FC230F1F40E94E0
:1049700083042091951F822F90E09093791F80935C
:10498000781FC0938F1FE091931FF0E0EE0FFF1F81
:10499000E258F04E808191819093771F8093761F2B
:1049A0002093751F83E08093921F8091921F813026
:1049B00011F00C94134122E020938F1FE091931F7C
:1049C000F0E0EE0FFF1FE258F04E8081918190934E
:1049D000771F8093761F80918E1F8093751F209381
:1049E000921F0C9413418091921F823001F5209107
:1049F0009F1F2093951F10928F1FE091931FF0E04F
:104A0000EE0FFF1FE258F04E808191819093771F47
:104A10008093761F2093751F80917A1F90917B1F42
:104A2000069690937B1F80937A1F1092921F20917D
:104A3000921F213011F00C9413418BE190E0909380
:104A40007D1F80937C1F20938F1F80919F1F90E07C
:104A50009B619093771F8093761F87E78093751FE4
:104A600082E08093921F0C9413418091921F8330B7
:104A7000C9F50E9483041091951F812F8F73C091F7
:104A8000781FD091791FD82BD093791FC093781FAE
:104A90008091981F0E945704E091931F882341F052
:104AA000AE2FB0E0AA0FBB1FA258B04ECD93DC933F
:104AB00010928F1FF0E0EE0FFF1FE258F04E808142
:104AC00091819093771F8093761F1093751F80912B
:104AD0007A1F90917B1F0A9690937B1F80937A1F79
:104AE0001092921FC091921FC230F1F40E94830471
:104AF0002091951F822F90E09093791F8093781FCB
:104B0000C0938F1FE091931FF0E0EE0FFF1FE2585C
:104B1000F04E808191819093771F8093761F209330
:104B2000751F83E08093921F8091921F813011F056
:104B30000C94134122E020938F1FE091931FF0E02B
:104B4000EE0FFF1FE258F04E808191819093771F06
:104B50008093761F80918E1F8093751F2093921FE4
:104B60000C9413418091921F823001F520919F1F78
:104B70002093951F10928F1FE091931FF0E0EE0F8E
:104B8000FF1FE258F04E808191819093771F8093B0
:104B9000761F2093751F80917A1F90917B1F069638
:104BA00090937B1F80937A1F1092921F2091921FE7
:104BB000213011F00C9413418CE190E090937D1F13
:104BC00080937C1F20938F1F80919F1F90E09C619A
:104BD0009093771F8093761F89E78093751F82E0FB
:104BE0008093921F0C9413418091921F8330F1F5B2
:104BF0000E9483041091951F812F8F73C091781F9D
:104C0000D091791FD82BD093791FC093781F8091B2
:104C1000981F0E945704882369F0E091931FEF5F6B
:104C2000E770E093931FF0E0EE0FFF1FE258F04EA5
:104C3000D183C08310928F1FE091931FF0E0EE0F9D
:104C4000FF1FE258F04E808191819093771F8093EF
:104C5000761F1093751F80917A1F90917B1F0A9683
:104C600090937B1F80937A1F1092921FC091921F86
:104C7000C230F1F40E9483042091951F822F90E0AE
:104C80009093791F8093781FC0938F1FE091931F9B
:104C9000F0E0EE0FFF1FE258F04E8081918190937B
:104CA000771F8093761F2093751F83E08093921F58
:104CB0008091921F813011F00C94134122E02093D7
:104CC0008F1FE091931FF0E0EE0FFF1FE258F04EB0
:104CD000808191819093771F8093761F80918E1FA2
:104CE0008093751F2093921F0C9413418091921F03
:104CF000823001F520919F1F2093951F10928F1FE6
:104D0000E091931FF0E0EE0FFF1FE258F04E80811C
:104D100091819093771F8093761F2093751F8091C8
:104D20007A1F90917B1F069690937B1F80937A1F2A
:104D30001092921F2091921F213011F00C94134178
:104D40008DE190E090937D1F80937C1F20938F1FB7
:104D500080919F1F90E09D619093771F8093761FB5
:104D60008BE78093751F82E08093921F0C94134110
:104D70008091921F833059F50E9483042091951FE2
:104D8000322F3F738091781F9091791F932B9093CE
:104D9000791F8093781FE091931FF0E0EE0FFF1FC3
:104DA000E258F04E9183808310928F1F9093771F6B
:104DB0008093761F2093751F80917A1F90917B1F9F
:104DC0000B9690937B1F80937A1F1092921FC09135
:104DD000921FC230F1F40E9483042091951F822F0C
:104DE00090E09093791F8093781FC0938F1FE0917C
:104DF000931FF0E0EE0FFF1FE258F04E808191818B
:104E00009093771F8093761F2093751F83E0809384
:104E1000921F8091921F813011F00C94134122E077
:104E200020938F1FE091931FF0E0EE0FFF1FE258D9
:104E3000F04E808191819093771F8093761F8091AF
:104E40008E1F8093751F2093921F0C9413418091A5
:104E5000921F823001F520919F1F2093951F109281
:104E60008F1FE091931FF0E0EE0FFF1FE258F04E0E
:104E7000808191819093771F8093761F2093751F77
:104E800080917A1F90917B1F069690937B1F809351
:104E90007A1F1092921F2091921F213011F00C94D2
:104EA00013418EE190E090937D1F80937C1F2093AF
:104EB0008F1F80919F1F90E09E619093771F80933A
:104EC000761F8DE78093751F82E08093921F0C946C
:104ED00013418091921F833079F50E9483042091C1
:104EE000951F322F3F738091781F9091791F932BDC
:104EF0009093791F8093781FE091931FEF5FE77085
:104F0000E093931FF0E0EE0FFF1FE258F04E918305
:104F1000808310928F1F9093771F8093761F20932A
:104F2000751F80917A1F90917B1F0B9690937B1F2A
:104F300080937A1F1092921FC091921FC230F1F499
:104F40000E9483042091951F822F90E09093791FF7
:104F50008093781FC0938F1FE091931FF0E0EE0FB6
:104F6000FF1FE258F04E808191819093771F8093CC
:104F7000761F2093751F83E08093921F8091921F6C
:104F8000813011F00C94134122E020938F1FE091A7
:104F9000931FF0E0EE0FFF1FE258F04E80819181E9
:104FA0009093771F8093761F80918E1F8093751F3B
:104FB0002093921F0C9413418091921F823001F52F
:104FC00020919F1F2093951F10928F1FE091931F98
:104FD000F0E0EE0FFF1FE258F04E80819181909338
:104FE000771F8093761F2093751F80917A1F909171
:104FF0007B1F069690937B1F80937A1F1092921FBF
:105000002091921F213011F00C9413418FE190E018
:1050100090937D1F80937C1F20938F1F80919F1FF3
:1050200090E09F619093771F8093761F8FE7809326
:10503000751F82E08093921F0C9413418091921F00
:10504000813011F00C9413411092971F80919F1F93
:105050000E94620480939F1F8093981F10928F1F5D
:10506000E091931FF0E0EE0FFF1FE258F04E8081B9
:1050700091819093771F8093761F80E88093751FAE
:1050800080917A1F90917B1F059690937B1F809350
:105090007A1F1092921F0C9413418091921F8130BD
:1050A00011F00C9413411092971F80919E1F0E9443
:1050B000620480939F1F8093981F10928F1FE0912E
:1050C000931FF0E0EE0FFF1FE258F04E80819181B8
:1050D0009093771F8093761F81E88093751F80914E
:1050E0007A1F90917B1F059690937B1F80937A1F68
:1050F0001092921F0C9413418091921F813011F0F5
:105100000C9413411092971F80919D1F0E9462047E
:1051100080939F1F8093981F10928F1FE091931F81
:10512000F0E0EE0FFF1FE258F04E808191819093E6
:10513000771F8093761F82E88093751F80917A1F76
:1051400090917B1F059690937B1F80937A1F1092FE
:10515000921F0C9413418091921F813011F00C9496
:1051600013411092971F80919C1F0E9462048093AC
:105170009F1F8093981F10928F1FE091931FF0E064
:10518000EE0FFF1FE258F04E808191819093771FC0
:105190008093761F83E88093751F80917A1F90918A
:1051A0007B1F059690937B1F80937A1F1092921F0E
:1051B0000C9413418091921F813011F00C94134193
:1051C0001092971F80919B1F0E94620480939F1FE3
:1051D0008093981F10928F1FE091931FF0E0EE0FC5
:1051E000FF1FE258F04E808191819093771F80934A
:1051F000761F84E88093751F80917A1F90917B1FA2
:10520000059690937B1F80937A1F1092921F0C94A7
:1052100013418091921F813011F00C941341109230
:10522000971F80919A1F0E94620480939F1F809312
:10523000981F10928F1FE091931FF0E0EE0FFF1F59
:10524000E258F04E808191819093771F8093761F72
:1052500085E88093751F80917A1F90917B1F05963A
:1052600090937B1F80937A1F1092921F0C9413418E
:105270008091921F813011F00C9413411092971F6E
:105280008091991F0E94620480939F1F8093981FB2
:1052900010928F1FE091931FF0E0EE0FFF1FE25876
:1052A000F04E808191819093771F8093761F86E8DE
:1052B0008093751F80917A1F90917B1F0596909324
:1052C0007B1F80937A1F1092921F0C941341809140
:1052D000921F8230A9F580917C1F90917D1F8115CE
:1052E00028E1920728F4FC01EC58F84FC08101C076
:1052F000CFEFC093951F1092971F8C2F0E946204CE
:1053000080939F1F8093981F10928F1FE091931F8F
:10531000F0E0EE0FFF1FE258F04E20813181309314
:10532000771F2093761FC093751F80917A1F9091ED
:105330007B1F089690937B1F80937A1F1092921F79
:105340008091921F813011F00C94134180919A1F2B
:1053500090E0982F88272091991F822B90937D1F92
:1053600080937C1F22E020938F1F9093771F809360
:10537000761F87E88093751F2093921F0C9413412A
:105380008091921F813011F00C94134180919F1FE6
:105390000E94620480939F1F8093981F10928F1F1A
:1053A000E091931FF0E0EE0FFF1FE258F04E808176
:1053B00091819093771F8093761F88E88093751F63
:1053C00080917A1F90917B1F059690937B1F80930D
:1053D0007A1F1092921F0C9413418091921F81307A
:1053E00011F00C94134180919E1F0E9462048093DF
:1053F0009F1F8093981F10928F1FE091931FF0E0E2
:10540000EE0FFF1FE258F04E808191819093771F3D
:105410008093761F89E88093751F80917A1F909101
:105420007B1F059690937B1F80937A1F1092921F8B
:105430000C9413418091921F813011F00C94134110
:1054400080919D1F0E94620480939F1F8093981FEC
:1054500010928F1FE091931FF0E0EE0FFF1FE258B4
:10546000F04E808191819093771F8093761F8AE818
:105470008093751F80917A1F90917B1F0596909362
:105480007B1F80937A1F1092921F0C94134180917E
:10549000921F813011F00C94134180919C1F0E9447
:1054A000620480939F1F8093981F10928F1FE0913A
:1054B000931FF0E0EE0FFF1FE258F04E80819181C4
:1054C0009093771F8093761F8BE88093751F809150
:1054D0007A1F90917B1F059690937B1F80937A1F74
:1054E0001092921F0C9413418091921F813011F001
:1054F0000C94134180919B1F0E94620480939F1F14
:105500008093981F10928F1FE091931FF0E0EE0F91
:10551000FF1FE258F04E808191819093771F809316
:10552000761F8CE88093751F80917A1F90917B1F66
:10553000059690937B1F80937A1F1092921F0C9474
:1055400013418091921F813011F00C94134180918E
:105550009A1F0E94620480939F1F8093981F10924D
:105560008F1FE091931FF0E0EE0FFF1FE258F04E07
:10557000808191819093771F8093761F8DE880932F
:10558000751F80917A1F90917B1F059690937B1FCA
:1055900080937A1F1092921F0C9413418091921F56
:1055A000813011F00C9413418091991F0E94620484
:1055B00080939F1F8093981F10928F1FE091931FDD
:1055C000F0E0EE0FFF1FE258F04E80819181909342
:1055D000771F8093761F8EE88093751F80917A1FC6
:1055E00090917B1F059690937B1F80937A1F10925A
:1055F000921F0C9413418091921F823099F58091F3
:105600007C1F90917D1F811538E1930728F4FC01E0
:10561000EC58F84FC08101C0CFEFC093951F8C2F7D
:105620000E94620480939F1F8093981F10928F1F87
:10563000E091931FF0E0EE0FFF1FE258F04E208143
:1056400031813093771F2093761FC093751F80910F
:105650007A1F90917B1F089690937B1F80937A1FEF
:105660001092921F8091921F813011F00C9413417F
:1056700080919A1F90E0982F88272091991F822B64
:1056800090937D1F80937C1F22E020938F1F909327
:10569000771F8093761F8FE88093751F2093921F4A
:1056A0000C9413418091921F813011F00C9413419E
:1056B0001092971F80919F1F0E94720480939F1FDA
:1056C0008093981F10928F1FE091931FF0E0EE0FD0
:1056D000FF1FE258F04E808191819093771F809355
:1056E000761F80E98093751F80917A1F90917B1FB0
:1056F000059690937B1F80937A1F1092921F0C94B3
:1057000013418091921F813011F00C94134110923B
:10571000971F80919E1F0E94720480939F1F809309
:10572000981F10928F1FE091931FF0E0EE0FFF1F64
:10573000E258F04E808191819093771F8093761F7D
:1057400081E98093751F80917A1F90917B1F059648
:1057500090937B1F80937A1F1092921F0C94134199
:105760008091921F813011F00C9413411092971F79
:1057700080919D1F0E94720480939F1F8093981FA9
:1057800010928F1FE091931FF0E0EE0FFF1FE25881
:10579000F04E808191819093771F8093761F82E9EC
:1057A0008093751F80917A1F90917B1F059690932F
:1057B0007B1F80937A1F1092921F0C94134180914B
:1057C000921F813011F00C9413411092971F809119
:1057D0009C1F0E94720480939F1F8093981F1092B9
:1057E0008F1FE091931FF0E0EE0FFF1FE258F04E85
:1057F000808191819093771F8093761F83E98093B6
:10580000751F80917A1F90917B1F059690937B1F47
:1058100080937A1F1092921F0C9413418091921FD3
:10582000813011F00C9413411092971F80919B1FAF
:105830000E94720480939F1F8093981F10928F1F65
:10584000E091931FF0E0EE0FFF1FE258F04E8081D1
:1058500091819093771F8093761F84E98093751FC1
:1058600080917A1F90917B1F059690937B1F809368
:105870007A1F1092921F0C9413418091921F8130D5
:1058800011F00C9413411092971F80919A1F0E945F
:10589000720480939F1F8093981F10928F1FE09136
:1058A000931FF0E0EE0FFF1FE258F04E80819181D0
:1058B0009093771F8093761F85E98093751F809161
:1058C0007A1F90917B1F059690937B1F80937A1F80
:1058D0001092921F0C9413418091921F813011F00D
:1058E0000C9413411092971F8091991F0E9472048B
:1058F00080939F1F8093981F10928F1FE091931F9A
:10590000F0E0EE0FFF1FE258F04E808191819093FE
:10591000771F8093761F86E98093751F80917A1F89
:1059200090917B1F059690937B1F80937A1F109216
:10593000921F0C9413418091921F8230A9F580919F
:105940007C1F90917D1F811528E1920728F4FC01AE
:10595000EC58F84FC08101C0CFEFC093951F109253
:10596000971F8C2F0E94720480939F1F8093981F13
:1059700010928F1FE091931FF0E0EE0FFF1FE2588F
:10598000F04E208131813093771F2093761FC09392
:10599000751F80917A1F90917B1F089690937B1FB3
:1059A00080937A1F1092921F8091921F813011F084
:1059B0000C94134180919A1F90E0982F8827209192
:1059C000991F822B90937D1F80937C1F22E0209350
:1059D0008F1F9093771F8093761F87E98093751FA1
:1059E0002093921F0C9413418091921F813011F0EB
:1059F0000C94134180919F1F0E94720480939F1FFB
:105A00008093981F10928F1FE091931FF0E0EE0F8C
:105A1000FF1FE258F04E808191819093771F809311
:105A2000761F88E98093751F80917A1F90917B1F64
:105A3000059690937B1F80937A1F1092921F0C946F
:105A400013418091921F813011F00C941341809189
:105A50009E1F0E94720480939F1F8093981F109234
:105A60008F1FE091931FF0E0EE0FFF1FE258F04E02
:105A7000808191819093771F8093761F89E980932D
:105A8000751F80917A1F90917B1F059690937B1FC5
:105A900080937A1F1092921F0C9413418091921F51
:105AA000813011F00C94134180919D1F0E9472046B
:105AB00080939F1F8093981F10928F1FE091931FD8
:105AC000F0E0EE0FFF1FE258F04E8081918190933D
:105AD000771F8093761F8AE98093751F80917A1FC4
