:10000000E9C200000C94DC470C940D480C943E4867
:100010000C946F480C94A0480C94D1480C9402495D
:100020000C94334908C3000006C3000004C3000059
:1000300002C3000000C30000FEC20000FCC20000BA
:10004000FAC20000F8C20000F6C20000F4C20000CC
:10005000F2C20000F0C20000EEC200000C940343A4
:10006000EAC20000E8C20000E6C20000E4C20000EC
:10007000E2C20000E0C20000DEC20000DCC20000FC
:10008000DAC20000D8C20000D6C20000D4C200000C
:10009000D2C20000D0C20000CEC200000C94BB4A05
:1000A000CAC20000C8C20000C6C20000C4C200002C
:1000B000C2C20000C0C20000BEC20000BCC200003C
:1000C000BAC20000B8C20000B6C20000B4C200004C
:1000D000B2C20000B0C20000AEC20000ACC200005C
:1000E000AAC200007E06A406CA06FE0627076B0702
:1000F0009407D707060832085E089008B908FB087D
:10010000260969099809C409F009250A4E0A920AC4
:10011000BD0A000B2F0B5B0B870BC00BE90B2B0CE5
:10012000560C990CC90CF50C6242210D4A0D8F0D2D
:10013000BA0DFD0D2C0E580E6242840EAD0EF30E5C
:100140001E0F620F910FBD0F6242E90F121058107F
:100150008310C710624262426242F6101F1163119F
:100160008E11F9112A12A512E4126413A6131514A4
:100170005A14CD140F158A15CC154C168E16FD1673
:100180003F17B217F4176F18B11831197819E7191A
:10019000291A9C1ADE1A5B1B9D1B1F1C611CD01C9C
:1001A000141D871DD71D521E941E141F561FC51FD8
:1001B00007207A20BC2037217921F9213B22AA226D
:1001C000EC225F23A1231C245E24DE2420258F251E
:1001D000D1254426862603274527C72709287828BE
:1001E000BA282D296F299E29CD29FC292B2A5A2A84
:1001F000892AB82A112B3E2B6B2B982BC52BF22B5F
:100200001F2C4C2CA32CD22C012D302D5F2D8E2D8C
:10021000BD2DEC2D452E722E9F2ECC2EF92E262F85
:10022000532F802FD72F0230323062309230C230BD
:10023000F23022317B31A631D63106323632663287
:100240009632C6321F334A337A33AA33DA330A344A
:100250003A346A34C334F0341D354A357735A43521
:10026000D135FE3555367A36A336CC36F5361E37BF
:1002700047377037C337EC3711383A3863388C3822
:10028000B538DE3831395A398339A839D139FA3994
:10029000233A4C3A9D3AC43AEB3A123B353B5C3B2D
:1002A000833BAA3BFB3B223C493C703C973CBA3C1D
:1002B000E13C083D593D803DA73DCE3DF53D1C3E0E
:1002C0003F3E663EB73EDE3E053F2C3F533F7A3F02
:1002D000A13FC43F15406440B34002415141A04199
:1002E000EF413E422644294418441C4422446044C1
:1002F0002D44314437443B443F44454449444D44F4
:100300006044534457445B44B6478047884794470A
:10031000A147C247CF4700000A0B02090C0D0E0887
:1003200007030401000000000000000000000000BE
:1003300000000000000000000000000000000000BD
:10034000000012111000000000000000000000007A
:10035000000000000000000000000000010210206A
:1003600020080810204010204080020102010804EB
:10037000020101020408102040808040201008047F
:1003800002018004020180402010080402010804D8
:10039000020101020408102040800102040810201C
:1003A0004080050505050705080808080202020245
:1003B0000A0A080804040404010101010101010101
:1003C0000303030303030303040707070C0C0C0CCC
:1003D0000C0C0C0C020202020606060606060606B5
:1003E0000B0B0B0B0B0B0B0B00002000230026004C
:1003F00029002C002F00320000010000030106013B
:10040000090100002200250028002B002E003100E9
:10041000340002010000050108010B010000210069
:10042000240027002A002D003000330001010000C5
:10043000040107010A0100000000000000000000A4
:1004400000000009600000000000007131000000A1
:100450007A7361773200006378646534330000207A
:10046000766674723500006E626867793600000047
:100470006D6A75373800002C6B696F303900002EBB
:100480002F6C3B702D00000027005B3D000000003A
:100490000D5D005C00000000000000007F000031E6
:1004A000003437000000302E323536381B00002B68
:1004B000332D2A3900000000000000000000000079
:1004C0000000000000000000000000097E000000A5
:1004D00000000051210000005A53415740000043E2
:1004E0005844452423000020564654522500004E0F
:1004F000424847595E0000004D4A55262A00003CFC
:100500004B494F292800003E3F4C3A505F00000005
:1005100022007B2B000000000D7D007C000000000D
:10052000000000007F000031003437000000302E52
:10053000323536381B00002B332D2A3900000000DD
:1005400000000000000000000000000000000000AB
:10055000000000000000000000000000000000009B
:10056000000000000000000000000000000000008B
:10057000000000000000000000000000000000007B
:10058000000000000000000000000000000000006B
:10059000000000000000000000000000000000005B
:1005A000000000000000000000000000000000004B
:1005B000000000000000000000000000000000003B
:1005C000000000000000000000000000000000002B
:1005D0004505204A11241FBECFEFD1E2DEBFCDBFBB
:1005E00000E00CBF17E0A0E0B2E0EEE2F8E900E0C6
:1005F0000BBF02C007900D92A830B107D9F721E2D6
:10060000A8E0B7E001C01D92A230B207E1F715E003
:10061000C4EDD5E000E006C022970109FE010BBF42
:100620000E94114CC03DD10780E00807A9F70E9445
:10063000F6420C94154CE4CCCF93C42F843140F493
:10064000643030F4462F682F8AE097E00E947145AD
:100650006C2F8AE097E0CF910C94EE42FF920F93BB
:100660001F93CF93DF93D62F142F9FEF920FC1E0EC
:1006700001C0CC0F9A95EAF7022F080F801771F08E
:100680009C2F912311F041E001C042E0FF24F3943C
:10069000F80E6D2FD1DFC6958F2DF0CFDF91CF9162
:1006A0001F910F91FF900895CF9340E260E080E0AA
:1006B000C3DFCFE460E28AE097E00E94EE42C150DF
:1006C000C9F740E560E084E0B7DF61E68AE097E0E3
:1006D0000E94EE4267E68AE097E00E94EE4265E6FD
:1006E0008AE097E00E94EE4242E563E080E0A4DF0A
:1006F00049E463E082E0A0DF63E58AE097E00E94DE
:10070000EE4264E78AE097E00E94EE4248E463E04C
:1007100086E092DF41E460E08DE08EDF64E68AE00F
:1007200097E00E94EE4264E68AE097E00E94EE4283
:1007300062E78AE097E00E94EE4244E463E08DE0E5
:100740007BDF61E68AE097E00E94EE4264E78AE0A0
:1007500097E00E94EE4261E68AE097E0CF910C9428
:10076000EE42823541F0833521F0893451F48CE03A
:1007700003C08BE001C08AE00E94CF4421E0892BB6
:1007800009F020E0822F0895EF92FF920F931F93BC
:10079000CF93DF931092B80700EA12E0C0E0D0E0F8
:1007A00080E8E82EF12CF80181918F010E94CF445E
:1007B000892B61F42091B807C7010C2E02C09595D2
:1007C00087950A94E2F7282B2093B8072196C83022
:1007D000D10549F78091B807DF91CF911F910F9113
:1007E000FF90EF900895DF92EF92FF920F931F9387
:1007F000CF93DF93EC01162FF42ED22EC5DF4D2FB1
:1008000046954695469523E061E082E027DF23E0A8
:100810004D2F61E086E022DFAE0196E056954795C8
:100820009A95E1F722E061E08AE018DFAE0123E06B
:10083000569547952A95E1F723E061E08DE00EDFBC
:1008400023E04C2F61E081E109DFC12FD0E0AE0150
:1008500036E0559547953A95E1F722E062E08AE067
:10086000FDDEAE0163E0559547956A95E1F723E01B
:1008700062E08DE0F3DE23E0412F62E081E1EEDE15
:1008800021E04E2D62E080E0E9DE21E04D2D62E0C6
:1008900082E0E4DE22E04F2D62E083E0DFDE21E053
:1008A000402F62E086E0DADE4091B8074295469537
:1008B00046954370406360E080E0BEDE4091B8073B
:1008C00050E073E0559547957A95E1F7477040639E
:1008D00060E081E0B1DE4091B8074770406360E0BE
:1008E00082E0DF91CF911F910F91FF90EF90DF9009
:1008F000A3CECF93DF93C0EAD2E062E089910E9459
:10090000614482E0C83AD807C1F762E08BE00E94F8
:10091000614462E08CE00E94614462E08AE00E94EF
:1009200061448AE097E00E9431468AE097E00E94A5
:100930001F4540E152E061E08AE097E00E94A44553
:1009400048E052E062E08AE097E00E94A44540E07F
:1009500052E063E08AE097E00E94A445A5DE109291
:10096000090746E354E062E181E1DF91CF910C9405
:1009700042479ADE10920907E6E1F7E011921192E0
:1009800087E0E63BF807D1F708950E940B478823DC
:1009900029F00E941E4780688093B907089540E2BD
:1009A000E42FEF73F0E0EE0FFF1FE05EFD4F2081BC
:1009B00031812817390729F04F5F403689F780E0E9
:1009C0000895842F0895EF92FF921F93CF93DF93A2
:1009D0001F92CDB7DEB7182F7A01809109078111D8
:1009E00009C081E0809309078AE097E069830E944B
:1009F00067456981C7016983D2DF482F6981811109
:100A000001C043E082E0810F0F90DF91CF911F91F1
:100A1000FF90EF9011CEAC0197FD05C01092B60784
:100A20001092B7070895453585ED580741F41092A7
:100A3000B7078091B6078F5F8093B60708958091BE
:100A4000B7078031B0F46091B607643090F490E15C
:100A5000699FF0011124E80FF11DEE0FFF1FEA5E00
:100A6000F84F208131812417350719F051834083D5
:100A7000AADF8091B7078F5F8093B7070895109220
:100A8000B90708958091B907089524E044E16FE320
:100A90008AE097E00E94F84488E097E00C94414790
:100AA0009EC0CF92DF92EF92FF92CF93DF9300D060
:100AB0001F92CDB7DEB7CDD0282F30E040E050E018
:100AC000211531054105510549F129833A834B83AD
:100AD0005C830E944D43C090BA07D090BB07E09062
:100AE000BC07F090BD0729813A814B815C816C1570
:100AF0007D058E059F0548F368EE73E080E090E089
:100B00000E94E94B2C0D3D1D4E1D5F1D2093BA0721
:100B10003093BB074093BC075093BD070F900F90D5
:100B20000F900F90DF91CF91FF90EF90DF90CF90DB
:100B3000089590E021E0882321F080FD922786959A
:100B4000FACF81E0892708952091ED1F90E0820F70
:100B5000911D2091E51F820F911D8093C61F9093D8
:100B6000C71F9093E51F08952091ED1F30E0281BCB
:100B700031098091E51F281B31092093C61F30934E
:100B8000C71F3093E51F822F08958091DF1F8111C9
:100B90001EC0E091E11FF0E0EE0FFF1FE453F04EA6
:100BA000808191819093CB1F8093CA1F9C012F5FFE
:100BB0003F4F3F7331832083811528E1920728F44A
:100BC000FC01EE53F84F808107C08FEF05C01092F3
:100BD000CB1F1092CA1FD8DD8093E31F0895109297
:100BE000E71F1092E81F1092E91F1092EA1F10925F
:100BF000EB1F1092EC1F1092ED1F1092DD1F109250
:100C0000E01F1092E61F1092E11F1092C91F109270
:100C1000C81F1092E51F1092E41F1092E21F10925D
:100C2000DF1F1092DE1FECECFFE1119211928FE1B9
:100C3000EC3DF807D1F71092C21F5BDEE8EAF2E064
:100C4000A2ECB7E081918D9386E0E83AF807D1F7FE
:100C50000895EF920F931F93CF93DF938091E21F3C
:100C60008823A1F08091E01F811110C01092E21F33
:100C70001092E41F81E08093DF1F8093DE1F80913C
:100C8000C21F882319F01092C21F73DEC091E41FA7
:100C90008091DE1F811104C0CC2381F00C946B4243
:100CA00083E55FDD9091C007891711F40C946B42C6
:100CB0008093C0078111F0CF0C946B428091E01FAC
:100CC000811114C062DF2091E31F2093DC1F81E0BB
:100CD0008093E01F1092DD1F8091CA1F9091CB1F5F
:100CE0009093C51F8093C41F2093C31F8091DC1F66
:100CF00090E0FC01EE58FF4F0C940B4C8091E01FEC
:100D0000813011F00C9464428093E41F1092DD1F37
:100D1000E091E11FF0E0EE0FFF1FE453F04E808101
:100D200091819093C51F8093C41F1092C31F80911F
:100D3000C81F9091C91F04969093C91F8093C81F24
:100D40001092E01F0C9464422091E01F213011F0BA
:100D50000C9464422093E41F1092DD1FE091E11F88
:100D6000F0E0EE0FFF1FE453F04E808191819093ED
:100D7000C51F8093C41F2093C31F8091C81F9091EB
:100D8000C91F04969093C91F8093C81F1092E01F3B
:100D90000C9464428091E01F813011F00C94644205
:100DA0002091ED1F30E0C901880F892F881F990B12
:100DB0008093E51F220F331F282B2093ED1F1092E5
:100DC000DD1FE091E11FF0E0EE0FFF1FE453F04E56
:100DD000808191819093C51F8093C41F82E080938E
:100DE000C31F8091C81F9091C91F05969093C91F7A
:100DF0008093C81F1092E01F0C9464428091E01F02
:100E0000813011F00C946442E091E11FE150E770F1
:100E1000E093E11F1092DD1FF0E0EE0FFF1FE4539F
:100E2000F04E808191819093C51F8093C41F83E011
:100E30008093C31F8091C81F9091C91F05969093FE
:100E4000C91F8093C81F1092E01F0C9464428091C8
:100E5000E01F823039F599DE1092E51FC091E31F43
:100E60008C2F72DE8093ED1F8093E61F1092DD1FA2
:100E7000E091E11FF0E0EE0FFF1FE453F04E208100
:100E800031813093C51F2093C41FC093C31F80912D
:100E9000C81F9091C91F08969093C91F8093C81FBF
:100EA0001092E01F8091E01F813011F00C94644299
:100EB00022E02093DD1F8091CA1F9091CB1F909359
:100EC000C51F8093C41F8091DC1F8093C31F209394
:100ED000E01F0C9464428091E01F813011F00C946B
:100EE0006442E091E11FEF5FE770E093E11FF0E003
:100EF000EE0FFF1FE453F04E118210821092DD1F9F
:100F00001092C51F1092C41F85E08093C31F80916B
:100F1000C81F9091C91F05969093C91F8093C81F41
:100F20001092E01F0C9464428091E01F823009F51A
:100F30002CDE2091E31F2093ED1F1092DD1FE09126
:100F4000E11FF0E0EE0FFF1FE453F04E808191812E
:100F50009093C51F8093C41F2093C31F8091C81F07
:100F60009091C91F08969093C91F8093C81F109233
:100F7000E01F8091E01F813011F00C94644222E068
:100F80002093DD1FE091E11FF0E0EE0FFF1FE4531F
:100F9000F04E808191819093C51F8093C41F8091F2
:100FA000DC1F8093C31F2093E01F0C946442809148
:100FB000E01F813011F00C9464428091E51F811193
:100FC00006C08091E11F815087708093E11F1092CD
:100FD000DD1FE091E11FF0E0EE0FFF1FE453F04E44
:100FE000808191819093C51F8093C41F87E0809377
:100FF000C31F8091C81F9091C91F04969093C91F69
:101000008093C81F1092E01F0C9464428091E01FEF
:10101000813011F00C9464428091EC1F8F5F8093BB
:10102000EC1F8093E61F1092DD1FE091E11FF0E0BE
:10103000EE0FFF1FE453F04E808191819093C51F06
:101040008093C41F88E08093C31F8091C81F909134
:10105000C91F05969093C91F8093C81F1092E01F67
:101060000C9464428091E01F813011F00C94644232
:101070008091EC1F81508093EC1F8093E61F1092AB
:10108000DD1FE091E11FF0E0EE0FFF1FE453F04E93
:10109000808191819093C51F8093C41F89E08093C4
:1010A000C31F8091C81F9091C91F05969093C91FB7
:1010B0008093C81F1092E01F0C9464428091E01F3F
:1010C000813011F00C9464428091ED1F982F917043
:1010D0009093E51F9795992797958695892B8093EF
:1010E000ED1F1092DD1FE091E11FF0E0EE0FFF1FFA
:1010F000E453F04E808191819093C51F8093C41F6B
:101100008AE08093C31F8091C81F9091C91F0596E4
:101110009093C91F8093C81F1092E01F0C946442E3
:101120008091E01F813011F00C946442E091E11F46
:10113000E150E770E093E11F1092DD1FF0E0EE0F49
:10114000FF1FE453F04E808191819093C51F8093DF
:10115000C41F8BE08093C31F8091C81F9091C91F4B
:1011600005969093C91F8093C81F1092E01F0C949E
:1011700064428091E01F823029F507DDC091E31FB2
:101180008C2FE2DC8093ED1F8093E61F1092DD1F11
:10119000E091E11FF0E0EE0FFF1FE453F04E2081DD
:1011A00031813093C51F2093C41FC093C31F80910A
:1011B000C81F9091C91F08969093C91F8093C81F9C
:1011C0001092E01F8091E01F813011F00C94644276
:1011D00022E02093DD1F8091CA1F9091CB1F909336
:1011E000C51F8093C41F8091DC1F8093C31F209371
:1011F000E01F0C9464428091E01F813011F00C9448
:101200006442E091E11FEF5FE770E093E11FF0E0DF
:10121000EE0FFF1FE453F04E88E090E0918380834F
:101220001092DD1F9093C51F8093C41F8DE08093A3
:10123000C31F8091C81F9091C91F05969093C91F25
:101240008093C81F1092E01F0C9464428091E01FAD
:10125000823009F59ADC2091E31F2093EC1F109255
:10126000DD1FE091E11FF0E0EE0FFF1FE453F04EB1
:10127000808191819093C51F8093C41F2093C31FC9
:101280008091C81F9091C91F08969093C91F8093A1
:10129000C81F1092E01F8091E01F813011F00C9464
:1012A000644222E02093DD1FE091E11FF0E0EE0FA9
:1012B000FF1FE453F04E808191819093C51F80936E
:1012C000C41F8091DC1F8093C31F2093E01F0C94E8
:1012D00064428091E01F813011F00C94644280914F
:1012E000E61F882331F08091E11F81508770809341
:1012F000E11F1092DD1FE091E11FF0E0EE0FFF1FF4
:10130000E453F04E808191819093C51F8093C41F58
:101310008FE08093C31F8091C81F9091C91F0496CE
:101320009093C91F8093C81F1092E01F0C946442D1
:101330008091E01F813011F00C9464428091EB1F8A
:101340008F5F8093EB1F8093E61F1092DD1FE0916B
:10135000E11FF0E0EE0FFF1FE453F04E808191811A
:101360009093C51F8093C41F80E18093C31F809119
:10137000C81F9091C91F05969093C91F8093C81FDD
:101380001092E01F0C9464428091E01F813011F0B4
:101390000C9464428091EB1F81508093EB1F8093EB
:1013A000E61F1092DD1FE091E11FF0E0EE0FFF1F3E
:1013B000E453F04E808191819093C51F8093C41FA8
:1013C00081E18093C31F8091C81F9091C91F05962A
:1013D0009093C91F8093C81F1092E01F0C94644221
:1013E0008091E01F813011F00C9464428091ED1FD8
:1013F00090E0880F991F2091E51F822B8093C61FD4
:101400009093C71F8093ED1F9093E51F1092DD1FEF
:10141000E091E11FF0E0EE0FFF1FE453F04E8081FA
:1014200091819093C51F8093C41F82E18093C31F55
:101430008091C81F9091C91F05969093C91F8093F2
:10144000C81F1092E01F0C9464428091E01F81300D
:1014500011F00C946442E091E11FE150E770E093D9
:10146000E11F1092DD1FF0E0EE0FFF1FE453F04E7E
:10147000808191819093C51F8093C41F83E18093E5
:10148000C31F8091C81F9091C91F05969093C91FD3
:101490008093C81F1092E01F0C9464428091E01F5B
:1014A000823039F572DB1092E51FC091E31F8C2F5B
:1014B0005BDB8093ED1F8093E61F1092DD1FE091B0
:1014C000E11FF0E0EE0FFF1FE453F04E2081318169
:1014D0003093C51F2093C41FC093C31F8091C81FA2
:1014E0009091C91F08969093C91F8093C81F1092AE
:1014F000E01F8091E01F813011F00C94644222E0E3
:101500002093DD1F8091CA1F9091CB1F9093C51F20
:101510008093C41F8091DC1F8093C31F2093E01F22
:101520000C9464428091E01F813011F00C9464426D
:10153000E091E11FEF5FE770E093E11FF0E0EE0F55
:10154000FF1FE453F04E80E190E09183808310927E
:10155000DD1F9093C51F8093C41F85E18093C31F37
:101560008091C81F9091C91F05969093C91F8093C1
:10157000C81F1092E01F0C9464428091E01F8230DB
:1015800009F503DB2091E31F2093EB1F1092DD1F71
:10159000E091E11FF0E0EE0FFF1FE453F04E808179
:1015A00091819093C51F8093C41F2093C31F809186
:1015B000C81F9091C91F08969093C91F8093C81F98
:1015C0001092E01F8091E01F813011F00C94644272
:1015D00022E02093DD1FE091E11FF0E0EE0FFF1FFE
:1015E000E453F04E808191819093C51F8093C41F76
:1015F0008091DC1F8093C31F2093E01F0C946442F2
:101600008091E01F813011F00C9464428091E61FBC
:1016100087FD06C08091E11F815087708093E11F94
:101620001092DD1FE091E11FF0E0EE0FFF1FE45389
:10163000F04E808191819093C51F8093C41F87E1F4
:101640008093C31F8091C81F9091C91F04969093E7
:10165000C91F8093C81F1092E01F0C9464428091B0
:10166000E01F813011F00C9464428091EA1F8F5F7B
:101670008093EA1F8093E61F1092DD1FE091E11F27
:10168000F0E0EE0FFF1FE453F04E808191819093C4
:10169000C51F8093C41F88E18093C31F8091C81F1A
:1016A0009091C91F05969093C91F8093C81F1092EF
:1016B000E01F0C9464428091E01F813011F00C9483
:1016C00064428091EA1F81508093EA1F8093E61F55
:1016D0001092DD1FE091E11FF0E0EE0FFF1FE453D9
:1016E000F04E808191819093C51F8093C41F89E142
:1016F0008093C31F8091C81F9091C91F0596909336
:10170000C91F8093C81F1092E01F0C9464428091FF
:10171000E01F813011F00C9464428091E51F90E04D
:10172000982F88272091ED1F822B9093C71F8093BD
:10173000C61F9C01369527952093ED1F81708093DD
:10174000E51F1092DD1FE091E11FF0E0EE0FFF1F9B
:10175000E453F04E808191819093C51F8093C41F04
:101760008AE18093C31F8091C81F9091C91F05967D
:101770009093C91F8093C81F1092E01F0C9464427D
:101780008091E01F813011F00C946442E091E11FE0
:10179000E150E770E093E11F1092DD1FF0E0EE0FE3
:1017A000FF1FE453F04E808191819093C51F809379
:1017B000C41F8BE18093C31F8091C81F9091C91FE4
:1017C00005969093C91F8093C81F1092E01F0C9438
:1017D00064428091E01F823029F5D7D9C091E31F80
:1017E0008C2FC2D98093ED1F8093E61F1092DD1FCE
:1017F000E091E11FF0E0EE0FFF1FE453F04E208177
:1018000031813093C51F2093C41FC093C31F8091A3
:10181000C81F9091C91F08969093C91F8093C81F35
:101820001092E01F8091E01F813011F00C9464420F
:1018300022E02093DD1F8091CA1F9091CB1F9093CF
:10184000C51F8093C41F8091DC1F8093C31F20930A
:10185000E01F0C9464428091E01F813011F00C94E1
:101860006442E091E11FEF5FE770E093E11FF0E079
:10187000EE0FFF1FE453F04E88E190E091838083E8
:101880001092DD1F9093C51F8093C41F8DE180933C
:10189000C31F8091C81F9091C91F05969093C91FBF
:1018A0008093C81F1092E01F0C9464428091E01F47
:1018B000823009F56AD92091E31F2093EA1F109224
:1018C000DD1FE091E11FF0E0EE0FFF1FE453F04E4B
:1018D000808191819093C51F8093C41F2093C31F63
:1018E0008091C81F9091C91F08969093C91F80933B
:1018F000C81F1092E01F8091E01F813011F00C94FE
:10190000644222E02093DD1FE091E11FF0E0EE0F42
:10191000FF1FE453F04E808191819093C51F809307
:10192000C41F8091DC1F8093C31F2093E01F0C9481
:1019300064428091E01F813011F00C9464428091E8
:10194000E61FF7D8811106C08091E11F8150877092
:101950008093E11F1092DD1FE091E11FF0E0EE0F98
:10196000FF1FE453F04E808191819093C51F8093B7
:10197000C41F8FE18093C31F8091C81F9091C91F1E
:1019800004969093C91F8093C81F1092E01F0C9477
:1019900064428091E01F813011F00C946442809188
:1019A000E91F8F5F8093E91F8093E61F1092DD1F70
:1019B000E091E11FF0E0EE0FFF1FE453F04E808155
:1019C00091819093C51F8093C41F80E28093C31FB1
:1019D0008091C81F9091C91F05969093C91F80934D
:1019E000C81F1092E01F0C9464428091E01F813068
:1019F00011F00C9464428091E91F81508093E91F9B
:101A00008093E61F1092DD1FE091E11FF0E0EE0FE2
:101A1000FF1FE453F04E808191819093C51F809306
:101A2000C41F81E28093C31F8091C81F9091C91F7A
:101A300005969093C91F8093C81F1092E01F0C94C5
:101A400064428091E01F813011F00C946442E09177
:101A5000E11FE150E770E093E11F1092DD1FF0E01D
:101A6000EE0FFF1FE453F04E808191819093C51FCC
:101A70008093C41F83E28093C31F8091C81F9091FD
:101A8000C91F05969093C91F8093C81F1092E01F2D
:101A90000C9464428091E01F823041F576D8109218
:101AA000E51F2091E31F8091ED1F82238093ED1F9E
:101AB0008093E61F1092DD1FE091E11FF0E0EE0F32
:101AC000FF1FE453F04E808191819093C51F809356
:101AD000C41F2093C31F8091C81F9091C91F0896EF
:101AE0009093C91F8093C81F1092E01F8091E01F40
:101AF000813011F00C94644222E02093DD1F80912C
:101B0000CA1F9091CB1F9093C51F8093C41F8091D3
:101B1000DC1F8093C31F2093E01F0C9464428091CC
:101B2000E01F813011F00C946442E091E11FEF5FFF
:101B3000E770E093E11FF0E0EE0FFF1FE453F04E7B
:101B400080E290E0918380831092DD1F9093C51F07
:101B50008093C41F85E28093C31F8091C81F90911A
:101B6000C91F05969093C91F8093C81F1092E01F4C
:101B70000C9464428091E01F823009F506D82091D0
:101B8000E31F2093E91F1092DD1FE091E11FF0E0B9
:101B9000EE0FFF1FE453F04E808191819093C51F9B
:101BA0008093C41F2093C31F8091C81F9091C91FA9
:101BB00008969093C91F8093C81F1092E01F8091D0
:101BC000E01F813011F00C94644222E02093DD1F6D
:101BD000E091E11FF0E0EE0FFF1FE453F04E808133
:101BE00091819093C51F8093C41F8091DC1F8093C7
:101BF000C31F2093E01F0C9464428091E01F81304A
:101C000011F00C9464428091E51F882331F080919B
:101C1000E11F815087708093E11F1092DD1FE091DA
:101C2000E11FF0E0EE0FFF1FE453F04E8081918141
:101C30009093C51F8093C41F87E28093C31F809138
:101C4000C81F9091C91F04969093C91F8093C81F05
:101C50001092E01F0C9464428091E01F813011F0DB
:101C60000C9464428091E81F8F5F8093E81F8093FB
:101C7000E61F1092DD1FE091E11FF0E0EE0FFF1F65
:101C8000E453F04E808191819093C51F8093C41FCF
:101C900088E28093C31F8091C81F9091C91F059649
:101CA0009093C91F8093C81F1092E01F0C94644248
:101CB0008091E01F813011F00C9464428091E81F04
:101CC00081508093E81F8093E61F1092DD1FE09102
:101CD000E11FF0E0EE0FFF1FE453F04E8081918191
:101CE0009093C51F8093C41F89E28093C31F809186
:101CF000C81F9091C91F05969093C91F8093C81F54
:101D00001092E01F0C9464428091E01F813011F02A
:101D10000C946442E091E11FE150E770E093E11F11
:101D20001092DD1FF0E0EE0FFF1FE453F04E8081B4
:101D300091819093C51F8093C41F8BE28093C31F32
:101D40008091C81F9091C91F05969093C91F8093D9
:101D5000C81F1092E01F0C9464428091E01F8230F3
:101D600049F50E94C5051092E51F2091E31F80915F
:101D7000ED1F82278093ED1F8093E61F1092DD1FD9
:101D8000E091E11FF0E0EE0FFF1FE453F04E808181
:101D900091819093C51F8093C41F2093C31F80918E
:101DA000C81F9091C91F08969093C91F8093C81FA0
:101DB0001092E01F8091E01F813011F00C9464427A
:101DC00022E02093DD1F8091CA1F9091CB1F90933A
:101DD000C51F8093C41F8091DC1F8093C31F209375
:101DE000E01F0C9464428091E01F813011F00C944C
:101DF0006442E091E11FEF5FE770E093E11FF0E0E4
:101E0000EE0FFF1FE453F04E88E290E09183808351
:101E10001092DD1F9093C51F8093C41F8DE28093A5
:101E2000C31F8091C81F9091C91F05969093C91F29
:101E30008093C81F1092E01F0C9464428091E01FB1
:101E4000823011F50E94C5052091E31F2093E81F01
:101E50001092DD1FE091E11FF0E0EE0FFF1FE45351
:101E6000F04E808191819093C51F8093C41F209371
:101E7000C31F8091C81F9091C91F08969093C91FD6
:101E80008093C81F1092E01F8091E01F813011F0F5
:101E90000C94644222E02093DD1FE091E11FF0E00A
:101EA000EE0FFF1FE453F04E808191819093C51F88
:101EB0008093C41F8091DC1F8093C31F2093E01F79
:101EC0000C9464428091E01F813011F00C946442C4
:101ED0008091E61F811106C08091E11F81508770BB
:101EE0008093E11F1092DD1FE091E11FF0E0EE0F03
:101EF000FF1FE453F04E808191819093C51F809322
:101F0000C41F8FE28093C31F8091C81F9091C91F87
:101F100004969093C91F8093C81F1092E01F0C94E1
:101F200064428091E01F813011F00C9464428091F2
:101F3000E71F8F5F8093E71F8093E61F1092DD1FDE
:101F4000E091E11FF0E0EE0FFF1FE453F04E8081BF
:101F500091819093C51F8093C41F80E38093C31F1A
:101F60008091C81F9091C91F05969093C91F8093B7
:101F7000C81F1092E01F0C9464428091E01F8130D2
:101F800011F00C9464428091E71F81508093E71F09
:101F90008093E61F1092DD1FE091E11FF0E0EE0F4D
:101FA000FF1FE453F04E808191819093C51F809371
:101FB000C41F81E38093C31F8091C81F9091C91FE4
:101FC00005969093C91F8093C81F1092E01F0C9430
:101FD00064428091E01F813011F00C946442E091E2
:101FE000E11FE150E770E093E11F1092DD1FF0E088
:101FF000EE0FFF1FE453F04E808191819093C51F37
:102000008093C41F83E38093C31F8091C81F909166
:10201000C91F05969093C91F8093C81F1092E01F97
:102020000C9464428091E01F823049F50E94C505FE
:102030001092E51F2091E31F8091ED1F822B80936A
:10204000ED1F8093E61F1092DD1FE091E11FF0E08D
:10205000EE0FFF1FE453F04E808191819093C51FD6
:102060008093C41F2093C31F8091C81F9091C91FE4
:1020700008969093C91F8093C81F1092E01F80910B
:10208000E01F813011F00C94644222E02093DD1FA8
:102090008091CA1F9091CB1F9093C51F8093C41F3E
:1020A0008091DC1F8093C31F2093E01F0C94644237
:1020B0008091E01F813011F00C946442E091E11FA7
:1020C000EF5FE770E093E11FF0E0EE0FFF1FE453D6
:1020D000F04E80E390E0918380831092DD1F909317
:1020E000C51F8093C41F85E38093C31F8091C81FC1
:1020F0009091C91F05969093C91F8093C81F109295
:10210000E01F0C9464428091E01F823011F50E9420
:10211000C5052091E31F2093E71F1092DD1FE0917A
:10212000E11FF0E0EE0FFF1FE453F04E808191813C
:102130009093C51F8093C41F2093C31F8091C81F15
:102140009091C91F08969093C91F8093C81F109241
:10215000E01F8091E01F813011F00C94644222E076
:102160002093DD1FE091E11FF0E0EE0FFF1FE4532D
:10217000F04E808191819093C51F8093C41F809100
:10218000DC1F8093C31F2093E01F0C946442809156
:10219000E01F813011F00C9464428091E61F87FFAC
:1021A00006C08091E11F815087708093E11F1092DB
:1021B000DD1FE091E11FF0E0EE0FFF1FE453F04E52
:1021C000808191819093C51F8093C41F87E3809382
:1021D000C31F8091C81F9091C91F04969093C91F77
:1021E0008093C81F1092E01F0C9464428091E01FFE
:1021F000813011F00C946442E091E11FE150E770EE
:10220000E093E11F1092DD1FF0E0EE0FFF1FE4539B
:10221000F04E808191819093C51F8093C41F8BE302
:102220008093C31F8091C81F9091C91F05969093FA
:10223000C91F8093C81F1092E01F0C9464428091C4
:10224000E01F823039F50E94C5051092E51FC0914C
:10225000E31F8C2F0E94B4058093E61F1092DD1FB0
:10226000E091E11FF0E0EE0FFF1FE453F04E2081FC
:1022700031813093C51F2093C41FC093C31F809129
:10228000C81F9091C91F08969093C91F8093C81FBB
:102290001092E01F8091E01F813011F00C94644295
:1022A00022E02093DD1F8091CA1F9091CB1F909355
:1022B000C51F8093C41F8091DC1F8093C31F209390
:1022C000E01F0C9464428091E01F813011F00C9467
:1022D0006442E091E11FEF5FE770E093E11FF0E0FF
:1022E000EE0FFF1FE453F04E88E390E0918380836C
:1022F0001092DD1F9093C51F8093C41F8DE38093C0
:10230000C31F8091C81F9091C91F05969093C91F44
:102310008093C81F1092E01F0C9464428091E01FCC
:10232000833051F58091CA1F9091CB1F2091E31FFC
:10233000811538E1930720F4FC01EE53F84F208318
:102340001092DD1FE091E11FF0E0EE0FFF1FE4535C
:10235000F04E808191819093C51F8093C41F20937C
:10236000C31F8091C81F9091C91F09969093C91FE0
:102370008093C81F1092E01F8091E01F8230D9F433
:102380000E94C5058091E81F90E0982F8827209132
:10239000E71F822B9093CB1F8093CA1F23E02093CB
:1023A000DD1F9093C51F8093C41F8091E31F80930E
:1023B000C31F2093E01F8091E01F813011F00C9427
:1023C000644222E02093DD1FE091E11FF0E0EE0F78
:1023D000FF1FE453F04E808191819093C51F80933D
:1023E000C41F8091DC1F8093C31F2093E01F0C94B7
:1023F00064428091E01F813011F00C94644280911E
:10240000E61F0E949905882331F08091E11F8150D9
:1024100087708093E11F1092DD1FE091E11FF0E0D3
:10242000EE0FFF1FE453F04E808191819093C51F02
:102430008093C41F8FE38093C31F8091C81F909126
:10244000C91F04969093C91F8093C81F1092E01F64
:102450000C9464428091E01F8330B9F50E94C50559
:102460002091E31F322F3F738091C61F9091C71FA9
:10247000932B9093C71F8093C61F3091E51FE09167
:10248000E11F311108C0AE2FB0E0AA0FBB1FA4534B
:10249000B04E8D939C931092DD1FF0E0EE0FFF1F66
:1024A000E453F04E808191819093C51F8093C41FA7
:1024B0002093C31F8091C81F9091C91F0A969093C3
:1024C000C91F8093C81F1092E01FC091E01FC23047
:1024D000F1F40E94C5052091E31F822F90E09093B4
:1024E000C71F8093C61FC093DD1FE091E11FF0E07E
:1024F000EE0FFF1FE453F04E808191819093C51F32
:102500008093C41F2093C31F83E08093E01F8091BA
:10251000E01F813011F00C94644222E02093DD1F13
:10252000E091E11FF0E0EE0FFF1FE453F04E8081D9
:1025300091819093C51F8093C41F8091DC1F80936D
:10254000C31F2093E01F0C9464428091E01F8230EF
:1025500001F52091E31F2093ED1F1092DD1FE09104
:10256000E11FF0E0EE0FFF1FE453F04E80819181F8
:102570009093C51F8093C41F2093C31F8091C81FD1
:102580009091C91F08969093C91F8093C81F1092FD
:10259000E01F8091E01F813011F00C946442109292
:1025A000CB1F1092CA1F8093DD1F8091ED1F90E01A
:1025B0009093C51F8093C41F81E48093C31F82E062
:1025C0008093E01F0C9464428091E01F8330E1F51A
:1025D0000E94C5052091E31F322F3F738091C61FD3
:1025E0009091C71F932B9093C71F8093C61F309164
:1025F000E51F31110DC0E091E11FEF5FE770E0933F
:10260000E11FF0E0EE0FFF1FE453F04E9183808353
:102610001092DD1FE091E11FF0E0EE0FFF1FE45389
:10262000F04E808191819093C51F8093C41F2093A9
:10263000C31F8091C81F9091C91F0A969093C91F0C
:102640008093C81F1092E01FC091E01FC230F1F4C8
:102650000E94C5052091E31F822F90E09093C71F31
:102660008093C61FC093DD1FE091E11FF0E0EE0FE5
:10267000FF1FE453F04E808191819093C51F80939A
:10268000C41F2093C31F83E08093E01F8091E01F4D
:10269000813011F00C94644222E02093DD1FE09120
:1026A000E11FF0E0EE0FFF1FE453F04E80819181B7
:1026B0009093C51F8093C41F8091DC1F8093C31F1C
:1026C0002093E01F0C9464428091E01F823001F55A
:1026D0002091E31F2093ED1F1092DD1FE091E11F79
:1026E000F0E0EE0FFF1FE453F04E80819181909354
:1026F000C51F8093C41F2093C31F8091C81F909152
:10270000C91F08969093C91F8093C81F1092E01F9D
:102710002091E01F213011F00C94644281E090E0A0
:102720009093CB1F8093CA1F2093DD1F8091ED1FD4
:1027300090E091609093C51F8093C41F83E48093C1
:10274000C31F82E08093E01F0C9464428091E01FDD
:10275000833059F50E94C5052091E31F322F3F7346
:102760008091C61F9091C71F932B9093C71F809392
:10277000C61FE091E11FF0E0EE0FFF1FE453F04EA3
:10278000918380831092DD1F9093C51F8093C41F97
:102790002093C31F8091C81F9091C91F0B969093DF
:1027A000C91F8093C81F1092E01FC091E01FC23064
:1027B000F1F40E94C5052091E31F822F90E09093D1
:1027C000C71F8093C61FC093DD1FE091E11FF0E09B
:1027D000EE0FFF1FE453F04E808191819093C51F4F
:1027E0008093C41F2093C31F83E08093E01F8091D8
:1027F000E01F813011F00C94644222E02093DD1F31
:10280000E091E11FF0E0EE0FFF1FE453F04E8081F6
:1028100091819093C51F8093C41F8091DC1F80938A
:10282000C31F2093E01F0C9464428091E01F82300C
:1028300011F50E9442058093E31F8093ED1F1092D3
:10284000DD1FE091E11FF0E0EE0FFF1FE453F04EBB
:10285000208131813093C51F2093C41F8093C31FF3
:102860008091C81F9091C91F08969093C91F8093AB
:10287000C81F1092E01F2091E01F213011F00C942E
:10288000644282E090E09093CB1F8093CA1F209314
:10289000DD1F8091ED1F90E092609093C51F8093A3
:1028A000C41F8091DC1F8093C31F82E08093E01FD0
:1028B0000C9464428091E01F833079F50E94C50535
:1028C0002091E31F322F3F738091C61F9091C71F45
:1028D000932B9093C71F8093C61FE091E11FEF5F7A
:1028E000E770E093E11FF0E0EE0FFF1FE453F04EBE
:1028F000918380831092DD1F9093C51F8093C41F26
:102900002093C31F8091C81F9091C91F0B9690936D
:10291000C91F8093C81F1092E01FC091E01FC230F2
:10292000F1F40E94C5052091E31F822F90E090935F
:10293000C71F8093C61FC093DD1FE091E11FF0E029
:10294000EE0FFF1FE453F04E808191819093C51FDD
:102950008093C41F2093C31F83E08093E01F809166
:10296000E01F813011F00C94644222E02093DD1FBF
:10297000E091E11FF0E0EE0FFF1FE453F04E808185
:1029800091819093C51F8093C41F8091DC1F809319
:10299000C31F2093E01F0C9464428091E01F82309B
:1029A00001F52091E31F2093ED1F1092DD1FE091B0
:1029B000E11FF0E0EE0FFF1FE453F04E80819181A4
:1029C0009093C51F8093C41F2093C31F8091C81F7D
:1029D0009091C91F08969093C91F8093C81F1092A9
:1029E000E01F2091E01F213011F00C94644283E03D
:1029F00090E09093CB1F8093CA1F2093DD1F80919E
:102A0000ED1F90E093609093C51F8093C41F87E4EF
:102A10008093C31F82E08093E01F0C9464428091F6
:102A2000E01F8330B9F50E94C5052091E31F322FC6
:102A30003F738091C61F9091C71F932B9093C71F20
:102A40008093C61F3091E61FE091E11F332341F0D0
:102A5000AE2FB0E0AA0FBB1FA453B04E8D939C9332
:102A60001092DD1FF0E0EE0FFF1FE453F04E808167
:102A700091819093C51F8093C41F2093C31F8091A1
:102A8000C81F9091C91F0A969093C91F8093C81FB1
:102A90001092E01FC091E01FC230F1F40E94C50502
:102AA0002091E31F822F90E09093C71F8093C61F51
:102AB000C093DD1FE091E11FF0E0EE0FFF1FE45334
:102AC000F04E808191819093C51F8093C41F209305
:102AD000C31F83E08093E01F8091E01F813011F0DD
:102AE0000C94644222E02093DD1FE091E11FF0E0AE
:102AF000EE0FFF1FE453F04E808191819093C51F2C
:102B00008093C41F8091DC1F8093C31F2093E01F1C
:102B10000C9464428091E01F823001F52091E31F04
:102B20002093ED1F1092DD1FE091E11FF0E0EE0F0A
:102B3000FF1FE453F04E808191819093C51F8093D5
:102B4000C41F2093C31F8091C81F9091C91F08966E
:102B50009093C91F8093C81F1092E01F2091E01F1F
:102B6000213011F00C94644284E090E09093CB1FEC
:102B70008093CA1F2093DD1F8091ED1F90E0946029
:102B80009093C51F8093C41F89E48093C31F82E084
:102B90008093E01F0C9464428091E01F8330E1F544
:102BA0000E94C5052091E31F322F3F738091C61FFD
:102BB0009091C71F932B9093C71F8093C61F30918E
:102BC000E61F332369F0E091E11FEF5FE770E093C8
:102BD000E11FF0E0EE0FFF1FE453F04E918380837E
:102BE0001092DD1FE091E11FF0E0EE0FFF1FE453B4
:102BF000F04E808191819093C51F8093C41F2093D4
:102C0000C31F8091C81F9091C91F0A969093C91F36
:102C10008093C81F1092E01FC091E01FC230F1F4F2
:102C20000E94C5052091E31F822F90E09093C71F5B
:102C30008093C61FC093DD1FE091E11FF0E0EE0F0F
:102C4000FF1FE453F04E808191819093C51F8093C4
:102C5000C41F2093C31F83E08093E01F8091E01F77
:102C6000813011F00C94644222E02093DD1FE0914A
:102C7000E11FF0E0EE0FFF1FE453F04E80819181E1
:102C80009093C51F8093C41F8091DC1F8093C31F46
:102C90002093E01F0C9464428091E01F823001F584
:102CA0002091E31F2093ED1F1092DD1FE091E11FA3
:102CB000F0E0EE0FFF1FE453F04E8081918190937E
:102CC000C51F8093C41F2093C31F8091C81F90917C
:102CD000C91F08969093C91F8093C81F1092E01FC8
:102CE0002091E01F213011F00C94644285E090E0C7
:102CF0009093CB1F8093CA1F2093DD1F8091ED1FFF
:102D000090E095609093C51F8093C41F8BE48093DF
:102D1000C31F82E08093E01F0C9464428091E01F07
:102D2000833059F50E94C5052091E31F322F3F7370
:102D30008091C61F9091C71F932B9093C71F8093BC
:102D4000C61FE091E11FF0E0EE0FFF1FE453F04ECD
:102D5000918380831092DD1F9093C51F8093C41FC1
:102D60002093C31F8091C81F9091C91F0B96909309
:102D7000C91F8093C81F1092E01FC091E01FC2308E
:102D8000F1F40E94C5052091E31F822F90E09093FB
:102D9000C71F8093C61FC093DD1FE091E11FF0E0C5
:102DA000EE0FFF1FE453F04E808191819093C51F79
:102DB0008093C41F2093C31F83E08093E01F809102
:102DC000E01F813011F00C94644222E02093DD1F5B
:102DD000E091E11FF0E0EE0FFF1FE453F04E808121
:102DE00091819093C51F8093C41F8091DC1F8093B5
:102DF000C31F2093E01F0C9464428091E01F823037
:102E000001F52091E31F2093ED1F1092DD1FE0914B
:102E1000E11FF0E0EE0FFF1FE453F04E808191813F
:102E20009093C51F8093C41F2093C31F8091C81F18
:102E30009091C91F08969093C91F8093C81F109244
:102E4000E01F2091E01F213011F00C94644286E0D5
:102E500090E09093CB1F8093CA1F2093DD1F809139
:102E6000ED1F90E096609093C51F8093C41F8DE482
:102E70008093C31F82E08093E01F0C946442809192
:102E8000E01F833079F50E94C5052091E31F322FA2
:102E90003F738091C61F9091C71F932B9093C71FBC
:102EA0008093C61FE091E11FEF5FE770E093E11FA1
:102EB000F0E0EE0FFF1FE453F04E918380831092F9
:102EC000DD1F9093C51F8093C41F2093C31F809163
:102ED000C81F9091C91F0B969093C91F8093C81F5C
:102EE0001092E01FC091E01FC230F1F40E94C505AE
:102EF0002091E31F822F90E09093C71F8093C61FFD
:102F0000C093DD1FE091E11FF0E0EE0FFF1FE453DF
:102F1000F04E808191819093C51F8093C41F2093B0
:102F2000C31F83E08093E01F8091E01F813011F088
:102F30000C94644222E02093DD1FE091E11FF0E059
:102F4000EE0FFF1FE453F04E808191819093C51FD7
:102F50008093C41F8091DC1F8093C31F2093E01FC8
:102F60000C9464428091E01F823001F52091E31FB0
:102F70002093ED1F1092DD1FE091E11FF0E0EE0FB6
:102F8000FF1FE453F04E808191819093C51F809381
:102F9000C41F2093C31F8091C81F9091C91F08961A
:102FA0009093C91F8093C81F1092E01F2091E01FCB
:102FB000213011F00C94644287E090E09093CB1F95
:102FC0008093CA1F2093DD1F8091ED1F90E09760D2
:102FD0009093C51F8093C41F8FE48093C31F82E02A
:102FE0008093E01F0C9464428091E01F8330B9F518
:102FF0000E94C5052091E31F322F3F738091C61FA9
:103000009091C71F932B9093C71F8093C61F309139
:10301000E61FE091E11F37FD08C0AE2FB0E0AA0F18
:10302000BB1FA453B04E8D939C931092DD1FF0E014
:10303000EE0FFF1FE453F04E808191819093C51FE6
:103040008093C41F2093C31F8091C81F9091C91FF4
:103050000A969093C91F8093C81F1092E01FC091D9
:10306000E01FC230F1F40E94C5052091E31F822FBA
:1030700090E09093C71F8093C61FC093DD1FE0911F
:10308000E11FF0E0EE0FFF1FE453F04E80819181CD
:103090009093C51F8093C41F2093C31F83E0809328
:1030A000E01F8091E01F813011F00C94644222E017
:1030B0002093DD1FE091E11FF0E0EE0FFF1FE453CE
:1030C000F04E808191819093C51F8093C41F8091A1
:1030D000DC1F8093C31F2093E01F0C9464428091F7
:1030E000E01F823001F52091ED1F2093E31F109225
:1030F000DD1FE091E11FF0E0EE0FFF1FE453F04E03
:10310000808191819093C51F8093C41F2093C31F1A
:103110008091C81F9091C91F06969093C91F8093F4
:10312000C81F1092E01F2091E01F213011F00C9475
:10313000644288E090E09093CB1F8093CA1F209355
:10314000DD1F8091ED1F90E098609093C51F8093E4
:10315000C41F81E58093C31F82E08093E01F0C941D
:1031600064428091E01F8330E1F50E94C505209103
:10317000E31F322F3F738091C61F9091C71F932B7F
:103180009093C71F8093C61F3091E61F37FD0DC077
:10319000E091E11FEF5FE770E093E11FF0E0EE0FD9
:1031A000FF1FE453F04E918380831092DD1FE09166
:1031B000E11FF0E0EE0FFF1FE453F04E808191819C
:1031C0009093C51F8093C41F2093C31F8091C81F75
:1031D0009091C91F0A969093C91F8093C81F10929F
:1031E000E01FC091E01FC230F1F40E94C50520919C
:1031F000E31F822F90E09093C71F8093C61FC09358
:10320000DD1FE091E11FF0E0EE0FFF1FE453F04EF1
:10321000808191819093C51F8093C41F2093C31F09
:1032200083E08093E01F8091E01F813011F00C94C7
:10323000644222E02093DD1FE091E11FF0E0EE0FF9
:10324000FF1FE453F04E808191819093C51F8093BE
:10325000C41F8091DC1F8093C31F2093E01F0C9438
:1032600064428091E01F823021F58091ED1F8093B0
:10327000E31F0E943F051092DD1FE091E11FF0E087
:10328000EE0FFF1FE453F04E808191819093C51F94
:103290008093C41F8091ED1F8093C31F8091C81F2E
:1032A0009091C91F06969093C91F8093C81F1092D2
:1032B000E01F2091E01F213011F00C94644289E05E
:1032C00090E09093CB1F8093CA1F2093DD1F8091C5
:1032D000ED1F90E099609093C51F8093C41F80916B
:1032E000DC1F8093C31F82E08093E01F0C94644234
:1032F0008091E01F833059F50E94C5052091E31F9E
:10330000322F3F738091C61F9091C71F932B9093CC
:10331000C71F8093C61FE091E11FF0E0EE0FFF1F73
:10332000E453F04E918380831092DD1F9093C51F6C
:103330008093C41F2093C31F8091C81F9091C91F01
:103340000B969093C91F8093C81F1092E01FC091E5
:10335000E01FC230F1F40E94C5052091E31F822FC7
:1033600090E09093C71F8093C61FC093DD1FE0912C
:10337000E11FF0E0EE0FFF1FE453F04E80819181DA
:103380009093C51F8093C41F2093C31F83E0809335
:10339000E01F8091E01F813011F00C94644222E024
:1033A0002093DD1FE091E11FF0E0EE0FFF1FE453DB
:1033B000F04E808191819093C51F8093C41F8091AE
:1033C000DC1F8093C31F2093E01F0C946442809104
:1033D000E01F823001F52091ED1F2093E31F109232
:1033E000DD1FE091E11FF0E0EE0FFF1FE453F04E10
:1033F000808191819093C51F8093C41F2093C31F28
:103400008091C81F9091C91F06969093C91F809301
:10341000C81F1092E01F2091E01F213011F00C9482
:1034200064428AE090E09093CB1F8093CA1F209360
:10343000DD1F8091ED1F90E09A609093C51F8093EF
:10344000C41F85E58093C31F82E08093E01F0C9426
:1034500064428091E01F833079F50E94C505209178
:10346000E31F322F3F738091C61F9091C71F932B8C
:103470009093C71F8093C61FE091E11FEF5FE77035
:10348000E093E11FF0E0EE0FFF1FE453F04E918355
:1034900080831092DD1F9093C51F8093C41F2093DB
:1034A000C31F8091C81F9091C91F0B969093C91F8D
:1034B0008093C81F1092E01FC091E01FC230F1F44A
:1034C0000E94C5052091E31F822F90E09093C71FB3
:1034D0008093C61FC093DD1FE091E11FF0E0EE0F67
:1034E000FF1FE453F04E808191819093C51F80931C
:1034F000C41F2093C31F83E08093E01F8091E01FCF
:10350000813011F00C94644222E02093DD1FE091A1
:10351000E11FF0E0EE0FFF1FE453F04E8081918138
:103520009093C51F8093C41F8091DC1F8093C31F9D
:103530002093E01F0C9464428091E01F823001F5DB
:103540002091ED1F2093E31F1092DD1FE091E11FFA
:10355000F0E0EE0FFF1FE453F04E808191819093D5
:10356000C51F8093C41F2093C31F8091C81F9091D3
:10357000C91F06969093C91F8093C81F1092E01F21
:103580002091E01F213011F00C9464428BE090E018
:103590009093CB1F8093CA1F2093DD1F8091ED1F56
:1035A00090E09B609093C51F8093C41F87E5809334
:1035B000C31F82E08093E01F0C9464428091E01F5F
:1035C0008330C9F50E94C5051091E31F812F8F73C9
:1035D000C091C61FD091C71FD82BD093C71FC093CF
:1035E000C61F8091E61F0E949905E091E11F81119D
:1035F00008C0AE2FB0E0AA0FBB1FA453B04ECD93AE
:10360000DC931092DD1FF0E0EE0FFF1FE453F04E4D
:10361000808191819093C51F8093C41F1093C31F15
:103620008091C81F9091C91F0A969093C91F8093DB
:10363000C81F1092E01FC091E01FC230F1F40E9439
:10364000C5052091E31F822F90E09093C71F8093C0
:10365000C61FC093DD1FE091E11FF0E0EE0FFF1FDA
:10366000E453F04E808191819093C51F8093C41FD5
:103670002093C31F83E08093E01F8091E01F81307F
:1036800011F00C94644222E02093DD1FE091E11FD1
:10369000F0E0EE0FFF1FE453F04E80819181909394
:1036A000C51F8093C41F8091DC1F8093C31F20938C
:1036B000E01F0C9464428091E01F823001F520915C
:1036C000ED1F2093E31F1092DD1FE091E11FF0E05A
:1036D000EE0FFF1FE453F04E808191819093C51F40
:1036E0008093C41F2093C31F8091C81F9091C91F4E
:1036F00006969093C91F8093C81F1092E01F2091D7
:10370000E01F213011F00C9464428CE090E0909323
:10371000CB1F8093CA1F2093DD1F8091ED1F90E087
:103720009C609093C51F8093C41F89E58093C31F3D
:1037300082E08093E01F0C9464428091E01F83300C
:10374000F1F50E94C5051091E31F812F8F73C09181
:10375000C61FD091C71FD82BD093C71FC093C61FB9
:103760008091E61F0E94990581110DC0E091E11F33
:10377000EF5FE770E093E11FF0E0EE0FFF1FE4530F
:10378000F04ED183C0831092DD1FE091E11FF0E085
:10379000EE0FFF1FE453F04E808191819093C51F7F
:1037A0008093C41F1093C31F8091C81F9091C91F9D
:1037B0000A969093C91F8093C81F1092E01FC09172
:1037C000E01FC230F1F40E94C5052091E31F822F53
:1037D00090E09093C71F8093C61FC093DD1FE091B8
:1037E000E11FF0E0EE0FFF1FE453F04E8081918166
:1037F0009093C51F8093C41F2093C31F83E08093C1
:10380000E01F8091E01F813011F00C94644222E0AF
:103810002093DD1FE091E11FF0E0EE0FFF1FE45366
:10382000F04E808191819093C51F8093C41F809139
:10383000DC1F8093C31F2093E01F0C94644280918F
:10384000E01F823001F52091ED1F2093E31F1092BD
:10385000DD1FE091E11FF0E0EE0FFF1FE453F04E9B
:10386000808191819093C51F8093C41F2093C31FB3
:103870008091C81F9091C91F06969093C91F80938D
:10388000C81F1092E01F2091E01F213011F00C940E
:1038900064428DE090E09093CB1F8093CA1F2093E9
:1038A000DD1F8091ED1F90E09D609093C51F809378
:1038B000C41F8BE58093C31F82E08093E01F0C94AC
:1038C00064428091E01F833059F50E94C505209124
:1038D000E31F322F3F738091C61F9091C71F932B18
:1038E0009093C71F8093C61FE091E11FF0E0EE0F99
:1038F000FF1FE453F04E918380831092DD1F90935D
:10390000C51F8093C41F2093C31F8091C81F90912F
:10391000C91F0B969093C91F8093C81F1092E01F78
:10392000C091E01FC230F1F40E94C5052091E31F51
:10393000822F90E09093C71F8093C61FC093DD1F16
:10394000E091E11FF0E0EE0FFF1FE453F04E8081A5
:1039500091819093C51F8093C41F2093C31F83E060
:103960008093E01F8091E01F813011F00C9464423D
:1039700022E02093DD1FE091E11FF0E0EE0FFF1F3A
:10398000E453F04E808191819093C51F8093C41FB2
:103990008091DC1F8093C31F2093E01F0C9464422E
:1039A0008091E01F823011F52091ED1F2093E31FDD
:1039B0002093BE071092DD1FE091E11FF0E0EE0FB3
:1039C000FF1FE453F04E808191819093C51F809337
:1039D000C41F2093C31F8091C81F9091C91F0696D2
:1039E0009093C91F8093C81F1092E01F2091E01F81
:1039F000213011F00C9464428EE090E09093CB1F44
:103A00008093CA1F2093DD1F8091ED1F90E09E6080
:103A10009093C51F8093C41F8DE58093C31F82E0E0
:103A20008093E01F0C9464428091E01F833079F50D
:103A30000E94C5052091E31F322F3F738091C61F5E
:103A40009091C71F932B9093C71F8093C61FE0913F
:103A5000E11FEF5FE770E093E11FF0E0EE0FFF1F63
:103A6000E453F04E918380831092DD1F9093C51F25
:103A70008093C41F2093C31F8091C81F9091C91FBA
:103A80000B969093C91F8093C81F1092E01FC0919E
:103A9000E01FC230F1F40E94C5052091E31F822F80
:103AA00090E09093C71F8093C61FC093DD1FE091E5
:103AB000E11FF0E0EE0FFF1FE453F04E8081918193
:103AC0009093C51F8093C41F2093C31F83E08093EE
:103AD000E01F8091E01F813011F00C94644222E0DD
:103AE0002093DD1FE091E11FF0E0EE0FFF1FE45394
:103AF000F04E808191819093C51F8093C41F809167
:103B0000DC1F8093C31F2093E01F0C9464428091BC
:103B1000E01F823069F58091ED1F8093E31F90E0F4
:103B2000982F88272091BE07822B0E940B0581E0E9
:103B30008093C21F1092DD1FE091E11FF0E0EE0FB5
:103B4000FF1FE453F04E808191819093C51F8093B5
:103B5000C41F8091ED1F8093C31F8091C81F909157
:103B6000C91F06969093C91F8093C81F1092E01F2B
:103B70002091E01F213011F00C9464428FE090E01E
:103B80009093CB1F8093CA1F2093DD1F8091ED1F60
:103B900090E09F609093C51F8093C41F8091DC1FAD
:103BA0008093C31F82E08093E01F0C946442809155
:103BB000E01F8330B9F50E94C5052091E31F322F25
:103BC0003F738091C61F9091C71F932B9093C71F7F
:103BD0008093C61F3091E51FE091E11F332341F030
:103BE000AE2FB0E0AA0FBB1FA453B04E8D939C9391
:103BF0001092DD1FF0E0EE0FFF1FE453F04E8081C6
:103C000091819093C51F8093C41F2093C31F8091FF
:103C1000C81F9091C91F0A969093C91F8093C81F0F
:103C20001092E01FC091E01FC230F1F40E94C50560
:103C30002091E31F822F90E09093C71F8093C61FAF
:103C4000C093DD1FE091E11FF0E0EE0FFF1FE45392
:103C5000F04E808191819093C51F8093C41F209363
:103C6000C31F83E08093E01F8091E01F813011F03B
:103C70000C94644222E02093DD1FE091E11FF0E00C
:103C8000EE0FFF1FE453F04E808191819093C51F8A
:103C90008093C41F8091DC1F8093C31F2093E01F7B
:103CA0000C9464428091E01F823001F52091ED1F59
:103CB0002093E31F1092DD1FE091E11FF0E0EE0F73
:103CC000FF1FE453F04E808191819093C51F809334
:103CD000C41F2093C31F8091C81F9091C91F0696CF
:103CE0009093C91F8093C81F1092E01F2091E01F7E
:103CF000213011F00C94644280E190E09093CB1F4E
:103D00008093CA1F2093DD1F8091ED1F90E090618A
:103D10009093C51F8093C41F81E68093C31F82E0E8
:103D20008093E01F0C9464428091E01F8330E1F5A2
:103D30000E94C5052091E31F322F3F738091C61F5B
:103D40009091C71F932B9093C71F8093C61F3091EC
:103D5000E51F332369F0E091E11FEF5FE770E09327
:103D6000E11FF0E0EE0FFF1FE453F04E91838083DC
:103D70001092DD1FE091E11FF0E0EE0FFF1FE45312
:103D8000F04E808191819093C51F8093C41F209332
:103D9000C31F8091C81F9091C91F0A969093C91F95
:103DA0008093C81F1092E01FC091E01FC230F1F451
:103DB0000E94C5052091E31F822F90E09093C71FBA
:103DC0008093C61FC093DD1FE091E11FF0E0EE0F6E
:103DD000FF1FE453F04E808191819093C51F809323
:103DE000C41F2093C31F83E08093E01F8091E01FD6
:103DF000813011F00C94644222E02093DD1FE091A9
:103E0000E11FF0E0EE0FFF1FE453F04E808191813F
:103E10009093C51F8093C41F8091DC1F8093C31FA4
:103E20002093E01F0C9464428091E01F823001F5E2
:103E30002091ED1F2093E31F1092DD1FE091E11F01
:103E4000F0E0EE0FFF1FE453F04E808191819093DC
:103E5000C51F8093C41F2093C31F8091C81F9091DA
:103E6000C91F06969093C91F8093C81F1092E01F28
:103E70002091E01F213011F00C94644281E190E028
:103E80009093CB1F8093CA1F2093DD1F8091ED1F5D
:103E900090E091619093C51F8093C41F83E6809347
:103EA000C31F82E08093E01F0C9464428091E01F66
:103EB000833059F50E94C5052091E31F322F3F73CF
:103EC0008091C61F9091C71F932B9093C71F80931B
:103ED000C61FE091E11FF0E0EE0FFF1FE453F04E2C
:103EE000918380831092DD1F9093C51F8093C41F20
:103EF0002093C31F8091C81F9091C91F0B96909368
:103F0000C91F8093C81F1092E01FC091E01FC230EC
:103F1000F1F40E94C5052091E31F822F90E0909359
:103F2000C71F8093C61FC093DD1FE091E11FF0E023
:103F3000EE0FFF1FE453F04E808191819093C51FD7
:103F40008093C41F2093C31F83E08093E01F809160
:103F5000E01F813011F00C94644222E02093DD1FB9
:103F6000E091E11FF0E0EE0FFF1FE453F04E80817F
:103F700091819093C51F8093C41F8091DC1F809313
:103F8000C31F2093E01F0C9464428091E01F823095
:103F900001F52091ED1F2093E31F1092DD1FE091AA
:103FA000E11FF0E0EE0FFF1FE453F04E808191819E
:103FB0009093C51F8093C41F2093C31F8091C81F77
:103FC0009091C91F06969093C91F8093C81F1092A5
:103FD000E01F2091E01F213011F00C94644282E137
:103FE00090E09093CB1F8093CA1F2093DD1F809198
:103FF000ED1F90E092619093C51F8093C41F85E6EA
:104000008093C31F82E08093E01F0C9464428091F0
:10401000E01F833079F50E94C5052091E31F322F00
:104020003F738091C61F9091C71F932B9093C71F1A
:104030008093C61FE091E11FEF5FE770E093E11FFF
:10404000F0E0EE0FFF1FE453F04E91838083109257
:10405000DD1F9093C51F8093C41F2093C31F8091C1
:10406000C81F9091C91F0B969093C91F8093C81FBA
:104070001092E01FC091E01FC230F1F40E94C5050C
:104080002091E31F822F90E09093C71F8093C61F5B
:10409000C093DD1FE091E11FF0E0EE0FFF1FE4533E
:1040A000F04E808191819093C51F8093C41F20930F
:1040B000C31F83E08093E01F8091E01F813011F0E7
:1040C0000C94644222E02093DD1FE091E11FF0E0B8
:1040D000EE0FFF1FE453F04E808191819093C51F36
:1040E0008093C41F8091DC1F8093C31F2093E01F27
:1040F0000C9464428091E01F823001F52091ED1F05
:104100002093E31F1092DD1FE091E11FF0E0EE0F1E
:10411000FF1FE453F04E808191819093C51F8093DF
:10412000C41F2093C31F8091C81F9091C91F06967A
:104130009093C91F8093C81F1092E01F2091E01F29
:10414000213011F00C94644283E190E09093CB1FF6
:104150008093CA1F2093DD1F8091ED1F90E0936133
:104160009093C51F8093C41F87E68093C31F82E08E
:104170008093E01F0C9464428091E01F8330B9F576
:104180000E94C5052091E31F322F3F738091C61F07
:104190009091C71F932B9093C71F8093C61F309198
:1041A000E61FE091E11F311108C0AE2FB0E0AA0F69
:1041B000BB1FA453B04E8D939C931092DD1FF0E073
:1041C000EE0FFF1FE453F04E808191819093C51F45
:1041D0008093C41F2093C31F8091C81F9091C91F53
:1041E0000A969093C91F8093C81F1092E01FC09138
:1041F000E01FC230F1F40E94C5052091E31F822F19
:1042000090E09093C71F8093C61FC093DD1FE0917D
:10421000E11FF0E0EE0FFF1FE453F04E808191812B
:104220009093C51F8093C41F2093C31F83E0809386
:10423000E01F8091E01F813011F00C94644222E075
:104240002093DD1FE091E11FF0E0EE0FFF1FE4532C
:10425000F04E808191819093C51F8093C41F8091FF
:10426000DC1F8093C31F2093E01F0C946442809155
:10427000E01F823001F52091ED1F2093E31F109283
:10428000DD1FE091E11FF0E0EE0FFF1FE453F04E61
:10429000808191819093C51F8093C41F2093C31F79
:1042A0008091C81F9091C91F06969093C91F809353
:1042B000C81F1092E01F2091E01F213011F00C94D4
:1042C000644284E190E09093CB1F8093CA1F2093B7
:1042D000DD1F8091ED1F90E094619093C51F809346
:1042E000C41F89E68093C31F82E08093E01F0C9473
:1042F00064428091E01F8330E1F50E94C505209162
:10430000E31F322F3F738091C61F9091C71F932BDD
:104310009093C71F8093C61F3091E61F31110DC0C7
:10432000E091E11FEF5FE770E093E11FF0E0EE0F37
:10433000FF1FE453F04E918380831092DD1FE091C4
:10434000E11FF0E0EE0FFF1FE453F04E80819181FA
:104350009093C51F8093C41F2093C31F8091C81FD3
:104360009091C91F0A969093C91F8093C81F1092FD
:10437000E01FC091E01FC230F1F40E94C5052091FA
:10438000E31F822F90E09093C71F8093C61FC093B6
:10439000DD1FE091E11FF0E0EE0FFF1FE453F04E50
:1043A000808191819093C51F8093C41F2093C31F68
:1043B00083E08093E01F8091E01F813011F00C9426
:1043C000644222E02093DD1FE091E11FF0E0EE0F58
:1043D000FF1FE453F04E808191819093C51F80931D
:1043E000C41F8091DC1F8093C31F2093E01F0C9497
:1043F00064428091E01F823001F52091ED1F2093EF
:10440000E31F1092DD1FE091E11FF0E0EE0FFF1FB0
:10441000E453F04E808191819093C51F8093C41F17
:104420002093C31F8091C81F9091C91F0696909337
:10443000C91F8093C81F1092E01F2091E01F2130F8
:1044400011F00C94644285E190E09093CB1F80932F
:10445000CA1F2093DD1F8091ED1F90E0956190931E
:10446000C51F8093C41F8BE68093C31F82E0809397
:10447000E01F0C9464428091E01F833059F50E9444
:10448000C5052091E31F322F3F738091C61F909185
:10449000C71F932B9093C71F8093C61FE091E11F06
:1044A000F0E0EE0FFF1FE453F04E918380831092F3
:1044B000DD1F9093C51F8093C41F2093C31F80915D
:1044C000C81F9091C91F0B969093C91F8093C81F56
:1044D0001092E01FC091E01FC230F1F40E94C505A8
:1044E0002091E31F822F90E09093C71F8093C61FF7
:1044F000C093DD1FE091E11FF0E0EE0FFF1FE453DA
:10450000F04E808191819093C51F8093C41F2093AA
:10451000C31F83E08093E01F8091E01F813011F082
:104520000C94644222E02093DD1FE091E11FF0E053
:10453000EE0FFF1FE453F04E808191819093C51FD1
:104540008093C41F8091DC1F8093C31F2093E01FC2
:104550000C9464428091E01F823001F52091ED1FA0
:104560002093E31F1092DD1FE091E11FF0E0EE0FBA
:10457000FF1FE453F04E808191819093C51F80937B
:10458000C41F2093C31F8091C81F9091C91F069616
:104590009093C91F8093C81F1092E01F2091E01FC5
:1045A000213011F00C94644286E190E09093CB1F8F
:1045B0008093CA1F2093DD1F8091ED1F90E09661CC
:1045C0009093C51F8093C41F8DE68093C31F82E024
:1045D0008093E01F0C9464428091E01F833079F552
:1045E0000E94C5052091E31F322F3F738091C61FA3
:1045F0009091C71F932B9093C71F8093C61FE09184
:10460000E11FEF5FE770E093E11FF0E0EE0FFF1FA7
:10461000E453F04E918380831092DD1F9093C51F69
:104620008093C41F2093C31F8091C81F9091C91FFE
:104630000B969093C91F8093C81F1092E01FC091E2
:10464000E01FC230F1F40E94C5052091E31F822FC4
:1046500090E09093C71F8093C61FC093DD1FE09129
:10466000E11FF0E0EE0FFF1FE453F04E80819181D7
:104670009093C51F8093C41F2093C31F83E0809332
:10468000E01F8091E01F813011F00C94644222E021
:104690002093DD1FE091E11FF0E0EE0FFF1FE453D8
:1046A000F04E808191819093C51F8093C41F8091AB
:1046B000DC1F8093C31F2093E01F0C946442809101
:1046C000E01F823001F52091ED1F2093E31F10922F
:1046D000DD1FE091E11FF0E0EE0FFF1FE453F04E0D
:1046E000808191819093C51F8093C41F2093C31F25
:1046F0008091C81F9091C91F06969093C91F8093FF
:10470000C81F1092E01F2091E01F213011F00C947F
:10471000644287E190E09093CB1F8093CA1F20935F
:10472000DD1F8091ED1F90E097619093C51F8093EE
:10473000C41F8FE68093C31F82E08093E01F0C9418
:1047400064428091E01F8330B9F50E94C505209135
:10475000E31F322F3F738091C61F9091C71F932B89
:104760009093C71F8093C61F3091E61FE091E11F11
:1047700037FF08C0AE2FB0E0AA0FBB1FA453B04E46
:104780008D939C931092DD1FF0E0EE0FFF1FE4531A
:10479000F04E808191819093C51F8093C41F209318
:1047A000C31F8091C81F9091C91F0A969093C91F7B
:1047B0008093C81F1092E01FC091E01FC230F1F437
:1047C0000E94C5052091E31F822F90E09093C71FA0
:1047D0008093C61FC093DD1FE091E11FF0E0EE0F54
:1047E000FF1FE453F04E808191819093C51F809309
:1047F000C41F2093C31F83E08093E01F8091E01FBC
:10480000813011F00C94644222E02093DD1FE0918E
:10481000E11FF0E0EE0FFF1FE453F04E8081918125
:104820009093C51F8093C41F8091DC1F8093C31F8A
:104830002093E01F0C9464428091E01F823001F5C8
:104840002091ED1F2093E31F1092DD1FE091E11FE7
:10485000F0E0EE0FFF1FE453F04E808191819093C2
:10486000C51F8093C41F2093C31F8091C81F9091C0
:10487000C91F06969093C91F8093C81F1092E01F0E
:104880002091E01F213011F00C94644288E190E007
:104890009093CB1F8093CA1F2093DD1F8091ED1F43
:1048A00090E098619093C51F8093C41F81E7809327
:1048B000C31F82E08093E01F0C9464428091E01F4C
:1048C0008330E1F50E94C5052091E31F322F3F732D
:1048D0008091C61F9091C71F932B9093C71F809301
:1048E000C61F3091E61F37FF0DC0E091E11FEF5F5B
:1048F000E770E093E11FF0E0EE0FFF1FE453F04E8E
:10490000918380831092DD1FE091E11FF0E0EE0FB4
:10491000FF1FE453F04E808191819093C51F8093D7
:10492000C41F2093C31F8091C81F9091C91F0A966E
:104930009093C91F8093C81F1092E01FC091E01F81
:10494000C230F1F40E94C5052091E31F822F90E050
:104950009093C71F8093C61FC093DD1FE091E11F96
:10496000F0E0EE0FFF1FE453F04E808191819093B1
:10497000C51F8093C41F2093C31F83E08093E01F53
:104980008091E01F813011F00C94644222E020936A
:10499000DD1FE091E11FF0E0EE0FFF1FE453F04E4A
:1049A000808191819093C51F8093C41F8091DC1FEB
:1049B0008093C31F2093E01F0C9464428091E01FFA
:1049C000823001F52091ED1F2093E31F1092DD1F2F
:1049D000E091E11FF0E0EE0FFF1FE453F04E808105
:1049E00091819093C51F8093C41F2093C31F809112
:1049F000C81F9091C91F06969093C91F8093C81F26
:104A00001092E01F2091E01F213011F00C946442BD
:104A100089E190E09093CB1F8093CA1F2093DD1F04
:104A20008091ED1F90E099619093C51F8093C41F02
:104A300083E78093C31F82E08093E01F0C9464425D
:104A40008091E01F833059F50E94C5052091E31F36
:104A5000322F3F738091C61F9091C71F932B909365
:104A6000C71F8093C61FE091E11FF0E0EE0FFF1F0C
:104A7000E453F04E918380831092DD1F9093C51F05
:104A80008093C41F2093C31F8091C81F9091C91F9A
:104A90000B969093C91F8093C81F1092E01FC0917E
:104AA000E01FC230F1F40E94C5052091E31F822F60
:104AB00090E09093C71F8093C61FC093DD1FE091C5
:104AC000E11FF0E0EE0FFF1FE453F04E8081918173
:104AD0009093C51F8093C41F2093C31F83E08093CE
:104AE000E01F8091E01F813011F00C94644222E0BD
:104AF0002093DD1FE091E11FF0E0EE0FFF1FE45374
:104B0000F04E808191819093C51F8093C41F809146
:104B1000DC1F8093C31F2093E01F0C94644280919C
:104B2000E01F823001F52091ED1F2093E31F1092CA
:104B3000DD1FE091E11FF0E0EE0FFF1FE453F04EA8
:104B4000808191819093C51F8093C41F2093C31FC0
:104B50008091C81F9091C91F06969093C91F80939A
:104B6000C81F1092E01F2091E01F213011F00C941B
:104B700064428AE190E09093CB1F8093CA1F2093F8
:104B8000DD1F8091ED1F90E09A619093C51F809387
:104B9000C41F85E78093C31F82E08093E01F0C94BD
:104BA00064428091E01F833079F50E94C505209111
:104BB000E31F322F3F738091C61F9091C71F932B25
:104BC0009093C71F8093C61FE091E11FEF5FE770CE
:104BD000E093E11FF0E0EE0FFF1FE453F04E9183EE
:104BE00080831092DD1F9093C51F8093C41F209374
:104BF000C31F8091C81F9091C91F0B969093C91F26
:104C00008093C81F1092E01FC091E01FC230F1F4E2
:104C10000E94C5052091E31F822F90E09093C71F4B
:104C20008093C61FC093DD1FE091E11FF0E0EE0FFF
:104C3000FF1FE453F04E808191819093C51F8093B4
:104C4000C41F2093C31F83E08093E01F8091E01F67
:104C5000813011F00C94644222E02093DD1FE0913A
:104C6000E11FF0E0EE0FFF1FE453F04E80819181D1
:104C70009093C51F8093C41F8091DC1F8093C31F36
:104C80002093E01F0C9464428091E01F823001F574
:104C90002091ED1F2093E31F1092DD1FE091E11F93
:104CA000F0E0EE0FFF1FE453F04E8081918190936E
:104CB000C51F8093C41F2093C31F8091C81F90916C
:104CC000C91F06969093C91F8093C81F1092E01FBA
:104CD0002091E01F213011F00C9464428BE190E0B0
:104CE0009093CB1F8093CA1F2093DD1F8091ED1FEF
:104CF00090E09B619093C51F8093C41F87E78093CA
:104D0000C31F82E08093E01F0C9464428091E01FF7
:104D10008330C9F50E94C5051091E31F812F8F7361
:104D2000C091C61FD091C71FD82BD093C71FC09367
:104D3000C61F8091E61F0E949905E091E11F88231C
:104D400041F0AE2FB0E0AA0FBB1FA453B04ECD93DD
:104D5000DC931092DD1FF0E0EE0FFF1FE453F04EE6
:104D6000808191819093C51F8093C41F1093C31FAE
:104D70008091C81F9091C91F0A969093C91F809374
:104D8000C81F1092E01FC091E01FC230F1F40E94D2
:104D9000C5052091E31F822F90E09093C71F809359
:104DA000C61FC093DD1FE091E11FF0E0EE0FFF1F73
:104DB000E453F04E808191819093C51F8093C41F6E
:104DC0002093C31F83E08093E01F8091E01F813018
:104DD00011F00C94644222E02093DD1FE091E11F6A
:104DE000F0E0EE0FFF1FE453F04E8081918190932D
:104DF000C51F8093C41F8091DC1F8093C31F209325
:104E0000E01F0C9464428091E01F823001F52091F4
:104E1000ED1F2093E31F1092DD1FE091E11FF0E0F2
:104E2000EE0FFF1FE453F04E808191819093C51FD8
:104E30008093C41F2093C31F8091C81F9091C91FE6
:104E400006969093C91F8093C81F1092E01F20916F
:104E5000E01F213011F00C9464428CE190E09093BB
:104E6000CB1F8093CA1F2093DD1F8091ED1F90E020
:104E70009C619093C51F8093C41F89E78093C31FD3
:104E800082E08093E01F0C9464428091E01F8330A5
:104E9000F1F50E94C5051091E31F812F8F73C0911A
:104EA000C61FD091C71FD82BD093C71FC093C61F52
:104EB0008091E61F0E949905882369F0E091E11F27
:104EC000EF5FE770E093E11FF0E0EE0FFF1FE453A8
:104ED000F04ED183C0831092DD1FE091E11FF0E01E
:104EE000EE0FFF1FE453F04E808191819093C51F18
:104EF0008093C41F1093C31F8091C81F9091C91F36
:104F00000A969093C91F8093C81F1092E01FC0910A
:104F1000E01FC230F1F40E94C5052091E31F822FEB
:104F200090E09093C71F8093C61FC093DD1FE09150
:104F3000E11FF0E0EE0FFF1FE453F04E80819181FE
:104F40009093C51F8093C41F2093C31F83E0809359
:104F5000E01F8091E01F813011F00C94644222E048
:104F60002093DD1FE091E11FF0E0EE0FFF1FE453FF
:104F7000F04E808191819093C51F8093C41F8091D2
:104F8000DC1F8093C31F2093E01F0C946442809128
:104F9000E01F823001F52091ED1F2093E31F109256
:104FA000DD1FE091E11FF0E0EE0FFF1FE453F04E34
:104FB000808191819093C51F8093C41F2093C31F4C
:104FC0008091C81F9091C91F06969093C91F809326
:104FD000C81F1092E01F2091E01F213011F00C94A7
:104FE00064428DE190E09093CB1F8093CA1F209381
:104FF000DD1F8091ED1F90E09D619093C51F809310
:10500000C41F8BE78093C31F82E08093E01F0C9442
:1050100064428091E01F833059F50E94C5052091BC
:10502000E31F322F3F738091C61F9091C71F932BB0
:105030009093C71F8093C61FE091E11FF0E0EE0F31
:10504000FF1FE453F04E918380831092DD1F9093F5
:10505000C51F8093C41F2093C31F8091C81F9091C8
:10506000C91F0B969093C91F8093C81F1092E01F11
:10507000C091E01FC230F1F40E94C5052091E31FEA
:10508000822F90E09093C71F8093C61FC093DD1FAF
:10509000E091E11FF0E0EE0FFF1FE453F04E80813E
:1050A00091819093C51F8093C41F2093C31F83E0F9
:1050B0008093E01F8091E01F813011F00C946442D6
:1050C00022E02093DD1FE091E11FF0E0EE0FFF1FD3
:1050D000E453F04E808191819093C51F8093C41F4B
:1050E0008091DC1F8093C31F2093E01F0C946442C7
:1050F0008091E01F823001F52091ED1F2093E31F86
:105100001092DD1FE091E11FF0E0EE0FFF1FE4536E
:10511000F04E808191819093C51F8093C41F20938E
:10512000C31F8091C81F9091C91F06969093C91FF5
:105130008093C81F1092E01F2091E01F213011F0D2
:105140000C9464428EE190E09093CB1F8093CA1F31
:105150002093DD1F8091ED1F90E09E619093C51F0D
:105160008093C41F8DE78093C31F82E08093E01F6C
:105170000C9464428091E01F833079F50E94C5054C
:105180002091E31F322F3F738091C61F9091C71F5C
:10519000932B9093C71F8093C61FE091E11FEF5F91
:1051A000E770E093E11FF0E0EE0FFF1FE453F04ED5
:1051B000918380831092DD1F9093C51F8093C41F3D
:1051C0002093C31F8091C81F9091C91F0B96909385
:1051D000C91F8093C81F1092E01FC091E01FC2300A
:1051E000F1F40E94C5052091E31F822F90E0909377
:1051F000C71F8093C61FC093DD1FE091E11FF0E041
:10520000EE0FFF1FE453F04E808191819093C51FF4
:105210008093C41F2093C31F83E08093E01F80917D
:10522000E01F813011F00C94644222E02093DD1FD6
:10523000E091E11FF0E0EE0FFF1FE453F04E80819C
:1052400091819093C51F8093C41F8091DC1F809330
:10525000C31F2093E01F0C9464428091E01F8230B2
:1052600001F52091ED1F2093E31F1092DD1FE091C7
:10527000E11FF0E0EE0FFF1FE453F04E80819181BB
:105280009093C51F8093C41F2093C31F8091C81F94
:105290009091C91F06969093C91F8093C81F1092C2
:1052A000E01F2091E01F213011F00C9464428FE147
:1052B00090E09093CB1F8093CA1F2093DD1F8091B5
:1052C000ED1F90E09F619093C51F8093C41F8FE7EF
:1052D0008093C31F82E08093E01F0C94644280910E
:1052E000E01F813011F00C9464421092E51F809110
:1052F000ED1F0E94A4058093ED1F8093E61F10927E
:10530000DD1FE091E11FF0E0EE0FFF1FE453F04ED0
:10531000808191819093C51F8093C41F80E8809302
:10532000C31F8091C81F9091C91F05969093C91FF4
:105330008093C81F1092E01F0C9464428091E01F7C
:10534000813011F00C9464421092E51F8091EC1FA3
:105350000E94A4058093ED1F8093E61F1092DD1F2D
:10536000E091E11FF0E0EE0FFF1FE453F04E80816B
:1053700091819093C51F8093C41F81E88093C31FC0
:105380008091C81F9091C91F05969093C91F809363
:10539000C81F1092E01F0C9464428091E01F81307E
:1053A00011F00C9464421092E51F8091EB1F0E9453
:1053B000A4058093ED1F8093E61F1092DD1FE091FE
:1053C000E11FF0E0EE0FFF1FE453F04E808191816A
:1053D0009093C51F8093C41F82E88093C31F809160
:1053E000C81F9091C91F05969093C91F8093C81F2D
:1053F0001092E01F0C9464428091E01F813011F004
:105400000C9464421092E51F8091EA1F0E94A4054B
:105410008093ED1F8093E61F1092DD1FE091E11F46
:10542000F0E0EE0FFF1FE453F04E808191819093E6
:10543000C51F8093C41F83E88093C31F8091C81F3A
:105440009091C91F05969093C91F8093C81F109211
:10545000E01F0C9464428091E01F813011F00C94A5
:1054600064421092E51F8091E91F0E94A405809379
:10547000ED1F8093E61F1092DD1FE091E11FF0E029
:10548000EE0FFF1FE453F04E808191819093C51F72
:105490008093C41F84E88093C31F8091C81F90919C
:1054A000C91F05969093C91F8093C81F1092E01FD3
:1054B0000C9464428091E01F813011F00C9464429E
:1054C0001092E51F8091E81F0E94A4058093ED1FB4
:1054D0008093E61F1092DD1FE091E11FF0E0EE0FD8
:1054E000FF1FE453F04E808191819093C51F8093FC
:1054F000C41F85E88093C31F8091C81F9091C91F66
:1055000005969093C91F8093C81F1092E01F0C94BA
:1055100064428091E01F813011F00C94644210923B
:10552000E51F8091E71F0E94A4058093ED1F8093E3
:10553000E61F1092DD1FE091E11FF0E0EE0FFF1F6C
:10554000E453F04E808191819093C51F8093C41FD6
:1055500086E88093C31F8091C81F9091C91F05964C
:105560009093C91F8093C81F1092E01F0C9464424F
:105570008091E01F8230A9F58091CA1F9091CB1FC6
:10558000811528E1920728F4FC01EE53F84FC08101
:1055900001C0CFEFC093E31F1092E51F8C2F0E9434
:1055A000A4058093ED1F8093E61F1092DD1FE0910C
:1055B000E11FF0E0EE0FFF1FE453F04E2081318138
:1055C0003093C51F2093C41FC093C31F8091C81F71
:1055D0009091C91F08969093C91F8093C81F10927D
:1055E000E01F8091E01F813011F00C9464428091A3
:1055F000E81F90E0982F88272091E71F822B909337
:10560000CB1F8093CA1F22E02093DD1F9093C51FFC
:105610008093C41F87E88093C31F2093E01F0C94DE
:1056200064428091E01F813011F00C9464428091BB
:10563000ED1F0E94A4058093ED1F8093E61F10923A
:10564000DD1FE091E11FF0E0EE0FFF1FE453F04E8D
:10565000808191819093C51F8093C41F88E88093B7
:10566000C31F8091C81F9091C91F05969093C91FB1
:105670008093C81F1092E01F0C9464428091E01F39
:10568000813011F00C9464428091EC1F0E94A405BB
:105690008093ED1F8093E61F1092DD1FE091E11FC4
:1056A000F0E0EE0FFF1FE453F04E80819181909364
:1056B000C51F8093C41F89E88093C31F8091C81FB2
:1056C0009091C91F05969093C91F8093C81F10928F
:1056D000E01F0C9464428091E01F813011F00C9423
:1056E00064428091EB1F0E94A4058093ED1F80937C
:1056F000E61F1092DD1FE091E11FF0E0EE0FFF1FAB
:10570000E453F04E808191819093C51F8093C41F14
:105710008AE88093C31F8091C81F9091C91F059686
:105720009093C91F8093C81F1092E01F0C9464428D
:105730008091E01F813011F00C9464428091EA1F47
:105740000E94A4058093ED1F8093E61F1092DD1F39
:10575000E091E11FF0E0EE0FFF1FE453F04E808177
:1057600091819093C51F8093C41F8BE88093C31FC2
:105770008091C81F9091C91F05969093C91F80936F
:10578000C81F1092E01F0C9464428091E01F81308A
:1057900011F00C9464428091E91F0E94A40580934B
:1057A000ED1F8093E61F1092DD1FE091E11FF0E0F6
:1057B000EE0FFF1FE453F04E808191819093C51F3F
:1057C0008093C41F8CE88093C31F8091C81F909161
:1057D000C91F05969093C91F8093C81F1092E01FA0
:1057E0000C9464428091E01F813011F00C9464426B
:1057F0008091E81F0E94A4058093ED1F8093E61F0F
:105800001092DD1FE091E11FF0E0EE0FFF1FE45367
:10581000F04E808191819093C51F8093C41F8DE8C5
:105820008093C31F8091C81F9091C91F05969093C4
:10583000C91F8093C81F1092E01F0C94644280918E
:10584000E01F813011F00C9464428091E71F0E94A8
:10585000A4058093ED1F8093E61F1092DD1FE09159
:10586000E11FF0E0EE0FFF1FE453F04E80819181C5
:105870009093C51F8093C41F8EE88093C31F8091AF
:10588000C81F9091C91F05969093C91F8093C81F88
:105890001092E01F0C9464428091E01F823099F5D1
:1058A0008091CA1F9091CB1F811538E1930728F48E
:1058B000FC01EE53F84FC08101C0CFEFC093E31F4E
:1058C0008C2F0E94A4058093ED1F8093E61F1092F9
:1058D000DD1FE091E11FF0E0EE0FFF1FE453F04EFB
:1058E000208131813093C51F2093C41FC093C31FF3
:1058F0008091C81F9091C91F08969093C91F8093EB
:10590000C81F1092E01F8091E01F813011F00C94AD
:1059100064428091E81F90E0982F88272091E71F2C
:10592000822B9093CB1F8093CA1F22E02093DD1F10
:105930009093C51F8093C41F8FE88093C31F20934B
:10594000E01F0C9464428091E01F813011F00C94B0
:1059500064421092E51F8091ED1F0E94B405809370
:10596000ED1F8093E61F1092DD1FE091E11FF0E034
:10597000EE0FFF1FE453F04E808191819093C51F7D
:105980008093C41F80E98093C31F8091C81F9091AA
:10599000C91F05969093C91F8093C81F1092E01FDE
:1059A0000C9464428091E01F813011F00C946442A9
:1059B0001092E51F8091EC1F0E94B4058093ED1FAB
:1059C0008093E61F1092DD1FE091E11FF0E0EE0FE3
:1059D000FF1FE453F04E808191819093C51F809307
:1059E000C41F81E98093C31F8091C81F9091C91F74
:1059F00005969093C91F8093C81F1092E01F0C94C6
:105A000064428091E01F813011F00C946442109246
:105A1000E51F8091EB1F0E94B4058093ED1F8093DA
:105A2000E61F1092DD1FE091E11FF0E0EE0FFF1F77
:105A3000E453F04E808191819093C51F8093C41FE1
:105A400082E98093C31F8091C81F9091C91F05965A
:105A50009093C91F8093C81F1092E01F0C9464425A
:105A60008091E01F813011F00C9464421092E51F88
:105A70008091EA1F0E94B4058093ED1F8093E61F7A
:105A80001092DD1FE091E11FF0E0EE0FFF1FE453E5
:105A9000F04E808191819093C51F8093C41F83E94C
:105AA0008093C31F8091C81F9091C91F0596909342
:105AB000C91F8093C81F1092E01F0C94644280910C
:105AC000E01F813011F00C9464421092E51F809128
:105AD000E91F0E94B4058093ED1F8093E61F10928A
