:10000000E9C200000C94DB470C940C480C943D486A
:100010000C946E480C949F480C94D0480C94014961
:100020000C94324908C3000006C3000004C300005A
:1000300002C3000000C30000FEC20000FCC20000BA
:10004000FAC20000F8C20000F6C20000F4C20000CC
:10005000F2C20000F0C20000EEC200000C940243A5
:10006000EAC20000E8C20000E6C20000E4C20000EC
:10007000E2C20000E0C20000DEC20000DCC20000FC
:10008000DAC20000D8C20000D6C20000D4C200000C
:10009000D2C20000D0C20000CEC200000C94BA4A06
:1000A000CAC20000C8C20000C6C20000C4C200002C
:1000B000C2C20000C0C20000BEC20000BCC200003C
:1000C000BAC20000B8C20000B6C20000B4C200004C
:1000D000B2C20000B0C20000AEC20000ACC200005C
:1000E000AAC200007D06A306C906FD0626076A0708
:1000F0009307D607050831085D088F08B808FA0885
:10010000250968099709C309EF09240A4D0A910ACC
:10011000BC0AFF0A2E0B5A0B860BBF0BE80B2A0CEE
:10012000550C980CC80CF40C6142200D490D8E0D35
:10013000B90DFC0D2B0E570E6142830EAC0EF20E64
:100140001D0F610F900FBC0F6142E80F1110571087
:100150008210C610614261426142F5101E116211A7
:100160008D11F8112912A412E3126313A5131414AC
:100170005614C9140B158615CB154B168D16FC1687
:100180003E17B117F3176E18B21832198219F11908
:10019000381AAB1AED1A6A1BAC1B2E1C701CDF1C24
:1001A000211D941DD61D511E931E131F551FC41FC4
:1001B00006207920BB2036217821F8213A22A92275
:1001C000EB225E23A0231B245D24DD241F258E2526
:1001D000D0254326852602274427C62708287728C6
:1001E000B9282C296E299D29CC29FB292A2A592A8C
:1001F000882AB72A102B3D2B6A2B972BC42BF12B67
:100200001E2C4B2CA22CD12C002D2F2D5E2D8D2D94
:10021000BC2DEB2D442E712E9E2ECB2EF82E252F8D
:10022000522F7F2FD62F0130313061309130C130C5
:10023000F13021317A31A531D5310532353265328F
:100240009532C5321E3349337933A933D933093452
:1002500039346934C234EF341C3549357635A33529
:10026000D035FD3554367936A236CB36F4361D37C7
:1002700046376F37C237EB371038393862388B382A
:10028000B438DD38303959398239A739D039F9399C
:10029000223A4B3A9C3AC33AEA3A113B343B5B3B35
:1002A000823BA93BFA3B213C483C6F3C963CB93C25
:1002B000E03C073D583D7F3DA63DCD3DF43D1B3E16
:1002C0003E3E653EB63EDD3E043F2B3F523F793F0A
:1002D000A03FC33F14406340B240014150419F41A1
:1002E000EE413D422544284417441B4421445F44C9
:1002F0002C44304436443A443E44444448444C44FC
:100300005F44524456445A44B5477F478747934712
:10031000A047C147CE4700000A0B02090C0D0E088A
:1003200007030401000000000000000000000000BE
:1003300000000000000000000000000000000000BD
:10034000000012111000000000000000000000007A
:10035000000000000000000000000000010210206A
:1003600020080810204010204080020102010804EB
:10037000020101020408102040808040201008047F
:1003800002018004020180402010080402010804D8
:10039000020101020408102040800102040810201C
:1003A0004080050505050705080808080202020245
:1003B0000A0A080804040404010101010101010101
:1003C0000303030303030303040707070C0C0C0CCC
:1003D0000C0C0C0C020202020606060606060606B5
:1003E0000B0B0B0B0B0B0B0B00002000230026004C
:1003F00029002C002F00320000010000030106013B
:10040000090100002200250028002B002E003100E9
:10041000340002010000050108010B010000210069
:10042000240027002A002D003000330001010000C5
:10043000040107010A0100000000000000000000A4
:1004400000000009600000000000007131000000A1
:100450007A7361773200006378646534330000207A
:10046000766674723500006E626867793600000047
:100470006D6A75373800002C6B696F303900002EBB
:100480002F6C3B702D00000027005B3D000000003A
:100490000D5D005C00000000000000007F000031E6
:1004A000003437000000302E323536381B00002B68
:1004B000332D2A3900000000000000000000000079
:1004C0000000000000000000000000097E000000A5
:1004D00000000051210000005A53415740000043E2
:1004E0005844452423000020564654522500004E0F
:1004F000424847595E0000004D4A55262A00003CFC
:100500004B494F292800003E3F4C3A505F00000005
:1005100022007B2B000000000D7D007C000000000D
:10052000000000007F000031003437000000302E52
:10053000323536381B00002B332D2A3900000000DD
:1005400000000000000000000000000000000000AB
:10055000000000000000000000000000000000009B
:10056000000000000000000000000000000000008B
:10057000000000000000000000000000000000007B
:10058000000000000000000000000000000000006B
:10059000000000000000000000000000000000005B
:1005A000000000000000000000000000000000004B
:1005B000000000000000000000000000000000003B
:1005C000000000000000000000000000000000002B
:1005D00044051F4A11241FBECFEFD1E2DEBFCDBFBD
:1005E00000E00CBF17E0A0E0B2E0ECE2F8E900E0C8
:1005F0000BBF02C007900D92A830B107D9F721E2D6
:10060000A8E0B7E001C01D92A230B207E1F715E003
:10061000C4EDD5E000E006C022970109FE010BBF42
:100620000E94104CC03DD10780E00807A9F70E9446
:10063000F5420C94144CE4CCCF93C42F843140F495
:10064000643030F4462F682F8AE097E00E947045AE
:100650006C2F8AE097E0CF910C94ED42FF920F93BC
:100660001F93CF93DF93D62F142F9FEF920FC1E0EC
:1006700001C0CC0F9A95EAF7022F080F801771F08E
:100680009C2F912311F041E001C042E0FF24F3943C
:10069000F80E6D2FD1DFC6958F2DF0CFDF91CF9162
:1006A0001F910F91FF900895CF9340E260E080E0AA
:1006B000C3DFCFE460E28AE097E00E94ED42C150E0
:1006C000C9F740E560E084E0B7DF61E68AE097E0E3
:1006D0000E94ED4267E68AE097E00E94ED4265E6FF
:1006E0008AE097E00E94ED4242E563E080E0A4DF0B
:1006F00049E463E082E0A0DF63E58AE097E00E94DE
:10070000ED4264E78AE097E00E94ED4248E463E04E
:1007100086E092DF41E460E08DE08EDF64E68AE00F
:1007200097E00E94ED4264E68AE097E00E94ED4285
:1007300062E78AE097E00E94ED4244E463E08DE0E6
:100740007BDF61E68AE097E00E94ED4264E78AE0A1
:1007500097E00E94ED4261E68AE097E0CF910C9429
:10076000ED42823541F0833521F0893451F48CE03B
:1007700003C08BE001C08AE00E94CE4421E0892BB7
:1007800009F020E0822F0895EF92FF920F931F93BC
:10079000CF93DF931092B80700EA12E0C0E0D0E0F8
:1007A00080E8E82EF12CF80181918F010E94CE445F
:1007B000892B61F42091B807C7010C2E02C09595D2
:1007C00087950A94E2F7282B2093B8072196C83022
:1007D000D10549F78091B807DF91CF911F910F9113
:1007E000FF90EF900895DF92EF92FF920F931F9387
:1007F000CF93DF93EC01162FF42ED22EC5DF4D2FB1
:1008000046954695469523E061E082E027DF23E0A8
:100810004D2F61E086E022DFAE0196E056954795C8
:100820009A95E1F722E061E08AE018DFAE0123E06B
:10083000569547952A95E1F723E061E08DE00EDFBC
:1008400023E04C2F61E081E109DFC12FD0E0AE0150
:1008500036E0559547953A95E1F722E062E08AE067
:10086000FDDEAE0163E0559547956A95E1F723E01B
:1008700062E08DE0F3DE23E0412F62E081E1EEDE15
:1008800021E04E2D62E080E0E9DE21E04D2D62E0C6
:1008900082E0E4DE22E04F2D62E083E0DFDE21E053
:1008A000402F62E086E0DADE4091B8074295469537
:1008B00046954370406360E080E0BEDE4091B8073B
:1008C00050E073E0559547957A95E1F7477040639E
:1008D00060E081E0B1DE4091B8074770406360E0BE
:1008E00082E0DF91CF911F910F91FF90EF90DF9009
:1008F000A3CECF93DF93C0EAD2E062E089910E9459
:10090000604482E0C83AD807C1F762E08BE00E94F9
:10091000604462E08CE00E94604462E08AE00E94F1
:1009200060448AE097E00E9430468AE097E00E94A7
:100930001E4540E152E061E08AE097E00E94A34555
:1009400048E052E062E08AE097E00E94A34540E080
:1009500052E063E08AE097E00E94A345A5DE109292
:10096000090746E354E062E181E1DF91CF910C9405
:1009700041479ADE10920907E6E1F7E011921192E1
:1009800087E0E63BF807D1F708950E940A478823DD
:1009900029F00E941D4780688093B907089540E2BE
:1009A000E42FEF73F0E0EE0FFF1FE05EFD4F2081BC
:1009B00031812817390729F04F5F403689F780E0E9
:1009C0000895842F0895EF92FF921F93CF93DF93A2
:1009D0001F92CDB7DEB7182F7A01809109078111D8
:1009E00009C081E0809309078AE097E069830E944B
:1009F00066456981C7016983D2DF482F698181110A
:100A000001C043E0812F0F90DF91CF911F91FF90A4
:100A1000EF9012CEAC0197FD05C01092B607109270
:100A2000B7070895453585ED580741F41092B7078B
:100A30008091B6078F5F8093B60708958091B707BE
:100A40008431B0F46091B607643090F494E1699F0A
:100A5000F0011124E80FF11DEE0FFF1FEA5EF84FC1
:100A6000208131812417350719F051834083ABDF92
:100A70008091B7078F5F8093B70708951092B907E9
:100A800008958091B907089524E044E16FE38AE076
:100A900097E00E94F74488E097E00C9440479EC09E
:100AA000CF92DF92EF92FF92CF93DF9300D01F920D
:100AB000CDB7DEB7CDD0282F30E040E050E0211593
:100AC00031054105510549F129833A834B835C8304
:100AD0000E944C43C090BA07D090BB07E090BC077F
:100AE000F090BD0729813A814B815C816C157D05B1
:100AF0008E059F0548F368EE73E080E090E00E9469
:100B0000E84B2C0D3D1D4E1D5F1D2093BA07309301
:100B1000BB074093BC075093BD070F900F900F90F9
:100B20000F90DF91CF91FF90EF90DF90CF900895DD
:100B300090E021E0882321F080FD92278695FACF6E
:100B400081E0892708952091ED1F90E0820F911D8B
:100B50002091E51F820F911D8093C61F9093C71FA0
:100B60009093E51F08952091ED1F30E0281B310977
:100B70008091E51F281B31092093C61F3093C71FA2
:100B80003093E51F822F08958091DF1F81111EC0D1
:100B9000E091E11FF0E0EE0FFF1FE453F04E808183
:100BA00091819093CB1F8093CA1F9C012F5F3F4F71
:100BB0003F7331832083811528E1920728F4FC01DB
:100BC000EE53F84F808107C08FEF05C01092CB1F06
:100BD0001092CA1FD9DD8093E31F08951092E71F7A
:100BE0001092E81F1092E91F1092EA1F1092EB1F5B
:100BF0001092EC1F1092ED1F1092DD1F1092E01F5B
:100C00001092E61F1092E11F1092C91F1092C81F88
:100C10001092E51F1092E41F1092E21F1092DF1F46
:100C20001092DE1FECECFFE1119211928FE1EC3D8E
:100C3000F807D1F71092C21F5CDEE8EAF2E0A2ECFE
:100C4000B7E081918D9386E0E83AF807D1F70895EF
:100C5000EF920F931F93CF93DF938091E21F88232E
:100C6000A1F08091E01F811110C01092E21F10923C
:100C7000E41F81E08093DF1F8093DE1F8091C21FFD
:100C8000882319F01092C21F74DEC091E41F809176
:100C9000DE1F811104C0CC2381F00C946A4283E5ED
:100CA00060DD9091C007891711F40C946A4280931B
:100CB000C0078111F0CF0C946A428091E01F81112E
:100CC00014C062DF2091E31F2093DC1F81E080933A
:100CD000E01F1092DD1F8091CA1F9091CB1F90934F
:100CE000C51F8093C41F2093C31F8091DC1F90E019
:100CF000FC01EE58FF4F0C940A4C8091E01F8130AC
:100D000011F00C9463428093E41F1092DD1FE09178
:100D1000E11FF0E0EE0FFF1FE453F04E8081918160
:100D20009093C51F8093C41F1092C31F8091C81F4A
:100D30009091C91F04969093C91F8093C81F109269
:100D4000E01F0C9463422091E01F213011F00C94BD
:100D500063422093E41F1092DD1FE091E11FF0E059
:100D6000EE0FFF1FE453F04E808191819093C51FD9
:100D70008093C41F2093C31F8091C81F9091C91FE7
:100D800004969093C91F8093C81F1092E01F0C9483
:100D900063428091E01F813011F00C9463422091F6
:100DA000ED1F30E0C901880F892F881F990B8093B0
:100DB000E51F220F331F282B2093ED1F1092DD1FFC
:100DC000E091E11FF0E0EE0FFF1FE453F04E808151
:100DD00091819093C51F8093C41F82E08093C31FAD
:100DE0008091C81F9091C91F05969093C91F809349
:100DF000C81F1092E01F0C9463428091E01F813065
:100E000011F00C946342E091E11FE150E770E09330
:100E1000E11F1092DD1FF0E0EE0FFF1FE453F04ED4
:100E2000808191819093C51F8093C41F83E080933C
:100E3000C31F8091C81F9091C91F05969093C91F29
:100E40008093C81F1092E01F0C9463428091E01FB2
:100E5000823039F599DE1092E51FC091E31F8C2F87
:100E600072DE8093ED1F8093E61F1092DD1FE091EC
:100E7000E11FF0E0EE0FFF1FE453F04E20813181BF
:100E80003093C51F2093C41FC093C31F8091C81FF8
:100E90009091C91F08969093C91F8093C81F109204
:100EA000E01F8091E01F813011F00C94634222E03A
:100EB0002093DD1F8091CA1F9091CB1F9093C51F77
:100EC0008093C41F8091DC1F8093C31F2093E01F79
:100ED0000C9463428091E01F813011F00C946342C6
:100EE000E091E11FEF5FE770E093E11FF0E0EE0FAC
:100EF000FF1FE453F04E118210821092DD1F1092FA
:100F0000C51F1092C41F85E08093C31F8091C81F26
:100F10009091C91F05969093C91F8093C81F109286
:100F2000E01F0C9463428091E01F823009F52CDEB3
:100F30002091E31F2093ED1F1092DD1FE091E11F30
:100F4000F0E0EE0FFF1FE453F04E8081918190930B
:100F5000C51F8093C41F2093C31F8091C81F909109
:100F6000C91F08969093C91F8093C81F1092E01F55
:100F70008091E01F813011F00C94634222E02093B5
:100F8000DD1FE091E11FF0E0EE0FFF1FE453F04E94
:100F9000808191819093C51F8093C41F8091DC1F35
:100FA0008093C31F2093E01F0C9463428091E01F45
:100FB000813011F00C9463428091E51F811106C0CD
:100FC0008091E11F815087708093E11F1092DD1F97
:100FD000E091E11FF0E0EE0FFF1FE453F04E80813F
:100FE00091819093C51F8093C41F87E08093C31F96
:100FF0008091C81F9091C91F04969093C91F809338
:10100000C81F1092E01F0C9463428091E01F813052
:1010100011F00C9463428091EC1F8F5F8093EC1F62
:101020008093E61F1092DD1FE091E11FF0E0EE0FCC
:10103000FF1FE453F04E808191819093C51F8093F0
:10104000C41F88E08093C31F8091C81F9091C91F5F
:1010500005969093C91F8093C81F1092E01F0C94AF
:1010600063428091E01F813011F00C9463428091C3
:10107000EC1F81508093EC1F8093E61F1092DD1FC0
:10108000E091E11FF0E0EE0FFF1FE453F04E80818E
:1010900091819093C51F8093C41F89E08093C31FE3
:1010A0008091C81F9091C91F05969093C91F809386
:1010B000C81F1092E01F0C9463428091E01F8130A2
:1010C00011F00C9463428091ED1F982F91709093D2
:1010D000E51F9795992797958695892B8093ED1F06
:1010E0001092DD1FE091E11FF0E0EE0FFF1FE453CF
:1010F000F04E808191819093C51F8093C41F8AE038
:101100008093C31F8091C81F9091C91F059690932B
:10111000C91F8093C81F1092E01F0C9463428091F6
:10112000E01F813011F00C946342E091E11FE15027
:10113000E770E093E11F1092DD1FF0E0EE0FFF1F5C
:10114000E453F04E808191819093C51F8093C41F1A
:101150008BE08093C31F8091C81F9091C91F059693
:101160009093C91F8093C81F1092E01F0C94634294
:101170008091E01F823029F507DDC091E31F8C2F9D
:10118000E2DC8093ED1F8093E61F1092DD1FE0915B
:10119000E11FF0E0EE0FFF1FE453F04E208131819C
:1011A0003093C51F2093C41FC093C31F8091C81FD5
:1011B0009091C91F08969093C91F8093C81F1092E1
:1011C000E01F8091E01F813011F00C94634222E017
:1011D0002093DD1F8091CA1F9091CB1F9093C51F54
:1011E0008093C41F8091DC1F8093C31F2093E01F56
:1011F0000C9463428091E01F813011F00C946342A3
:10120000E091E11FEF5FE770E093E11FF0E0EE0F88
:10121000FF1FE453F04E88E090E0918380831092AA
:10122000DD1F9093C51F8093C41F8DE08093C31F63
:101230008091C81F9091C91F05969093C91F8093F4
:10124000C81F1092E01F0C9463428091E01F82300F
:1012500009F59ADC2091E31F2093EC1F1092DD1F0B
:10126000E091E11FF0E0EE0FFF1FE453F04E8081AC
:1012700091819093C51F8093C41F2093C31F8091B9
:10128000C81F9091C91F08969093C91F8093C81FCB
:101290001092E01F8091E01F813011F00C946342A6
:1012A00022E02093DD1FE091E11FF0E0EE0FFF1F31
:1012B000E453F04E808191819093C51F8093C41FA9
:1012C0008091DC1F8093C31F2093E01F0C94634226
:1012D0008091E01F813011F00C9463428091E61FF1
:1012E000882331F08091E11F815087708093E11F46
:1012F0001092DD1FE091E11FF0E0EE0FFF1FE453BD
:10130000F04E808191819093C51F8093C41F8FE020
:101310008093C31F8091C81F9091C91F049690931A
:10132000C91F8093C81F1092E01F0C9463428091E4
:10133000E01F813011F00C9463428091EB1F8F5FAE
:101340008093EB1F8093E61F1092DD1FE091E11F59
:10135000F0E0EE0FFF1FE453F04E808191819093F7
:10136000C51F8093C41F80E18093C31F8091C81F55
:101370009091C91F05969093C91F8093C81F109222
:10138000E01F0C9463428091E01F813011F00C94B7
:1013900063428091EB1F81508093EB1F8093E61F87
:1013A0001092DD1FE091E11FF0E0EE0FFF1FE4530C
:1013B000F04E808191819093C51F8093C41F81E17D
:1013C0008093C31F8091C81F9091C91F0596909369
:1013D000C91F8093C81F1092E01F0C946342809134
:1013E000E01F813011F00C9463428091ED1F90E07A
:1013F000880F991F2091E51F822B8093C61F909321
:10140000C71F8093ED1F9093E51F1092DD1FE091A1
:10141000E11FF0E0EE0FFF1FE453F04E8081918159
:101420009093C51F8093C41F82E18093C31F809156
:10143000C81F9091C91F05969093C91F8093C81F1C
:101440001092E01F0C9463428091E01F813011F0F4
:101450000C946342E091E11FE150E770E093E11FDB
:101460001092DD1FF0E0EE0FFF1FE453F04E80817D
:1014700091819093C51F8093C41F83E18093C31F04
:101480008091C81F9091C91F05969093C91F8093A2
:10149000C81F1092E01F0C9463428091E01F8230BD
:1014A00039F572DB1092E51FC091E31F8C2F5BDBD7
:1014B0008093ED1F8093E61F1092DD1FE091E11FE6
:1014C000F0E0EE0FFF1FE453F04E208131813093A6
:1014D000C51F2093C41FC093C31F8091C81F909144
:1014E000C91F08969093C91F8093C81F1092E01FD0
:1014F0008091E01F813011F00C94634222E0209330
:10150000DD1F8091CA1F9091CB1F9093C51F8093C0
:10151000C41F8091DC1F8093C31F2093E01F0C9495
:1015200063428091E01F813011F00C946342E0919E
:10153000E11FEF5FE770E093E11FF0E0EE0FFF1FA8
:10154000E453F04E80E190E0918380831092DD1FA0
:101550009093C51F8093C41F85E18093C31F809122
:10156000C81F9091C91F05969093C91F8093C81FEB
:101570001092E01F0C9463428091E01F823009F5C5
:1015800003DB2091E31F2093EB1F1092DD1FE091FE
:10159000E11FF0E0EE0FFF1FE453F04E80819181D8
:1015A0009093C51F8093C41F2093C31F8091C81FB1
:1015B0009091C91F08969093C91F8093C81F1092DD
:1015C000E01F8091E01F813011F00C94634222E013
:1015D0002093DD1FE091E11FF0E0EE0FFF1FE453C9
:1015E000F04E808191819093C51F8093C41F80919C
:1015F000DC1F8093C31F2093E01F0C9463428091F3
:10160000E01F813011F00C9463428091E61F87FD4A
:1016100006C08091E11F815087708093E11F109276
:10162000DD1FE091E11FF0E0EE0FFF1FE453F04EED
:10163000808191819093C51F8093C41F87E180931F
:10164000C31F8091C81F9091C91F04969093C91F12
:101650008093C81F1092E01F0C9463428091E01F9A
:10166000813011F00C9463428091EA1F8F5F809368
:10167000EA1F8093E61F1092DD1FE091E11FF0E06A
:10168000EE0FFF1FE453F04E808191819093C51FB0
:101690008093C41F88E18093C31F8091C81F9091DD
:1016A000C91F05969093C91F8093C81F1092E01F11
:1016B0000C9463428091E01F813011F00C946342DE
:1016C0008091EA1F81508093EA1F8093E61F109259
:1016D000DD1FE091E11FF0E0EE0FFF1FE453F04E3D
:1016E000808191819093C51F8093C41F89E180936D
:1016F000C31F8091C81F9091C91F05969093C91F61
:101700008093C81F1092E01F0C9463428091E01FE9
:10171000813011F00C9463428091E51F90E0982F86
:1017200088272091ED1F822B9093C71F8093C61F9F
:101730009C01369527952093ED1F81708093E51FBE
:101740001092DD1FE091E11FF0E0EE0FFF1FE45368
:10175000F04E808191819093C51F8093C41F8AE1D0
:101760008093C31F8091C81F9091C91F05969093C5
:10177000C91F8093C81F1092E01F0C946342809190
:10178000E01F813011F00C946342E091E11FE150C1
:10179000E770E093E11F1092DD1FF0E0EE0FFF1FF6
:1017A000E453F04E808191819093C51F8093C41FB4
:1017B0008BE18093C31F8091C81F9091C91F05962C
:1017C0009093C91F8093C81F1092E01F0C9463422E
:1017D0008091E01F823029F5D7D9C091E31F8C2F6B
:1017E000C2D98093ED1F8093E61F1092DD1FE09118
:1017F000E11FF0E0EE0FFF1FE453F04E2081318136
:101800003093C51F2093C41FC093C31F8091C81F6E
:101810009091C91F08969093C91F8093C81F10927A
:10182000E01F8091E01F813011F00C94634222E0B0
:101830002093DD1F8091CA1F9091CB1F9093C51FED
:101840008093C41F8091DC1F8093C31F2093E01FEF
:101850000C9463428091E01F813011F00C9463423C
:10186000E091E11FEF5FE770E093E11FF0E0EE0F22
:10187000FF1FE453F04E88E190E091838083109243
:10188000DD1F9093C51F8093C41F8DE18093C31FFC
:101890008091C81F9091C91F05969093C91F80938E
:1018A000C81F1092E01F0C9463428091E01F8230A9
:1018B00009F56AD92091E31F2093EA1F1092DD1FDA
:1018C000E091E11FF0E0EE0FFF1FE453F04E808146
:1018D00091819093C51F8093C41F2093C31F809153
:1018E000C81F9091C91F08969093C91F8093C81F65
:1018F0001092E01F8091E01F813011F00C94634240
:1019000022E02093DD1FE091E11FF0E0EE0FFF1FCA
:10191000E453F04E808191819093C51F8093C41F42
:101920008091DC1F8093C31F2093E01F0C946342BF
:101930008091E01F813011F00C9463428091E61F8A
:10194000F7D8811106C08091E11F81508770809384
:10195000E11F1092DD1FE091E11FF0E0EE0FFF1F8D
:10196000E453F04E808191819093C51F8093C41FF2
:101970008FE18093C31F8091C81F9091C91F049667
:101980009093C91F8093C81F1092E01F0C9463426C
:101990008091E01F813011F00C9463428091E91F27
:1019A0008F5F8093E91F8093E61F1092DD1FE09107
:1019B000E11FF0E0EE0FFF1FE453F04E80819181B4
:1019C0009093C51F8093C41F80E28093C31F8091B2
:1019D000C81F9091C91F05969093C91F8093C81F77
:1019E0001092E01F0C9463428091E01F813011F04F
:1019F0000C9463428091E91F81508093E91F80938A
:101A0000E61F1092DD1FE091E11FF0E0EE0FFF1FD7
:101A1000E453F04E808191819093C51F8093C41F41
:101A200081E28093C31F8091C81F9091C91F0596C2
:101A30009093C91F8093C81F1092E01F0C946342BB
:101A40008091E01F813011F00C946342E091E11F1E
:101A5000E150E770E093E11F1092DD1FF0E0EE0F20
:101A6000FF1FE453F04E808191819093C51F8093B6
:101A7000C41F83E28093C31F8091C81F9091C91F28
:101A800005969093C91F8093C81F1092E01F0C9475
:101A900063428091E01F823041F576D81092E51FB5
:101AA0002091E31F8091ED1F82238093ED1F80938F
:101AB000E61F1092DD1FE091E11FF0E0EE0FFF1F27
:101AC000E453F04E808191819093C51F8093C41F91
:101AD0002093C31F8091C81F9091C91F08969093AF
:101AE000C91F8093C81F1092E01F8091E01F8130B2
:101AF00011F00C94634222E02093DD1F8091CA1FF5
:101B00009091CB1F9093C51F8093C41F8091DC1FC1
:101B10008093C31F2093E01F0C9463428091E01FC9
:101B2000813011F00C946342E091E11FEF5FE770A8
:101B3000E093E11FF0E0EE0FFF1FE453F04E80E270
:101B400090E0918380831092DD1F9093C51F809356
:101B5000C41F85E28093C31F8091C81F9091C91F45
:101B600005969093C91F8093C81F1092E01F0C9494
:101B700063428091E01F823009F506D82091E31F6F
:101B80002093E91F1092DD1FE091E11FF0E0EE0FBE
:101B9000FF1FE453F04E808191819093C51F809385
:101BA000C41F2093C31F8091C81F9091C91F08961E
:101BB0009093C91F8093C81F1092E01F8091E01F6F
:101BC000813011F00C94634222E02093DD1FE091FC
:101BD000E11FF0E0EE0FFF1FE453F04E8081918192
:101BE0009093C51F8093C41F8091DC1F8093C31FF7
:101BF0002093E01F0C9463428091E01F813011F02C
:101C00000C9463428091E51F882331F08091E11F9D
:101C1000815087708093E11F1092DD1FE091E11FDA
:101C2000F0E0EE0FFF1FE453F04E8081918190931E
:101C3000C51F8093C41F87E28093C31F8091C81F74
:101C40009091C91F04969093C91F8093C81F10924A
:101C5000E01F0C9463428091E01F813011F00C94DE
:101C600063428091E81F8F5F8093E81F8093E61F97
:101C70001092DD1FE091E11FF0E0EE0FFF1FE45333
:101C8000F04E808191819093C51F8093C41F88E29C
:101C90008093C31F8091C81F9091C91F0596909390
:101CA000C91F8093C81F1092E01F0C94634280915B
:101CB000E01F813011F00C9463428091E81F815045
:101CC0008093E81F8093E61F1092DD1FE091E11FD3
:101CD000F0E0EE0FFF1FE453F04E8081918190936E
:101CE000C51F8093C41F89E28093C31F8091C81FC2
:101CF0009091C91F05969093C91F8093C81F109299
:101D0000E01F0C9463428091E01F813011F00C942D
:101D10006342E091E11FE150E770E093E11F109210
:101D2000DD1FF0E0EE0FFF1FE453F04E8081918144
:101D30009093C51F8093C41F8BE28093C31F809133
:101D4000C81F9091C91F05969093C91F8093C81F03
:101D50001092E01F0C9463428091E01F823049F59D
:101D60000E94C4051092E51F2091E31F8091ED1F92
:101D700082278093ED1F8093E61F1092DD1FE09174
:101D8000E11FF0E0EE0FFF1FE453F04E80819181E0
:101D90009093C51F8093C41F2093C31F8091C81FB9
:101DA0009091C91F08969093C91F8093C81F1092E5
:101DB000E01F8091E01F813011F00C94634222E01B
:101DC0002093DD1F8091CA1F9091CB1F9093C51F58
:101DD0008093C41F8091DC1F8093C31F2093E01F5A
:101DE0000C9463428091E01F813011F00C946342A7
:101DF000E091E11FEF5FE770E093E11FF0E0EE0F8D
:101E0000FF1FE453F04E88E290E0918380831092AC
:101E1000DD1F9093C51F8093C41F8DE28093C31F65
:101E20008091C81F9091C91F05969093C91F8093F8
:101E3000C81F1092E01F0C9463428091E01F823013
:101E400011F50E94C4052091E31F2093E81F109212
:101E5000DD1FE091E11FF0E0EE0FFF1FE453F04EB5
:101E6000808191819093C51F8093C41F2093C31FCD
:101E70008091C81F9091C91F08969093C91F8093A5
:101E8000C81F1092E01F8091E01F813011F00C9468
:101E9000634222E02093DD1FE091E11FF0E0EE0FAE
:101EA000FF1FE453F04E808191819093C51F809372
:101EB000C41F8091DC1F8093C31F2093E01F0C94EC
:101EC00063428091E01F813011F00C946342809155
:101ED000E61F811106C08091E11F815087708093B9
:101EE000E11F1092DD1FE091E11FF0E0EE0FFF1FF8
:101EF000E453F04E808191819093C51F8093C41F5D
:101F00008FE28093C31F8091C81F9091C91F0496D0
:101F10009093C91F8093C81F1092E01F0C946342D6
:101F20008091E01F813011F00C9463428091E71F93
:101F30008F5F8093E71F8093E61F1092DD1FE09173
:101F4000E11FF0E0EE0FFF1FE453F04E808191811E
:101F50009093C51F8093C41F80E38093C31F80911B
:101F6000C81F9091C91F05969093C91F8093C81FE1
:101F70001092E01F0C9463428091E01F813011F0B9
:101F80000C9463428091E71F81508093E71F8093F8
:101F9000E61F1092DD1FE091E11FF0E0EE0FFF1F42
:101FA000E453F04E808191819093C51F8093C41FAC
:101FB00081E38093C31F8091C81F9091C91F05962C
:101FC0009093C91F8093C81F1092E01F0C94634226
:101FD0008091E01F813011F00C946342E091E11F89
:101FE000E150E770E093E11F1092DD1FF0E0EE0F8B
:101FF000FF1FE453F04E808191819093C51F809321
:10200000C41F83E38093C31F8091C81F9091C91F91
:1020100005969093C91F8093C81F1092E01F0C94DF
:1020200063428091E01F823049F50E94C4051092FE
:10203000E51F2091E31F8091ED1F822B8093ED1F00
:102040008093E61F1092DD1FE091E11FF0E0EE0F9C
:10205000FF1FE453F04E808191819093C51F8093C0
:10206000C41F2093C31F8091C81F9091C91F089659
:102070009093C91F8093C81F1092E01F8091E01FAA
:10208000813011F00C94634222E02093DD1F809197
:10209000CA1F9091CB1F9093C51F8093C41F80913E
:1020A000DC1F8093C31F2093E01F0C946342809138
:1020B000E01F813011F00C946342E091E11FEF5F6B
:1020C000E770E093E11FF0E0EE0FFF1FE453F04EE6
:1020D00080E390E0918380831092DD1F9093C51F71
:1020E0008093C41F85E38093C31F8091C81F909184
:1020F000C91F05969093C91F8093C81F1092E01FB7
:102100000C9463428091E01F823011F50E94C40557
:102110002091E31F2093E71F1092DD1FE091E11F44
:10212000F0E0EE0FFF1FE453F04E80819181909319
:10213000C51F8093C41F2093C31F8091C81F909117
:10214000C91F08969093C91F8093C81F1092E01F63
:102150008091E01F813011F00C94634222E02093C3
:10216000DD1FE091E11FF0E0EE0FFF1FE453F04EA2
:10217000808191819093C51F8093C41F8091DC1F43
:102180008093C31F2093E01F0C9463428091E01F53
:10219000813011F00C9463428091E61F87FF06C0E6
:1021A0008091E11F815087708093E11F1092DD1FA5
:1021B000E091E11FF0E0EE0FFF1FE453F04E80814D
:1021C00091819093C51F8093C41F87E38093C31FA1
:1021D0008091C81F9091C91F04969093C91F809346
:1021E000C81F1092E01F0C9463428091E01F813061
:1021F00011F00C946342E091E11FE150E770E0932D
:10220000E11F1092DD1FF0E0EE0FFF1FE453F04ED0
:10221000808191819093C51F8093C41F8BE380932D
:10222000C31F8091C81F9091C91F05969093C91F25
:102230008093C81F1092E01F0C9463428091E01FAE
:10224000823039F50E94C4051092E51FC091E31F4A
:102250008C2F0E94B3058093E61F1092DD1FE09142
:10226000E11FF0E0EE0FFF1FE453F04E20813181BB
:102270003093C51F2093C41FC093C31F8091C81FF4
:102280009091C91F08969093C91F8093C81F109200
:10229000E01F8091E01F813011F00C94634222E036
:1022A0002093DD1F8091CA1F9091CB1F9093C51F73
:1022B0008093C41F8091DC1F8093C31F2093E01F75
:1022C0000C9463428091E01F813011F00C946342C2
:1022D000E091E11FEF5FE770E093E11FF0E0EE0FA8
:1022E000FF1FE453F04E88E390E0918380831092C7
:1022F000DD1F9093C51F8093C41F8DE38093C31F80
:102300008091C81F9091C91F05969093C91F809313
:10231000C81F1092E01F0C9463428091E01F83302D
:1023200051F58091CA1F9091CB1F2091E31F811519
:1023300038E1930720F4FC01EE53F84F208310920C
:10234000DD1FE091E11FF0E0EE0FFF1FE453F04EC0
:10235000808191819093C51F8093C41F2093C31FD8
:102360008091C81F9091C91F09969093C91F8093AF
:10237000C81F1092E01F8091E01F8230D9F40E94A4
:10238000C4058091E81F90E0982F88272091E71FCF
:10239000822B9093CB1F8093CA1F23E02093DD1FD5
:1023A0009093C51F8093C41F8091E31F8093C31F28
:1023B0002093E01F8091E01F813011F00C94634264
:1023C00022E02093DD1FE091E11FF0E0EE0FFF1F00
:1023D000E453F04E808191819093C51F8093C41F78
:1023E0008091DC1F8093C31F2093E01F0C946342F5
:1023F0008091E01F813011F00C9463428091E61FC0
:102400000E949805882331F08091E11F81508770E8
:102410008093E11F1092DD1FE091E11FF0E0EE0FCD
:10242000FF1FE453F04E808191819093C51F8093EC
:10243000C41F8FE38093C31F8091C81F9091C91F51
:1024400004969093C91F8093C81F1092E01F0C94AC
:1024500063428091E01F8330B9F50E94C40520914A
:10246000E31F322F3F738091C61F9091C71F932B9C
:102470009093C71F8093C61F3091E51FE091E11F25
:10248000311108C0AE2FB0E0AA0FBB1FA453B04E4D
:102490008D939C931092DD1FF0E0EE0FFF1FE4532D
:1024A000F04E808191819093C51F8093C41F20932B
:1024B000C31F8091C81F9091C91F0A969093C91F8E
:1024C0008093C81F1092E01FC091E01FC230F1F44A
:1024D0000E94C4052091E31F822F90E09093C71FB4
:1024E0008093C61FC093DD1FE091E11FF0E0EE0F67
:1024F000FF1FE453F04E808191819093C51F80931C
:10250000C41F2093C31F83E08093E01F8091E01FCE
:10251000813011F00C94634222E02093DD1FE091A2
:10252000E11FF0E0EE0FFF1FE453F04E8081918138
:102530009093C51F8093C41F8091DC1F8093C31F9D
:102540002093E01F0C9463428091E01F823001F5DC
:102550002091E31F2093ED1F1092DD1FE091E11FFA
:10256000F0E0EE0FFF1FE453F04E808191819093D5
:10257000C51F8093C41F2093C31F8091C81F9091D3
:10258000C91F08969093C91F8093C81F1092E01F1F
:102590008091E01F813011F00C9463421092CB1FA8
:1025A0001092CA1F8093DD1F8091ED1F90E09093E1
:1025B000C51F8093C41F81E48093C31F82E0809372
:1025C000E01F0C9463428091E01F8330E1F50E948C
:1025D000C4052091E31F322F3F738091C61F909155
:1025E000C71F932B9093C71F8093C61F3091E51F81
:1025F00031110DC0E091E11FEF5FE770E093E11F43
:10260000F0E0EE0FFF1FE453F04E918380831092B1
:10261000DD1FE091E11FF0E0EE0FFF1FE453F04EED
:10262000808191819093C51F8093C41F2093C31F05
:102630008091C81F9091C91F0A969093C91F8093DB
:10264000C81F1092E01FC091E01FC230F1F40E9439
:10265000C4052091E31F822F90E09093C71F8093C1
:10266000C61FC093DD1FE091E11FF0E0EE0FFF1FDA
:10267000E453F04E808191819093C51F8093C41FD5
:102680002093C31F83E08093E01F8091E01F81307F
:1026900011F00C94634222E02093DD1FE091E11FD2
:1026A000F0E0EE0FFF1FE453F04E80819181909394
:1026B000C51F8093C41F8091DC1F8093C31F20938C
:1026C000E01F0C9463428091E01F823001F520915D
:1026D000E31F2093ED1F1092DD1FE091E11FF0E05A
:1026E000EE0FFF1FE453F04E808191819093C51F40
:1026F0008093C41F2093C31F8091C81F9091C91F4E
:1027000008969093C91F8093C81F1092E01F2091D4
:10271000E01F213011F00C94634281E090E090932F
:10272000CB1F8093CA1F2093DD1F8091ED1F90E087
:1027300091609093C51F8093C41F83E48093C31F4F
:1027400082E08093E01F0C9463428091E01F83300D
:1027500059F50E94C4052091E31F322F3F738091E9
:10276000C61F9091C71F932B9093C71F8093C61FBE
:10277000E091E11FF0E0EE0FFF1FE453F04E918374
:1027800080831092DD1F9093C51F8093C41F2093F8
:10279000C31F8091C81F9091C91F0B969093C91FAA
:1027A0008093C81F1092E01FC091E01FC230F1F467
:1027B0000E94C4052091E31F822F90E09093C71FD1
:1027C0008093C61FC093DD1FE091E11FF0E0EE0F84
:1027D000FF1FE453F04E808191819093C51F809339
:1027E000C41F2093C31F83E08093E01F8091E01FEC
:1027F000813011F00C94634222E02093DD1FE091C0
:10280000E11FF0E0EE0FFF1FE453F04E8081918155
:102810009093C51F8093C41F8091DC1F8093C31FBA
:102820002093E01F0C9463428091E01F823001F5F9
:102830002091E31F2093ED1F1092DD1FE091E11F17
:10284000F0E0EE0FFF1FE453F04E808191819093F2
:10285000C51F8093C41F2093C31F8091C81F9091F0
:10286000C91F08969093C91F8093C81F1092E01F3C
:102870002091E01F213011F00C94634282E090E03F
:102880009093CB1F8093CA1F2093DD1F8091ED1F73
:1028900090E092609093C51F8093C41F85E480935D
:1028A000C31F82E08093E01F0C9463428091E01F7D
:1028B000833079F50E94C4052091E31F322F3F73C6
:1028C0008091C61F9091C71F932B9093C71F809331
:1028D000C61FE091E11FEF5FE770E093E11FF0E0BA
:1028E000EE0FFF1FE453F04E918380831092DD1FA3
:1028F0009093C51F8093C41F2093C31F8091C81F4E
:102900009091C91F0B969093C91F8093C81F109276
:10291000E01FC091E01FC230F1F40E94C405209175
:10292000E31F822F90E09093C71F8093C61FC09330
:10293000DD1FE091E11FF0E0EE0FFF1FE453F04ECA
:10294000808191819093C51F8093C41F2093C31FE2
:1029500083E08093E01F8091E01F813011F00C94A0
:10296000634222E02093DD1FE091E11FF0E0EE0FD3
:10297000FF1FE453F04E808191819093C51F809397
:10298000C41F8091DC1F8093C31F2093E01F0C9411
:1029900063428091E01F823001F52091E31F209374
:1029A000ED1F1092DD1FE091E11FF0E0EE0FFF1F21
:1029B000E453F04E808191819093C51F8093C41F92
:1029C0002093C31F8091C81F9091C91F08969093B0
:1029D000C91F8093C81F1092E01F2091E01F213073
:1029E00011F00C94634283E090E09093CB1F8093AE
:1029F000CA1F2093DD1F8091ED1F90E0936090939C
:102A0000C51F8093C41F87E48093C31F82E0809317
:102A1000E01F0C9463428091E01F8330B9F50E945F
:102A2000C4052091E31F322F3F738091C61F909100
:102A3000C71F932B9093C71F8093C61F3091E61F2B
:102A4000E091E11F332341F0AE2FB0E0AA0FBB1F8E
:102A5000A453B04E8D939C931092DD1FF0E0EE0FC7
:102A6000FF1FE453F04E808191819093C51F8093A6
:102A7000C41F2093C31F8091C81F9091C91F0A963D
:102A80009093C91F8093C81F1092E01FC091E01F50
:102A9000C230F1F40E94C4052091E31F822F90E020
:102AA0009093C71F8093C61FC093DD1FE091E11F65
:102AB000F0E0EE0FFF1FE453F04E80819181909380
:102AC000C51F8093C41F2093C31F83E08093E01F22
:102AD0008091E01F813011F00C94634222E020933A
:102AE000DD1FE091E11FF0E0EE0FFF1FE453F04E19
:102AF000808191819093C51F8093C41F8091DC1FBA
:102B00008093C31F2093E01F0C9463428091E01FC9
:102B1000823011F50E9441058093E31F8093ED1FE1
:102B20001092DD1FE091E11FF0E0EE0FFF1FE45374
:102B3000F04E208131813093C51F2093C41F8093B4
:102B4000C31F8091C81F9091C91F08969093C91FF9
:102B50008093C81F1092E01F2091E01F213011F0D8
:102B60000C94634284E090E09093CB1F8093CA1F43
:102B70002093DD1F8091ED1F90E094609093C51F1E
:102B80008093C41F8091DC1F8093C31F82E08093D9
:102B9000E01F0C9463428091E01F8330E1F50E94B6
:102BA000C4052091E31F322F3F738091C61F90917F
:102BB000C71F932B9093C71F8093C61F3091E61FAA
:102BC000332369F0E091E11FEF5FE770E093E11FCD
:102BD000F0E0EE0FFF1FE453F04E918380831092DC
:102BE000DD1FE091E11FF0E0EE0FFF1FE453F04E18
:102BF000808191819093C51F8093C41F2093C31F30
:102C00008091C81F9091C91F0A969093C91F809305
:102C1000C81F1092E01FC091E01FC230F1F40E9463
:102C2000C4052091E31F822F90E09093C71F8093EB
:102C3000C61FC093DD1FE091E11FF0E0EE0FFF1F04
:102C4000E453F04E808191819093C51F8093C41FFF
:102C50002093C31F83E08093E01F8091E01F8130A9
:102C600011F00C94634222E02093DD1FE091E11FFC
:102C7000F0E0EE0FFF1FE453F04E808191819093BE
:102C8000C51F8093C41F8091DC1F8093C31F2093B6
:102C9000E01F0C9463428091E01F823001F5209187
:102CA000E31F2093ED1F1092DD1FE091E11FF0E084
:102CB000EE0FFF1FE453F04E808191819093C51F6A
:102CC0008093C41F2093C31F8091C81F9091C91F78
:102CD00008969093C91F8093C81F1092E01F2091FF
:102CE000E01F213011F00C94634285E090E0909356
:102CF000CB1F8093CA1F2093DD1F8091ED1F90E0B2
:102D000095609093C51F8093C41F8BE48093C31F6D
:102D100082E08093E01F0C9463428091E01F833037
:102D200059F50E94C4052091E31F322F3F73809113
:102D3000C61F9091C71F932B9093C71F8093C61FE8
:102D4000E091E11FF0E0EE0FFF1FE453F04E91839E
:102D500080831092DD1F9093C51F8093C41F209322
:102D6000C31F8091C81F9091C91F0B969093C91FD4
:102D70008093C81F1092E01FC091E01FC230F1F491
:102D80000E94C4052091E31F822F90E09093C71FFB
:102D90008093C61FC093DD1FE091E11FF0E0EE0FAE
:102DA000FF1FE453F04E808191819093C51F809363
:102DB000C41F2093C31F83E08093E01F8091E01F16
:102DC000813011F00C94634222E02093DD1FE091EA
:102DD000E11FF0E0EE0FFF1FE453F04E8081918180
:102DE0009093C51F8093C41F8091DC1F8093C31FE5
:102DF0002093E01F0C9463428091E01F823001F524
:102E00002091E31F2093ED1F1092DD1FE091E11F41
:102E1000F0E0EE0FFF1FE453F04E8081918190931C
:102E2000C51F8093C41F2093C31F8091C81F90911A
:102E3000C91F08969093C91F8093C81F1092E01F66
:102E40002091E01F213011F00C94634286E090E065
:102E50009093CB1F8093CA1F2093DD1F8091ED1F9D
:102E600090E096609093C51F8093C41F8DE480937B
:102E7000C31F82E08093E01F0C9463428091E01FA7
:102E8000833079F50E94C4052091E31F322F3F73F0
:102E90008091C61F9091C71F932B9093C71F80935B
:102EA000C61FE091E11FEF5FE770E093E11FF0E0E4
:102EB000EE0FFF1FE453F04E918380831092DD1FCD
:102EC0009093C51F8093C41F2093C31F8091C81F78
:102ED0009091C91F0B969093C91F8093C81F1092A1
:102EE000E01FC091E01FC230F1F40E94C4052091A0
:102EF000E31F822F90E09093C71F8093C61FC0935B
:102F0000DD1FE091E11FF0E0EE0FFF1FE453F04EF4
:102F1000808191819093C51F8093C41F2093C31F0C
:102F200083E08093E01F8091E01F813011F00C94CA
:102F3000634222E02093DD1FE091E11FF0E0EE0FFD
:102F4000FF1FE453F04E808191819093C51F8093C1
:102F5000C41F8091DC1F8093C31F2093E01F0C943B
:102F600063428091E01F823001F52091E31F20939E
:102F7000ED1F1092DD1FE091E11FF0E0EE0FFF1F4B
:102F8000E453F04E808191819093C51F8093C41FBC
:102F90002093C31F8091C81F9091C91F08969093DA
:102FA000C91F8093C81F1092E01F2091E01F21309D
:102FB00011F00C94634287E090E09093CB1F8093D4
:102FC000CA1F2093DD1F8091ED1F90E097609093C2
:102FD000C51F8093C41F8FE48093C31F82E080933A
:102FE000E01F0C9463428091E01F8330B9F50E948A
:102FF000C4052091E31F322F3F738091C61F90912B
:10300000C71F932B9093C71F8093C61F3091E61F55
:10301000E091E11F37FD08C0AE2FB0E0AA0FBB1F43
:10302000A453B04E8D939C931092DD1FF0E0EE0FF1
:10303000FF1FE453F04E808191819093C51F8093D0
:10304000C41F2093C31F8091C81F9091C91F0A9667
:103050009093C91F8093C81F1092E01FC091E01F7A
:10306000C230F1F40E94C4052091E31F822F90E04A
:103070009093C71F8093C61FC093DD1FE091E11F8F
:10308000F0E0EE0FFF1FE453F04E808191819093AA
:10309000C51F8093C41F2093C31F83E08093E01F4C
:1030A0008091E01F813011F00C94634222E0209364
:1030B000DD1FE091E11FF0E0EE0FFF1FE453F04E43
:1030C000808191819093C51F8093C41F8091DC1FE4
:1030D0008093C31F2093E01F0C9463428091E01FF4
:1030E000823011F52091ED1F2093E31F2093BE073E
:1030F0001092DD1FE091E11FF0E0EE0FFF1FE4539F
:10310000F04E808191819093C51F8093C41F2093BE
:10311000C31F8091C81F9091C91F06969093C91F25
:103120008093C81F1092E01F2091E01F213011F002
:103130000C94634288E090E09093CB1F8093CA1F69
:103140002093DD1F8091ED1F90E098609093C51F44
:103150008093C41F81E58093C31F82E08093E01FAA
:103160000C9463428091E01F8330E1F50E94C40516
:103170002091E31F322F3F738091C61F9091C71F8C
:10318000932B9093C71F8093C61F3091E61F37FD86
:103190000DC0E091E11FEF5FE770E093E11FF0E009
:1031A000EE0FFF1FE453F04E918380831092DD1FDA
:1031B000E091E11FF0E0EE0FFF1FE453F04E80813D
:1031C00091819093C51F8093C41F2093C31F80914A
:1031D000C81F9091C91F0A969093C91F8093C81F5A
:1031E0001092E01FC091E01FC230F1F40E94C405AC
:1031F0002091E31F822F90E09093C71F8093C61FFA
:10320000C093DD1FE091E11FF0E0EE0FFF1FE453DC
:10321000F04E808191819093C51F8093C41F2093AD
:10322000C31F83E08093E01F8091E01F813011F085
:103230000C94634222E02093DD1FE091E11FF0E057
:10324000EE0FFF1FE453F04E808191819093C51FD4
:103250008093C41F8091DC1F8093C31F2093E01FC5
:103260000C9463428091E01F823069F58091ED1FDC
:103270008093E31F90E0982F88272091BE07822B30
:103280000E940A0581E08093C21F1092DD1FE09129
:10329000E11FF0E0EE0FFF1FE453F04E80819181BB
:1032A0009093C51F8093C41F8091ED1F8093C31F0F
:1032B0008091C81F9091C91F06969093C91F809353
:1032C000C81F1092E01F2091E01F213011F00C94D4
:1032D000634289E090E09093CB1F8093CA1F2093B4
:1032E000DD1F8091ED1F90E099609093C51F809342
:1032F000C41F8091DC1F8093C31F82E08093E01F76
:103300000C9463428091E01F833059F50E94C405FC
:103310002091E31F322F3F738091C61F9091C71FEA
:10332000932B9093C71F8093C61FE091E11FF0E09D
:10333000EE0FFF1FE453F04E918380831092DD1F48
:103340009093C51F8093C41F2093C31F8091C81FF3
:103350009091C91F0B969093C91F8093C81F10921C
:10336000E01FC091E01FC230F1F40E94C40520911B
:10337000E31F822F90E09093C71F8093C61FC093D6
:10338000DD1FE091E11FF0E0EE0FFF1FE453F04E70
:10339000808191819093C51F8093C41F2093C31F88
:1033A00083E08093E01F8091E01F813011F00C9446
:1033B000634222E02093DD1FE091E11FF0E0EE0F79
:1033C000FF1FE453F04E808191819093C51F80933D
:1033D000C41F8091DC1F8093C31F2093E01F0C94B7
:1033E00063428091E01F823021F58091ED1F809330
:1033F000E31F0E943E051092DD1FE091E11FF0E007
:10340000EE0FFF1FE453F04E808191819093C51F12
:103410008093C41F8091ED1F8093C31F8091C81FAC
:103420009091C91F06969093C91F8093C81F109250
:10343000E01F2091E01F213011F00C9463428AE0DC
:1034400090E09093CB1F8093CA1F2093DD1F809143
:10345000ED1F90E09A609093C51F8093C41F8091E8
:10346000DC1F8093C31F82E08093E01F0C946342B3
:103470008091E01F833079F50E94C4052091E31FFD
:10348000322F3F738091C61F9091C71F932B90934B
:10349000C71F8093C61FE091E11FEF5FE770E093C5
:1034A000E11FF0E0EE0FFF1FE453F04E91838083A5
:1034B0001092DD1F9093C51F8093C41F2093C31FDC
:1034C0008091C81F9091C91F0B969093C91F80933C
:1034D000C81F1092E01FC091E01FC230F1F40E949B
:1034E000C4052091E31F822F90E09093C71F809323
:1034F000C61FC093DD1FE091E11FF0E0EE0FFF1F3C
:10350000E453F04E808191819093C51F8093C41F36
:103510002093C31F83E08093E01F8091E01F8130E0
:1035200011F00C94634222E02093DD1FE091E11F33
:10353000F0E0EE0FFF1FE453F04E808191819093F5
:10354000C51F8093C41F8091DC1F8093C31F2093ED
:10355000E01F0C9463428091E01F823001F52091BE
:10356000ED1F2093E31F1092DD1FE091E11FF0E0BB
:10357000EE0FFF1FE453F04E808191819093C51FA1
:103580008093C41F2093C31F8091C81F9091C91FAF
:1035900006969093C91F8093C81F1092E01F209138
:1035A000E01F213011F00C9463428BE090E0909387
:1035B000CB1F8093CA1F2093DD1F8091ED1F90E0E9
:1035C0009B609093C51F8093C41F87E58093C31FA2
:1035D00082E08093E01F0C9463428091E01F83306F
:1035E000C9F50E94C4051091E31F812F8F73C0910C
:1035F000C61FD091C71FD82BD093C71FC093C61F1B
:103600008091E61F0E949805E091E11F811108C09A
:10361000AE2FB0E0AA0FBB1FA453B04ECD93DC93E6
:103620001092DD1FF0E0EE0FFF1FE453F04E80819B
:1036300091819093C51F8093C41F1093C31F8091E5
:10364000C81F9091C91F0A969093C91F8093C81FE5
:103650001092E01FC091E01FC230F1F40E94C40537
:103660002091E31F822F90E09093C71F8093C61F85
:10367000C093DD1FE091E11FF0E0EE0FFF1FE45368
:10368000F04E808191819093C51F8093C41F209339
:10369000C31F83E08093E01F8091E01F813011F011
:1036A0000C94634222E02093DD1FE091E11FF0E0E3
:1036B000EE0FFF1FE453F04E808191819093C51F60
:1036C0008093C41F8091DC1F8093C31F2093E01F51
:1036D0000C9463428091E01F823001F52091ED1F30
:1036E0002093E31F1092DD1FE091E11FF0E0EE0F49
:1036F000FF1FE453F04E808191819093C51F80930A
:10370000C41F2093C31F8091C81F9091C91F0696A4
:103710009093C91F8093C81F1092E01F2091E01F53
:10372000213011F00C9463428CE090E09093CB1F19
:103730008093CA1F2093DD1F8091ED1F90E09C6055
:103740009093C51F8093C41F89E58093C31F82E0B7
:103750008093E01F0C9463428091E01F8330F1F569
:103760000E94C4051091E31F812F8F73C091C61F63
:10377000D091C71FD82BD093C71FC093C61F80916D
:10378000E61F0E94980581110DC0E091E11FEF5FD7
:10379000E770E093E11FF0E0EE0FFF1FE453F04EFF
:1037A000D183C0831092DD1FE091E11FF0E0EE0FA6
:1037B000FF1FE453F04E808191819093C51F809349
:1037C000C41F1093C31F8091C81F9091C91F0A96F0
:1037D0009093C91F8093C81F1092E01FC091E01FF3
:1037E000C230F1F40E94C4052091E31F822F90E0C3
:1037F0009093C71F8093C61FC093DD1FE091E11F08
:10380000F0E0EE0FFF1FE453F04E80819181909322
:10381000C51F8093C41F2093C31F83E08093E01FC4
:103820008091E01F813011F00C94634222E02093DC
:10383000DD1FE091E11FF0E0EE0FFF1FE453F04EBB
:10384000808191819093C51F8093C41F8091DC1F5C
:103850008093C31F2093E01F0C9463428091E01F6C
:10386000823001F52091ED1F2093E31F1092DD1FA0
:10387000E091E11FF0E0EE0FFF1FE453F04E808176
:1038800091819093C51F8093C41F2093C31F809183
:10389000C81F9091C91F06969093C91F8093C81F97
:1038A0001092E01F2091E01F213011F00C94634230
:1038B0008DE090E09093CB1F8093CA1F2093DD1F73
:1038C0008091ED1F90E09D609093C51F8093C41F71
:1038D0008BE58093C31F82E08093E01F0C946342CA
:1038E0008091E01F833059F50E94C4052091E31FA9
:1038F000322F3F738091C61F9091C71F932B9093D7
:10390000C71F8093C61FE091E11FF0E0EE0FFF1F7D
:10391000E453F04E918380831092DD1F9093C51F76
:103920008093C41F2093C31F8091C81F9091C91F0B
:103930000B969093C91F8093C81F1092E01FC091EF
:10394000E01FC230F1F40E94C4052091E31F822FD2
:1039500090E09093C71F8093C61FC093DD1FE09136
:10396000E11FF0E0EE0FFF1FE453F04E80819181E4
:103970009093C51F8093C41F2093C31F83E080933F
:10398000E01F8091E01F813011F00C94634222E02F
:103990002093DD1FE091E11FF0E0EE0FFF1FE453E5
:1039A000F04E808191819093C51F8093C41F8091B8
:1039B000DC1F8093C31F2093E01F0C94634280910F
:1039C000E01F823001F52091ED1F2093E31F10923C
:1039D000DD1FE091E11FF0E0EE0FFF1FE453F04E1A
:1039E000808191819093C51F8093C41F2093C31F32
:1039F0008091C81F9091C91F06969093C91F80930C
:103A0000C81F1092E01F2091E01F213011F00C948C
:103A100063428EE090E09093CB1F8093CA1F209367
:103A2000DD1F8091ED1F90E09E609093C51F8093F5
:103A3000C41F8DE58093C31F82E08093E01F0C9428
:103A400063428091E01F833079F50E94C405209184
:103A5000E31F322F3F738091C61F9091C71F932B96
:103A60009093C71F8093C61FE091E11FEF5FE7703F
:103A7000E093E11FF0E0EE0FFF1FE453F04E91835F
:103A800080831092DD1F9093C51F8093C41F2093E5
:103A9000C31F8091C81F9091C91F0B969093C91F97
:103AA0008093C81F1092E01FC091E01FC230F1F454
:103AB0000E94C4052091E31F822F90E09093C71FBE
:103AC0008093C61FC093DD1FE091E11FF0E0EE0F71
:103AD000FF1FE453F04E808191819093C51F809326
:103AE000C41F2093C31F83E08093E01F8091E01FD9
:103AF000813011F00C94634222E02093DD1FE091AD
:103B0000E11FF0E0EE0FFF1FE453F04E8081918142
:103B10009093C51F8093C41F8091DC1F8093C31FA7
:103B20002093E01F0C9463428091E01F823001F5E6
:103B30002091ED1F2093E31F1092DD1FE091E11F04
:103B4000F0E0EE0FFF1FE453F04E808191819093DF
:103B5000C51F8093C41F2093C31F8091C81F9091DD
:103B6000C91F06969093C91F8093C81F1092E01F2B
:103B70002091E01F213011F00C9463428FE090E01F
:103B80009093CB1F8093CA1F2093DD1F8091ED1F60
:103B900090E09F609093C51F8093C41F8FE5809332
:103BA000C31F82E08093E01F0C9463428091E01F6A
:103BB0008330B9F50E94C4052091E31F322F3F7373
:103BC0008091C61F9091C71F932B9093C71F80931E
:103BD000C61F3091E51FE091E11F332341F0AE2F66
:103BE000B0E0AA0FBB1FA453B04E8D939C931092CC
:103BF000DD1FF0E0EE0FFF1FE453F04E8081918156
:103C00009093C51F8093C41F2093C31F8091C81F2A
:103C10009091C91F0A969093C91F8093C81F109254
:103C2000E01FC091E01FC230F1F40E94C405209152
:103C3000E31F822F90E09093C71F8093C61FC0930D
:103C4000DD1FE091E11FF0E0EE0FFF1FE453F04EA7
:103C5000808191819093C51F8093C41F2093C31FBF
:103C600083E08093E01F8091E01F813011F00C947D
:103C7000634222E02093DD1FE091E11FF0E0EE0FB0
:103C8000FF1FE453F04E808191819093C51F809374
:103C9000C41F8091DC1F8093C31F2093E01F0C94EE
:103CA00063428091E01F823001F52091ED1F209347
:103CB000E31F1092DD1FE091E11FF0E0EE0FFF1F08
:103CC000E453F04E808191819093C51F8093C41F6F
:103CD0002093C31F8091C81F9091C91F069690938F
:103CE000C91F8093C81F1092E01F2091E01F213050
:103CF00011F00C94634280E190E09093CB1F80938D
:103D0000CA1F2093DD1F8091ED1F90E0906190937A
:103D1000C51F8093C41F81E68093C31F82E08093F8
:103D2000E01F0C9463428091E01F8330E1F50E9414
:103D3000C4052091E31F322F3F738091C61F9091DD
:103D4000C71F932B9093C71F8093C61F3091E51F09
:103D5000332369F0E091E11FEF5FE770E093E11F2B
:103D6000F0E0EE0FFF1FE453F04E9183808310923A
:103D7000DD1FE091E11FF0E0EE0FFF1FE453F04E76
:103D8000808191819093C51F8093C41F2093C31F8E
:103D90008091C81F9091C91F0A969093C91F809364
:103DA000C81F1092E01FC091E01FC230F1F40E94C2
:103DB000C4052091E31F822F90E09093C71F80934A
:103DC000C61FC093DD1FE091E11FF0E0EE0FFF1F63
:103DD000E453F04E808191819093C51F8093C41F5E
:103DE0002093C31F83E08093E01F8091E01F813008
:103DF00011F00C94634222E02093DD1FE091E11F5B
:103E0000F0E0EE0FFF1FE453F04E8081918190931C
:103E1000C51F8093C41F8091DC1F8093C31F209314
:103E2000E01F0C9463428091E01F823001F52091E5
:103E3000ED1F2093E31F1092DD1FE091E11FF0E0E2
:103E4000EE0FFF1FE453F04E808191819093C51FC8
:103E50008093C41F2093C31F8091C81F9091C91FD6
:103E600006969093C91F8093C81F1092E01F20915F
:103E7000E01F213011F00C94634281E190E09093B7
:103E8000CB1F8093CA1F2093DD1F8091ED1F90E010
:103E900091619093C51F8093C41F83E68093C31FD5
:103EA00082E08093E01F0C9463428091E01F833096
:103EB00059F50E94C4052091E31F322F3F73809172
:103EC000C61F9091C71F932B9093C71F8093C61F47
:103ED000E091E11FF0E0EE0FFF1FE453F04E9183FD
:103EE00080831092DD1F9093C51F8093C41F209381
:103EF000C31F8091C81F9091C91F0B969093C91F33
:103F00008093C81F1092E01FC091E01FC230F1F4EF
:103F10000E94C4052091E31F822F90E09093C71F59
:103F20008093C61FC093DD1FE091E11FF0E0EE0F0C
:103F3000FF1FE453F04E808191819093C51F8093C1
:103F4000C41F2093C31F83E08093E01F8091E01F74
:103F5000813011F00C94634222E02093DD1FE09148
:103F6000E11FF0E0EE0FFF1FE453F04E80819181DE
:103F70009093C51F8093C41F8091DC1F8093C31F43
:103F80002093E01F0C9463428091E01F823001F582
:103F90002091ED1F2093E31F1092DD1FE091E11FA0
:103FA000F0E0EE0FFF1FE453F04E8081918190937B
:103FB000C51F8093C41F2093C31F8091C81F909179
:103FC000C91F06969093C91F8093C81F1092E01FC7
:103FD0002091E01F213011F00C94634282E190E0C7
:103FE0009093CB1F8093CA1F2093DD1F8091ED1FFC
:103FF00090E092619093C51F8093C41F85E68093E3
:10400000C31F82E08093E01F0C9463428091E01F05
:10401000833079F50E94C4052091E31F322F3F734E
:104020008091C61F9091C71F932B9093C71F8093B9
:10403000C61FE091E11FEF5FE770E093E11FF0E042
:10404000EE0FFF1FE453F04E918380831092DD1F2B
:104050009093C51F8093C41F2093C31F8091C81FD6
:104060009091C91F0B969093C91F8093C81F1092FF
:10407000E01FC091E01FC230F1F40E94C4052091FE
:10408000E31F822F90E09093C71F8093C61FC093B9
:10409000DD1FE091E11FF0E0EE0FFF1FE453F04E53
:1040A000808191819093C51F8093C41F2093C31F6B
:1040B00083E08093E01F8091E01F813011F00C9429
:1040C000634222E02093DD1FE091E11FF0E0EE0F5C
:1040D000FF1FE453F04E808191819093C51F809320
:1040E000C41F8091DC1F8093C31F2093E01F0C949A
:1040F00063428091E01F823001F52091ED1F2093F3
:10410000E31F1092DD1FE091E11FF0E0EE0FFF1FB3
:10411000E453F04E808191819093C51F8093C41F1A
:104120002093C31F8091C81F9091C91F069690933A
:10413000C91F8093C81F1092E01F2091E01F2130FB
:1041400011F00C94634283E190E09093CB1F809335
:10415000CA1F2093DD1F8091ED1F90E09361909323
:10416000C51F8093C41F87E68093C31F82E080939E
:10417000E01F0C9463428091E01F8330B9F50E94E8
:10418000C4052091E31F322F3F738091C61F909189
:10419000C71F932B9093C71F8093C61F3091E61FB4
:1041A000E091E11F311108C0AE2FB0E0AA0FBB1F94
:1041B000A453B04E8D939C931092DD1FF0E0EE0F50
:1041C000FF1FE453F04E808191819093C51F80932F
:1041D000C41F2093C31F8091C81F9091C91F0A96C6
:1041E0009093C91F8093C81F1092E01FC091E01FD9
:1041F000C230F1F40E94C4052091E31F822F90E0A9
:104200009093C71F8093C61FC093DD1FE091E11FED
:10421000F0E0EE0FFF1FE453F04E80819181909308
:10422000C51F8093C41F2093C31F83E08093E01FAA
:104230008091E01F813011F00C94634222E02093C2
:10424000DD1FE091E11FF0E0EE0FFF1FE453F04EA1
:10425000808191819093C51F8093C41F8091DC1F42
:104260008093C31F2093E01F0C9463428091E01F52
:10427000823001F52091ED1F2093E31F1092DD1F86
:10428000E091E11FF0E0EE0FFF1FE453F04E80815C
:1042900091819093C51F8093C41F2093C31F809169
:1042A000C81F9091C91F06969093C91F8093C81F7D
:1042B0001092E01F2091E01F213011F00C94634216
:1042C00084E190E09093CB1F8093CA1F2093DD1F61
:1042D0008091ED1F90E094619093C51F8093C41F5F
:1042E00089E68093C31F82E08093E01F0C946342B1
:1042F0008091E01F8330E1F50E94C4052091E31F07
:10430000322F3F738091C61F9091C71F932B9093BC
:10431000C71F8093C61F3091E61F31110DC0E09179
:10432000E11FEF5FE770E093E11FF0E0EE0FFF1F8A
:10433000E453F04E918380831092DD1FE091E11FE2
:10434000F0E0EE0FFF1FE453F04E808191819093D7
:10435000C51F8093C41F2093C31F8091C81F9091D5
:10436000C91F0A969093C91F8093C81F1092E01F1F
:10437000C091E01FC230F1F40E94C4052091E31FF8
:10438000822F90E09093C71F8093C61FC093DD1FBC
:10439000E091E11FF0E0EE0FFF1FE453F04E80814B
:1043A00091819093C51F8093C41F2093C31F83E006
:1043B0008093E01F8091E01F813011F00C946342E4
:1043C00022E02093DD1FE091E11FF0E0EE0FFF1FE0
:1043D000E453F04E808191819093C51F8093C41F58
:1043E0008091DC1F8093C31F2093E01F0C946342D5
:1043F0008091E01F823001F52091ED1F2093E31F93
:104400001092DD1FE091E11FF0E0EE0FFF1FE4537B
:10441000F04E808191819093C51F8093C41F20939B
:10442000C31F8091C81F9091C91F06969093C91F02
:104430008093C81F1092E01F2091E01F213011F0DF
:104440000C94634285E190E09093CB1F8093CA1F48
:104450002093DD1F8091ED1F90E095619093C51F23
:104460008093C41F8BE68093C31F82E08093E01F7C
:104470000C9463428091E01F833059F50E94C4057B
:104480002091E31F322F3F738091C61F9091C71F69
:10449000932B9093C71F8093C61FE091E11FF0E01C
:1044A000EE0FFF1FE453F04E918380831092DD1FC7
:1044B0009093C51F8093C41F2093C31F8091C81F72
:1044C0009091C91F0B969093C91F8093C81F10929B
:1044D000E01FC091E01FC230F1F40E94C40520919A
:1044E000E31F822F90E09093C71F8093C61FC09355
:1044F000DD1FE091E11FF0E0EE0FFF1FE453F04EEF
:10450000808191819093C51F8093C41F2093C31F06
:1045100083E08093E01F8091E01F813011F00C94C4
:10452000634222E02093DD1FE091E11FF0E0EE0FF7
:10453000FF1FE453F04E808191819093C51F8093BB
:10454000C41F8091DC1F8093C31F2093E01F0C9435
:1045500063428091E01F823001F52091ED1F20938E
:10456000E31F1092DD1FE091E11FF0E0EE0FFF1F4F
:10457000E453F04E808191819093C51F8093C41FB6
:104580002093C31F8091C81F9091C91F06969093D6
:10459000C91F8093C81F1092E01F2091E01F213097
:1045A00011F00C94634286E190E09093CB1F8093CE
:1045B000CA1F2093DD1F8091ED1F90E096619093BC
:1045C000C51F8093C41F8DE68093C31F82E0809334
:1045D000E01F0C9463428091E01F833079F50E94C4
:1045E000C4052091E31F322F3F738091C61F909125
:1045F000C71F932B9093C71F8093C61FE091E11FA5
:10460000EF5FE770E093E11FF0E0EE0FFF1FE45370
:10461000F04E918380831092DD1F9093C51F80938D
:10462000C41F2093C31F8091C81F9091C91F0B9670
:104630009093C91F8093C81F1092E01FC091E01F84
:10464000C230F1F40E94C4052091E31F822F90E054
:104650009093C71F8093C61FC093DD1FE091E11F99
:10466000F0E0EE0FFF1FE453F04E808191819093B4
:10467000C51F8093C41F2093C31F83E08093E01F56
:104680008091E01F813011F00C94634222E020936E
:10469000DD1FE091E11FF0E0EE0FFF1FE453F04E4D
:1046A000808191819093C51F8093C41F8091DC1FEE
:1046B0008093C31F2093E01F0C9463428091E01FFE
:1046C000823001F52091ED1F2093E31F1092DD1F32
:1046D000E091E11FF0E0EE0FFF1FE453F04E808108
:1046E00091819093C51F8093C41F2093C31F809115
:1046F000C81F9091C91F06969093C91F8093C81F29
:104700001092E01F2091E01F213011F00C946342C1
:1047100087E190E09093CB1F8093CA1F2093DD1F09
:104720008091ED1F90E097619093C51F8093C41F07
:104730008FE68093C31F82E08093E01F0C94634256
:104740008091E01F8330B9F50E94C4052091E31FDA
:10475000322F3F738091C61F9091C71F932B909368
:10476000C71F8093C61F3091E61FE091E11F37FFFE
:1047700008C0AE2FB0E0AA0FBB1FA453B04E8D935C
:104780009C931092DD1FF0E0EE0FFF1FE453F04EFC
:10479000808191819093C51F8093C41F2093C31F74
:1047A0008091C81F9091C91F0A969093C91F80934A
:1047B000C81F1092E01FC091E01FC230F1F40E94A8
:1047C000C4052091E31F822F90E09093C71F809330
:1047D000C61FC093DD1FE091E11FF0E0EE0FFF1F49
:1047E000E453F04E808191819093C51F8093C41F44
:1047F0002093C31F83E08093E01F8091E01F8130EE
:1048000011F00C94634222E02093DD1FE091E11F40
:10481000F0E0EE0FFF1FE453F04E80819181909302
:10482000C51F8093C41F8091DC1F8093C31F2093FA
:10483000E01F0C9463428091E01F823001F52091CB
:10484000ED1F2093E31F1092DD1FE091E11FF0E0C8
:10485000EE0FFF1FE453F04E808191819093C51FAE
:104860008093C41F2093C31F8091C81F9091C91FBC
:1048700006969093C91F8093C81F1092E01F209145
:10488000E01F213011F00C94634288E190E0909396
:10489000CB1F8093CA1F2093DD1F8091ED1F90E0F6
:1048A00098619093C51F8093C41F81E78093C31FB5
:1048B00082E08093E01F0C9463428091E01F83307C
:1048C000E1F50E94C4052091E31F322F3F738091D0
:1048D000C61F9091C71F932B9093C71F8093C61F2D
:1048E0003091E61F37FF0DC0E091E11FEF5FE770E9
:1048F000E093E11FF0E0EE0FFF1FE453F04E9183D1
:1049000080831092DD1FE091E11FF0E0EE0FFF1FAA
:10491000E453F04E808191819093C51F8093C41F12
:104920002093C31F8091C81F9091C91F0A9690932E
:10493000C91F8093C81F1092E01FC091E01FC230B2
:10494000F1F40E94C4052091E31F822F90E0909320
:10495000C71F8093C61FC093DD1FE091E11FF0E0E9
:10496000EE0FFF1FE453F04E808191819093C51F9D
:104970008093C41F2093C31F83E08093E01F809126
:10498000E01F813011F00C94634222E02093DD1F80
:10499000E091E11FF0E0EE0FFF1FE453F04E808145
:1049A00091819093C51F8093C41F8091DC1F8093D9
:1049B000C31F2093E01F0C9463428091E01F82305C
:1049C00001F52091ED1F2093E31F1092DD1FE09170
:1049D000E11FF0E0EE0FFF1FE453F04E8081918164
:1049E0009093C51F8093C41F2093C31F8091C81F3D
:1049F0009091C91F06969093C91F8093C81F10926B
:104A0000E01F2091E01F213011F00C94634289E1F6
:104A100090E09093CB1F8093CA1F2093DD1F80915D
:104A2000ED1F90E099619093C51F8093C41F83E7A9
:104A30008093C31F82E08093E01F0C9463428091B7
:104A4000E01F833059F50E94C4052091E31F322FE7
:104A50003F738091C61F9091C71F932B9093C71FE0
:104A60008093C61FE091E11FF0E0EE0FFF1FE453BB
:104A7000F04E918380831092DD1F9093C51F809329
:104A8000C41F2093C31F8091C81F9091C91F0B960C
:104A90009093C91F8093C81F1092E01FC091E01F20
:104AA000C230F1F40E94C4052091E31F822F90E0F0
:104AB0009093C71F8093C61FC093DD1FE091E11F35
:104AC000F0E0EE0FFF1FE453F04E80819181909350
:104AD000C51F8093C41F2093C31F83E08093E01FF2
:104AE0008091E01F813011F00C94634222E020930A
:104AF000DD1FE091E11FF0E0EE0FFF1FE453F04EE9
:104B0000808191819093C51F8093C41F8091DC1F89
:104B10008093C31F2093E01F0C9463428091E01F99
:104B2000823001F52091ED1F2093E31F1092DD1FCD
:104B3000E091E11FF0E0EE0FFF1FE453F04E8081A3
:104B400091819093C51F8093C41F2093C31F8091B0
:104B5000C81F9091C91F06969093C91F8093C81FC4
:104B60001092E01F2091E01F213011F00C9463425D
:104B70008AE190E09093CB1F8093CA1F2093DD1FA2
:104B80008091ED1F90E09A619093C51F8093C41FA0
:104B900085E78093C31F82E08093E01F0C946342FB
:104BA0008091E01F833079F50E94C4052091E31FB6
:104BB000322F3F738091C61F9091C71F932B909304
:104BC000C71F8093C61FE091E11FEF5FE770E0937E
:104BD000E11FF0E0EE0FFF1FE453F04E918380835E
:104BE0001092DD1F9093C51F8093C41F2093C31F95
:104BF0008091C81F9091C91F0B969093C91F8093F5
:104C0000C81F1092E01FC091E01FC230F1F40E9453
:104C1000C4052091E31F822F90E09093C71F8093DB
:104C2000C61FC093DD1FE091E11FF0E0EE0FFF1FF4
:104C3000E453F04E808191819093C51F8093C41FEF
:104C40002093C31F83E08093E01F8091E01F813099
:104C500011F00C94634222E02093DD1FE091E11FEC
:104C6000F0E0EE0FFF1FE453F04E808191819093AE
:104C7000C51F8093C41F8091DC1F8093C31F2093A6
:104C8000E01F0C9463428091E01F823001F5209177
:104C9000ED1F2093E31F1092DD1FE091E11FF0E074
:104CA000EE0FFF1FE453F04E808191819093C51F5A
:104CB0008093C41F2093C31F8091C81F9091C91F68
:104CC00006969093C91F8093C81F1092E01F2091F1
:104CD000E01F213011F00C9463428BE190E090933F
:104CE000CB1F8093CA1F2093DD1F8091ED1F90E0A2
:104CF0009B619093C51F8093C41F87E78093C31F58
:104D000082E08093E01F0C9463428091E01F833027
:104D1000C9F50E94C4051091E31F812F8F73C091C4
:104D2000C61FD091C71FD82BD093C71FC093C61FD3
:104D30008091E61F0E949805E091E11F882341F0D1
:104D4000AE2FB0E0AA0FBB1FA453B04ECD93DC939F
:104D50001092DD1FF0E0EE0FFF1FE453F04E808154
:104D600091819093C51F8093C41F1093C31F80919E
:104D7000C81F9091C91F0A969093C91F8093C81F9E
:104D80001092E01FC091E01FC230F1F40E94C405F0
:104D90002091E31F822F90E09093C71F8093C61F3E
:104DA000C093DD1FE091E11FF0E0EE0FFF1FE45321
:104DB000F04E808191819093C51F8093C41F2093F2
:104DC000C31F83E08093E01F8091E01F813011F0CA
:104DD0000C94634222E02093DD1FE091E11FF0E09C
:104DE000EE0FFF1FE453F04E808191819093C51F19
:104DF0008093C41F8091DC1F8093C31F2093E01F0A
:104E00000C9463428091E01F823001F52091ED1FE8
:104E10002093E31F1092DD1FE091E11FF0E0EE0F01
:104E2000FF1FE453F04E808191819093C51F8093C2
:104E3000C41F2093C31F8091C81F9091C91F06965D
:104E40009093C91F8093C81F1092E01F2091E01F0C
:104E5000213011F00C9463428CE190E09093CB1FD1
:104E60008093CA1F2093DD1F8091ED1F90E09C610D
:104E70009093C51F8093C41F89E78093C31F82E06E
:104E80008093E01F0C9463428091E01F8330F1F522
:104E90000E94C4051091E31F812F8F73C091C61F1C
:104EA000D091C71FD82BD093C71FC093C61F809126
:104EB000E61F0E949805882369F0E091E11FEF5FEB
:104EC000E770E093E11FF0E0EE0FFF1FE453F04EB8
:104ED000D183C0831092DD1FE091E11FF0E0EE0F5F
:104EE000FF1FE453F04E808191819093C51F809302
:104EF000C41F1093C31F8091C81F9091C91F0A96A9
:104F00009093C91F8093C81F1092E01FC091E01FAB
:104F1000C230F1F40E94C4052091E31F822F90E07B
:104F20009093C71F8093C61FC093DD1FE091E11FC0
:104F3000F0E0EE0FFF1FE453F04E808191819093DB
:104F4000C51F8093C41F2093C31F83E08093E01F7D
:104F50008091E01F813011F00C94634222E0209395
:104F6000DD1FE091E11FF0E0EE0FFF1FE453F04E74
:104F7000808191819093C51F8093C41F8091DC1F15
:104F80008093C31F2093E01F0C9463428091E01F25
:104F9000823001F52091ED1F2093E31F1092DD1F59
:104FA000E091E11FF0E0EE0FFF1FE453F04E80812F
:104FB00091819093C51F8093C41F2093C31F80913C
:104FC000C81F9091C91F06969093C91F8093C81F50
:104FD0001092E01F2091E01F213011F00C946342E9
:104FE0008DE190E09093CB1F8093CA1F2093DD1F2B
:104FF0008091ED1F90E09D619093C51F8093C41F29
:105000008BE78093C31F82E08093E01F0C94634280
:105010008091E01F833059F50E94C4052091E31F61
:10502000322F3F738091C61F9091C71F932B90938F
:10503000C71F8093C61FE091E11FF0E0EE0FFF1F36
:10504000E453F04E918380831092DD1F9093C51F2F
:105050008093C41F2093C31F8091C81F9091C91FC4
:105060000B969093C91F8093C81F1092E01FC091A8
:10507000E01FC230F1F40E94C4052091E31F822F8B
:1050800090E09093C71F8093C61FC093DD1FE091EF
:10509000E11FF0E0EE0FFF1FE453F04E808191819D
:1050A0009093C51F8093C41F2093C31F83E08093F8
:1050B000E01F8091E01F813011F00C94634222E0E8
:1050C0002093DD1FE091E11FF0E0EE0FFF1FE4539E
:1050D000F04E808191819093C51F8093C41F809171
:1050E000DC1F8093C31F2093E01F0C9463428091C8
:1050F000E01F823001F52091ED1F2093E31F1092F5
:10510000DD1FE091E11FF0E0EE0FFF1FE453F04ED2
:10511000808191819093C51F8093C41F2093C31FEA
:105120008091C81F9091C91F06969093C91F8093C4
:10513000C81F1092E01F2091E01F213011F00C9445
:1051400063428EE190E09093CB1F8093CA1F20931F
:10515000DD1F8091ED1F90E09E619093C51F8093AD
:10516000C41F8DE78093C31F82E08093E01F0C94DF
:1051700063428091E01F833079F50E94C40520913D
:10518000E31F322F3F738091C61F9091C71F932B4F
:105190009093C71F8093C61FE091E11FEF5FE770F8
:1051A000E093E11FF0E0EE0FFF1FE453F04E918318
:1051B00080831092DD1F9093C51F8093C41F20939E
:1051C000C31F8091C81F9091C91F0B969093C91F50
:1051D0008093C81F1092E01FC091E01FC230F1F40D
:1051E0000E94C4052091E31F822F90E09093C71F77
:1051F0008093C61FC093DD1FE091E11FF0E0EE0F2A
:10520000FF1FE453F04E808191819093C51F8093DE
:10521000C41F2093C31F83E08093E01F8091E01F91
:10522000813011F00C94634222E02093DD1FE09165
:10523000E11FF0E0EE0FFF1FE453F04E80819181FB
:105240009093C51F8093C41F8091DC1F8093C31F60
:105250002093E01F0C9463428091E01F823001F59F
:105260002091ED1F2093E31F1092DD1FE091E11FBD
:10527000F0E0EE0FFF1FE453F04E80819181909398
:10528000C51F8093C41F2093C31F8091C81F909196
:10529000C91F06969093C91F8093C81F1092E01FE4
:1052A0002091E01F213011F00C9463428FE190E0D7
:1052B0009093CB1F8093CA1F2093DD1F8091ED1F19
:1052C00090E09F619093C51F8093C41F8FE78093E8
:1052D000C31F82E08093E01F0C9463428091E01F23
:1052E000813011F00C9463421092E51F8091ED1F04
:1052F0000E94A3058093ED1F8093E61F1092DD1F8F
:10530000E091E11FF0E0EE0FFF1FE453F04E8081CB
:1053100091819093C51F8093C41F80E88093C31F21
:105320008091C81F9091C91F05969093C91F8093C3
:10533000C81F1092E01F0C9463428091E01F8130DF
:1053400011F00C9463421092E51F8091EC1F0E94B3
:10535000A3058093ED1F8093E61F1092DD1FE0915F
:10536000E11FF0E0EE0FFF1FE453F04E80819181CA
:105370009093C51F8093C41F81E88093C31F8091C1
:10538000C81F9091C91F05969093C91F8093C81F8D
:105390001092E01F0C9463428091E01F813011F065
:1053A0000C9463421092E51F8091EB1F0E94A305AD
:1053B0008093ED1F8093E61F1092DD1FE091E11FA7
:1053C000F0E0EE0FFF1FE453F04E80819181909347
:1053D000C51F8093C41F82E88093C31F8091C81F9C
:1053E0009091C91F05969093C91F8093C81F109272
:1053F000E01F0C9463428091E01F813011F00C9407
:1054000063421092E51F8091EA1F0E94A3058093DA
:10541000ED1F8093E61F1092DD1FE091E11FF0E089
:10542000EE0FFF1FE453F04E808191819093C51FD2
:105430008093C41F83E88093C31F8091C81F9091FD
:10544000C91F05969093C91F8093C81F1092E01F33
:105450000C9463428091E01F813011F00C94634200
:105460001092E51F8091E91F0E94A3058093ED1F14
:105470008093E61F1092DD1FE091E11FF0E0EE0F38
:10548000FF1FE453F04E808191819093C51F80935C
:10549000C41F84E88093C31F8091C81F9091C91FC7
:1054A00005969093C91F8093C81F1092E01F0C941B
:1054B00063428091E01F813011F00C94634210929E
:1054C000E51F8091E81F0E94A3058093ED1F809344
:1054D000E61F1092DD1FE091E11FF0E0EE0FFF1FCD
:1054E000E453F04E808191819093C51F8093C41F37
:1054F00085E88093C31F8091C81F9091C91F0596AE
:105500009093C91F8093C81F1092E01F0C946342B0
:105510008091E01F813011F00C9463421092E51FDE
:105520008091E71F0E94A3058093ED1F8093E61FE3
:105530001092DD1FE091E11FF0E0EE0FFF1FE4533A
:10554000F04E808191819093C51F8093C41F86E89F
:105550008093C31F8091C81F9091C91F0596909397
:10556000C91F8093C81F1092E01F0C946342809162
:10557000E01F8230A9F58091CA1F9091CB1F811541
:1055800028E1920728F4FC01EE53F84FC08101C0D6
:10559000CFEFC093E31F1092E51F8C2F0E94A3054D
:1055A0008093ED1F8093E61F1092DD1FE091E11FB5
:1055B000F0E0EE0FFF1FE453F04E20813181309375
:1055C000C51F2093C41FC093C31F8091C81F909113
:1055D000C91F08969093C91F8093C81F1092E01F9F
:1055E0008091E01F813011F00C9463428091E81F9C
:1055F00090E0982F88272091E71F822B9093CB1F54
:105600008093CA1F22E02093DD1F9093C51F8093D3
:10561000C41F87E88093C31F2093E01F0C9463424C
:105620008091E01F813011F00C9463428091ED1F56
:105630000E94A3058093ED1F8093E61F1092DD1F4B
:10564000E091E11FF0E0EE0FFF1FE453F04E808188
:1056500091819093C51F8093C41F88E88093C31FD6
:105660008091C81F9091C91F05969093C91F809380
:10567000C81F1092E01F0C9463428091E01F81309C
:1056800011F00C9463428091EC1F0E94A30580935B
:10569000ED1F8093E61F1092DD1FE091E11FF0E007
:1056A000EE0FFF1FE453F04E808191819093C51F50
:1056B0008093C41F89E88093C31F8091C81F909175
:1056C000C91F05969093C91F8093C81F1092E01FB1
:1056D0000C9463428091E01F813011F00C9463427E
:1056E0008091EB1F0E94A3058093ED1F8093E61F1E
:1056F0001092DD1FE091E11FF0E0EE0FFF1FE45379
:10570000F04E808191819093C51F8093C41F8AE8D9
:105710008093C31F8091C81F9091C91F05969093D5
:10572000C91F8093C81F1092E01F0C9463428091A0
:10573000E01F813011F00C9463428091EA1F0E94B7
:10574000A3058093ED1F8093E61F1092DD1FE0916B
:10575000E11FF0E0EE0FFF1FE453F04E80819181D6
:105760009093C51F8093C41F8BE88093C31F8091C3
:10577000C81F9091C91F05969093C91F8093C81F99
:105780001092E01F0C9463428091E01F813011F071
:105790000C9463428091E91F0E94A3058093ED1F42
:1057A0008093E61F1092DD1FE091E11FF0E0EE0F05
:1057B000FF1FE453F04E808191819093C51F809329
:1057C000C41F8CE88093C31F8091C81F9091C91F8C
:1057D00005969093C91F8093C81F1092E01F0C94E8
:1057E00063428091E01F813011F00C9463428091FC
:1057F000E81F0E94A3058093ED1F8093E61F10927F
:10580000DD1FE091E11FF0E0EE0FFF1FE453F04ECB
:10581000808191819093C51F8093C41F8DE88093F0
:10582000C31F8091C81F9091C91F05969093C91FEF
:105830008093C81F1092E01F0C9463428091E01F78
:10584000813011F00C9463428091E71F0E94A30500
:105850008093ED1F8093E61F1092DD1FE091E11F02
:10586000F0E0EE0FFF1FE453F04E808191819093A2
:10587000C51F8093C41F8EE88093C31F8091C81FEB
:105880009091C91F05969093C91F8093C81F1092CD
:10589000E01F0C9463428091E01F823099F5809163
:1058A000CA1F9091CB1F811538E1930728F4FC01A2
:1058B000EE53F84FC08101C0CFEFC093E31F8C2F90
:1058C0000E94A3058093ED1F8093E61F1092DD1FB9
:1058D000E091E11FF0E0EE0FFF1FE453F04E208156
:1058E00031813093C51F2093C41FC093C31F809183
:1058F000C81F9091C91F08969093C91F8093C81F15
:105900001092E01F8091E01F813011F00C946342EF
:105910008091E81F90E0982F88272091E71F822B25
:105920009093CB1F8093CA1F22E02093DD1F90939A
:10593000C51F8093C41F8FE88093C31F2093E01F6F
:105940000C9463428091E01F813011F00C9463420B
:105950001092E51F8091ED1F0E94B3058093ED1F0B
:105960008093E61F1092DD1FE091E11FF0E0EE0F43
:10597000FF1FE453F04E808191819093C51F809367
:10598000C41F80E98093C31F8091C81F9091C91FD5
:1059900005969093C91F8093C81F1092E01F0C9426
:1059A00063428091E01F813011F00C9463421092A9
:1059B000E51F8091EC1F0E94B3058093ED1F80933B
:1059C000E61F1092DD1FE091E11FF0E0EE0FFF1FD8
:1059D000E453F04E808191819093C51F8093C41F42
:1059E00081E98093C31F8091C81F9091C91F0596BC
:1059F0009093C91F8093C81F1092E01F0C946342BC
:105A00008091E01F813011F00C9463421092E51FE9
:105A10008091EB1F0E94B3058093ED1F8093E61FDA
:105A20001092DD1FE091E11FF0E0EE0FFF1FE45345
:105A3000F04E808191819093C51F8093C41F82E9AD
:105A40008093C31F8091C81F9091C91F05969093A2
:105A5000C91F8093C81F1092E01F0C94634280916D
:105A6000E01F813011F00C9463421092E51F809189
:105A7000EA1F0E94B3058093ED1F8093E61F1092EA
:105A8000DD1FE091E11FF0E0EE0FFF1FE453F04E49
:105A9000808191819093C51F8093C41F83E9809377
:105AA000C31F8091C81F9091C91F05969093C91F6D
:105AB0008093C81F1092E01F0C9463428091E01FF6
:105AC000813011F00C9463421092E51F8091E91F20
:105AD0000E94B3058093ED1F8093E61F1092DD1F97
