:1000000015C2000044C2000042C2000040C200000D
:100010003EC200003CC200003AC2000038C20000EC
:1000200036C2000034C2000032C2000030C20000FC
:100030002EC200002CC200002AC2000028C200000C
:1000400026C2000024C2000022C2000020C200001C
:100050001EC200001CC200001AC200000C94EE4137
:1000600016C2000014C2000012C2000010C200003C
:100070000EC200000CC200000AC2000008C200004C
:1000800006C2000004C2000002C2000000C200005C
:10009000FEC10000FCC10000FAC100000C947446CF
:1000A000F6C10000F4C10000F2C10000F0C1000080
:1000B000EEC10000ECC10000EAC10000E8C1000090
:1000C000E6C10000E4C10000E2C10000E0C10000A0
:1000D000DEC10000DCC10000DAC10000D8C10000B0
:1000E000D6C1000071059705BD05F1051A065E062B
:1000F0008706CA06F906250751078307AC07EE07EE
:1001000019085C088B08B708E30818094109850934
:10011000B009F309220A4E0A7A0AB30ADC0A1E0B56
:10012000490B8C0BBC0BE80B4D41140C3D0C820CA5
:10013000AD0CF00C1F0D4B0D4D41770DA00DE60DD4
:10014000110E550E840EB00E4D41DC0E050F4B0FF7
:10015000760FBA0F4D414D414D41E90F1210561027
:100160008110EC101D119811D71157129912081314
:100170004A13BD13FF137A14BC143C157E15ED15FC
:100180002F16A216E4165F17A11721186318D218AC
:1001900014198719C919461A881A0A1B4C1BBB1B4C
:1001A000FF1B721CC21C3D1D7F1DFF1D411EB01E8A
:1001B000F21E651FA71F22206420E420262195211E
:1001C000D7214A228C2207234923C9230B247A24CE
:1001D000BC242F257125EE253026B226F426632770
:1001E000A52718285A288928B828E7281629452934
:1001F0007429A329FC29292A562A832AB02ADD2A10
:100200000A2B372B8E2BBD2BEC2B1B2C4A2C792C3D
:10021000A82CD72C302D5D2D8A2DB72DE42D112E35
:100220003E2E6B2EC22EED2E1D2F4D2F7D2FAD2F6E
:10023000DD2F0D3066309130C130F1302131513138
:100240008131B1310A32353265329532C532F532FB
:1002500025335533AE33DB330834353462348F34D1
:10026000BC34E934403565358E35B735E03509366F
:1002700032365B36AE36D736FC3625374E377737D3
:10028000A037C9371C3845386E389338BC38E53844
:100290000E3937398839AF39D639FD39203A473ADE
:1002A0006E3A953AE63A0D3B343B5B3B823BA53BCD
:1002B000CC3BF33B443C6B3C923CB93CE03C073DBF
:1002C0002A3D513DA23DC93DF03D173E3E3E653EB3
:1002D0008C3EAF3E003F4F3F9E3FED3F3C408B404A
:1002E000DA40294111431443034307430D434B4371
:1002F00018431C43224326432A43304334433843A4
:100300004B433E434243464300000A0B02090C0D97
:100310000E080703040100000000000000000000B8
:1003200000000000000000000000000000000000CD
:10033000000000001211100000000000000000008A
:1003400000000000000000000000000000000102AA
:1003500010202008081020401020408002010201D7
:10036000080402010102040810204080804020108F
:1003700008040201800402018040201008040201E8
:100380000804020101020408102040800102040850
:100390001020408005050505070508080808020229
:1003A00002020A0A0808040404040101010101010F
:1003B00001010303030303030303040707070C0CF2
:1003C0000C0C0C0C0C0C02020202060606060606B9
:1003D00006060B0B0B0B0B0B0B0B00002000230076
:1003E000260029002C002F0032000001000003012C
:1003F0000601090100002200250028002B002E0024
:100400003100340002010000050108010B01000069
:100410002100240027002A002D00300033000101B4
:100420000000040107010A014E04D94511241FBE32
:10043000CFEFD1E2DEBFCDBF00E00CBF12E0A0E005
:10044000B2E0E0EAFFE800E00BBF02C007900D92C7
:10045000A03CB107D9F72CE1A0ECB2E001C01D929D
:10046000AD36B207E1F714E0CCE2D4E000E006C01C
:1004700022970109FE010BBF0E94CA47C832D1076B
:1004800080E00807A9F70E94E1410C94CE47B8CD5F
:10049000CF93C42F843140F4643030F4462F682F5A
:1004A00081EC92E00E945C446C2F81EC92E0CF9151
:1004B0000C94D941FF920F931F93CF93DF93D62FC4
:1004C000142F9FEF920FC1E001C0CC0F9A95EAF76D
:1004D000022F080F801771F09C2F912311F041E03B
:1004E00001C042E0FF24F394F80E6D2FD1DFC695D2
:1004F0008F2DF0CFDF91CF911F910F91FF90089535
:10050000823541F0833521F0893451F48CE003C009
:100510008BE001C08AE00E94BA4321E0892B09F0F8
:1005200020E0822F0895EF92FF920F931F93CF93B5
:10053000DF9310926F0300EA12E0C0E0D0E080E8A1
:10054000E82EF12CF80181918F010E94BA43892B8A
:1005500061F420916F03C7010C2E02C09595879519
:100560000A94E2F7282B20936F032196C830D10517
:1005700049F780916F03DF91CF911F910F91FF9009
:10058000EF900895DF92EF92FF920F931F93CF9316
:10059000DF93EC01162FF42ED22EC5DF4D2F46959A
:1005A0004695469523E061E082E084DF23E04D2F0D
:1005B00061E086E07FDFAE0196E0569547959A951B
:1005C000E1F722E061E08AE075DFAE0123E05695B5
:1005D00047952A95E1F723E061E08DE06BDF23E0AA
:1005E0004C2F61E081E166DFC12FD0E0AE0136E043
:1005F000559547953A95E1F722E062E08AE05ADFA7
:10060000AE0163E0559547956A95E1F723E062E016
:100610008DE050DF23E0412F62E081E14BDF21E0FC
:100620004E2D62E080E046DF21E04D2D62E082E069
:1006300041DF22E04F2D62E083E03CDF21E0402FEC
:1006400062E086E037DF40916F034295469546951C
:100650004370406360E080E01BDF40916F0350E037
:1006600073E0559547957A95E1F74770406360E0F0
:1006700081E00EDF40916F034770406360E082E0ED
:10068000DF91CF911F910F91FF90EF90DF9000CFFE
:10069000CF93DF93C0EAD2E062E089910E944C439D
:1006A00082E0C83AD807C1F762E08BE00E944C4371
:1006B00062E08CE00E944C4362E08AE00E944C437E
:1006C00081EC92E00E941C4581EC92E00E940A4479
:1006D00040E152E061E081EC92E00E948F4448E00A
:1006E00052E062E081EC92E00E948F4440E052E0F0
:1006F00063E081EC92E00E948F4440E260E080E0A1
:10070000C7DECFE460E281EC92E00E94D941C150A3
:10071000C9F740E560E084E0BBDE61E681EC92E091
:100720000E94D94167E681EC92E00E94D94165E6DA
:1007300081EC92E00E94D94142E563E080E0A8DECE
:1007400049E463E082E0A4DE63E581EC92E00E948C
:10075000D94164E781EC92E00E94D94148E463E02A
:1007600086E096DE41E460E08DE092DE64E681ECB6
:1007700092E00E94D94164E681EC92E00E94D94166
:1007800062E781EC92E00E94D94144E463E08DE0AD
:100790007FDE61E681EC92E00E94D94164E781EC62
:1007A00092E00E94D94161E681EC92E00E94D94139
:1007B0001092C002DF91CF910895089540E2E42F96
:1007C000EF73F0E0EE0FFF1FE05EFD4F20813181FF
:1007D0002817390729F04F5F403689F780E00895E0
:1007E000842F0895EF92FF921F93CF93DF931F9270
:1007F000CDB7DEB7182F7A018091C002811109C0F0
:1008000081E08093C00281EC92E069830E945244AF
:100810006981C7016983D2DF482F6981811101C0D5
:1008200043E082E0810F0F90DF91CF911F91FF9005
:10083000EF902ECEAC0197FD05C010926D03109283
:100840006E030895453585ED580741F410926E0307
:1008500080916D038F5F80936D03089580916E0387
:100860008031B0F460916D03643090F490E1699F41
:10087000F0011124E80FF11DEE0FFF1FE353FD4FB0
:10088000208131812417350719F051834083AADF75
:1008900080916E038F5F80936E03089524E044E19E
:1008A0006FE381EC92E00C94E3439EC0CF92DF9221
:1008B000EF92FF92CF93DF9300D01F92CDB7DEB7B8
:1008C000C2D0282F30E040E050E02115310541052D
:1008D000510549F129833A834B835C830E94384256
:1008E000C0907003D0907103E0907203F090730396
:1008F00029813A814B815C816C157D058E059F05B0
:1009000048F368EE73E080E090E00E94A2472C0D6F
:100910003D1D4E1D5F1D2093700330937103409366
:100920007203509373030F900F900F900F90DF910D
:10093000CF91FF90EF90DF90CF90089590E021E06D
:10094000882321F080FD92278695FACF81E08927C0
:1009500008952091A31B90E0820F911D20919B1B75
:10096000820F911D80937C1B90937D1B90939B1B0A
:1009700008952091A31B30E0281B310980919B1B17
:10098000281B310920937C1B30937D1B30939B1BCC
:10099000822F08958091951B81111EC0E091971BB5
:1009A000F0E0EE0FFF1FEE57F44E8081918190939F
:1009B000811B8093801B9C012F5F3F4F3F733183CE
:1009C0002083811528E1920728F4FC01E858FC4FA8
:1009D000808107C08FEF05C01092811B1092801B91
:1009E000A2DD8093991B089510929D1B10929E1B6F
:1009F00010929F1B1092A01B1092A11B1092A21B81
:100A00001092A31B1092931B1092961B10929C1B8A
:100A10001092971B10927F1B10927E1B10929B1BB3
:100A200010929A1B1092981B1092951B1092941B77
:100A3000E2E8FBE1119211928BE1E239F807D1F77C
:100A40001092781B25CEEF920F931F93CF93DF93D5
:100A50008091981B882369F08091961B811109C0B1
:100A60001092981B10929A1B81E08093951B8093A3
:100A7000941BC0919A1B8091941B811104C0CC23BC
:100A800081F00C94564183E53BDD90917603891704
:100A900011F40C945641809376038111F0CF0C949D
:100AA00056418091961B811114C074DF2091991BCF
:100AB0002093921B81E08093961B1092931B809150
:100AC000801B9091811B90937B1B80937A1B2093BA
:100AD000791B8091921B90E0FC01EE58FF4F0C9423
:100AE000C4478091961B813011F00C944F41809344
:100AF0009A1B1092931BE091971BF0E0EE0FFF1FE3
:100B0000EE57F44E8081918190937B1B80937A1BEA
:100B10001092791B80917E1B90917F1B049690937D
:100B20007F1B80937E1B1092961B0C944F4120914B
:100B3000961B213011F00C944F4120939A1B109278
:100B4000931BE091971BF0E0EE0FFF1FEE57F44E62
:100B50008081918190937B1B80937A1B2093791BDA
:100B600080917E1B90917F1B049690937F1B8093B6
:100B70007E1B1092961B0C944F418091961B8130E6
:100B800011F00C944F412091A31B30E0C901880F54
:100B9000892F881F990B80939B1B220F331F282BB3
:100BA0002093A31B1092931BE091971BF0E0EE0F94
:100BB000FF1FEE57F44E8081918190937B1B8093B1
:100BC0007A1B82E08093791B80917E1B90917F1B22
:100BD000059690937F1B80937E1B1092961B0C941E
:100BE0004F418091961B813011F00C944F41E09160
:100BF000971BE150E770E093971B1092931BF0E076
:100C0000EE0FFF1FEE57F44E8081918190937B1B76
:100C100080937A1B83E08093791B80917E1B909157
:100C20007F1B059690937F1B80937E1B1092961BD3
:100C30000C944F418091961B823039F5ABDE1092B7
:100C40009B1BC091991B8C2F84DE8093A31B8093E8
:100C50009C1B1092931BE091971BF0E0EE0FFF1F7F
:100C6000EE57F44E2081318130937B1B20937A1B09
:100C7000C093791B80917E1B90917F1B0896909367
:100C80007F1B80937E1B1092961B8091961B813058
:100C900011F00C944F4122E02093931B8091801B14
:100CA0009091811B90937B1B80937A1B8091921B68
:100CB0008093791B2093961B0C944F418091961B37
:100CC000813011F00C944F41E091971BEF5FE7707A
:100CD000E093971BF0E0EE0FFF1FEE57F44E1182EA
:100CE00010821092931B10927B1B10927A1B85E04E
:100CF0008093791B80917E1B90917F1B059690932A
:100D00007F1B80937E1B1092961B0C944F41809109
:100D1000961B823009F53EDE2091991B2093A31B80
:100D20001092931BE091971BF0E0EE0FFF1FEE5720
:100D3000F44E8081918190937B1B80937A1B20934A
:100D4000791B80917E1B90917F1B089690937F1B4F
:100D500080937E1B1092961B8091961B813011F020
:100D60000C944F4122E02093931BE091971BF0E0FD
:100D7000EE0FFF1FEE57F44E8081918190937B1B05
:100D800080937A1B8091921B8093791B2093961BF2
:100D90000C944F418091961B813011F00C944F417F
:100DA00080919B1B811106C08091971B8150877099
:100DB0008093971B1092931BE091971BF0E0EE0F2E
:100DC000FF1FEE57F44E8081918190937B1B80939F
:100DD0007A1B87E08093791B80917E1B90917F1B0B
:100DE000049690937F1B80937E1B1092961B0C940D
:100DF0004F418091961B813011F00C944F418091AE
:100E0000A21B8F5F8093A21B80939C1B1092931B4D
:100E1000E091971BF0E0EE0FFF1FEE57F44E80813C
:100E2000918190937B1B80937A1B88E08093791B40
:100E300080917E1B90917F1B059690937F1B8093E2
:100E40007E1B1092961B0C944F418091961B813013
:100E500011F00C944F418091A21B81508093A21BF2
:100E600080939C1B1092931BE091971BF0E0EE0F78
:100E7000FF1FEE57F44E8081918190937B1B8093EE
:100E80007A1B89E08093791B80917E1B90917F1B58
:100E9000059690937F1B80937E1B1092961B0C945B
:100EA0004F418091961B813011F00C944F418091FD
:100EB000A31B982F917090939B1B979599279795BB
:100EC0008695892B8093A31B1092931BE091971B0F
:100ED000F0E0EE0FFF1FEE57F44E8081918190936A
:100EE0007B1B80937A1B8AE08093791B80917E1B09
:100EF00090917F1B059690937F1B80937E1B109291
:100F0000961B0C944F418091961B813011F00C94EC
:100F10004F41E091971BE150E770E093971B1092CF
:100F2000931BF0E0EE0FFF1FEE57F44E808191818E
:100F300090937B1B80937A1B8BE08093791B80912D
:100F40007E1B90917F1B059690937F1B80937E1B49
:100F50001092961B0C944F418091961B823029F57C
:100F600019DDC091991B8C2FF4DC8093A31B809317
:100F70009C1B1092931BE091971BF0E0EE0FFF1F5C
:100F8000EE57F44E2081318130937B1B20937A1BE6
:100F9000C093791B80917E1B90917F1B0896909344
:100FA0007F1B80937E1B1092961B8091961B813035
:100FB00011F00C944F4122E02093931B8091801BF1
:100FC0009091811B90937B1B80937A1B8091921B45
:100FD0008093791B2093961B0C944F418091961B14
:100FE000813011F00C944F41E091971BEF5FE77057
:100FF000E093971BF0E0EE0FFF1FEE57F44E88E0F2
:1010000090E0918380831092931B90937B1B80933D
:101010007A1B8DE08093791B80917E1B90917F1BC2
:10102000059690937F1B80937E1B1092961B0C94C9
:101030004F418091961B823009F5ACDC2091991BC1
:101040002093A21B1092931BE091971BF0E0EE0FF0
:10105000FF1FEE57F44E8081918190937B1B80930C
:101060007A1B2093791B80917E1B90917F1B0896A1
:1010700090937F1B80937E1B1092961B8091961BF2
:10108000813011F00C944F4122E02093931BE091AA
:10109000971BF0E0EE0FFF1FEE57F44E8081918119
:1010A00090937B1B80937A1B8091921B8093791B7A
:1010B0002093961B0C944F418091961B813011F028
:1010C0000C944F4180919C1B882331F08091971B99
:1010D000815087708093971B1092931BE091971B10
:1010E000F0E0EE0FFF1FEE57F44E80819181909358
:1010F0007B1B80937A1B8FE08093791B80917E1BF2
:1011000090917F1B049690937F1B80937E1B10927F
:10111000961B0C944F418091961B813011F00C94DA
:101120004F418091A11B8F5F8093A11B80939C1BDB
:101130001092931BE091971BF0E0EE0FFF1FEE570C
:10114000F44E8081918190937B1B80937A1B80E188
:101150008093791B80917E1B90917F1B05969093C5
:101160007F1B80937E1B1092961B0C944F418091A5
:10117000961B813011F00C944F418091A11B81503E
:101180008093A11B80939C1B1092931BE091971B53
:10119000F0E0EE0FFF1FEE57F44E808191819093A7
:1011A0007B1B80937A1B81E18093791B80917E1B4E
:1011B00090917F1B059690937F1B80937E1B1092CE
:1011C000961B0C944F418091961B813011F00C942A
:1011D0004F418091A31B90E0880F991F20919B1B8A
:1011E000822B80937C1B90937D1B8093A31B9093F9
:1011F0009B1B1092931BE091971BF0E0EE0FFF1FDB
:10120000EE57F44E8081918190937B1B80937A1BE3
:1012100082E18093791B80917E1B90917F1B0596C4
:1012200090937F1B80937E1B1092961B0C944F41D2
:101230008091961B813011F00C944F41E091971BE7
:10124000E150E770E093971B1092931BF0E0EE0FD4
:10125000FF1FEE57F44E8081918190937B1B80930A
:101260007A1B83E18093791B80917E1B90917F1B79
:10127000059690937F1B80937E1B1092961B0C9477
:101280004F418091961B823039F584DB10929B1B75
:10129000C091991B8C2F6DDB8093A31B80939C1BAB
:1012A0001092931BE091971BF0E0EE0FFF1FEE579B
:1012B000F44E2081318130937B1B20937A1BC093A5
:1012C000791B80917E1B90917F1B089690937F1BCA
:1012D00080937E1B1092961B8091961B813011F09B
:1012E0000C944F4122E02093931B8091801B90919E
:1012F000811B90937B1B80937A1B8091921B809320
:10130000791B2093961B0C944F418091961B813042
:1013100011F00C944F41E091971BEF5FE770E09361
:10132000971BF0E0EE0FFF1FEE57F44E80E190E0C8
:10133000918380831092931B90937B1B80937A1BE5
:1013400085E18093791B80917E1B90917F1B059690
:1013500090937F1B80937E1B1092961B0C944F41A1
:101360008091961B823009F515DB2091991B209303
:10137000A11B1092931BE091971BF0E0EE0FFF1F53
:10138000EE57F44E8081918190937B1B80937A1B62
:101390002093791B80917E1B90917F1B08969093E0
:1013A0007F1B80937E1B1092961B8091961B813031
:1013B00011F00C944F4122E02093931BE091971B76
:1013C000F0E0EE0FFF1FEE57F44E80819181909375
:1013D0007B1B80937A1B8091921B8093791B2093B7
:1013E000961B0C944F418091961B813011F00C9408
:1013F0004F4180919C1B87FD06C08091971B8150B7
:1014000087708093971B1092931BE091971BF0E0DD
:10141000EE0FFF1FEE57F44E8081918190937B1B5E
:1014200080937A1B87E18093791B80917E1B90913A
:101430007F1B049690937F1B80937E1B1092961BBC
:101440000C944F418091961B813011F00C944F41C8
:101450008091A01B8F5F8093A01B80939C1B109298
:10146000931BE091971BF0E0EE0FFF1FEE57F44E39
:101470008081918190937B1B80937A1B88E180937C
:10148000791B80917E1B90917F1B059690937F1B0B
:1014900080937E1B1092961B0C944F418091961B5B
:1014A000813011F00C944F418091A01B81508093AA
:1014B000A01B80939C1B1092931BE091971BF0E064
:1014C000EE0FFF1FEE57F44E8081918190937B1BAE
:1014D00080937A1B89E18093791B80917E1B909188
:1014E0007F1B059690937F1B80937E1B1092961B0B
:1014F0000C944F418091961B813011F00C944F4118
:1015000080919B1B90E0982F88272091A31B822B12
:1015100090937D1B80937C1B9C013695279520938F
:10152000A31B817080939B1B1092931BE091971BD0
:10153000F0E0EE0FFF1FEE57F44E80819181909303
:101540007B1B80937A1B8AE18093791B80917E1BA1
:1015500090917F1B059690937F1B80937E1B10922A
:10156000961B0C944F418091961B813011F00C9486
:101570004F41E091971BE150E770E093971B109269
:10158000931BF0E0EE0FFF1FEE57F44E8081918128
:1015900090937B1B80937A1B8BE18093791B8091C6
:1015A0007E1B90917F1B059690937F1B80937E1BE3
:1015B0001092961B0C944F418091961B823029F516
:1015C000E9D9C091991B8C2FD4D98093A31B809308
:1015D0009C1B1092931BE091971BF0E0EE0FFF1FF6
:1015E000EE57F44E2081318130937B1B20937A1B80
:1015F000C093791B80917E1B90917F1B08969093DE
:101600007F1B80937E1B1092961B8091961B8130CE
:1016100011F00C944F4122E02093931B8091801B8A
:101620009091811B90937B1B80937A1B8091921BDE
:101630008093791B2093961B0C944F418091961BAD
:10164000813011F00C944F41E091971BEF5FE770F0
:10165000E093971BF0E0EE0FFF1FEE57F44E88E18A
:1016600090E0918380831092931B90937B1B8093D7
:101670007A1B8DE18093791B80917E1B90917F1B5B
:10168000059690937F1B80937E1B1092961B0C9463
:101690004F418091961B823009F57CD92091991B8E
:1016A0002093A01B1092931BE091971BF0E0EE0F8C
:1016B000FF1FEE57F44E8081918190937B1B8093A6
:1016C0007A1B2093791B80917E1B90917F1B08963B
:1016D00090937F1B80937E1B1092961B8091961B8C
:1016E000813011F00C944F4122E02093931BE09144
:1016F000971BF0E0EE0FFF1FEE57F44E80819181B3
:1017000090937B1B80937A1B8091921B8093791B13
:101710002093961B0C944F418091961B813011F0C1
:101720000C944F4180919C1B09D9811106C0809176
:10173000971B815087708093971B1092931BE091A9
:10174000971BF0E0EE0FFF1FEE57F44E8081918162
:1017500090937B1B80937A1B8FE18093791B809100
:101760007E1B90917F1B049690937F1B80937E1B22
:101770001092961B0C944F418091961B813011F072
:101780000C944F4180919F1B8F5F80939F1B809390
:101790009C1B1092931BE091971BF0E0EE0FFF1F34
:1017A000EE57F44E8081918190937B1B80937A1B3E
:1017B00080E28093791B80917E1B90917F1B059620
:1017C00090937F1B80937E1B1092961B0C944F412D
:1017D0008091961B813011F00C944F4180919F1B9A
:1017E000815080939F1B80939C1B1092931BE091D0
:1017F000971BF0E0EE0FFF1FEE57F44E80819181B2
:1018000090937B1B80937A1B81E28093791B80915C
:101810007E1B90917F1B059690937F1B80937E1B70
:101820001092961B0C944F418091961B813011F0C1
:101830000C944F41E091971BE150E770E093971BA8
:101840001092931BF0E0EE0FFF1FEE57F44E8081D5
:10185000918190937B1B80937A1B83E28093791B09
:1018600080917E1B90917F1B059690937F1B8093A8
:101870007E1B1092961B0C944F418091961B8230D8
:1018800041F588D810929B1B2091991B8091A31B36
:1018900082238093A31B80939C1B1092931BE09147
:1018A000971BF0E0EE0FFF1FEE57F44E8081918101
:1018B00090937B1B80937A1B2093791B80917E1BD6
:1018C00090917F1B089690937F1B80937E1B1092B4
:1018D000961B8091961B813011F00C944F4122E0B1
:1018E0002093931B8091801B9091811B90937B1B75
:1018F00080937A1B8091921B8093791B2093961B77
:101900000C944F418091961B813011F00C944F4103
:10191000E091971BEF5FE770E093971BF0E0EE0F0D
:10192000FF1FEE57F44E80E290E091838083109287
:10193000931B90937B1B80937A1B85E28093791B8A
:1019400080917E1B90917F1B059690937F1B8093C7
:101950007E1B1092961B0C944F418091961B8230F7
:1019600009F518D82091991B20939F1B1092931B67
:10197000E091971BF0E0EE0FFF1FEE57F44E8081D1
:10198000918190937B1B80937A1B2093791B80918C
:101990007E1B90917F1B089690937F1B80937E1BEC
:1019A0001092961B8091961B813011F00C944F4140
:1019B00022E02093931BE091971BF0E0EE0FFF1FB6
:1019C000EE57F44E8081918190937B1B80937A1B1C
:1019D0008091921B8093791B2093961B0C944F410E
:1019E0008091961B813011F00C944F4180919B1B8C
:1019F000882331F08091971B815087708093971BCB
:101A00001092931BE091971BF0E0EE0FFF1FEE5733
:101A1000F44E8081918190937B1B80937A1B87E2A7
:101A20008093791B80917E1B90917F1B04969093ED
:101A30007F1B80937E1B1092961B0C944F418091CC
:101A4000961B813011F00C944F4180919E1B8F5F4B
:101A500080939E1B80939C1B1092931BE091971B7D
:101A6000F0E0EE0FFF1FEE57F44E808191819093CE
:101A70007B1B80937A1B88E28093791B80917E1B6D
:101A800090917F1B059690937F1B80937E1B1092F5
:101A9000961B0C944F418091961B813011F00C9451
:101AA0004F4180919E1B815080939E1B80939C1B75
:101AB0001092931BE091971BF0E0EE0FFF1FEE5783
:101AC000F44E8081918190937B1B80937A1B89E2F5
:101AD0008093791B80917E1B90917F1B059690933C
:101AE0007F1B80937E1B1092961B0C944F4180911C
:101AF000961B813011F00C944F41E091971BE150FF
:101B0000E770E093971B1092931BF0E0EE0FFF1F1E
:101B1000EE57F44E8081918190937B1B80937A1BCA
:101B20008BE28093791B80917E1B90917F1B0596A1
:101B300090937F1B80937E1B1092961B0C944F41B9
:101B40008091961B823049F50E94CA0410929B1B1B
:101B50002091991B8091A31B82278093A31B8093C4
:101B60009C1B1092931BE091971BF0E0EE0FFF1F60
:101B7000EE57F44E8081918190937B1B80937A1B6A
:101B80002093791B80917E1B90917F1B08969093E8
:101B90007F1B80937E1B1092961B8091961B813039
:101BA00011F00C944F4122E02093931B8091801BF5
:101BB0009091811B90937B1B80937A1B8091921B49
:101BC0008093791B2093961B0C944F418091961B18
:101BD000813011F00C944F41E091971BEF5FE7705B
:101BE000E093971BF0E0EE0FFF1FEE57F44E88E2F4
:101BF00090E0918380831092931B90937B1B809342
:101C00007A1B8DE28093791B80917E1B90917F1BC4
:101C1000059690937F1B80937E1B1092961B0C94CD
:101C20004F418091961B823011F50E94CA04209189
:101C3000991B20939E1B1092931BE091971BF0E041
:101C4000EE0FFF1FEE57F44E8081918190937B1B26
:101C500080937A1B2093791B80917E1B90917F1B30
:101C6000089690937F1B80937E1B1092961B809109
:101C7000961B813011F00C944F4122E02093931B6E
:101C8000E091971BF0E0EE0FFF1FEE57F44E8081BE
:101C9000918190937B1B80937A1B8091921B809300
:101CA000791B2093961B0C944F418091961B813099
:101CB00011F00C944F4180919C1B811106C08091C2
:101CC000971B815087708093971B1092931BE09114
:101CD000971BF0E0EE0FFF1FEE57F44E80819181CD
:101CE00090937B1B80937A1B8FE28093791B80916A
:101CF0007E1B90917F1B049690937F1B80937E1B8D
:101D00001092961B0C944F418091961B813011F0DC
:101D10000C944F4180919D1B8F5F80939D1B8093FE
:101D20009C1B1092931BE091971BF0E0EE0FFF1F9E
:101D3000EE57F44E8081918190937B1B80937A1BA8
:101D400080E38093791B80917E1B90917F1B059689
:101D500090937F1B80937E1B1092961B0C944F4197
:101D60008091961B813011F00C944F4180919D1B06
:101D7000815080939D1B80939C1B1092931BE0913C
:101D8000971BF0E0EE0FFF1FEE57F44E808191811C
:101D900090937B1B80937A1B81E38093791B8091C6
:101DA0007E1B90917F1B059690937F1B80937E1BDB
:101DB0001092961B0C944F418091961B813011F02C
:101DC0000C944F41E091971BE150E770E093971B13
:101DD0001092931BF0E0EE0FFF1FEE57F44E808140
:101DE000918190937B1B80937A1B83E38093791B73
:101DF00080917E1B90917F1B059690937F1B809313
:101E00007E1B1092961B0C944F418091961B823042
:101E100049F50E94CA0410929B1B2091991B809146
:101E2000A31B822B8093A31B80939C1B1092931B5C
:101E3000E091971BF0E0EE0FFF1FEE57F44E80810C
:101E4000918190937B1B80937A1B2093791B8091C7
:101E50007E1B90917F1B089690937F1B80937E1B27
:101E60001092961B8091961B813011F00C944F417B
:101E700022E02093931B8091801B9091811B909373
:101E80007B1B80937A1B8091921B8093791B2093FC
:101E9000961B0C944F418091961B813011F00C944D
:101EA0004F41E091971BEF5FE770E093971BF0E0E5
:101EB000EE0FFF1FEE57F44E80E390E09183808396
:101EC0001092931B90937B1B80937A1B85E38093E6
:101ED000791B80917E1B90917F1B059690937F1BB1
:101EE00080937E1B1092961B0C944F418091961B01
:101EF000823011F50E94CA042091991B20939D1BEA
:101F00001092931BE091971BF0E0EE0FFF1FEE572E
:101F1000F44E8081918190937B1B80937A1B209358
:101F2000791B80917E1B90917F1B089690937F1B5D
:101F300080937E1B1092961B8091961B813011F02E
:101F40000C944F4122E02093931BE091971BF0E00B
:101F5000EE0FFF1FEE57F44E8081918190937B1B13
:101F600080937A1B8091921B8093791B2093961B00
:101F70000C944F418091961B813011F00C944F418D
:101F800080919C1B87FF06C08091971B81508770B2
:101F90008093971B1092931BE091971BF0E0EE0F3C
:101FA000FF1FEE57F44E8081918190937B1B8093AD
:101FB0007A1B87E38093791B80917E1B90917F1B16
:101FC000049690937F1B80937E1B1092961B0C941B
:101FD0004F418091961B813011F00C944F41E0915C
:101FE000971BE150E770E093971B1092931BF0E072
:101FF000EE0FFF1FEE57F44E8081918190937B1B73
:1020000080937A1B8BE38093791B80917E1B909148
:102010007F1B059690937F1B80937E1B1092961BCF
:102020000C944F418091961B823039F50E94CA046E
:1020300010929B1BC091991B8C2F0E94B904809316
:102040009C1B1092931BE091971BF0E0EE0FFF1F7B
:10205000EE57F44E2081318130937B1B20937A1B05
:10206000C093791B80917E1B90917F1B0896909363
:102070007F1B80937E1B1092961B8091961B813054
:1020800011F00C944F4122E02093931B8091801B10
:102090009091811B90937B1B80937A1B8091921B64
:1020A0008093791B2093961B0C944F418091961B33
:1020B000813011F00C944F41E091971BEF5FE77076
:1020C000E093971BF0E0EE0FFF1FEE57F44E88E30E
:1020D00090E0918380831092931B90937B1B80935D
:1020E0007A1B8DE38093791B80917E1B90917F1BDF
:1020F000059690937F1B80937E1B1092961B0C94E9
:102100004F418091961B833051F58091801B9091B7
:10211000811B2091991B811538E1930720F4FC0164
:10212000E858FC4F20831092931BE091971BF0E03E
:10213000EE0FFF1FEE57F44E8081918190937B1B31
:1021400080937A1B2093791B80917E1B90917F1B3B
:10215000099690937F1B80937E1B1092961B809113
:10216000961B8230D9F40E94CA0480919E1B90E095
:10217000982F882720919D1B822B9093811B809301
:10218000801B23E02093931B90937B1B80937A1BEF
:102190008091991B8093791B2093961B8091961BAD
:1021A000813011F00C944F4122E02093931BE09179
:1021B000971BF0E0EE0FFF1FEE57F44E80819181E8
:1021C00090937B1B80937A1B8091921B8093791B49
:1021D0002093961B0C944F418091961B813011F0F7
:1021E0000C944F4180919C1B0E949E04882331F0E7
:1021F0008091971B815087708093971B1092931B3F
:10220000E091971BF0E0EE0FFF1FEE57F44E808138
:10221000918190937B1B80937A1B8FE38093791B32
:1022200080917E1B90917F1B049690937F1B8093DF
:102230007E1B1092961B0C944F418091961B83300D
:10224000B9F50E94CA042091991B322F3F738091E7
:102250007C1B90917D1B932B90937D1B80937C1B0B
:1022600030919B1BE091971B311108C0AE2FB0E05D
:10227000AA0FBB1FAE57B44E8D939C931092931B25
:10228000F0E0EE0FFF1FEE57F44E808191819093A6
:102290007B1B80937A1B2093791B80917E1B9091EE
:1022A0007F1B0A9690937F1B80937E1B1092961B38
:1022B000C091961BC230F1F40E94CA042091991B70
:1022C000822F90E090937D1B80937C1BC093931B87
:1022D000E091971BF0E0EE0FFF1FEE57F44E808168
:1022E000918190937B1B80937A1B2093791B83E0D1
:1022F0008093961B8091961B813011F00C944F4176
:1023000022E02093931BE091971BF0E0EE0FFF1F5C
:10231000EE57F44E8081918190937B1B80937A1BC2
:102320008091921B8093791B2093961B0C944F41B4
:102330008091961B823001F52091991B2093A31B5D
:102340001092931BE091971BF0E0EE0FFF1FEE57EA
:10235000F44E8081918190937B1B80937A1B209314
:10236000791B80917E1B90917F1B089690937F1B19
:1023700080937E1B1092961B8091961B813011F0EA
:102380000C944F411092811B1092801B8093931BE1
:102390008091A31B90E090937B1B80937A1B81E438
:1023A0008093791B82E08093961B0C944F4180911F
:1023B000961B8330E1F50E94CA042091991B322FAD
:1023C0003F7380917C1B90917D1B932B90937D1B81
:1023D00080937C1B30919B1B31110DC0E091971BAA
:1023E000EF5FE770E093971BF0E0EE0FFF1FEE57F3
:1023F000F44E918380831092931BE091971BF0E041
:10240000EE0FFF1FEE57F44E8081918190937B1B5E
:1024100080937A1B2093791B80917E1B90917F1B68
:102420000A9690937F1B80937E1B1092961BC091FF
:10243000961BC230F1F40E94CA042091991B822F8E
:1024400090E090937D1B80937C1BC093931BE09145
:10245000971BF0E0EE0FFF1FEE57F44E8081918145
:1024600090937B1B80937A1B2093791B83E080934E
:10247000961B8091961B813011F00C944F4122E005
:102480002093931BE091971BF0E0EE0FFF1FEE5798
:10249000F44E8081918190937B1B80937A1B809175
:1024A000921B8093791B2093961B0C944F41809133
:1024B000961B823001F52091991B2093A31B10924B
:1024C000931BE091971BF0E0EE0FFF1FEE57F44EC9
:1024D0008081918190937B1B80937A1B2093791B41
:1024E00080917E1B90917F1B089690937F1B809319
:1024F0007E1B1092961B2091961B213011F00C949C
:102500004F4181E090E09093811B8093801B20934A
:10251000931B8091A31B90E0916090937B1B809311
:102520007A1B83E48093791B82E08093961B0C9442
:102530004F418091961B833059F50E94CA04209127
:10254000991B322F3F7380917C1B90917D1B932BA5
:1025500090937D1B80937C1BE091971BF0E0EE0F26
:10256000FF1FEE57F44E918380831092931B90933C
:102570007B1B80937A1B2093791B80917E1B90910B
:102580007F1B0B9690937F1B80937E1B1092961B54
:10259000C091961BC230F1F40E94CA042091991B8D
:1025A000822F90E090937D1B80937C1BC093931BA4
:1025B000E091971BF0E0EE0FFF1FEE57F44E808185
:1025C000918190937B1B80937A1B2093791B83E0EE
:1025D0008093961B8091961B813011F00C944F4193
:1025E00022E02093931BE091971BF0E0EE0FFF1F7A
:1025F000EE57F44E8081918190937B1B80937A1BE0
:102600008091921B8093791B2093961B0C944F41D1
:102610008091961B823001F52091991B2093A31B7A
:102620001092931BE091971BF0E0EE0FFF1FEE5707
:10263000F44E8081918190937B1B80937A1B209331
:10264000791B80917E1B90917F1B089690937F1B36
:1026500080937E1B1092961B2091961B213011F0C7
:102660000C944F4182E090E09093811B8093801BFB
:102670002093931B8091A31B90E0926090937B1B0F
:1026800080937A1B85E48093791B82E08093961B6C
:102690000C944F418091961B833079F50E94CA04B7
:1026A0002091991B322F3F7380917C1B90917D1B51
:1026B000932B90937D1B80937C1BE091971BEF5F86
:1026C000E770E093971BF0E0EE0FFF1FEE57F44E1C
:1026D000918380831092931B90937B1B80937A1B32
:1026E0002093791B80917E1B90917F1B0B9690937A
:1026F0007F1B80937E1B1092961BC091961BC2304D
:10270000F1F40E94CA042091991B822F90E09093CB
:102710007D1B80937C1BC093931BE091971BF0E083
:10272000EE0FFF1FEE57F44E8081918190937B1B3B
:1027300080937A1B2093791B83E08093961B809172
:10274000961B813011F00C944F4122E02093931B93
:10275000E091971BF0E0EE0FFF1FEE57F44E8081E3
:10276000918190937B1B80937A1B8091921B809325
:10277000791B2093961B0C944F418091961B8230BD
:1027800001F52091991B2093A31B1092931BE091BC
:10279000971BF0E0EE0FFF1FEE57F44E8081918102
:1027A00090937B1B80937A1B2093791B80917E1BD7
:1027B00090917F1B089690937F1B80937E1B1092B5
:1027C000961B2091961B213011F00C944F4183E011
:1027D00090E09093811B8093801B2093931B8091AA
:1027E000A31B90E0936090937B1B80937A1B87E4FC
:1027F0008093791B82E08093961B0C944F418091CB
:10280000961B8330B9F50E94CA042091991B322F80
:102810003F7380917C1B90917D1B932B90937D1B2C
:1028200080937C1B30919C1BE091971B332341F0DC
:10283000AE2FB0E0AA0FBB1FAE57B44E8D939C9342
:102840001092931BF0E0EE0FFF1FEE57F44E8081C5
:10285000918190937B1B80937A1B2093791B8091AD
:102860007E1B90917F1B0A9690937F1B80937E1B0B
:102870001092961BC091961BC230F1F40E94CA04BC
:102880002091991B822F90E090937D1B80937C1B5D
:10289000C093931BE091971BF0E0EE0FFF1FEE57E4
:1028A000F44E8081918190937B1B80937A1B2093BF
:1028B000791B83E08093961B8091961B813011F0E9
:1028C0000C944F4122E02093931BE091971BF0E082
:1028D000EE0FFF1FEE57F44E8081918190937B1B8A
:1028E00080937A1B8091921B8093791B2093961B77
:1028F0000C944F418091961B823001F52091991BD9
:102900002093A31B1092931BE091971BF0E0EE0F16
:10291000FF1FEE57F44E8081918190937B1B809333
:102920007A1B2093791B80917E1B90917F1B0896C8
:1029300090937F1B80937E1B1092961B2091961B79
:10294000213011F00C944F4184E090E09093811B72
:102950008093801B2093931B8091A31B90E0946035
:1029600090937B1B80937A1B89E48093791B82E090
:102970008093961B0C944F418091961B8330E1F518
:102980000E94CA042091991B322F3F7380917C1BB7
:1029900090917D1B932B90937D1B80937C1B30919A
:1029A0009C1B332369F0E091971BEF5FE770E09386
:1029B000971BF0E0EE0FFF1FEE57F44E91838083DC
:1029C0001092931BE091971BF0E0EE0FFF1FEE5764
:1029D000F44E8081918190937B1B80937A1B20938E
:1029E000791B80917E1B90917F1B0A9690937F1B91
:1029F00080937E1B1092961BC091961BC230F1F4FF
:102A00000E94CA042091991B822F90E090937D1B15
:102A100080937C1BC093931BE091971BF0E0EE0F1B
:102A2000FF1FEE57F44E8081918190937B1B809322
:102A30007A1B2093791B83E08093961B8091961BD1
:102A4000813011F00C944F4122E02093931BE091D0
:102A5000971BF0E0EE0FFF1FEE57F44E808191813F
:102A600090937B1B80937A1B8091921B8093791BA0
:102A70002093961B0C944F418091961B823001F558
:102A80002091991B2093A31B1092931BE091971BFD
:102A9000F0E0EE0FFF1FEE57F44E8081918190938E
:102AA0007B1B80937A1B2093791B80917E1B9091D6
:102AB0007F1B089690937F1B80937E1B1092961B22
:102AC0002091961B213011F00C944F4185E090E04D
:102AD0009093811B8093801B2093931B8091A31B59
:102AE00090E0956090937B1B80937A1B8BE480939E
:102AF000791B82E08093961B0C944F418091961B2A
:102B0000833059F50E94CA042091991B322F3F73DC
:102B100080917C1B90917D1B932B90937D1B8093C8
:102B20007C1BE091971BF0E0EE0FFF1FEE57F44E79
:102B3000918380831092931B90937B1B80937A1BCD
:102B40002093791B80917E1B90917F1B0B96909315
:102B50007F1B80937E1B1092961BC091961BC230E8
:102B6000F1F40E94CA042091991B822F90E0909367
:102B70007D1B80937C1BC093931BE091971BF0E01F
:102B8000EE0FFF1FEE57F44E8081918190937B1BD7
:102B900080937A1B2093791B83E08093961B80910E
:102BA000961B813011F00C944F4122E02093931B2F
:102BB000E091971BF0E0EE0FFF1FEE57F44E80817F
:102BC000918190937B1B80937A1B8091921B8093C1
:102BD000791B2093961B0C944F418091961B823059
:102BE00001F52091991B2093A31B1092931BE09158
:102BF000971BF0E0EE0FFF1FEE57F44E808191819E
:102C000090937B1B80937A1B2093791B80917E1B72
:102C100090917F1B089690937F1B80937E1B109250
:102C2000961B2091961B213011F00C944F4186E0A9
:102C300090E09093811B8093801B2093931B809145
:102C4000A31B90E0966090937B1B80937A1B8DE48E
:102C50008093791B82E08093961B0C944F41809166
:102C6000961B833079F50E94CA042091991B322F5C
:102C70003F7380917C1B90917D1B932B90937D1BC8
:102C800080937C1BE091971BEF5FE770E093971BAD
:102C9000F0E0EE0FFF1FEE57F44E91838083109209
:102CA000931B90937B1B80937A1B2093791B8091BD
:102CB0007E1B90917F1B0B9690937F1B80937E1BB6
:102CC0001092961BC091961BC230F1F40E94CA0468
:102CD0002091991B822F90E090937D1B80937C1B09
:102CE000C093931BE091971BF0E0EE0FFF1FEE5790
:102CF000F44E8081918190937B1B80937A1B20936B
:102D0000791B83E08093961B8091961B813011F094
:102D10000C944F4122E02093931BE091971BF0E02D
:102D2000EE0FFF1FEE57F44E8081918190937B1B35
:102D300080937A1B8091921B8093791B2093961B22
:102D40000C944F418091961B823001F52091991B84
:102D50002093A31B1092931BE091971BF0E0EE0FC2
:102D6000FF1FEE57F44E8081918190937B1B8093DF
:102D70007A1B2093791B80917E1B90917F1B089674
:102D800090937F1B80937E1B1092961B2091961B25
:102D9000213011F00C944F4187E090E09093811B1B
:102DA0008093801B2093931B8091A31B90E09760DE
:102DB00090937B1B80937A1B8FE48093791B82E036
:102DC0008093961B0C944F418091961B8330B9F5EC
:102DD0000E94CA042091991B322F3F7380917C1B63
:102DE00090917D1B932B90937D1B80937C1B309146
:102DF0009C1BE091971B37FD08C0AE2FB0E0AA0FD7
:102E0000BB1FAE57B44E8D939C931092931BF0E072
:102E1000EE0FFF1FEE57F44E8081918190937B1B44
:102E200080937A1B2093791B80917E1B90917F1B4E
:102E30000A9690937F1B80937E1B1092961BC091E5
:102E4000961BC230F1F40E94CA042091991B822F74
:102E500090E090937D1B80937C1BC093931BE0912B
:102E6000971BF0E0EE0FFF1FEE57F44E808191812B
:102E700090937B1B80937A1B2093791B83E0809334
:102E8000961B8091961B813011F00C944F4122E0EB
:102E90002093931BE091971BF0E0EE0FFF1FEE577E
:102EA000F44E8081918190937B1B80937A1B80915B
:102EB000921B8093791B2093961B0C944F41809119
:102EC000961B823001F52091A31B2093991B109231
:102ED000931BE091971BF0E0EE0FFF1FEE57F44EAF
:102EE0008081918190937B1B80937A1B2093791B27
:102EF00080917E1B90917F1B069690937F1B809301
:102F00007E1B1092961B2091961B213011F00C9481
:102F10004F4188E090E09093811B8093801B209329
:102F2000931B8091A31B90E0986090937B1B8093F0
:102F30007A1B81E58093791B82E08093961B0C9429
:102F40004F418091961B8330E1F50E94CA04209185
:102F5000991B322F3F7380917C1B90917D1B932B8B
:102F600090937D1B80937C1B30919C1B37FD0DC083
:102F7000E091971BEF5FE770E093971BF0E0EE0F97
:102F8000FF1FEE57F44E918380831092931BE091C4
:102F9000971BF0E0EE0FFF1FEE57F44E80819181FA
:102FA00090937B1B80937A1B2093791B80917E1BCF
:102FB00090917F1B0A9690937F1B80937E1B1092AB
:102FC000961BC091961BC230F1F40E94CA04209156
:102FD000991B822F90E090937D1B80937C1BC09364
:102FE000931BE091971BF0E0EE0FFF1FEE57F44E9E
:102FF0008081918190937B1B80937A1B2093791B16
:1030000083E08093961B8091961B813011F00C9485
:103010004F4122E02093931BE091971BF0E0EE0FCD
:10302000FF1FEE57F44E8081918190937B1B80931C
:103030007A1B8091921B8093791B2093961B0C9492
:103040004F418091961B823001F52091A31B209364
:10305000991B1092931BE091971BF0E0EE0FFF1F5E
:10306000EE57F44E8081918190937B1B80937A1B65
:103070002093791B80917E1B90917F1B06969093E5
:103080007F1B80937E1B1092961B2091961B2130F4
:1030900011F00C944F4189E090E09093811B809354
:1030A000801B2093931B8091A31B90E099609093C9
:1030B0007B1B80937A1B83E58093791B82E080934E
:1030C000961B0C944F418091961B833059F50E94BA
:1030D000CA042091991B322F3F7380917C1B9091E1
:1030E0007D1B932B90937D1B80937C1BE091971B02
:1030F000F0E0EE0FFF1FEE57F44E918380831092A5
:10310000931B90937B1B80937A1B2093791B809158
:103110007E1B90917F1B0B9690937F1B80937E1B51
:103120001092961BC091961BC230F1F40E94CA0403
:103130002091991B822F90E090937D1B80937C1BA4
:10314000C093931BE091971BF0E0EE0FFF1FEE572B
:10315000F44E8081918190937B1B80937A1B209306
:10316000791B83E08093961B8091961B813011F030
:103170000C944F4122E02093931BE091971BF0E0C9
:10318000EE0FFF1FEE57F44E8081918190937B1BD1
:1031900080937A1B8091921B8093791B2093961BBE
:1031A0000C944F418091961B823001F52091A31B16
:1031B0002093991B1092931BE091971BF0E0EE0F68
:1031C000FF1FEE57F44E8081918190937B1B80937B
:1031D0007A1B2093791B80917E1B90917F1B069612
:1031E00090937F1B80937E1B1092961B2091961BC1
:1031F000213011F00C944F418AE090E09093811BB4
:103200008093801B2093931B8091A31B90E09A6076
:1032100090937B1B80937A1B85E58093791B82E0DA
:103220008093961B0C944F418091961B833079F5C7
:103230000E94CA042091991B322F3F7380917C1BFE
:1032400090917D1B932B90937D1B80937C1BE09131
:10325000971BEF5FE770E093971BF0E0EE0FFF1F07
:10326000EE57F44E918380831092931B90937B1BB7
:1032700080937A1B2093791B80917E1B90917F1BFA
:103280000B9690937F1B80937E1B1092961BC09190
:10329000961BC230F1F40E94CA042091991B822F20
:1032A00090E090937D1B80937C1BC093931BE091D7
:1032B000971BF0E0EE0FFF1FEE57F44E80819181D7
:1032C00090937B1B80937A1B2093791B83E08093E0
:1032D000961B8091961B813011F00C944F4122E097
:1032E0002093931BE091971BF0E0EE0FFF1FEE572A
:1032F000F44E8081918190937B1B80937A1B809107
:10330000921B8093791B2093961B0C944F418091C4
:10331000961B823001F52091A31B2093991B1092DC
:10332000931BE091971BF0E0EE0FFF1FEE57F44E5A
:103330008081918190937B1B80937A1B2093791BD2
:1033400080917E1B90917F1B069690937F1B8093AC
:103350007E1B1092961B2091961B213011F00C942D
:103360004F418BE090E09093811B8093801B2093D2
:10337000931B8091A31B90E09B6090937B1B809399
:103380007A1B87E58093791B82E08093961B0C94CF
:103390004F418091961B8330C9F50E94CA04109159
:1033A000991B812F8F73C0917C1BD0917D1BD82BD3
:1033B000D0937D1BC0937C1B80919C1B0E949E041C
:1033C000E091971B811108C0AE2FB0E0AA0FBB1F80
:1033D000AE57B44ECD93DC931092931BF0E0EE0FFA
:1033E000FF1FEE57F44E8081918190937B1B809359
:1033F0007A1B1093791B80917E1B90917F1B0A96FC
:1034000090937F1B80937E1B1092961BC091961BFE
:10341000C230F1F40E94CA042091991B822F90E0DF
:1034200090937D1B80937C1BC093931BE091971B13
:10343000F0E0EE0FFF1FEE57F44E808191819093E4
:103440007B1B80937A1B2093791B83E08093961BD0
:103450008091961B813011F00C944F4122E0209313
:10346000931BE091971BF0E0EE0FFF1FEE57F44E19
:103470008081918190937B1B80937A1B8091921B1A
:103480008093791B2093961B0C944F418091961B3F
:10349000823001F52091A31B2093991B1092931B5E
:1034A000E091971BF0E0EE0FFF1FEE57F44E808186
:1034B000918190937B1B80937A1B2093791B809141
:1034C0007E1B90917F1B069690937F1B80937E1BA3
:1034D0001092961B2091961B213011F00C944F41B5
:1034E0008CE090E09093811B8093801B2093931B32
:1034F0008091A31B90E09C6090937B1B80937A1B30
:1035000089E58093791B82E08093961B0C944F4150
:103510008091961B8330F1F50E94CA041091991B8B
:10352000812F8F73C0917C1BD0917D1BD82BD093A2
:103530007D1BC0937C1B80919C1B0E949E0481116B
:103540000DC0E091971BEF5FE770E093971BF0E0F1
:10355000EE0FFF1FEE57F44ED183C0831092931BE2
:10356000E091971BF0E0EE0FFF1FEE57F44E8081C5
:10357000918190937B1B80937A1B1093791B809190
:103580007E1B90917F1B0A9690937F1B80937E1BDE
:103590001092961BC091961BC230F1F40E94CA048F
:1035A0002091991B822F90E090937D1B80937C1B30
:1035B000C093931BE091971BF0E0EE0FFF1FEE57B7
:1035C000F44E8081918190937B1B80937A1B209392
:1035D000791B83E08093961B8091961B813011F0BC
:1035E0000C944F4122E02093931BE091971BF0E055
:1035F000EE0FFF1FEE57F44E8081918190937B1B5D
:1036000080937A1B8091921B8093791B2093961B49
:103610000C944F418091961B823001F52091A31BA1
:103620002093991B1092931BE091971BF0E0EE0FF3
:10363000FF1FEE57F44E8081918190937B1B809306
:103640007A1B2093791B80917E1B90917F1B06969D
:1036500090937F1B80937E1B1092961B2091961B4C
:10366000213011F00C944F418DE090E09093811B3C
:103670008093801B2093931B8091A31B90E09D60FF
:1036800090937B1B80937A1B8BE58093791B82E060
:103690008093961B0C944F418091961B833059F573
:1036A0000E94CA042091991B322F3F7380917C1B8A
:1036B00090917D1B932B90937D1B80937C1BE091BD
:1036C000971BF0E0EE0FFF1FEE57F44E91838083BF
:1036D0001092931B90937B1B80937A1B2093791BF2
:1036E00080917E1B90917F1B0B9690937F1B809304
:1036F0007E1B1092961BC091961BC230F1F40E9463
:10370000CA042091991B822F90E090937D1B809397
:103710007C1BC093931BE091971BF0E0EE0FFF1F03
:10372000EE57F44E8081918190937B1B80937A1B9E
:103730002093791B83E08093961B8091961B8130A8
:1037400011F00C944F4122E02093931BE091971BC2
:10375000F0E0EE0FFF1FEE57F44E808191819093C1
:103760007B1B80937A1B8091921B8093791B209303
:10377000961B0C944F418091961B823011F520913D
:10378000A31B2093991B209374031092931BE09129
:10379000971BF0E0EE0FFF1FEE57F44E80819181F2
:1037A00090937B1B80937A1B2093791B80917E1BC7
:1037B00090917F1B069690937F1B80937E1B1092A7
:1037C000961B2091961B213011F00C944F418EE0F6
:1037D00090E09093811B8093801B2093931B80919A
:1037E000A31B90E09E6090937B1B80937A1B8DE5DA
:1037F0008093791B82E08093961B0C944F418091BB
:10380000961B833079F50E94CA042091991B322FB0
:103810003F7380917C1B90917D1B932B90937D1B1C
:1038200080937C1BE091971BEF5FE770E093971B01
:10383000F0E0EE0FFF1FEE57F44E9183808310925D
:10384000931B90937B1B80937A1B2093791B809111
:103850007E1B90917F1B0B9690937F1B80937E1B0A
:103860001092961BC091961BC230F1F40E94CA04BC
:103870002091991B822F90E090937D1B80937C1B5D
:10388000C093931BE091971BF0E0EE0FFF1FEE57E4
:10389000F44E8081918190937B1B80937A1B2093BF
:1038A000791B83E08093961B8091961B813011F0E9
:1038B0000C944F4122E02093931BE091971BF0E082
:1038C000EE0FFF1FEE57F44E8081918190937B1B8A
:1038D00080937A1B8091921B8093791B2093961B77
:1038E0000C944F418091961B823069F58091A31B07
:1038F0008093991B90E0982F882720917403822B46
:103900000E941A0481E08093781B1092931BE0912F
:10391000971BF0E0EE0FFF1FEE57F44E8081918170
:1039200090937B1B80937A1B8091A31B8093791BC0
:1039300080917E1B90917F1B069690937F1B8093B6
:103940007E1B1092961B2091961B213011F00C9437
:103950004F418FE090E09093811B8093801B2093D8
:10396000931B8091A31B90E09F6090937B1B80939F
:103970007A1B8091921B8093791B82E08093961B27
:103980000C944F418091961B8330B9F50E94CA0474
:103990002091991B322F3F7380917C1B90917D1B4E
:1039A000932B90937D1B80937C1B30919B1BE0910C
:1039B000971B332341F0AE2FB0E0AA0FBB1FAE57C9
:1039C000B44E8D939C931092931BF0E0EE0FFF1F6B
:1039D000EE57F44E8081918190937B1B80937A1BEC
:1039E0002093791B80917E1B90917F1B0A96909368
:1039F0007F1B80937E1B1092961BC091961BC2303A
:103A0000F1F40E94CA042091991B822F90E09093B8
:103A10007D1B80937C1BC093931BE091971BF0E070
:103A2000EE0FFF1FEE57F44E8081918190937B1B28
:103A300080937A1B2093791B83E08093961B80915F
:103A4000961B813011F00C944F4122E02093931B80
:103A5000E091971BF0E0EE0FFF1FEE57F44E8081D0
:103A6000918190937B1B80937A1B8091921B809312
:103A7000791B2093961B0C944F418091961B8230AA
:103A800001F52091A31B2093991B1092931BE091A9
:103A9000971BF0E0EE0FFF1FEE57F44E80819181EF
:103AA00090937B1B80937A1B2093791B80917E1BC4
:103AB00090917F1B069690937F1B80937E1B1092A4
:103AC000961B2091961B213011F00C944F4180E100
:103AD00090E09093811B8093801B2093931B809197
:103AE000A31B90E0906190937B1B80937A1B81E6EF
:103AF0008093791B82E08093961B0C944F418091B8
:103B0000961B8330E1F50E94CA042091991B322F45
:103B10003F7380917C1B90917D1B932B90937D1B19
:103B200080937C1B30919B1B332369F0E091971BA2
:103B3000EF5FE770E093971BF0E0EE0FFF1FEE578B
:103B4000F44E918380831092931BE091971BF0E0D9
:103B5000EE0FFF1FEE57F44E8081918190937B1BF7
:103B600080937A1B2093791B80917E1B90917F1B01
:103B70000A9690937F1B80937E1B1092961BC09198
:103B8000961BC230F1F40E94CA042091991B822F27
:103B900090E090937D1B80937C1BC093931BE091DE
:103BA000971BF0E0EE0FFF1FEE57F44E80819181DE
:103BB00090937B1B80937A1B2093791B83E08093E7
:103BC000961B8091961B813011F00C944F4122E09E
:103BD0002093931BE091971BF0E0EE0FFF1FEE5731
:103BE000F44E8081918190937B1B80937A1B80910E
:103BF000921B8093791B2093961B0C944F418091CC
:103C0000961B823001F52091A31B2093991B1092E3
:103C1000931BE091971BF0E0EE0FFF1FEE57F44E61
:103C20008081918190937B1B80937A1B2093791BD9
:103C300080917E1B90917F1B069690937F1B8093B3
:103C40007E1B1092961B2091961B213011F00C9434
:103C50004F4181E190E09093811B8093801B2093E2
:103C6000931B8091A31B90E0916190937B1B8093A9
:103C70007A1B83E68093791B82E08093961B0C94D9
:103C80004F418091961B833059F50E94CA042091C0
:103C9000991B322F3F7380917C1B90917D1B932B3E
:103CA00090937D1B80937C1BE091971BF0E0EE0FBF
:103CB000FF1FEE57F44E918380831092931B9093D5
:103CC0007B1B80937A1B2093791B80917E1B9091A4
:103CD0007F1B0B9690937F1B80937E1B1092961BED
:103CE000C091961BC230F1F40E94CA042091991B26
:103CF000822F90E090937D1B80937C1BC093931B3D
:103D0000E091971BF0E0EE0FFF1FEE57F44E80811D
:103D1000918190937B1B80937A1B2093791B83E086
:103D20008093961B8091961B813011F00C944F412B
:103D300022E02093931BE091971BF0E0EE0FFF1F12
:103D4000EE57F44E8081918190937B1B80937A1B78
:103D50008091921B8093791B2093961B0C944F416A
:103D60008091961B823001F52091A31B2093991B13
:103D70001092931BE091971BF0E0EE0FFF1FEE57A0
:103D8000F44E8081918190937B1B80937A1B2093CA
:103D9000791B80917E1B90917F1B069690937F1BD1
:103DA00080937E1B1092961B2091961B213011F060
:103DB0000C944F4182E190E09093811B8093801B93
:103DC0002093931B8091A31B90E0926190937B1BA7
:103DD00080937A1B85E68093791B82E08093961B03
:103DE0000C944F418091961B833079F50E94CA0450
:103DF0002091991B322F3F7380917C1B90917D1BEA
:103E0000932B90937D1B80937C1BE091971BEF5F1E
:103E1000E770E093971BF0E0EE0FFF1FEE57F44EB4
:103E2000918380831092931B90937B1B80937A1BCA
:103E30002093791B80917E1B90917F1B0B96909312
:103E40007F1B80937E1B1092961BC091961BC230E5
:103E5000F1F40E94CA042091991B822F90E0909364
:103E60007D1B80937C1BC093931BE091971BF0E01C
:103E7000EE0FFF1FEE57F44E8081918190937B1BD4
:103E800080937A1B2093791B83E08093961B80910B
:103E9000961B813011F00C944F4122E02093931B2C
:103EA000E091971BF0E0EE0FFF1FEE57F44E80817C
:103EB000918190937B1B80937A1B8091921B8093BE
:103EC000791B2093961B0C944F418091961B823056
:103ED00001F52091A31B2093991B1092931BE09155
:103EE000971BF0E0EE0FFF1FEE57F44E808191819B
:103EF00090937B1B80937A1B2093791B80917E1B70
:103F000090917F1B069690937F1B80937E1B10924F
:103F1000961B2091961B213011F00C944F4183E1A8
:103F200090E09093811B8093801B2093931B809142
:103F3000A31B90E0936190937B1B80937A1B87E691
:103F40008093791B82E08093961B0C944F41809163
:103F5000961B8330B9F50E94CA042091991B322F19
:103F60003F7380917C1B90917D1B932B90937D1BC5
:103F700080937C1B30919C1BE091971B311108C0F2
:103F8000AE2FB0E0AA0FBB1FAE57B44E8D939C93DB
:103F90001092931BF0E0EE0FFF1FEE57F44E80815E
:103FA000918190937B1B80937A1B2093791B809146
:103FB0007E1B90917F1B0A9690937F1B80937E1BA4
:103FC0001092961BC091961BC230F1F40E94CA0455
:103FD0002091991B822F90E090937D1B80937C1BF6
:103FE000C093931BE091971BF0E0EE0FFF1FEE577D
:103FF000F44E8081918190937B1B80937A1B209358
:10400000791B83E08093961B8091961B813011F081
:104010000C944F4122E02093931BE091971BF0E01A
:10402000EE0FFF1FEE57F44E8081918190937B1B22
:1040300080937A1B8091921B8093791B2093961B0F
:104040000C944F418091961B823001F52091A31B67
:104050002093991B1092931BE091971BF0E0EE0FB9
:10406000FF1FEE57F44E8081918190937B1B8093CC
:104070007A1B2093791B80917E1B90917F1B069663
:1040800090937F1B80937E1B1092961B2091961B12
:10409000213011F00C944F4184E190E09093811B0A
:1040A0008093801B2093931B8091A31B90E09461CD
:1040B00090937B1B80937A1B89E68093791B82E027
:1040C0008093961B0C944F418091961B8330E1F5B1
:1040D0000E94CA042091991B322F3F7380917C1B50
:1040E00090917D1B932B90937D1B80937C1B309133
:1040F0009C1B31110DC0E091971BEF5FE770E093BF
:10410000971BF0E0EE0FFF1FEE57F44E9183808374
:104110001092931BE091971BF0E0EE0FFF1FEE57FC
:10412000F44E8081918190937B1B80937A1B209326
:10413000791B80917E1B90917F1B0A9690937F1B29
:1041400080937E1B1092961BC091961BC230F1F497
:104150000E94CA042091991B822F90E090937D1BAE
:1041600080937C1BC093931BE091971BF0E0EE0FB4
:10417000FF1FEE57F44E8081918190937B1B8093BB
:104180007A1B2093791B83E08093961B8091961B6A
:10419000813011F00C944F4122E02093931BE09169
:1041A000971BF0E0EE0FFF1FEE57F44E80819181D8
:1041B00090937B1B80937A1B8091921B8093791B39
:1041C0002093961B0C944F418091961B823001F5F1
:1041D0002091A31B2093991B1092931BE091971B96
:1041E000F0E0EE0FFF1FEE57F44E80819181909327
:1041F0007B1B80937A1B2093791B80917E1B90916F
:104200007F1B069690937F1B80937E1B1092961BBC
:104210002091961B213011F00C944F4185E190E0E4
:104220009093811B8093801B2093931B8091A31BF1
:1042300090E0956190937B1B80937A1B8BE6809333
:10424000791B82E08093961B0C944F418091961BC2
:10425000833059F50E94CA042091991B322F3F7375
:1042600080917C1B90917D1B932B90937D1B809361
:104270007C1BE091971BF0E0EE0FFF1FEE57F44E12
:10428000918380831092931B90937B1B80937A1B66
:104290002093791B80917E1B90917F1B0B969093AE
:1042A0007F1B80937E1B1092961BC091961BC23081
:1042B000F1F40E94CA042091991B822F90E0909300
:1042C0007D1B80937C1BC093931BE091971BF0E0B8
:1042D000EE0FFF1FEE57F44E8081918190937B1B70
:1042E00080937A1B2093791B83E08093961B8091A7
:1042F000961B813011F00C944F4122E02093931BC8
:10430000E091971BF0E0EE0FFF1FEE57F44E808117
:10431000918190937B1B80937A1B8091921B809359
:10432000791B2093961B0C944F418091961B8230F1
:1043300001F52091A31B2093991B1092931BE091F0
:10434000971BF0E0EE0FFF1FEE57F44E8081918136
:1043500090937B1B80937A1B2093791B80917E1B0B
:1043600090917F1B069690937F1B80937E1B1092EB
:10437000961B2091961B213011F00C944F4186E141
:1043800090E09093811B8093801B2093931B8091DE
:10439000A31B90E0966190937B1B80937A1B8DE624
:1043A0008093791B82E08093961B0C944F418091FF
:1043B000961B833079F50E94CA042091991B322FF5
:1043C0003F7380917C1B90917D1B932B90937D1B61
:1043D00080937C1BE091971BEF5FE770E093971B46
:1043E000F0E0EE0FFF1FEE57F44E918380831092A2
:1043F000931B90937B1B80937A1B2093791B809156
:104400007E1B90917F1B0B9690937F1B80937E1B4E
:104410001092961BC091961BC230F1F40E94CA0400
:104420002091991B822F90E090937D1B80937C1BA1
:10443000C093931BE091971BF0E0EE0FFF1FEE5728
:10444000F44E8081918190937B1B80937A1B209303
:10445000791B83E08093961B8091961B813011F02D
:104460000C944F4122E02093931BE091971BF0E0C6
:10447000EE0FFF1FEE57F44E8081918190937B1BCE
:1044800080937A1B8091921B8093791B2093961BBB
:104490000C944F418091961B823001F52091A31B13
:1044A0002093991B1092931BE091971BF0E0EE0F65
:1044B000FF1FEE57F44E8081918190937B1B809378
:1044C0007A1B2093791B80917E1B90917F1B06960F
:1044D00090937F1B80937E1B1092961B2091961BBE
:1044E000213011F00C944F4187E190E09093811BB3
:1044F0008093801B2093931B8091A31B90E0976176
:1045000090937B1B80937A1B8FE68093791B82E0CC
:104510008093961B0C944F418091961B8330B9F584
:104520000E94CA042091991B322F3F7380917C1BFB
:1045300090917D1B932B90937D1B80937C1B3091DE
:104540009C1BE091971B37FF08C0AE2FB0E0AA0F6D
:10455000BB1FAE57B44E8D939C931092931BF0E00B
:10456000EE0FFF1FEE57F44E8081918190937B1BDD
:1045700080937A1B2093791B80917E1B90917F1BE7
:104580000A9690937F1B80937E1B1092961BC0917E
:10459000961BC230F1F40E94CA042091991B822F0D
:1045A00090E090937D1B80937C1BC093931BE091C4
:1045B000971BF0E0EE0FFF1FEE57F44E80819181C4
:1045C00090937B1B80937A1B2093791B83E08093CD
:1045D000961B8091961B813011F00C944F4122E084
:1045E0002093931BE091971BF0E0EE0FFF1FEE5717
:1045F000F44E8081918190937B1B80937A1B8091F4
:10460000921B8093791B2093961B0C944F418091B1
:10461000961B823001F52091A31B2093991B1092C9
:10462000931BE091971BF0E0EE0FFF1FEE57F44E47
:104630008081918190937B1B80937A1B2093791BBF
:1046400080917E1B90917F1B069690937F1B809399
:104650007E1B1092961B2091961B213011F00C941A
:104660004F4188E190E09093811B8093801B2093C1
:10467000931B8091A31B90E0986190937B1B809388
:104680007A1B81E78093791B82E08093961B0C94C0
:104690004F418091961B8330E1F50E94CA0420911E
:1046A000991B322F3F7380917C1B90917D1B932B24
:1046B00090937D1B80937C1B30919C1B37FF0DC01A
:1046C000E091971BEF5FE770E093971BF0E0EE0F30
:1046D000FF1FEE57F44E918380831092931BE0915D
:1046E000971BF0E0EE0FFF1FEE57F44E8081918193
:1046F00090937B1B80937A1B2093791B80917E1B68
:1047000090917F1B0A9690937F1B80937E1B109243
:10471000961BC091961BC230F1F40E94CA042091EE
:10472000991B822F90E090937D1B80937C1BC093FC
:10473000931BE091971BF0E0EE0FFF1FEE57F44E36
:104740008081918190937B1B80937A1B2093791BAE
:1047500083E08093961B8091961B813011F00C941E
:104760004F4122E02093931BE091971BF0E0EE0F66
:10477000FF1FEE57F44E8081918190937B1B8093B5
:104780007A1B8091921B8093791B2093961B0C942B
:104790004F418091961B823001F52091A31B2093FD
:1047A000991B1092931BE091971BF0E0EE0FFF1FF7
:1047B000EE57F44E8081918190937B1B80937A1BFE
:1047C0002093791B80917E1B90917F1B069690937E
:1047D0007F1B80937E1B1092961B2091961B21308D
:1047E00011F00C944F4189E190E09093811B8093EC
:1047F000801B2093931B8091A31B90E09961909361
:104800007B1B80937A1B83E78093791B82E08093E4
:10481000961B0C944F418091961B833059F50E9452
:10482000CA042091991B322F3F7380917C1B909179
:104830007D1B932B90937D1B80937C1BE091971B9A
:10484000F0E0EE0FFF1FEE57F44E9183808310923D
:10485000931B90937B1B80937A1B2093791B8091F1
:104860007E1B90917F1B0B9690937F1B80937E1BEA
:104870001092961BC091961BC230F1F40E94CA049C
:104880002091991B822F90E090937D1B80937C1B3D
:10489000C093931BE091971BF0E0EE0FFF1FEE57C4
:1048A000F44E8081918190937B1B80937A1B20939F
:1048B000791B83E08093961B8091961B813011F0C9
:1048C0000C944F4122E02093931BE091971BF0E062
:1048D000EE0FFF1FEE57F44E8081918190937B1B6A
:1048E00080937A1B8091921B8093791B2093961B57
:1048F0000C944F418091961B823001F52091A31BAF
:104900002093991B1092931BE091971BF0E0EE0F00
:10491000FF1FEE57F44E8081918190937B1B809313
:104920007A1B2093791B80917E1B90917F1B0696AA
:1049300090937F1B80937E1B1092961B2091961B59
:10494000213011F00C944F418AE190E09093811B4B
:104950008093801B2093931B8091A31B90E09A610E
:1049600090937B1B80937A1B85E78093791B82E071
:104970008093961B0C944F418091961B833079F560
:104980000E94CA042091991B322F3F7380917C1B97
:1049900090917D1B932B90937D1B80937C1BE091CA
:1049A000971BEF5FE770E093971BF0E0EE0FFF1FA0
:1049B000EE57F44E918380831092931B90937B1B50
:1049C00080937A1B2093791B80917E1B90917F1B93
:1049D0000B9690937F1B80937E1B1092961BC09129
:1049E000961BC230F1F40E94CA042091991B822FB9
:1049F00090E090937D1B80937C1BC093931BE09170
:104A0000971BF0E0EE0FFF1FEE57F44E808191816F
:104A100090937B1B80937A1B2093791B83E0809378
:104A2000961B8091961B813011F00C944F4122E02F
:104A30002093931BE091971BF0E0EE0FFF1FEE57C2
:104A4000F44E8081918190937B1B80937A1B80919F
:104A5000921B8093791B2093961B0C944F4180915D
:104A6000961B823001F52091A31B2093991B109275
:104A7000931BE091971BF0E0EE0FFF1FEE57F44EF3
:104A80008081918190937B1B80937A1B2093791B6B
:104A900080917E1B90917F1B069690937F1B809345
:104AA0007E1B1092961B2091961B213011F00C94C6
:104AB0004F418BE190E09093811B8093801B20936A
:104AC000931B8091A31B90E09B6190937B1B809331
:104AD0007A1B87E78093791B82E08093961B0C9466
:104AE0004F418091961B8330C9F50E94CA041091F2
:104AF000991B812F8F73C0917C1BD0917D1BD82B6C
:104B0000D0937D1BC0937C1B80919C1B0E949E04B4
:104B1000E091971B882341F0AE2FB0E0AA0FBB1F96
:104B2000AE57B44ECD93DC931092931BF0E0EE0F92
:104B3000FF1FEE57F44E8081918190937B1B8093F1
:104B40007A1B1093791B80917E1B90917F1B0A9694
:104B500090937F1B80937E1B1092961BC091961B97
:104B6000C230F1F40E94CA042091991B822F90E078
:104B700090937D1B80937C1BC093931BE091971BAC
:104B8000F0E0EE0FFF1FEE57F44E8081918190937D
:104B90007B1B80937A1B2093791B83E08093961B69
:104BA0008091961B813011F00C944F4122E02093AC
:104BB000931BE091971BF0E0EE0FFF1FEE57F44EB2
:104BC0008081918190937B1B80937A1B8091921BB3
:104BD0008093791B2093961B0C944F418091961BD8
:104BE000823001F52091A31B2093991B1092931BF7
:104BF000E091971BF0E0EE0FFF1FEE57F44E80811F
:104C0000918190937B1B80937A1B2093791B8091D9
:104C10007E1B90917F1B069690937F1B80937E1B3B
:104C20001092961B2091961B213011F00C944F414D
:104C30008CE190E09093811B8093801B2093931BC9
:104C40008091A31B90E09C6190937B1B80937A1BC7
:104C500089E78093791B82E08093961B0C944F41E7
:104C60008091961B8330F1F50E94CA041091991B24
:104C7000812F8F73C0917C1BD0917D1BD82BD0933B
:104C80007D1BC0937C1B80919C1B0E949E048823EB
:104C900069F0E091971BEF5FE770E093971BF0E0FE
:104CA000EE0FFF1FEE57F44ED183C0831092931B7B
:104CB000E091971BF0E0EE0FFF1FEE57F44E80815E
:104CC000918190937B1B80937A1B1093791B809129
:104CD0007E1B90917F1B0A9690937F1B80937E1B77
:104CE0001092961BC091961BC230F1F40E94CA0428
:104CF0002091991B822F90E090937D1B80937C1BC9
:104D0000C093931BE091971BF0E0EE0FFF1FEE574F
:104D1000F44E8081918190937B1B80937A1B20932A
:104D2000791B83E08093961B8091961B813011F054
:104D30000C944F4122E02093931BE091971BF0E0ED
:104D4000EE0FFF1FEE57F44E8081918190937B1BF5
:104D500080937A1B8091921B8093791B2093961BE2
:104D60000C944F418091961B823001F52091A31B3A
:104D70002093991B1092931BE091971BF0E0EE0F8C
:104D8000FF1FEE57F44E8081918190937B1B80939F
:104D90007A1B2093791B80917E1B90917F1B069636
:104DA00090937F1B80937E1B1092961B2091961BE5
:104DB000213011F00C944F418DE190E09093811BD4
:104DC0008093801B2093931B8091A31B90E09D6197
:104DD00090937B1B80937A1B8BE78093791B82E0F7
:104DE0008093961B0C944F418091961B833059F50C
:104DF0000E94CA042091991B322F3F7380917C1B23
:104E000090917D1B932B90937D1B80937C1BE09155
:104E1000971BF0E0EE0FFF1FEE57F44E9183808357
:104E20001092931B90937B1B80937A1B2093791B8A
:104E300080917E1B90917F1B0B9690937F1B80939C
:104E40007E1B1092961BC091961BC230F1F40E94FB
:104E5000CA042091991B822F90E090937D1B809330
:104E60007C1BC093931BE091971BF0E0EE0FFF1F9C
:104E7000EE57F44E8081918190937B1B80937A1B37
:104E80002093791B83E08093961B8091961B813041
:104E900011F00C944F4122E02093931BE091971B5B
:104EA000F0E0EE0FFF1FEE57F44E8081918190935A
:104EB0007B1B80937A1B8091921B8093791B20939C
:104EC000961B0C944F418091961B823001F52091E6
:104ED000A31B2093991B1092931BE091971BF0E06A
:104EE000EE0FFF1FEE57F44E8081918190937B1B54
:104EF00080937A1B2093791B80917E1B90917F1B5E
:104F0000069690937F1B80937E1B1092961B209198
:104F1000961B213011F00C944F418EE190E090935C
:104F2000811B8093801B2093931B8091A31B90E097
:104F30009E6190937B1B80937A1B8DE78093791BF6
:104F400082E08093961B0C944F418091961B833096
:104F500079F50E94CA042091991B322F3F738091EA
:104F60007C1B90917D1B932B90937D1B80937C1BCE
:104F7000E091971BEF5FE770E093971BF0E0EE0F77
:104F8000FF1FEE57F44E918380831092931B9093F2
:104F90007B1B80937A1B2093791B80917E1B9091C1
:104FA0007F1B0B9690937F1B80937E1B1092961B0A
:104FB000C091961BC230F1F40E94CA042091991B43
:104FC000822F90E090937D1B80937C1BC093931B5A
:104FD000E091971BF0E0EE0FFF1FEE57F44E80813B
:104FE000918190937B1B80937A1B2093791B83E0A4
:104FF0008093961B8091961B813011F00C944F4149
:1050000022E02093931BE091971BF0E0EE0FFF1F2F
:10501000EE57F44E8081918190937B1B80937A1B95
:105020008091921B8093791B2093961B0C944F4187
:105030008091961B823001F52091A31B2093991B30
:105040001092931BE091971BF0E0EE0FFF1FEE57BD
:10505000F44E8081918190937B1B80937A1B2093E7
:10506000791B80917E1B90917F1B069690937F1BEE
:1050700080937E1B1092961B2091961B213011F07D
:105080000C944F418FE190E09093811B8093801BA3
:105090002093931B8091A31B90E09F6190937B1BB7
:1050A00080937A1B8FE78093791B82E08093961B15
:1050B0000C944F418091961B813011F00C944F411C
:1050C00010929B1B8091A31B0E94A9048093A31B99
:1050D00080939C1B1092931BE091971BF0E0EE0FC6
:1050E000FF1FEE57F44E8081918190937B1B80933C
:1050F0007A1B80E88093791B80917E1B90917F1BA7
:10510000059690937F1B80937E1B1092961B0C94A8
:105110004F418091961B813011F00C944F411092B9
:105120009B1B8091A21B0E94A9048093A31B8093C8
:105130009C1B1092931BE091971BF0E0EE0FFF1F5A
:10514000EE57F44E8081918190937B1B80937A1B64
:1051500081E88093791B80917E1B90917F1B05963F
:1051600090937F1B80937E1B1092961B0C944F4153
:105170008091961B813011F00C944F4110929B1B33
:105180008091A11B0E94A9048093A31B80939C1B68
:105190001092931BE091971BF0E0EE0FFF1FEE576C
:1051A000F44E8081918190937B1B80937A1B82E8DF
:1051B0008093791B80917E1B90917F1B0596909325
:1051C0007F1B80937E1B1092961B0C944F41809105
:1051D000961B813011F00C944F4110929B1B8091D3
:1051E000A01B0E94A9048093A31B80939C1B109278
:1051F000931BE091971BF0E0EE0FFF1FEE57F44E6C
:105200008081918190937B1B80937A1B83E88093AC
:10521000791B80917E1B90917F1B059690937F1B3D
:1052200080937E1B1092961B0C944F418091961B8D
:10523000813011F00C944F4110929B1B80919F1B69
:105240000E94A9048093A31B80939C1B1092931B24
:10525000E091971BF0E0EE0FFF1FEE57F44E8081B8
:10526000918190937B1B80937A1B84E88093791BB8
:1052700080917E1B90917F1B059690937F1B80935E
:105280007E1B1092961B0C944F418091961B81308F
:1052900011F00C944F4110929B1B80919E1B0E9419
:1052A000A9048093A31B80939C1B1092931BE091F5
:1052B000971BF0E0EE0FFF1FEE57F44E80819181B7
:1052C00090937B1B80937A1B85E88093791B809158
:1052D0007E1B90917F1B059690937F1B80937E1B76
:1052E0001092961B0C944F418091961B813011F0C7
:1052F0000C944F4110929B1B80919D1B0E94A9040E
:105300008093A31B80939C1B1092931BE091971B8F
:10531000F0E0EE0FFF1FEE57F44E808191819093E5
:105320007B1B80937A1B86E88093791B80917E1B80
:1053300090917F1B059690937F1B80937E1B10920C
:10534000961B0C944F418091961B8230A9F5809159
:10535000801B9091811B811528E1920728F4FC01A4
:10536000E858FC4FC08101C0CFEFC093991B109249
:105370009B1B8C2F0E94A9048093A31B80939C1BD2
:105380001092931BE091971BF0E0EE0FFF1FEE577A
:10539000F44E2081318130937B1B20937A1BC09384
:1053A000791B80917E1B90917F1B089690937F1BA9
:1053B00080937E1B1092961B8091961B813011F07A
:1053C0000C944F4180919E1B90E0982F882720914C
:1053D0009D1B822B9093811B8093801B22E0209346
:1053E000931B90937B1B80937A1B87E88093791B98
:1053F0002093961B0C944F418091961B813011F0A5
:105400000C944F418091A31B0E94A9048093A31B7D
:1054100080939C1B1092931BE091971BF0E0EE0F82
:10542000FF1FEE57F44E8081918190937B1B8093F8
:105430007A1B88E88093791B80917E1B90917F1B5B
:10544000059690937F1B80937E1B1092961B0C9465
:105450004F418091961B813011F00C944F41809107
:10546000A21B0E94A9048093A31B80939C1B1092F3
:10547000931BE091971BF0E0EE0FFF1FEE57F44EE9
:105480008081918190937B1B80937A1B89E8809324
:10549000791B80917E1B90917F1B059690937F1BBB
:1054A00080937E1B1092961B0C944F418091961B0B
:1054B000813011F00C944F418091A11B0E94A904EE
:1054C0008093A31B80939C1B1092931BE091971BCE
:1054D000F0E0EE0FFF1FEE57F44E80819181909324
:1054E0007B1B80937A1B8AE88093791B80917E1BBB
:1054F00090917F1B059690937F1B80937E1B10924B
:10550000961B0C944F418091961B813011F00C94A6
:105510004F418091A01B0E94A9048093A31B8093FC
:105520009C1B1092931BE091971BF0E0EE0FFF1F66
:10553000EE57F44E8081918190937B1B80937A1B70
:105540008BE88093791B80917E1B90917F1B059641
:1055500090937F1B80937E1B1092961B0C944F415F
:105560008091961B813011F00C944F4180919F1BCC
:105570000E94A9048093A31B80939C1B1092931BF1
:10558000E091971BF0E0EE0FFF1FEE57F44E808185
:10559000918190937B1B80937A1B8CE88093791B7D
:1055A00080917E1B90917F1B059690937F1B80932B
:1055B0007E1B1092961B0C944F418091961B81305C
:1055C00011F00C944F4180919E1B0E94A90480937E
:1055D000A31B80939C1B1092931BE091971BF0E000
:1055E000EE0FFF1FEE57F44E8081918190937B1B4D
:1055F00080937A1B8DE88093791B80917E1B90911C
:105600007F1B059690937F1B80937E1B1092961BA9
:105610000C944F418091961B813011F00C944F41B6
:1056200080919D1B0E94A9048093A31B80939C1BC7
:105630001092931BE091971BF0E0EE0FFF1FEE57C7
:10564000F44E8081918190937B1B80937A1B8EE82E
:105650008093791B80917E1B90917F1B0596909380
:105660007F1B80937E1B1092961B0C944F41809160
:10567000961B823099F58091801B9091811B81153A
:1056800038E1930728F4FC01E858FC4FC08101C0C1
:10569000CFEFC093991B8C2F0E94A9048093A31B6A
:1056A00080939C1B1092931BE091971BF0E0EE0FF0
:1056B000FF1FEE57F44E2081318130937B1B2093E6
:1056C0007A1BC093791B80917E1B90917F1B08965B
:1056D00090937F1B80937E1B1092961B8091961B4C
:1056E000813011F00C944F4180919E1B90E0982FD7
:1056F000882720919D1B822B9093811B8093801B78
:1057000022E02093931B90937B1B80937A1B8FE85E
:105710008093791B2093961B0C944F418091961B8C
:10572000813011F00C944F4110929B1B8091A31B70
:105730000E94B9048093A31B80939C1B1092931B1F
:10574000E091971BF0E0EE0FFF1FEE57F44E8081C3
:10575000918190937B1B80937A1B80E98093791BC6
:1057600080917E1B90917F1B059690937F1B809369
:105770007E1B1092961B0C944F418091961B81309A
:1057800011F00C944F4110929B1B8091A21B0E9420
:10579000B9048093A31B80939C1B1092931BE091F0
:1057A000971BF0E0EE0FFF1FEE57F44E80819181C2
:1057B00090937B1B80937A1B81E98093791B809166
:1057C0007E1B90917F1B059690937F1B80937E1B81
:1057D0001092961B0C944F418091961B813011F0D2
:1057E0000C944F4110929B1B8091A11B0E94B90405
:1057F0008093A31B80939C1B1092931BE091971B9B
:10580000F0E0EE0FFF1FEE57F44E808191819093F0
:105810007B1B80937A1B82E98093791B80917E1B8E
:1058200090917F1B059690937F1B80937E1B109217
:10583000961B0C944F418091961B813011F00C9473
:105840004F4110929B1B8091A01B0E94B904809332
:10585000A31B80939C1B1092931BE091971BF0E07D
:10586000EE0FFF1FEE57F44E8081918190937B1BCA
:1058700080937A1B83E98093791B80917E1B9091A2
:105880007F1B059690937F1B80937E1B1092961B27
:105890000C944F418091961B813011F00C944F4134
:1058A00010929B1B80919F1B0E94B9048093A31BA5
:1058B00080939C1B1092931BE091971BF0E0EE0FDE
:1058C000FF1FEE57F44E8081918190937B1B809354
:1058D0007A1B84E98093791B80917E1B90917F1BBA
:1058E000059690937F1B80937E1B1092961B0C94C1
:1058F0004F418091961B813011F00C944F411092D2
:105900009B1B80919E1B0E94B9048093A31B8093D4
:105910009C1B1092931BE091971BF0E0EE0FFF1F72
:10592000EE57F44E8081918190937B1B80937A1B7C
:1059300085E98093791B80917E1B90917F1B059652
:1059400090937F1B80937E1B1092961B0C944F416B
:105950008091961B813011F00C944F4110929B1B4B
:1059600080919D1B0E94B9048093A31B80939C1B74
:105970001092931BE091971BF0E0EE0FFF1FEE5784
:10598000F44E8081918190937B1B80937A1B86E9F2
:105990008093791B80917E1B90917F1B059690933D
:1059A0007F1B80937E1B1092961B0C944F4180911D
:1059B000961B8230A9F58091801B9091811B8115E7
:1059C00028E1920728F4FC01E858FC4FC08101C08F
:1059D000CFEFC093991B10929B1B8C2F0E94B90490
:1059E0008093A31B80939C1B1092931BE091971BA9
:1059F000F0E0EE0FFF1FEE57F44E2081318130931F
:105A00007B1B20937A1BC093791B80917E1B909106
:105A10007F1B089690937F1B80937E1B1092961B92
:105A20008091961B813011F00C944F4180919E1B08
:105A300090E0982F882720919D1B822B9093811BAB
:105A40008093801B22E02093931B90937B1B809379
:105A50007A1B87E98093791B2093961B0C944F4106
:105A60008091961B813011F00C944F418091A31BC3
:105A70000E94B9048093A31B80939C1B1092931BDC
:105A8000E091971BF0E0EE0FFF1FEE57F44E808180
:105A9000918190937B1B80937A1B88E98093791B7B
:105AA00080917E1B90917F1B059690937F1B809326
:105AB0007E1B1092961B0C944F418091961B813057
:105AC00011F00C944F418091A21B0E94B904809365
:105AD000A31B80939C1B1092931BE091971BF0E0FB
