:1000000015C1000041C100003FC100003DC100001A
:100010003BC1000039C1000037C1000035C10000FC
:1000200033C1000031C100002FC100002DC100000C
:100030002BC1000029C1000027C1000025C100001C
:1000400023C1000021C100001FC100001DC100002C
:100050001BC1000019C1000017C10000EDC2000063
:1000600013C1000011C100000FC100000DC100004C
:100070000BC1000009C1000007C1000005C100005C
:1000800003C1000001C10000FFC00000FDC000006E
:10009000FBC00000F9C00000F7C0000047C7000027
:1000A000F3C00000F1C00000EFC00000EDC0000090
:1000B000EBC00000E9C00000E7C00000E5C00000A0
:1000C000E3C00000E1C00000DFC00000DDC00000B0
:1000D000DBC00000D9C00000D7C00000D5C00000C0
:1000E000D3C0000033043604250429042F046D0412
:1000F0003A043E04440448044C04520456045A048E
:100100006D0460046404680400000A0B02090C0D0D
:100110000E080703040100000000000000000000BA
:1001200000000000000000000000000000000000CF
:10013000000000001211100000000000000000008C
:1001400000000000000000000000000000000102AC
:1001500010202008081020401020408002010201D9
:100160000804020101020408102040808040201091
:1001700008040201800402018040201008040201EA
:100180000804020101020408102040800102040852
:10019000102040800505050507050808080802022B
:1001A00002020A0A08080404040401010101010111
:1001B00001010303030303030303040707070C0CF4
:1001C0000C0C0C0C0C0C02020202060606060606BB
:1001D00006060B0B0B0B0B0B0B0B00002000230078
:1001E000260029002C002F0032000001000003012E
:1001F0000601090100002200250028002B002E0026
:100200003100340002010000050108010B0100006B
:100210002100240027002A002D00300033000101B6
:100220000000040107010A01B702FB0611241FBEEA
:10023000CFEFD1E2DEBFCDBF00E00CBF12E0A0E007
:10024000B2E0E0EAF1E100E00BBF02C007900D92DE
:10025000A833B107D9F723E0A8E3B2E001C01D92AB
:10026000AE30B207E1F712E0CCE2D2E000E005C028
:1002700022970109FE010BBF8DD7C832D10780E05C
:100280000807B1F7CED18AC7BBCECF93C42F843134
:1002900038F4643028F4462F682F88E392E02ED497
:1002A0006C2F88E392E0CF91B4C1FF920F931F931C
:1002B000CF93DF93D62F142F9FEF920FC1E001C091
:1002C000CC0F9A95EAF7022F080F801771F09C2F38
:1002D000912311F041E001C042E0FF24F394F80EB5
:1002E0006D2FD3DFC6958F2DF0CFDF91CF911F916A
:1002F0000F91FF900895823541F0833521F08934C4
:1003000049F48CE003C08BE001C08AE055D321E0C2
:10031000892B09F020E0822F0895EF92FF920F932E
:100320001F93CF93DF931092440208E112E0C0E0E4
:10033000D0E080E8E82EF12CF80181918F013CD3C8
:10034000892B61F420914402C7010C2E02C09595BF
:1003500087950A94E2F7282B209344022196C8300F
:10036000D10551F780914402DF91CF911F910F91F8
:10037000FF90EF900895DF92EF92FF920F931F93FB
:10038000CF93DF93EC01162FF42ED22E4D2F4695EE
:100390004695469523E061E082E087DF23E04D2F1C
:1003A00061E086E082DFAE0196E0569547959A952A
:1003B000E1F722E061E08AE078DFAE0123E05695C4
:1003C00047952A95E1F723E061E08DE06EDF23E0B9
:1003D0004C2F61E081E169DFC12FD0E0AE0136E052
:1003E000559547953A95E1F722E062E08AE05DDFB6
:1003F000AE0163E0559547956A95E1F723E062E029
:100400008DE053DF23E0412F62E081E14EDF21E008
:100410004E2D62E080E049DF21E04D2D62E082E078
:1004200044DF22E04F2D62E083E03FDF21E0402FF8
:1004300062E086E03ADF4091440242954695469557
:100440004370406360E080E020DF4091440250E070
:1004500073E0559547957A95E1F74770406360E002
:1004600081E013DF409144024770406360E082E026
:10047000DF91CF911F910F91FF90EF90DF9005CF0B
:10048000CF93DF93C8E1D2E062E0899127D282E086
:10049000C032D807C9F762E08BE020D262E08CE07E
:1004A0001DD262E08AE01AD288E392E0E7D388E3C3
:1004B00092E0D2D248E052E061E088E392E051D38A
:1004C00040E052E062E088E392E04BD340E260E03B
:1004D00080E0DBDECFE460E288E392E09AD0C150B6
:1004E000D1F740E560E084E0D0DE61E688E392E0A9
:1004F00090D067E688E392E08CD065E688E392E0EE
:1005000088D042E563E080E0C0DE49E463E082E059
:10051000BCDE63E588E392E07CD064E788E392E0A8
:1005200078D048E463E086E0B0DE41E460E08DE04E
:10053000ACDE64E688E392E06CD064E688E392E0A7
:1005400068D062E788E392E064D044E463E08DE041
:100550009CDE61E688E392E05CD064E788E392E0A9
:1005600058D061E688E392E0DF91CF9152C024E059
:1005700044E16FE388E392E048C282CFEF920F93A9
:10058000CF93DF9389E4B7DE811103C0C0E5DEE3DA
:1005900002C0C4E5DEE383E5AEDE8111C26082E520
:1005A000AADE8111C160B9DEEE24E39401E021E00E
:1005B00042E065EACE01DFDEDF91CF910F91EF904F
:1005C0000895CF92DF92EF92FF920F931F93CF93F4
:1005D000DF936C017A01EB01E60EF71E00E010E0FC
:1005E000CE15DF0561F06991D601ED91FC91019086
:1005F000F081E02DC6011995080F191FF1CFC80130
:10060000DF91CF911F910F91FF90EF90DF90CF90EE
:100610000895DC01ED91FC910190F081E02D199499
:100620000895A7D0FDDFA9DFC0E0D0E0A7DF2097C5
:10063000E9F30E940000FACF1F920F920FB60F92BB
:1006400011242F933F938F939F93AF93BF938091E8
:10065000460290914702A0914802B0914902309120
:10066000450223E0230F2D3720F40196A11DB11D73
:1006700005C026E8230F0296A11DB11D2093450257
:100680008093460290934702A0934802B093490298
:1006900080914A0290914B02A0914C02B0914D0280
:1006A0000196A11DB11D80934A0290934B02A09325
:1006B0004C02B0934D02BF91AF919F918F913F91AA
:1006C0002F910F900FBE0F901F9018953FB7F89481
:1006D00080914A0290914B02A0914C02B0914D0240
:1006E00026B5A89B05C02F3F19F00196A11DB11D8D
:1006F0003FBF6627782F892F9A2F620F711D811DAA
:10070000911D42E0660F771F881F991F4A95D1F708
:100710000895CF92DF92EF92FF92CF93DF936B0118
:100720007C01D4DFEB01C114D104E104F10479F0C0
:100730006BD1CCDF6C1B7D0B683E7340A0F381E076
:10074000C81AD108E108F108C851DC4FECCFDF919D
:10075000CF91FF90EF90DF90CF9008950197009791
:1007600039F0880F991F880F991F02970197F1F7A9
:100770000895789484B5826084BD84B5816084BD19
:1007800085B5826085BD85B5816085BDEEE6F0E00A
:10079000808181608083E1E8F0E010828081826066
:1007A0008083808181608083E0E8F0E080818160E7
:1007B0008083E1EBF0E0808184608083E0EBF0E017
:1007C000808181608083E1E9F0E0808182608083C4
:1007D000808181608083E0E9F0E0808181608083B6
:1007E000E1EAF0E0808182608083808181608083A3
:1007F000E0EAF0E0808181608083E1E2F1E08081E5
:1008000082608083808181608083E0E2F1E080818A
:1008100081608083EAE7F0E080818460808380816A
:100820008260808380818160808380818068808312
:100830001092C100089590E0FC013197E231F1057A
:1008400008F04BC0EE58FF4F9FC4809180008F7717
:1008500003C0809180008F7D8093800008958091F7
:100860008000877FF9CF84B58F7702C084B58F7DF4
:1008700084BD08958091B0008F7703C08091B0004F
:100880008F7D8093B0000895809190008F7707C08E
:10089000809190008F7D03C080919000877F80932E
:1008A000900008958091A0008F7707C08091A000EC
:1008B0008F7D03C08091A000877F8093A000089562
:1008C000809120018F7707C0809120018F7D03C028
:1008D00080912001877F809320010895CF93DF933B
:1008E00090E0FC01E25BFE4F2491FC01EC56FE4FD0
:1008F0008491882349F190E0880F991FFC01E25F01
:10090000FD4FA591B4918C509E4FFC01C591D4919F
:100910009FB7611108C0F8948C91209582238C9325
:10092000888182230AC0623051F4F8948C91322F6E
:10093000309583238C938881822B888304C0F8941C
:100940008C91822B8C939FBFDF91CF9108950F9351
:100950001F93CF93DF931F92CDB7DEB7282F30E0E0
:10096000F901E85FFE4F8491F901E25BFE4F1491BB
:10097000F901EC56FE4F04910023C1F0882319F0D1
:10098000698359DF6981E02FF0E0EE0FFF1FEC5023
:10099000FE4FA591B4919FB7F8948C91611103C05B
:1009A0001095812301C0812B8C939FBF0F90DF9105
:1009B000CF911F910F910895CF93DF93282F30E0AF
:1009C000F901E85FFE4F8491F901E25BFE4FD4919B
:1009D000F901EC56FE4FC491CC2389F081112BDF35
:1009E000EC2FF0E0EE0FFF1FE652FE4FA591B49101
:1009F0002C912D2381E090E021F480E002C080E082
:100A000090E0DF91CF9108950895FC011382128246
:100A100084E292E0918380836483418722871386F6
:100A200008951F93CF93DF93EC01162F6C818EE412
:100A300092E0C3D1E0914E02F0914F026B85612BA1
:100A40000190F081E02D8EE492E019958EE492E021
:100A5000DF91CF911F91CDC128E0FC01238760E099
:100A6000E0CF1F93CF93DF93EC01162F6460D9DFA3
:100A700081E090E073DE612F6B7FCE01D2DF82E3F5
:100A800090E0DF91CF911F9169CE1F93CF93DF93B9
:100A9000EC01162FC6DF612FCE01DF91CF911F91A0
:100AA000E0CFEF92FF921F93CF93DF931F92CDB7CA
:100AB000DEB77C01162F607F642B4983E6DF80E17F
:100AC000189FB00111244981642BC7010F90DF9159
:100AD000CF911F91FF90EF90D8CF41E0E2DF80E00F
:100AE00090E0089540E0DDCF61E0FCDF80ED97E02D
:100AF00035CE62E0F7DF80ED97E030CECF93DF9325
:100B0000CDB7DEB728970FB6F894DEBF0FBECDBFC6
:100B100028E0E0E1F2E0DE01119601900D922A95C5
:100B2000E1F7FC012085241710F44FEF420FFE017E
:100B30003196E40FF11DE40FF11D2081260F20688E
:100B4000622F28960FB6F894DEBF0FBECDBFDF919F
:100B5000CF91C8CFFC016681262F246026836C606C
:100B6000C1CFCF92DF92EF92FF920F931F93CF935B
:100B7000DF931F921F92CDB7DEB78C01677088E0BC
:100B8000689FB00111246064C80149835A83AADFB9
:100B90004981C42E5A81D52EE12CF12CD6016D91BC
:100BA0006D01D801ED91FC910190F081E02DC8011B
:100BB0001995BFEFEB1AFB0AE8E0EE16F10471F7A6
:100BC0000F900F90DF91CF911F910F91FF90EF90B9
:100BD000DF90CF900895CF93DF93EC01423018F06F
:100BE0008D8188608D834887222329F0413019F454
:100BF0008D8184608D8362E370E080E090E089DD28
:100C00006B85CE010EDF68EE73E080E090E081DD61
:100C100060E3CE013ADF84E991E1A0DD60E3CE013B
:100C200034DF84E991E19ADD60E3CE012EDF86E9CD
:100C300090E094DD60E2CE0128DF6D816062CE013C
:100C400051DF84E08E83CE0185DFCE014DDF82E06F
:100C50008F8366E0CE0146DFCE01DF91CF9149CF91
:100C6000CF93DF93EC018EE492E09ED01D8220E0D2
:100C70004A856985CE01DF91CF91ADCFF1CF8091CB
:100C80007E0290E020917F02821B910908952091BD
:100C90007F0280917E02281750F4E22FF0E0E058A6
:100CA000FD4F808190E02F5F20937F0208958FEFAA
:100CB0009FEF0895E0917F0280917E02E81730F463
:100CC000F0E0E058FD4F808190E008958FEF9FEFB6
:100CD00008950895CF92DF92EF92FF920F931F93A2
:100CE000CF93DF937C01CB018A0120915A0222230A
:100CF00089F0EB016B01C40ED51ECC15DD0561F04A
:100D00006991D701ED91FC910190F081E02DC7012F
:100D10001995F3CF642FE1D0C801DF91CF911F91D6
:100D20000F91FF90EF90DF90CF900895CF93DF93D6
:100D30001F92CDB7DEB7698320915A022223D1F0EA
:100D400020915B02203240F021E030E0FC0133834F
:100D5000228380E090E014C080915C02E82FF0E0F4
:100D6000E35AFD4F998190838F5F80935C0280935B
:100D70005B0204C061E0CE010196AFD081E090E05B
:100D80000F90DF91CF910895FC011382128248EEFB
:100D900053E060E070E044835583668377838CE2A0
:100DA00092E091838083089510927F0210927E02D8
:100DB00010925C0210925B0221C081E080935A0283
:100DC00060937D0210925C0210925B0208950F9373
:100DD000062F21E040915B026DE572E080917D027B
:100DE00029D010925C0210925B0210925A020F916D
:100DF000089561E0ECCF8EE492E0C6CF10920D032F
:100E000081E080930B0310920A0361E084E19FDD8F
:100E100061E085E19CDDE9EBF0E080818E7F8083FD
:100E200080818D7F808388E48093B80085E48093FF
:100E3000BC0008950F93413208F046C090910D0315
:100E40009111FCCF92E090930D0300930B039FEF61
:100E50009093A0021092E5024093E402FB0166EE3B
:100E600072E0DB019A2F961B941718F491919D93D1
:100E7000F9CF10920C0390910C03880F892B80936B
:100E80000C0380910A03813041F410920A0380918F
:100E90000C038093BB0085EC01C085EE8093BC0001
:100EA000222321F080910D038230E1F38091A00292
:100EB0008F3F61F08091A002803251F08091A002BA
:100EC000803341F483E007C081E005C080E003C0C7
:100ED00082E001C084E00F910895613298F420917E
:100EE0000D03243089F46093C202FC0184EC92E08B
:100EF000DC012A2F281B261718F421912D93F9CFF6
:100F000080E0089581E0089582E0089585ED809362
:100F1000BC008091BC0084FDFCCF10920D030895AD
:100F200085EC8093BC0010920D0308951F920F92E0
:100F30000FB60F9211240BB60F922F933F934F933E
:100F40005F936F937F938F939F93AF93BF93EF9331
:100F5000FF938091B900887F803609F49CC068F5C2
:100F6000883209F45BC090F4803109F454C038F43D
:100F7000882309F4F3C0883009F44DC0F2C08831E9
:100F800009F44CC0803209F45DC0EBC0803409F430
:100F900068C048F4803309F455C0883309F0E1C0D3
:100FA0008093A002A7C0803509F44FC0883509F4AA
:100FB0005DC0883409F0D5C0D3C0883909F4C4C0F5
:100FC000A8F4883709F467C038F4883609F463C098
:100FD000803709F460C0C5C0883809F4B5C08039CD
:100FE00009F45FC0803809F0BCC05BC0803B09F4E5
:100FF00083C038F4803A09F466C0883A09F47CC0AA
:10100000B0C0803C09F4A4C0883C09F4A1C0883B6E
:1010100009F487C0A6C080910C0310C09091E5022E
:101020008091E402981770F5E091E50281E08E0F5F
:101030008093E502F0E0EA51FD4F80818093BB0090
:1010400085EC83C08093A0028BC0E091E50281E033
:101050008E0F8093E5028091BB00F0E0EA51FD4FD6
:1010600080839091E5028091E4026BC0E091E502FB
:1010700081E08E0F8093E5028091BB00F0E0EA51A1
:10108000FD4F808380910B0381116AC081E08093C2
:101090000A0384EA5EC083E080930D031092A102EC
:1010A000CFCF8091A102803208F04EC0E091A10222
:1010B00081E08E0F8093A1028091BB00F0E0EE559D
:1010C000FD4F8083BDCF8091A102803230F4E0914A
:1010D000A102F0E0EE55FD4F108218DF6091A102F1
:1010E00070E0E0910603F091070382EA92E019951F
:1010F0001092A10215DF35C084E080930D03109299
:10110000C3021092C202E0910803F09109031995FD
:101110008091C202811105C081E08093C2021092C9
:10112000C402E091C30281E08E0F8093C302F0E01D
:10113000EC53FD4F80818093BB009091C30280915E
:10114000C202981708F47CCF85E88093BC0009C0E0
:1011500085EC8093BC0010920D0303C01092A00296
:10116000D5DEFF91EF91BF91AF919F918F917F91CC
:101170006F915F914F913F912F910F900BBE0F9008
:101180000FBE0F901F901895EE0FFF1F0590F49162
:10119000E02D19940790F691E02D1994F894FFCF63
:1011A0000E11111111110E000E1F1F1F1F1F0E0017
:1011B000000040001400540009080706050403025B
:1011C000000000006D05E1020000000096066A06BE
:0811D0003F0647065A066906B6
:00000001FF
